:1000000000000320D1010000D14C0000894C000009
:10001000894C0000894C0000894C0000894C00008C
:10002000894C0000894C0000894C0000D14C000034
:10003000D14C0000894C00005D630000616300004A
:10004000D14C0000D14C0000D14C0000D14C00003C
:10005000D14C0000D14C0000D14C0000D14C00002C
:10006000D14C0000D14C0000D14C0000D14C00001C
:10007000D14C0000D14C0000D14C0000D14C00000C
:10008000D14C0000D14C0000D14C0000D14C0000FC
:10009000D14C0000D14C0000D14C0000D14C0000EC
:1000A000BD4A0000C94A0000D14C0000D14C0000FC
:1000B000D14C0000D14C0000D14C0000D14C0000CC
:1000C000D14C0000D14C0000D14C0000D14C0000BC
:1000D000D14C0000D14C0000D14C0000D14C0000AC
:1000E000D14C0000D14C0000D14C0000D14C00009C
:1000F000D14C0000D14C0000D14C0000D14C00008C
:10010000D14C0000D14C0000D14C0000D14C00007B
:10011000D14C000081560000D14C0000D14C0000B1
:10012000D14C0000D14C0000D14C0000D14C00005B
:10013000D14C0000D14C0000D14C0000D14C00004B
:10014000D14C0000D14C0000D14C0000D14C00003B
:10015000D14C0000D14C0000D14C0000D14C00002B
:10016000D14C0000D14C0000D54A0000D14C000019
:10017000D14C0000D14C0000D14C0000D14C00000B
:10018000D14C0000D14C0000D14C0000D14C0000FB
:10019000D14C0000D14C0000D14C0000D14C0000EB
:1001A000D14C0000D14C0000D14C0000D14C0000DB
:1001B000D14C0000D14C0000D14C0000D14C0000CB
:1001C000D14C0000D14C0000D14C0000D14C0000BB
:1001D0005C4B4CF2205210B51A804DF628121A8052
:1001E00000BF00BF04F078FD574B4FF030621A603B
:1001F000564A9A60564ADA60564B4FF470021A60BB
:10020000554B564A1A60564B1A78110703D51A787F
:1002100042F008021A70534B5349AA221A70534AEB
:10022000534B8B4204D252F8040F43F8040BF8E707
:10023000504B514900228B4202D243F8042BFAE77B
:100240004E494F4A002352F8230041F8230001335E
:10025000742BF8D14B4B4C4A802103F8011B93427D
:10026000FBD14A4B454A1A60494B8A221A70A3F5C2
:10027000805324225A70A0221A709A799207FCD5D2
:100280009A79D406FCD4434A937903F00C03082BE3
:10029000FAD1414B60221A7002331A78802AFCD1BD
:1002A0003C4B01221A715D225A719A799006FCD555
:1002B0009979384A4906FBD5384B394919600021EC
:1002C000596020231370937903F00C030C2BFAD19F
:1002D000344B354A1A60354A354C136813F4807331
:1002E00003D123604FF4A8531360324B324A1A6093
:1002F00000225A60072243F8042C304AC3F80C2D20
:1003000062B605F04FF82368DA0705D52C4804F0EB
:1003100015FE2C4B2C4A1A602C4B1B785B0609D51A
:10032000284C294B22689A4204D1254804F006FE45
:100330000023236006F07AFE04F0D4FC06F02CF8CB
:10034000FEE700BF0E20054030800440823F0400DD
:100350000100002B88ED00E0002008E0030000858C
:1003600002D0074000E007400C14FF1F3C8600004D
:100370003007FF1F1014FF1FE82BFF1F0002FF1F95
:100380000000000000E400E064E400E008ED00E0AC
:10039000005006400040064001E007404480044011
:1003A0000000060204800440C010070010D0034083
:1003B00014D0034014E000E01FBF02000000202022
:1003C000082179611CE00340A5C3945A00F007405E
:1003D000FFFFFFFFFFFFFFFFFFFFFFFFFFFFFFFF2D
:1003E000FFFFFFFFFFFFFFFFFFFFFFFFFFFFFFFF1D
:1003F000FFFFFFFFFFFFFFFFFFFFFFFFFFFFFFFF0D
:10040000FFFFFFFFFFFFFFFFFFFFFFFFDEF9FFFF23
:1004100010B5054C237833B9044B13B10448AFF33E
:1004200000800123237010BD1014FF1F0000000086
:1004300040860000084B10B51BB108490848AFF3CF
:1004400000800848036803B910BD074B002BFBD0A0
:10045000BDE81040184700BF000000001414FF1F43
:10046000408600000C14FF1F0000000043680B7062
:1004700043681B0A4B70C3888B70C379CB70836849
:100480000B7183681B0A4B7143898B71C37ACB71E3
:10049000082070470B7843604A7843EA02234360A0
:1004A0008A7843EA02434360CA7843EA02634360BE
:1004B0000B7983604A7943EA022383608A7943EAAD
:1004C00002438360CA7943EA02638360082070476D
:1004D00000487047B880000000487047C88000009E
:1004E000F0B50C460A788280064614F8010F002306
:1004F00042EA0022B2801A4614F8010F98400833ED
:10050000202B42EA0002F7D1971D062F58D901F19E
:10051000050E551D73464C1913F8010F03F8010C15
:10052000A342F9D100234B5518460D44C6F808E004
:1005300015F8014F84400830202843EA0403F7D11E
:10054000381D0344834209D909320A440446013460
:1005500012F8015F02F8015CA342F8D80138CF1805
:100560000024084407F8014C2246F06017F8015BAC
:1005700095400832202A44EA0504F7D1181D0444A6
:10058000A04209D203330B440246013213F8015F43
:1005900003F8015CA242F8D30D1901380844002386
:1005A00005F8013C3061A8786B780A5DED780104AC
:1005B00041EA0323134343EA0563201D7361F0BD41
:1005C000551D01F1050EADE700487047EC800000B5
:1005D00000487047088100000B78F0B403710023D5
:1005E00006460C461D4614F8012F9A400833202B6E
:1005F00045EA0205F7D1681D052801F1040708D96D
:100600002C1D3B460C4413F8012F03F8012C9C428F
:10061000F9D10D4400232B71B760F0BC704700BFC7
:10062000004870472C81000000487047408100005E
:1006300000487047FC820000004870476481000059
:10064000B0F904300B70C3F307224A7002207047E0
:100650004A780B7843EA022383800220704700BF68
:10066000004870478881000000487047988100006A
:1006700043680B7010B4180C1C0A1A0E4C7088706A
:10068000CA7004205DF8044B704700BF10B44C786A
:100690000A788B78C97842EA042242EA034343EAA3
:1006A000016343605DF8044B0420704700487047C5
:1006B000BC81000000487047D081000000487047AE
:1006C000F48100000048704708820000004870472D
:1006D0002C820000004870474482000010B40B7860
:1006E0004C78426943EA042303825DF8044B0C30E2
:1006F000104700BF8069704700487047888100003C
:100700000048704798810000006A704700487047B1
:100710002C820000004870474482000090F8F804E2
:10072000704700BFFFFFFFFF2DE9F04F2DED048B59
:1007300085B0B14EDFF8ECA2B04D04F0BDFD06F07F
:100740000FF9ABA3D3E9002306F0AAFAD6E90023F8
:1007500005F0C8FFCAE9000104F0AEFD06F000F99B
:10076000A3A3D3E9002306F09BFAA54B1C68C6E9B6
:100770000001204606F004F9D5E9006732463B4601
:10078000CDE9000106F0F2FB00286DD1604206F0D1
:10079000F7F89C4C9C4B94ED008AD3ED008A804680
:1007A0008946DDE9000132463B4606F0B7FB20B141
:1007B000964B1B68012B00F0A58032463B46404615
:1007C000494606F0ABFB18B3904B1B6803BB904B3C
:1007D00009CB002603F100410027DAE90023C5E92F
:1007E000006706F05DFA06F0CBFB07EE900A27EEF5
:1007F000A87A6168874884ED018ABDEEC78AA2683D
:10080000E368C0ED007A84ED008AA160E2602361B4
:10081000B8EEC88AD4ED016A94ED027AD4ED035A99
:100820009FED7D5A7D4BC8EE287AF8EEE66AB8EE69
:10083000C77A86EEA86AF8EEE55AC7EE286A85EE12
:10084000A87A77EE857A76EE277AB5EE006A76EEAC
:10085000A77A77EE277A67EE867AC3ED007A05B03D
:10086000BDEC048BBDE8F08F604206F089F880464D
:10087000894602460B463046394606F077FB00288B
:1008800039D0624B1B68012B6ED0002B40F0A88042
:10089000304639460022624B5A4C05F023FF5C4B30
:1008A000064609CB0F4603F10041DAE90023C5E90A
:1008B000006706F0F5F906F063FB534B554AD3ED9C
:1008C000008A23686168106008EE100A28EE288A02
:1008D000A2686360BDEEC88AE368A160E26023613C
:1008E00084ED008A32463B464046494606F016FBF8
:1008F00000288DD068E7444B424CD3ED008A94ED3C
:10090000008A4EE7424BDFF80CB1D3E90001DAE987
:10091000002306F0C5F906F033FB09EE100AE26881
:10092000009268EE897AA268029218EE103A626824
:100930000392BDEEE78A009A2261029AE2600026E5
:100940000027039AA260636084ED008A32463B462A
:1009500040464946C5E900678BED009A06F0DEFA8D
:1009600000283FF455AF2FE73046394600222C4B84
:10097000244CDFF8A0B005F0B7FE254B06460F4625
:10098000D3E90001DAE90023C5E9006706F088F938
:1009900006F0F6FA1C4B2268D3ED008A61680392D8
:1009A00009EE100A29EE288AE36802913246BDEE6C
:1009B000C88A039E236166603B46029EA76884ED59
:1009C000008ADDE90001A660E76000978BED009AE0
:1009D00006F0A4FA00283FF41BAF18EE103AAAE77D
:1009E000094B084CD3ED008A94ED008AE5E600BF80
:1009F0000000000080842E41B81CFF1FA81CFF1FB0
:100A00000C08FF1F0022FF1F1008FF1FFC21FF1F03
:100A1000002AFF1FB41CFF1F000000004014FF1F2E
:100A20000000F03F3814FF1F2DE9F04F2DED048B2F
:100A300085B0B14EDFF8ECA2B04D04F03DFC05F0FE
:100A40008FFFABA3D3E9002306F02AF9D6E90023F0
:100A500005F048FECAE9000104F02EFC05F080FF15
:100A6000A3A3D3E9002306F01BF9A54B1C68C6E934
:100A70000001204605F084FFD5E9006732463B4679
:100A8000CDE9000106F072FA00286DD1604205F050
:100A900077FF9C4C9C4B94ED008AD3ED008A8046F6
:100AA0008946DDE9000132463B4606F037FA20B1BF
:100AB000964B1B68012B00F0A58032463B46404612
:100AC000494606F02BFA18B3904B1B6803BB904BBA
:100AD00009CB002603F100410027DAE90023C5E92C
:100AE000006706F0DDF806F04BFA07EE900A27EEF5
:100AF000A87A6168874884ED018ABDEEC78AA2683A
:100B0000E368C0ED007A84ED008AA160E2602361B1
:100B1000B8EEC88AD4ED016A94ED027AD4ED035A96
:100B20009FED7D5A7D4BC8EE287AF8EEE66AB8EE66
:100B3000C77A86EEA86AF8EEE55AC7EE286A85EE0F
:100B4000A87A77EE857A76EE277AB5EE006A76EEA9
:100B5000A77A77EE277A67EE867AC3ED007A05B03A
:100B6000BDEC048BBDE8F08F604205F009FF8046C4
:100B7000894602460B463046394606F0F7F900280A
:100B800039D0624B1B68012B6ED0002B40F0A8803F
:100B9000304639460022624B5A4C05F0A3FD5C4BAF
:100BA000064609CB0F4603F10041DAE90023C5E907
:100BB000006706F075F806F0E3F9534B554AD3ED9C
:100BC000008A23686168106008EE100A28EE288AFF
:100BD000A2686360BDEEC88AE368A160E260236139
:100BE00084ED008A32463B464046494606F096F977
:100BF00000288DD068E7444B424CD3ED008A94ED39
:100C0000008A4EE7424BDFF80CB1D3E90001DAE984
:100C1000002306F045F806F0B3F909EE100AE26881
:100C2000009268EE897AA268029218EE103A626821
:100C30000392BDEEE78A009A2261029AE2600026E2
:100C40000027039AA260636084ED008A32463B4627
:100C500040464946C5E900678BED009A06F05EF90B
:100C600000283FF455AF2FE73046394600222C4B81
:100C7000244CDFF8A0B005F037FD254B06460F46A3
:100C8000D3E90001DAE90023C5E9006706F008F8B6
:100C900006F076F91C4B2268D3ED008A6168039256
:100CA00009EE100A29EE288AE36802913246BDEE69
:100CB000C88A039E236166603B46029EA76884ED56
:100CC000008ADDE90001A660E76000978BED009ADD
:100CD00006F024F900283FF41BAF18EE103AAAE7FB
:100CE000094B084CD3ED008A94ED008AE5E600BF7D
:100CF0000000000080842E41D829FF1F4814FF1FE8
:100D00000C08FF1F6814FF1F1008FF1FC41CFF1FE3
:100D1000002AFF1F642AFF1F00000000641CFF1F41
:100D20000000F03F082AFF1FD0ED016ADFED197ABD
:100D3000D0ED025A184BDFED194A9FED195A1949A7
:100D4000194A26EEA76A70B5C3ED006A65EEA76A78
:100D5000C6EE247A154C164DC6682E60262086EE07
:100D6000A47A77EE857A37EE057AFDEEE77ABDEE66
:100D7000C77AC1ED005A17EE901A84ED007AC2EDE1
:100D8000007A04F0EDF821681D20BDE8704004F001
:100D9000E7B800BF00007F43C01CFF1F0000C8422F
:100DA00000000000B01CFF1F2C14FF1F1C2AFF1F97
:100DB000781CFF1F43682DE9F0470B7043681B0A3E
:100DC0004B70C3888B70C379CB704368002B00F0E5
:100DD00085800A4600250426C36853F82530137120
:100DE0001C0C1F0A1B0E94715771D3714368013597
:100DF000AB42344602F1040206F10406ECD804F1D9
:100E0000080204F1050A04F1060904F1070804F1D7
:100E1000090C04F10A0E04F10B0517460C340369A2
:100E20008B5503691B0A01F80A30438A01F809301F
:100E3000C37C01F808300369F3B101EB070E754676
:100E40000022836953F822300EF822301C0C1E0A4F
:100E50001B0EAC706E70EB700369013293423C461E
:100E600005F1040507F10407EBD804F1050C04F1C2
:100E7000060EE51D3A460834C3698B54C3691B0A44
:100E800001F80C30C38B01F80E30C37F4B55C3699A
:100E90000BB30F4680460026D8F8243053F82600BE
:100EA00006F06EFEB10005463A19002325FA03F05C
:100EB0000833202B02F8010BF8D1D8F82430043481
:100EC000381959582A4603F00BFED8F81C30013661
:100ED000B3422C44E0D82046BDE8F08708221746EC
:100EE0000C240B254FF00A0E4FF0090C4FF00708A9
:100EF0004FF006094FF0050A042690E770B5037914
:100F00000B70064680680D4606F03AFE2A460446F7
:100F1000002324FA03F10833202B02F8011FF8D133
:100F2000B168681D224603F0DBFD601D70BD00BF87
:100F3000F8B583880B7083881B0A4B70064680685F
:100F40000D4606F01DFE030E010A020C6B71A8701F
:100F50002A71E97002460446B168A81D03F0C0FD7D
:100F6000F06806F00DFE611D024629440634002398
:100F700022FA03F00833202B01F8010FF8D10434D2
:100F80002819F168144403F0ABFD306906F0F8FD50
:100F90002A190746002327FA03F10833202B02F809
:100FA000011BF8D1043428193A46316903F098FD41
:100FB000381973692B540544190A1A0C1B0E6970F1
:100FC000AA70EB700430F8BD0846114605F0A0B8D1
:100FD00005F038B82DE9F04F0A784B788C78054643
:100FE00042EA0323C8780E4643EA0443696843EAA9
:100FF00000648C4283B000F2BA806C60002C00F078
:10100000BF8005F10809344600274FF00408A17994
:101010006379227994F807E0E868090441EA032338
:10102000134343EA0E63AB6000EB8700042249469A
:1010300003F056FD6B680137BB42424604F10404DD
:1010400008F10408E3D802F108074146B94602F165
:10105000050E901DD31D02F1090B02F10A0802F1E1
:101060000B0A02F10C04305C16F80E20715C16F8C5
:1010700003E02B69000440EA02220A4342EA0E62BE
:101080009A4200F292802A614AB305F1140A06EBF3
:1010900009074FF00008B9787B783A78FC78A8699E
:1010A000090441EA0323134343EA04636B6100EB41
:1010B00088000422514603F013FD2B6908F1010852
:1010C00043454C4607F1040709F10409E3D804F14C
:1010D000050B04F1060804F1070A4F46083416F818
:1010E000082016F80B00F35D16F80A70E96912047F
:1010F00042EA0022134343EA07678F424FD8EF6169
:101100008FB34FF00009C84605F1200700239E4623
:10111000311911F8012B9A400833202B4EEA020EA8
:10112000F7D1201D8644704509D2E31C33440246A2
:10113000013213F8011F03F8011C7245F8D306EBC6
:101140000E02431E02F8018C686A33442B6200EBE6
:10115000890004223946744603F0C2FCEB6909F1A8
:1011600001094B45D2D8204603B0BDE8F08FA1005D
:10117000E86806F0F9FA6C60E860002C7FF441AF93
:101180000827B9460C244FF00B0A4FF00A084FF01D
:10119000090B072306204FF0050E042163E7B90071
:1011A000686A06F0E1FA6862A9E79100A86901920D
:1011B00006F0DAFA019AA86165E700BFD0ED017A7E
:1011C00017EE903AC3F3C752FF2A70B4C3F3160365
:1011D0003DD00AB302F56072D80C40EA02105D01FE
:1011E000C3F3C706C0B2C2F30712EDB2C3F3C723FD
:1011F000F5EEC07AF1EE10FA4FF0000448BF62F04D
:101200007F02CD700E7188710C704C708C7008204C
:101210004B71CA7170BC704723B35B001D0226D4AA
:101220004FF46072013A5B0090B21C0202B2F9D531
:101230000001C0B2C2F30612C3F316035D0140EA17
:10124000D340C3F3C706EDB2C3F3C723D0E75D01B4
:10125000D80CC3F3C706EDB240F0F000C3F3C723C8
:101260007F22C5E71A4618461E461D46C0E71046AF
:101270003822E1E7D0ED017A17EE903AC3F3C75276
:10128000FF2AF0B4C3F3160300F0E680002A78D0FA
:1012900002F56072DC0C44EA02145E01C3F3C70776
:1012A000E4B2C2F30712F6B2C3F3C723F5EEC07A75
:1012B000F1EE10FA4FF0000548BF62F07F024B716B
:1012C000CA71CE700F718C710D704D708D70D0ED34
:1012D000027A17EE903AC3F3C752FF2AC3F31603FC
:1012E00000F0AF80002A69D002F56072DC0C44EA9D
:1012F00002145E01C3F3C707E4B2C2F30712F6B2E9
:10130000C3F3C723F5EEC07AF1EE10FA4FF00005F3
:1013100048BF62F07F024B73CA73CE720F738C7337
:101320000D724D728D72D0ED037A17EE903AC3F3C1
:10133000C752FF2AC3F3160378D0002A5AD002F509
:101340006072D80C40EA02105D01C3F3C706C0B258
:10135000C2F30712EDB2C3F3C723F5EEC07AF1EE84
:1013600010FA4FF0000448BF62F07F02CD740E7592
:1013700088750C744C748C7418204B75CA75F0BC4D
:101380007047002B7DD05B001E0200F182804FF47D
:101390006072013A5B0094B21D0222B2F9D52401B9
:1013A000E4B2C2F30612C3F316035E0144EAD34467
:1013B000C3F3C707F6B2C3F3C72377E7002B5BD0AD
:1013C0005B001F0268D44FF46072013A5B0094B274
:1013D0001E0222B2F9D52401E4B2C2F30612C3F30D
:1013E00016035E0144EAD344C3F3C707F6B2C3F35E
:1013F000C72387E7002B3AD05B001D0246D44FF489
:101400006072013A5B0090B21C0202B2F9D5000191
:10141000C0B2C2F30612C3F316035D0140EAD34023
:10142000C3F3C706EDB2C3F3C72396E75D01D80C3B
:10143000C3F3C706EDB240F0F000C3F3C7237F2229
:101440008BE75E01DC0CC3F3C707F6B244F0F0048F
:10145000C3F3C7237F2255E75E01DC0CC3F3C70744
:10146000F6B244F0F004C3F3C7237F221EE71A4606
:1014700018461E461D4670E71A461C461F461E4665
:1014800040E71A461C461F461E460FE71046382204
:10149000C1E71446382286E7144638229FE700BF8A
:1014A000F0B5CD790C79CA788F7991F805E02B01E8
:1014B000240103F4FE6340F2FF7644EA1212390578
:1014C00043EA171342EA0E3201F47001B34283B0CB
:1014D00000F1040041EA020123D040F27E44A3421D
:1014E0001AB210D94FF0FF42002302A925F07F0560
:1014F000134343EA056341F8043D042203F0F0FA84
:10150000082003B0F0BDB2F5607F13DCB2F55A7F5E
:1015100019DDC2F56072013241F08071D1400022C4
:1015200001E04FF0FF426FF07F43994209D04B1C1E
:101530005B08DAE7A3F56073DA056FF07F43994241
:10154000F5D1024BD1E70022EDE700BFFFFF7F009E
:101550002DE9F041CF790E798B7991F805E00546B8
:101560003A01C878360102F4FE6246EA10100C46D1
:10157000190542EA131340F2FF7240EA0E3001F4FB
:101580007001934241EA000182B005F10C0605F1B9
:10159000100000F0B98040F27E4E73451AB242D975
:1015A0004FF0FF42002327F07F01134302AF43EACD
:1015B000016347F8043D0422394603F091FA94F898
:1015C0000FC094F80CE0A37BE07A94F80D804FEA0A
:1015D0000C1202F4FE624FEA0E1E19054EEA1010BC
:1015E00042EA131340F2FF7240EA083001F470013E
:1015F000934241EA000105F114007CD040F27E4E96
:1016000073451AB21ED8B2F5607F00F39880B2F528
:101610005A7F40F39D80C2F56072013241F08071C3
:10162000D140002269E0B2F5607F7FDCB2F55A7FDD
:1016300040F39280C2F56072013241F08071D14076
:10164000002263E04FF0FF4200232CF07F0C134395
:1016500043EA0C6304223946019303F041FA227DE8
:1016600094F817E0A37DE07C94F815C014014FEACC
:101670000E1202F4FE62190544EA101042EA131336
:1016800040F2FF7240EA0C3001F47001934241EAEB
:10169000000105F1180025D040F27E44A3421AB2A1
:1016A0000DD8B2F5607F38DCB2F55A7F52DDC2F555
:1016B0006072013241F08071D140002214E04FF09D
:1016C000FF4200232EF07F0E134343EA0E63394698
:1016D0000422019303F004FAEB69304602B0BDE83E
:1016E000F04118474FF0FF426FF07F4399421BD003
:1016F0004B1C5B08E6E74FF0FF426FF07F439942D7
:1017000024D04B1C5B08A0E74FF0FF426FF07F43F3
:10171000994212D04B1C5B0845E7A3F56073DA05CC
:101720006FF07F439942E3D10C4BCBE7A3F5607395
:10173000DA056FF07F439942ECD1084B33E7A3F50C
:101740006073DA056FF07F439942DAD1034B7CE78F
:101750000022D2E70022C7E70022D7E7FFFF7F0081
:10176000F0B5CF790D798B7991F805E006463A010D
:10177000C87802F4FE622D010C4645EA10101905E6
:1017800042EA131340F2FF7240EA0E3001F4700196
:10179000934241EA000183B006F1040000F0B280F8
:1017A00040F27E45AB421AB240D94FF0FF420023CF
:1017B00027F07F07134302AD43EA076345F8043D72
:1017C0000422294603F08CF994F80FE0277BA37BD1
:1017D000E07A94F80DC04FEA0E1202F4FE623F0167
:1017E000190547EA101042EA131340F2FF7240EA6B
:1017F0000C3001F47001934241EA000106F1080047
:1018000077D040F27E47BB421AB21ED8B2F5607F55
:1018100000F39380B2F55A7F40F39880C2F560726E
:10182000013241F08071D140002264E0B2F5607F66
:101830007ADCB2F55A7F40F38D80C2F560720132D6
:1018400041F08071D14000225EE04FF0FF42002362
:101850002EF07F0E134343EA0E63042229460193C0
:1018600003F03EF9E77D207DE17CA37D94F815E04F
:101870003A0102F4FE62000140EA1110190542EA41
:10188000131340F2FF7240EA0E3401F470019342E8
:1018900006F10C0041EA040122D040F27E44A3424A
:1018A0001AB20DD8B2F5607F35DCB2F55A7F4FDD44
:1018B000C2F56072013241F08071D140002211E026
:1018C0004FF0FF42002327F07F07134343EA0763EB
:1018D00029460422019303F003F9182003B0F0BD58
:1018E0004FF0FF426FF07F4399421BD04B1C5B08C7
:1018F000E9E74FF0FF426FF07F43994224D04B1C41
:101900005B08A5E74FF0FF426FF07F43994212D08A
:101910004B1C5B084CE7A3F56073DA056FF07F435F
:101920009942E3D10C4BCEE7A3F56073DA056FF073
:101930007F439942ECD1084B3AE7A3F56073DA058F
:101940006FF07F439942DAD1034B81E70022D2E75F
:101950000022C7E70022D7E7FFFF7F00F0B585B080
:101960002D4B026801932D49039103238DF8083014
:1019700014682B4A944240D100243822054680F84E
:10198000233280F8242280F8254280F8264280F80D
:10199000274200F50A7003F0A3F8FF273D20C22379
:1019A000FE26072185F81E0285F8203285F81F42A1
:1019B00085F82242224685F81C7285F81D6285F85A
:1019C000211205F2212305F25F2001E013F8011F27
:1019D00083420A44FAD1D2436C6885F860222368B6
:1019E000104A5B68934205F507700DD1452104F05C
:1019F0008FFB4FF0FF3005B0F0BD01AA0721A047D3
:101A00004FF0FF3005B0F0BD014645222046984713
:101A10004FF0FF3005B0F0BDEC7F000068820000A1
:101A2000291A0000C90F0000F0B5632985B003DD55
:101A300090F8F844002C46D0136805460F4610462F
:101A40001B6805F223219847C2B2C0F3072156183C
:101A500085F81E2247F30722F643FF234FF0FE0EC0
:101A6000FCB285F82222421C85F8206285F81F12FC
:101A700085F81C3285F81DE285F821420DDB00F265
:101A80002221294405F22123002201E013F8014F0D
:101A90008B422244FAD1D343DBB22A1800F1080466
:101AA000B4F5007F82F8233217DC6A68354E13687C
:101AB0005B68B34205F5077008D1214604F028FBA6
:101AC000204605B0F0BD204605B0F0BD01461046E9
:101AD00022469847204605B0F0BD2B4A2B492B687B
:101AE000019203208DF8080003911B68284A934255
:101AF0003FD10024382285F8230285F8242285F876
:101B0000254285F8264285F8274205F50A7002F03D
:101B1000E7FFFF273D20C223FE26072185F81E028E
:101B200085F8203285F81F4285F82242224685F842
:101B30001C7285F81D6285F8211205F2212305F239
:101B40005F2001E013F8011F98420A44FAD1D24302
:101B5000686885F8602203680A4A5B68934205F565
:101B600007710BD10846452104F0D2FA4FF0FF303F
:101B7000A7E7284601AA07219847F7E74522984793
:101B8000F4E700BFC90F0000EC7F0000688200008E
:101B9000291A000010B50446E0B1012847D00228F8
:101BA0002ED0032815D10021272003F079FB012135
:101BB000252003F075FB00211E2003F071FB01219D
:101BC0001C2003F06DFB2549254B002001220860F5
:101BD0001A6010BD0121272003F062FB2146252059
:101BE00003F05EFB21461E2003F05AFB01211C205E
:101BF00003F056FB19491A4A01230B60136010BD0C
:101C00000121272003F04CFB0021252003F048FB95
:101C100001211E2003F044FB00211C2003F040FBA7
:101C20000E490F4B0120002208601A6010BD0021F0
:101C3000272003F035FB2146252003F031FB214608
:101C40001E2003F02DFB00211C2003F029FB03497B
:101C5000034A00230B60136010BD00BFFC21FF1F6F
:101C6000C41CFF1F2DE9F041584DB0F90400286055
:101C7000FFF790FF2E68564C0123304684F823323C
:101C800005F07EFF31460546060C030E070A0246A4
:101C900084F8266204F50A706E1D84F8257284F8B3
:101CA0002732C6F3072784F8245202F019FFF2B254
:101CB000D019FE21C043FF2384F81D1284F81E2290
:101CC0000721002284F82002701C84F81F7284F817
:101CD0001C3284F8211284F8222274DB05F22720BA
:101CE000204404F2212301E013F8011F98420A4422
:101CF000FAD1D243D2B2A31906F10801B1F5007F9F
:101D000083F82322324E11DC7068324A03685B6824
:101D1000934205D106F50770BDE8F04104F0F8B92B
:101D20000A4606F50771BDE8F04118472A4F0FCF64
:101D300006F50A750FC50FCF0FC50FCF0FC597E872
:101D4000030000220327382386F8237286F8243202
:101D50004FF0FF084FF0FE0C4FF03D0E86F82522A5
:101D600086F8262286F82722C22785E80300072165
:101D700086F81F2286F82222A5F13703E81D86F88F
:101D80001C8286F81DC286F81EE286F8207286F84C
:101D9000211201E013F8011F98420A44FAD1D243FC
:101DA000606884F8602203680A4A5B68934205D140
:101DB00045210A48BDE8F04104F0AAB94522074987
:101DC000BDE8F04118471A4695E700BFA41CFF1F65
:101DD000C81CFF1FC90F000068820000E41EFF1F1F
:101DE0002DE9F04F8DB0C84AC84B06920022044638
:101DF00000F5836600F27C45ADF81C200B92089339
:101E000009930A9356F8043F002B00F0C2805868EB
:101E10001F6801689A6808978B68ADF81C2098477E
:101E20003368099058680368DB689847236831680D
:101E30000A904FF400721B68D1F810800B92B44ADC
:101E40009342824640F08C81B8F1630F04DD94F830
:101E5000F834002B00F09D80BDF81C30DDF8209098
:101E600084F823321B0A84F82432484605F088FEA1
:101E700007463B0E3A0C000A494684F8283284F89B
:101E8000257284F8260284F8272204F229203A4693
:101E900002F026FEDDF824B0584605F071FE04F28B
:101EA0002329791D024606374944002322FA03F00C
:101EB0000833202B01F8010FF8D10437594609EBFC
:101EC0000700174402F00CFE504605F059FE09EBDE
:101ED0000703834600222BFA02F10832202A03F876
:101EE000011BF8D10437514609EB07005A4602F0AE
:101EF000F7FD0BEB07031F1D09EB03015FFA87FAE0
:101F0000C7F3072C00220AEB0C0E4FF0020B09F866
:101F100003206FEA0E0E8A70CA7081F801B0FF20AC
:101F20005FFA88F14FF0FE0948F30728B7F1FF3F49
:101F300084F820E284F81EA284F81FC284F81C02F0
:101F400084F81D9284F8211284F82282C0F2B481B0
:101F500003F22623E01804F2212301E013F8011F05
:101F600098420A44FAD1D243D2B2E31907F10801E8
:101F7000B1F5007F83F8232200F306816768654A84
:101F80003B685B68934204F5077040F0F38004F00F
:101F9000BFF8AE427FF436AFDFF8749104F59C6869
:101FA00055F8040F002800F0D28081680368426869
:101FB0000891ADF81C209B6898472B6809901A6817
:101FC0001846D36898472B6821680A901A680E68EB
:101FD00052684FF4007118460B9190474E450746E2
:101FE00040F0C380632804DD94F8F834002B00F03F
:101FF000AE80BDF81C30089E84F823321B0A84F89A
:102000002432304605F0BCFD82464FEA1A634FEA9F
:102010001A42000A314684F8283284F825A284F84E
:10202000260284F8272204F22920524602F058FDA5
:1020300009990191084605F0A3FD04F223260AF14F
:102040000502019983460AF1060A324400232BFA5D
:1020500003F00833202B02F8010FF8D10AF1040A2B
:102060005A4606EB0A0002F03BFD0A990191084628
:1020700005F086FDD3440199824606EB0B0300224E
:102080002AFA02F00832202A03F8010BF8D10BF1EA
:10209000040B06EB0B00524602F022FD0AEB0B0389
:1020A0001A1D0B99F1545FFA82FCC2F3072E1E44ED
:1020B0000CEB0E004FEA112B4FEA114AC043090EF8
:1020C00086F801B086F802A0F1704FF0FF0BF9B26C
:1020D0004FF0FE0A47F3072784F82002501C84F8CB
:1020E0001EC284F81FE284F81CB284F81DA284F892
:1020F000211284F8227218DB03F22623E61800204E
:1021000004F221230AE000BFD47F0000A082000077
:10211000291A0000C90F000013F8011FB342084438
:10212000FAD16FEA000B5FFA8BFBA31802F10801EA
:10213000B1F5007F83F823B271DC6668654A3368C5
:102140005B68934204F5077019D103F0E1FFA845DD
:102150007FF426AF012384F8F8340DB0BDE8F08F8A
:10216000414606AA2046984713E7014606AA20469C
:10217000B047ECE70A4601463846984709E70A4661
:10218000014630469847E2E7534A03920321534AF7
:10219000236805928DF810101B68514A934240F055
:1021A00086800027382284F8231284F824224B49A1
:1021B00084F8257284F8267284F8277204F50A7070
:1021C00002F08EFCFF213D20C2234FF0FE0E84F86A
:1021D0001C12072184F81E0284F8203284F81F7232
:1021E00084F822723A4684F81DE284F8211204F23F
:1021F000212304F25F2001E013F8011F98420A44F2
:10220000FAD1D243606884F860220368314A5B687F
:10221000934204F5077159D108464521B7E62E4A85
:102220000392032123682D4A05928DF810101B6834
:102230004B4546D10026382284F8231284F8242204
:10224000264984F8256284F8266284F8276204F51A
:102250000A7002F045FCFF213D20C223FE2784F8CE
:102260001C12072184F81E0284F8203284F81F62B1
:1022700084F82262324684F81D7284F8211204F236
:10228000212304F25F2001E013F8011F83420A4476
:10229000FAD1D243606884F8602203680D4A5B6813
:1022A000934204F5077109D1084645214DE703AA79
:1022B0000721204698476CE6024656E64522984795
:1022C00045E703AA07212046984740E7452298475B
:1022D0005FE600BFC90F0000EC7F000068820000CD
:1022E000291A00002DE9F04FBB4E93B033680693D6
:1022F000069DD0F8003542F6F822EB1A934284BFCF
:10230000002380F8F834D0F8E434044633B1D0F830
:102310000435AB423CBF0023C0F8E434AF4FDFF8D4
:10232000D092A26932B133680793079B5B1B9A4234
:10233000C0F01B81606803685B69BB4266D103F033
:1023400081FE002865DBD4F8F434D4F8E424034497
:10235000072AC4F8F43447D082B9FF2869D033681B
:102360000893089B41F288315B1B8B42D9D984F8D2
:10237000F8246FF0010013B0BDE8F08F012A60D09F
:10238000022A00F0B680032A00F0BE80042A00F082
:10239000C580052A00F0D280062A00F0D780082ADE
:1023A000BFD18F4A1A4000239A42C4F8E434C0F2E5
:1023B0004D81FF2AB5D1D4F8EC34002B00F0D08247
:1023C0000A2B00F07A82062B00F053810B2B00F0D1
:1023D0004281BC3354F823000028A2D0036804F1E2
:1023E0001C011B6898479CE7D4F8F034E2180133CD
:1023F000C4F8F0341077D4F8E834013BC4F8E8347A
:10240000002B8ED10823C4F8E4348AE798470028CB
:1024100099DA94F8F8040028ADD0D4F8FC3440F6EA
:10242000C412EB1A934200F2A580002013B0BDE85D
:10243000F08F012205F11403C4F8E424C4F8043534
:102440006FE7FE2876D094F8F8240023C4F8E4342B
:10245000002A7FF466AF634923680F911B686249C5
:1024600010928B42119240F0E780FF210820F72361
:102470004FF0FE0E84F81C120A2184F81E0284F824
:10248000203284F8232284F8242284F8252284F838
:10249000262284F8272284F8282284F8292284F826
:1024A0002A2284F81F2284F8222284F81DE284F86C
:1024B000211204F2212304F22A2001E013F8011F63
:1024C00098420A44FAD1D243D4F804E084F82B228B
:1024D000DEF80030454A5B68934204F5077040F02F
:1024E000B080102103F014FE33680993099BE36068
:1024F00017E700220323C4F8E804C4F8F404C4F87E
:10250000F024C4F8E4340CE7D4F8E83403EB0020FA
:102510000423C4F8E804C4F8E43402E7304A1A405B
:10252000002AC0F28480FF2A0CBF05230023C4F8D0
:10253000E434F6E60223C4F8E434F2E60623C4F8F1
:10254000EC04C4F8F404C4F8E434EAE6D4F8EC3457
:10255000D4F8E82403EB00230721C4F8EC34C4F8D2
:10256000E414002A3FF44EAFDBE66FF0010013B035
:10257000BDE8F08F1B4A23680F921B681A4900229E
:102580008B42109211926AD1FF210820F723FE2777
:1025900084F81C120A2184F81E0284F8203284F880
:1025A000232284F8242284F8252284F8262284F821
:1025B000272284F8282284F8292284F82A2284F801
:1025C0001F2284F8222284F81D7284F8211204F25A
:1025D000212304F22A200FE06C2AFF1FD10F0000F4
:1025E000FF000080BC7F0000291A0000C90F000016
:1025F00040420F0013F8011F83420A44FAD1D2432C
:10260000676884F82B223B68D24A5B68934204F5E2
:10261000077029D1102103F07BFD33680B930B9BCE
:10262000C4F8FC540020E36013B0BDE8F08F013A19
:1026300062F0FF02013276E70FAA0A21204698478E
:1026400052E701461022704698474DE7013A62F082
:10265000FF020132ADE6002384F8F83461E60FAAE8
:102660000A2120469847D8E7014610223846984765
:10267000D3E7227F637F94F81E80E17F42EA032341
:1026800043EA0843D4F8102543EA0168904504F171
:102690001C0B07D94FEA8801D4F8180505F064F837
:1026A000C4F81805C4F81085B8F1000F00F0738164
:1026B00004F21453019300230295D84625464FF0A7
:1026C000040A1C4698F8062098F8050098F80410AB
:1026D00098F807E0120442EA00220A43D5F81805E8
:1026E000019942EA0E62C5F8142500EB8400042229
:1026F00002F0F6F9D5F810250134A242504608F14F
:1027000004080AF1040ADDD800F10901019100F181
:102710000B012C4600F10802029D029100F10C0110
:10272000CDF80CA0134600F1050E00F1060C00F1E7
:10273000070800F10A0A04911BF80C0003991BF822
:102740000EE01BF801C01BF80880D4F81C1500042B
:1027500040EA0E2040EA0C0C4CEA086888450BD988
:102760004FEA8801D4F824050593039204F0FCFF96
:10277000059B039AC4F82405C4F81C85B8F1000F22
:1027800000F0068104F5A462019204F20C52039554
:102790000BEB030A25464FF0000802921C469AF8FC
:1027A00002009AF801209AF800109AF803E0029BC0
:1027B000000440EA02220A43D5F82405019942EABE
:1027C0000E625A6100EB8800042202F089F9D5F804
:1027D0001C2508F10108424521460AF1040A04F1CA
:1027E0000404DCD823461A464B1D2C460193039D56
:1027F000CB1D01F1060A029301F10808019B1BF8A9
:102800000A001BF803101BF80230029A00041BF8A0
:1028100002A0D4F8282540EA01210B4343EA0A6AC2
:10282000924507D94FEA8A01D4F8300504F09CFF9D
:10283000C4F83005C4F828A5BAF1000F39D004F265
:102840002C534FF0000A019300239E460BEB080126
:1028500011F8012B9A400833202B4EEA020EF7D1D3
:1028600008F104018E4471450AD208F103035B4468
:102870000A46013213F8010F03F8010C7245F8D330
:102880000BEB0E024B1E4FF0000102F8011CD4F8B6
:10289000300501995B44C4F82C3500EB8A00042212
:1028A000F04602F01DF9D4F828350AF1010A534523
:1028B000CAD8012384F8083533E533680C930C98A3
:1028C00094F8202094F82110336894F81D8094F82F
:1028D0001CA00E93E36894F81EE094F81FB042EA3F
:1028E000012C94F822101C4AC01A4AEA082394F8D2
:1028F00023A0A2FB00824CEA014143EA0E4EDFF81E
:102900005C800E9B41EA0A6A4EEA0B61D04401F1F9
:10291000FF3A11494FF47A7CA1FB031E92090CFB8C
:1029200012004FEA9E1E09FB00800CFB1E3321465D
:10293000524409FB1303CEEB0202226104F11000A2
:1029400041F8143F01F05AFD33680D930D9BC4F814
:102950000035E6E4C90F0000D34D621000CA9A3B6F
:10296000226816490F91109311930A21136820468B
:102970000FAA984733680A930A9BE3602046FFF743
:102980002FFAC4F8FC54C4F800554FF0FF30F2E4BD
:10299000DDF8108032E70C2104910B21029109210E
:1029A00008220191042113464FF00A0A4FF007084C
:1029B0004FF0060C4FF0050E0391BDE6BC7F000002
:1029C0005E4BDFED5F6AD3ED007A9FED5E6A5E4B92
:1029D000F8EEE77A2DE9F04186EE277A5B4DDFF8D5
:1029E000DC8100244FF40077642686EEA76A83ED2D
:1029F000007A16EE100A03F0D5FF554B2B60554AAE
:102A00006A604FF46143AB60C8E900013A4605F1E2
:102A10001C002146EC602C616C61AC6104F052FE3C
:102A20003A46214605F5077004F04CFE3246214631
:102A300005F21C4004F046FE3246214605F5906042
:102A400004F040FE4448C5F80C05C5F8E444C5F858
:102A5000E844C5F8EC44C5F8F044C5F8F44485F8FA
:102A6000F844C5F8FC44C5F80045C5F8044585F8A8
:102A70000845C5F81045C5F81445C5F81845C5F80A
:102A80001C45C5F82445C5F82845C5F82C45C5F8AA
:102A9000304505F5A46500233049314A2B60314D9E
:102AA000DFF81CE1304F314E0D60314D3148C1F837
:102AB00004E015600C61304D3049396035603049B3
:102AC000DFF800C12F4D5760AEF80440CEF800C0CB
:102AD0007B6014617360056046602B4E0E602B4E68
:102AE0002B4A4E612B4E8E6001268E6116622A4E55
:102AF00016602A4ED6612A4E2A4D2B4F0C829660C4
:102B000004612A4E2A48C1F80CC02A491361536156
:102B10009361D660DFF8B0E0274A2E606B60AB604F
:102B2000EB607D603C61C7F800E006604360836055
:102B3000C36048600C610A60BDE8F0810C08FF1FAB
:102B4000DC0FC9400000B4433014FF1FC81CFF1F36
:102B50007C800000180BFF1F04800000901CFF1FEA
:102B6000E029FF1FA4820000102AFF1FF829FF1F81
:102B7000B0820000381CFF1F4C8000003480000031
:102B8000242AFF1FBC820000A8800000651C0000F2
:102B9000402AFF1FE482000090800000290D000001
:102BA000DC8200005814FF1F501CFF1F64800000CF
:102BB000681CFF1F7C1CFF1FD0820000002AFF1F23
:102BC0005014FF1F1C800000C88200002DE9F04750
:102BD000D64CD02301253B21204684F83B3084F895
:102BE0005E5084F85D5001F061FC0021204601F048
:102BF000C9FD2B46682120460E2201F04DFE94F8B7
:102C0000383094F839108B4280F0AE82E0185A19AF
:102C1000D2B290F9180084F8382091424FEA00208F
:102C200040F2A18222449D1C127EC14E104307EE49
:102C3000900AEAB28A423080F8EEE77A84F83820C7
:102C400080F030842244DD1C92F91800EAB28A42F6
:102C50004FEA002084F8382080F024842244043392
:102C6000127E0243DBB207EE102AB24884F83830F5
:102C70009942B8EEC77A028040F28582E0185A1C69
:102C8000D2B290F91800A94E84F838208A424FEA4F
:102C9000002580F0058432440233107E284306EE7E
:102CA000900ADAB2F8EEE66A86F83820A24B914232
:102CB000188040F2ED83A018531CDBB290F9185035
:102CC0009A4E84F838308B424FEA052580F0E18334
:102CD00033440232187ED3B245EA0002974886F8A0
:102CE00038309942028040F25B82E0185A1CD2B21E
:102CF00090F918008D4D84F838208A424FEA002060
:102D000080F0C4832A44023392F818C0DBB240EA50
:102D10000C0C85F83830DFF83C829942A8F800C0E6
:102D200040F2AC83E0185A1CD2B290F918007F4DE3
:102D300084F838208A424FEA002080F09F832A449A
:102D4000023392F818E0DBB240EA0E0E85F8383014
:102D50007B4E9942A6F800E040F20282E0185A1C2D
:102D6000D2B290F91800714D84F838208A424FEAA7
:102D7000002080F0F5812A440233147E85F8383033
:102D800004437049704DC868704A0368704F1B68EF
:102D900089683C80AB42C2ED017A82ED027AC2EDD5
:102DA000036A40F0DA82632904DD90F8F834002BDE
:102DB00000F0EC8017EE903AC3F3C752FF2AC3F33A
:102DC000160300F0D282002A00F0508202F56072F1
:102DD000DC0C44EA02144FEA431EC3F3C709E4B211
:102DE000C2F307125FFA8EFEC3F3C723F5EEC07A73
:102DF000F1EE10FA80F8283217EE103A48BF62F070
:102E00007F0280F82A22C3F3C7524FF0000CFF2A3A
:102E100080F826E280F8279280F8294280F823C2C1
:102E200080F824C280F825C2C3F3160300F0E082C4
:102E3000002A00F06E8202F56072DC0C44EA021493
:102E40004FEA431EC3F3C709E4B2C2F307125FFAA5
:102E50008EFEC3F3C723B5EEC07AF1EE10FA80F808
:102E6000303216EE903A48BF62F07F0280F832228C
:102E7000C3F3C7524FF0000CFF2A80F82EE280F80F
:102E80002F9280F8314280F82BC280F82CC280F853
:102E90002DC2C3F3160300F09E82002A00F01882B0
:102EA00002F56072DC0C44EA02144FEA431EC3F3DD
:102EB000C709E4B2C2F307125FFA8EFEC3F3C72359
:102EC000F5EEC06AF1EE10FA48BF62F07F0280F8BA
:102ED000383280F83942FF23FE244FF0000C80F88E
:102EE00036E280F83A224FF0180E002280F81C32A9
:102EF00080F81D42E723CCB241F3072180F820324D
:102F000080F8221280F8379280F833C280F834C2F9
:102F100080F835C280F81EE280F81F2280F8214236
:102F200000F2212300F23A2118E000BF8008FF1FC1
:102F3000182AFF1F1A2AFF1F4C1CFF1FD029FF1F32
:102F4000202AFF1F501CFF1F291A00005814FF1FC2
:102F5000222AFF1FF429FF1F13F8014F8B4222443E
:102F6000FAD1D243446880F83B222368D04A5B6898
:102F7000934200F5077040F06482202103F0C8F806
:102F8000B8F900C0B6F900E0B7F90040C94BCA4A29
:102F9000D8689968036807EE90CAF8EEE76A07EE0A
:102FA00090EAB8EEE77A07EE904A1B68C2ED016A34
:102FB000F8EEE77AAB4282ED027AC2ED037A40F096
:102FC000C981632904DD90F8F834002B00F0F28009
:102FD00016EE903AC3F3C752FF2AC3F3160300F06C
:102FE000D181002A00F0E88002F56072DC0C44EA2E
:102FF00002145E01C3F3C707E4B2C2F30712F6B2CC
:10300000C3F3C723F5EEC06AF1EE10FA80F8283258
:1030100017EE103A48BF62F07F0280F82A22C3F30D
:10302000C7520025FF2A80F8266280F8277280F8B0
:10303000294280F8235280F8245280F82552C3F3A5
:10304000160300F0ED81002A00F0F28002F56072B4
:10305000DC0C44EA02145E01C3F3C707E4B2C2F316
:103060000712F6B2C3F3C723B5EEC07AF1EE10FA39
:1030700080F8303217EE903A48BF62F07F0280F855
:103080003222C3F3C7520025FF2A80F82E6280F84F
:103090002F7280F8314280F82B5280F82C5280F841
:1030A0002D52C3F3160300F0B081002A00F0A28075
:1030B00002F56072DC0C44EA02145E01C3F3C70738
:1030C000E4B2C2F30712F6B2C3F3C723F5EEC07A37
:1030D000F1EE10FA4FF0000548BF62F07F0280F871
:1030E000366280F8377280F8383280F83942E72348
:1030F000CCB280F8335241F3072180F8345280F883
:10310000355280F83A22FF27FE261825002280F843
:10311000203280F8221280F81C7280F81D6280F83C
:103120001E5280F81F2280F8214200F2212300F273
:103130003A2101E013F8014F8B422244FAD1D243E5
:10314000446880F83B222368594A5B68934200F543
:10315000077040F070812021BDE8F04702F0D8BF31
:103160004FF0FF340DE61346544A4FF6FF701080BF
:103170005348FFEE007A4FF0FF329942B0EE677A83
:1031800002803FF67BAD4F4A4FF6FF7010804E48ED
:103190004FF0FF329942FFEE006A02803FF6A5AD84
:1031A000DFF828814FF6FF724FF0FF3CA8F80020AF
:1031B000E646CDE5BDE8F087002B00F0EE805B0031
:1031C0001E0200F149814FF46072013A5B0094B233
:1031D0001D0222B2F9D52401E4B2C2F30612C3F3F0
:1031E00016035E0144EAD344C3F3C707F6B2C3F340
:1031F000C72307E7002B00F0D5805B001E0200F11B
:103200003A814FF46072013A5B0094B21D0222B21F
:10321000F9D52401E4B2C2F30612C3F316035E012A
:1032200044EAD344C3F3C707F6B2C3F3C7234DE759
:10323000002B00F0C1805B001C0200F119814FF4EB
:103240006072013A5B0094B21F0222B2F9D52401E8
:10325000E4B2C2F30612C3F316035E0144EAD34498
:10326000C3F3C707F6B2C3F3C723FDE6002B00F094
:103270009E805B001C0200F1F5804FF4607E0EF131
:10328000FF325B0092B21C020FFA82FEF7D51201E8
:10329000D4B2CEF30612C3F316034FEA431E44EA38
:1032A000D344C3F3C7095FFA8EFEC3F3C7239DE57A
:1032B000C90F00007C1CFF1F681CFF1F182AFF1F7E
:1032C0001A2AFF1F4C1CFF1FD029FF1FF429FF1FC4
:1032D000002B7BD05B001C0200F1C1804FF4607EAC
:1032E0000EF1FF325B0092B21C020FFA82FEF7D59C
:1032F0001201D4B2CEF30612C3F316034FEA431EF3
:1033000044EAD344C3F3C7095FFA8EFEC3F3C7236D
:10331000D6E5002B55D05B001C0200F1A6804FF4CF
:10332000607E0EF1FF325B0092B21C020FFA82FE49
:10333000F7D51201D4B2CEF30612C3F316034FEA47
:10334000431E44EAD344C3F3C7095FFA8EFEC3F3B6
:10335000C72380E5BDE8F04718479847B8F900C093
:10336000B6F900E0B7F9004010E64FEA431EDC0C66
:10337000C3F3C7095FFA8EFE44F0F004C3F3C7231A
:103380007F2233E55E01DC0CC3F3C707F6B244F0DD
:10339000F004C3F3C7237F2234E61A461C461F46B7
:1033A0001E462FE61A461C461F461E468EE61A4645
:1033B0001C4699469E4619E51A461C461F461E465F
:1033C00052E61A461C4699469E4644E51A461C4655
:1033D00099469E4674E54FEA431EDC0CC3F3C709C9
:1033E0005FFA8EFE44F0F004C3F3C7237F2267E543
:1033F0004FEA431EDC0CC3F3C7095FFA8EFE44F0AC
:10340000F004C3F3C7237F2225E55E01DC0CC3F380
:10341000C707F6B244F0F004C3F3C7237F2255E692
:103420005E01DC0CC3F3C707F6B244F0F004C3F34B
:10343000C7237F2218E6014620222046BDE8F04738
:1034400018470146202220469847B8F900C0B6F92F
:1034500000E0B7F9004099E514463822BFE614466B
:10346000382249E71446382215E71446382264E723
:1034700014463822EFE614463822CEE60F4E4FF6B9
:10348000FF734FF0FF3E338074467AE4134687E6BD
:1034900013460B4A4FF6FF7010804FF0FF3C3AE4A2
:1034A000134670E6074B4FF6FF70BFEE007A1880A8
:1034B000F0EE476A4FF0FF30FFF7F8BB202AFF1FFE
:1034C000D029FF1F1A2AFF1FC54BC649D868C64A14
:1034D0002DE9F04F0568C54C2E684D689580A642D1
:1034E00091B0996840F05E82632902DD90F8F8346B
:1034F00083B341F30726F3B253FA81F3C5F30722EE
:1035000053FA85F31344DB4380F8235280F82112E9
:1035100080F8253280F824220225FD23426880F8B5
:103520001E524FF0FF0EFE27002180F8226280F825
:103530001CE280F81D7280F81F1280F82032136898
:10354000AB4D5B68AB4200F5077040F038820A2152
:1035500002F0DEFDA74BA84AD868D2ED007A0168D8
:10356000A64A0D689968C2ED017AA54240F018821A
:10357000632903DD90F8F834002B61D017EE903A00
:10358000C3F3C752FF2AC3F3160300F00D82002ACB
:1035900000F0EA8102F56072140144EAD3445E014E
:1035A000C3F3C707E4B2C2F30712F6B2C3F3C723EB
:1035B000F5EEC07AF1EE10FA4FF0000548BF62F068
:1035C0007F0280F8266280F8277280F8283280F81F
:1035D0002942F723CCB280F8235241F3072180F827
:1035E000245280F8255280F82A22FF27FE2608253B
:1035F000002280F8203280F8221280F81C7280F8B5
:103600001D6280F81E5280F81F2280F8214200F2CD
:10361000212300F22A2101E013F8014F8B422244BA
:10362000FAD1D243446880F82B222368704A5B6841
:10363000934200F5077040F0D181102102F068FD3F
:103640006F4F704CFFF7C2FA3B680593059ED4F8A4
:10365000003542F6F822F31A934284BF002384F81F
:10366000F834D4F8E434674A33B1D2F804359E42D2
:1036700084BF0023C2F8E434DFF89081614DA26971
:103680002AB13B680993099B9B1B9A4221D360682E
:1036900003685B6943456AD102F0D4FC002869DB0A
:1036A000D4F8F434D4F8E424DFF858E10344072ACA
:1036B000C4F8F43449D07AB9FF2800F0C5803B68DB
:1036C0000893089B41F288319B1B8B42D7D98EF817
:1036D000F82411B0BDE8F08F012A00F0BD80022A65
:1036E00000F00381032A00F00B81042A00F012810C
:1036F000052A00F01E81062A00F02381082ABED187
:10370000414A1A4000239A42C4F8E434C0F26B8163
:10371000FF2AB4D1D4F8EC34DFF8E8A0002B00F095
:10372000B6820A2B00F07B82062B00F06F810B2BF8
:1037300000F06281BC3355F8230000289FD0036855
:103740000AF11C011B68984799E7D5F8F024D5F8D1
:10375000E834A918013B01320877C5F8F024C5F810
:10376000E834002B8BD10823C4F8E43487E798476A
:10377000002895DA94F8F8342248002BA9D0D0F824
:10378000FC3440F6C412F31A9342A2D9FF23FE215F
:10379000002280F81C3280F81D12F72308250A2128
:1037A00080F8203280F8232280F8242280F8252215
:1037B00080F8262280F8272280F8282280F8292203
:1037C00080F82A2280F81F2280F8222280F81E52D8
:1037D00080F8211200F2212300F22A201AE000BF13
:1037E000901CFF1F6814FF1F5014FF1F291A0000B0
:1037F000C90F0000381CFF1F4014FF1FF829FF1FCE
:103800006C2AFF1FC81CFF1FFF000080D10F0000A3
:1038100013F8011F98420A44FAD1D243606884F831
:103820002B220368764A5B68934240F0E1801021C6
:10383000744802F06DFC3B680D930D9BC4F8FC646A
:10384000E36011B0BDE8F08F012206F11403C5F862
:10385000E424C5F8043512E7FE2866D095F8F8246C
:103860000023C5F8E434002A7FF409AFFF23FE21CA
:10387000082085F81C3285F81D12F7230A2185F8E7
:10388000203285F823220EF2212385F8242285F8A0
:10389000252285F8262285F8272285F8282285F812
:1038A000292285F82A2285F81F2285F8222285F808
:1038B0001E0285F821120EF22A2E01E013F8011FD4
:1038C00073450A44FAD1D243606884F82B22036816
:1038D0004B4A5B68934243D110214A4802F018FCDE
:1038E0003B680793079BE360C9E600220323C5F802
:1038F000E804C5F8F404C5F8F024C5F8E434BEE6DD
:10390000D5F8E83403EB00200423C5F8E804C5F833
:10391000E434B4E63C4A1A40002A5ADBFF2A0CBFC2
:1039200005230023C4F8E434A9E60223C5F8E434EF
:10393000A5E60623C5F8EC04C5F8F404C5F8E4349C
:103940009DE6D5F8EC34D5F8E82403EB00230721F5
:10395000C5F8EC34C5F8E414002A3FF404AF8EE651
:10396000102228499847BBE773B35B001E0200F1A1
:103970008B814FF46072013A5B0094B21D0222B257
:10398000F9D52401E4B2C2F30612C3F316035E01B3
:1039900044EAD344C3F3C707F6B2C3F3C72307E629
:1039A000A8474DE6B047D5E55E01DC0CC3F3C70779
:1039B000F6B244F0F004C3F3C7237F22F8E50146D2
:1039C00010460A229847C5E51A461C461F461E4661
:1039D000EEE5013A62F0FF0201329FE70146102254
:1039E000204698472CE6013A62F0FF0201328FE64A
:1039F0001022044998471EE7002385F8F8343EE674
:103A0000C90F0000E41EFF1FFF000080D5F81C90C6
:103A1000D5F81035994507D94FEA8901D5F8180529
:103A200003F0A2FEC5F81805C4F81095B9F1000F0F
:103A300000F02C83DFF8C4A24FF004094FF0000B14
:103A40009AF822109AF821309AF820209AF823E068
:103A5000D4F81805090441EA0323134343EA0E632B
:103A600000EB8B009F49C4F81435042201F038F8AC
:103A7000D4F810350BF1010B5B4549460AF1040AF5
:103A800009F10409DCD84B1D01F1080A01F10B0012
:103A9000019301F1060E01F1070C01F1090301F197
:103AA0000A020C31D346009002910199A6442144A8
:103AB000A1449EF81CE0097F99F81C00A4444FEA39
:103AC0000E4E4EEA012E9CF81CC0D4F81C154EEA8E
:103AD000000E4EEA0C6989450BD94FEA8901D5F8E9
:103AE00024050392019303F03FFE039A019BC5F85E
:103AF0002405C4F81C95B9F1000F00F0B3827A4B8D
:103B000005EB0B0A4FF000099AF81E109AF81D00F9
:103B10009AF81C209AF81FE00093090441EA00215A
:103B20000A43D4F82405704942EA0E6E00EB89007E
:103B30000422C3F800E000F0D3FFD4F81C25009B5A
:103B400009F101094A4559460AF1040A0BF1040B2F
:103B5000DAD8C81DDA464B1D8A1D009001F108090C
:103B600022442344117F009A187FD4F82835A244B8
:103B70002244964609049AF81C209EF81CA041EAAB
:103B800000210A4342EA0A6A9A4507D94FEA8A01A4
:103B9000D5F8300503F0E8FDC5F83005C4F828A5D0
:103BA000BAF1000F37D04FF0000AD34609F11C01DB
:103BB000002321449E4611F8012B9A400833202B04
:103BC0004EEA020EF7D109F104008644704509D28D
:103BD00009F11F03234402460132597803F8011BFF
:103BE0007245F9D304EB0E02404982F81BB0431E24
:103BF000A1F5A262D4F83005134400EB8A00C4F8A2
:103C00002C350422F14600F06BFFD4F828350AF178
:103C1000010A5345CAD8012384F808352FE53B68CB
:103C20000A930A9BEA6839680C913149286ADFF8DF
:103C3000D0C0DDF830909B1AA1FB031E4FEA9E1EF8
:103C40004FF47A7184442B48EA6901FB1E3300FB70
:103C500003CC274BA3FB093B4FEA9B1B013A01FB1B
:103C60001B91724400FB11C3CBEB02020AF1140159
:103C70000AF110006B612A6100F0C0FB3B680B93F6
:103C80000B9BC5F80035FAE4144638227DE69B46C6
:103C90000AF22321184B0D930DA89146CDF838B0A8
:103CA000CDF83CB0FCF7E2FBC1B2C0F307228B18A1
:103CB000DB438AF81E12FE258AF820320A21431CB3
:103CC0008AF81C928AF822B28AF81F228AF81D52BA
:103CD0008AF821121FDB00F2222252445B460AF2CC
:103CE000212A11E0DC21FF1FE821FF1FF421FF1F23
:103CF000D34D621040420F00BC7F0000C81CFF1F64
:103D000000CA9A3B1AF8011F52450B44FAD16FEAD8
:103D100003095FFA89F9231800F10802B2F5007F60
:103D200083F82392D14900F311824868036801F5B2
:103D300007715B6898473B680693CD4F069BE3602D
:103D400007F164030093A7F5836557F8043F002B40
:103D500000F0B88058689A6801680192D3F800B002
:103D60008B6898473B68824658680368DB689847C9
:103D70003B68019AD3F81080B8F1630F814604DDE7
:103D800094F8F834002B00F09D80C2F3072384F8E8
:103D9000232284F82432584603F0F2FE03464FEA09
:103DA000136E020A000C594684F8253284F8262244
:103DB00084F827021A4684F828E2AE48019300F0FE
:103DC0008FFE504603F0DCFE019B024603F22920E1
:103DD00020440633002122FA01FE0831202900F890
:103DE00001EBF8D1A44804335146184402EB030A0E
:103DF00000F076FE484603F0C3FE0AF22322834613
:103E0000224400232BFA03F10833202B02F8011B74
:103E1000F8D1994B0AF1040A494603EB0A005A46C5
:103E200000F05EFE0BEB0A0000F1040E21185FFAB1
:103E30008EF9CEF3072C0022022309EB0C0B81F83C
:103E4000243281F8232281F8252281F826226FEA84
:103E50000B0B5FFA88F1FF234FF0FE0A48F30728A7
:103E6000BEF1FF3F84F820B284F81E9284F81FC28E
:103E700084F81C3284F81DA284F8211284F822826E
:103E80000BDB00F226207D4B284401E013F8011FD4
:103E900083420A44FAD1D343DBB204EB0E010EF1A4
:103EA0000802B2F5007F81F8233200F3538168687D
:103EB000734903685B688B4240F0FA801146714891
:103EC00002F026F9009B9F427FF43FAFDFF8B8B1C4
:103ED0000196ABF59C651E4656F8040F002800F0CD
:103EE000B48090E80C0000939268D0F808A0904746
:103EF000814630680268D268904780463068026820
:103F00005268904763280746009B04DD94F8F82424
:103F1000002A00F09A80C3F3072284F8233284F841
:103F20002422504603F02CFE03464FEA136E020A89
:103F3000000C514684F8253284F8262284F82702A2
:103F40001A4684F828E24B48009300F0C9FD484621
:103F500003F016FE009B024603F22920204406339C
:103F6000002122FA01FE0831202900F801EBF8D1E6
:103F7000414804334946184402EB030900F0B0FD00
:103F8000404603F0FDFD09F223228246224400232D
:103F90002AFA03F10833202B02F8011BF8D1364B23
:103FA00009F10409414603EB0900524600F098FD6F
:103FB0000AEB090000F1040E5FFA8EF8CEF3072C2D
:103FC00004EB000908EB0C010022C943022389F825
:103FD000243289F8232289F8252289F82622FF2312
:103FE0004FF0FE0984F82012BEF1FF3FF9B247F30B
:103FF000072784F81E8284F81FC284F81C3284F8D4
:104000001D9284F8211284F822720BDB00F2262024
:104010001A4B284401E013F8011F98420A44FAD1D0
:10402000D343DBB204EB0E010EF10802B2F5007FC0
:1040300081F8233242DC6868114903685B688B426F
:1040400039D111460F4802F063F85E457FF444AF62
:10405000019EC4F8FC640123C4F8006584F8F834B8
:10406000FFF737BBDDF808907AE500BFC81CFF1FDB
:10407000E020FF1FF11EFF1FEB1EFF1FE91EFF1FA9
:10408000C90F0000E41EFF1FA821FF1F0C234FF0E3
:10409000080A029305210B230093D3460A22092321
:1040A0004FF0070C4FF0060E01914FF00409FCE4AD
:1040B0004E49984706E74D499847C6E74C4FDFF809
:1040C00034E10FCFAEE80F000FCFAEE80F000FCFF7
:1040D000AEE80F0097E8030000230327382285F895
:1040E000237285F8242285F8253285F8263285F852
:1040F00027324FF0FF088EE803004FF0FE0C3D27FB
:104100004FF0C209072185F81F3285F822321A467E
:10411000AEF137000EF1070385F81C8285F81DC249
:1041200085F81E7285F8209285F8211201E010F8BA
:10413000011F83420A44FAD1D343606884F8603295
:1041400003682A495B68452298477EE70846FDF7E1
:1041500005FCF0E5DFF898C0DFF898E0BCE80F0058
:10416000AEE80F00BCE80F00AEE80F00BCE80F009F
:10417000AEE80F009CE8030000234FF003084FF067
:10418000380CFF2285F8238285F824C24FF0FE0800
:104190004FF03D0C85F8253285F8263285F8273218
:1041A0008EE80300C22085F81C220722AEF13701F9
:1041B00085F81F3285F822320EF1070E85F81D8230
:1041C00085F81EC285F8200285F8212201E011F849
:1041D000012F8E451344FAD1DB43606884F86032C6
:1041E000036802495B68452298476BE6E41EFF1F9F
:1041F00068820000F01EFF1F38B508217148724D1B
:1042000001F086FF714802F0B3F800240121262056
:10421000C5F8E444C5F8E844C5F8F044C5F8EC44F2
:1042200001F044F80121272001F040F80121252068
:1042300001F03CF80221212001F038F8022122206F
:1042400001F034F801211D2001F030F801211E2079
:1042500001F02CF801211C2001F028F8022118207F
:1042600001F024F80221192001F020F80422584915
:10427000212000F0E7FD04225549222000F0E2FD54
:1042800004225449182000F0DDFD04225149192070
:1042900000F0D8FD05F27C422346114602E00133CE
:1042A000192B0AD051F8040F0028F8D103F59070AB
:1042B000494945F8201064334B60002302E0013384
:1042C000192B0AD052F8041F0029F8D103F5907178
:1042D000424A45F8212064335360414A0023114685
:1042E00002E00133192B0BD051F8040F0028F8D14C
:1042F0003C4905EB83007D33C0F81C148B60CD6016
:104300003749002302E00133192B0BD051F8040F79
:104310000028F8D1344905EB83007D33C0F81C1424
:104320008B60CD602E49002302E00133192B0BD0A6
:1043300051F8040F0028F8D12C4905EB83007D3398
:10434000C0F81C148B60CD602549002302E00133C6
:10435000192B0BD051F8040F0028F8D1244905EB94
:1043600083007D33C0F81C148B60CD60002302E015
:104370000133192B0BD052F8041F0029F8D11D4A24
:1043800005EB83017D33C1F81C249360D5601A4C82
:10439000204600F09FF80125D02320466B2184F8A9
:1043A0003B3084F85E5084F85D5000F07FF8204682
:1043B000002100F07BF829462046BDE8384000F097
:1043C000E1B900BFF0820000C81CFF1F180BFF1FDF
:1043D00029070000290A0000402AFF1F242AFF1F86
:1043E000E020FF1F901CFF1FE029FF1F381CFF1F4C
:1043F000501CFF1F7C1CFF1F8008FF1F70B40D683E
:10440000064B0468064E6A0AA3FB0232D3091C4419
:1044100006FB135304600B6070BC7047834B0400B1
:1044200000CA9A3B0020704790F8392090F8380075
:10443000101A704790F8383090F839209A4205D910
:104440005A1C034480F83820187E70474FF0FF3024
:10445000704700BF90F8383090F839209A4286BFF4
:104460001B18187E4FF0FF30704700BF704700BF29
:1044700038B50546B0F85E0090B195F85D30144649
:10448000C3F1210294420CD805F13B0018442246A6
:1044900000F026FB95F85D30234485F85D3020461A
:1044A00038BD012014462871EEE700BFB0F85E3039
:1044B0006BB190F85D30202B07D8C218013380F81B
:1044C0005D30012082F83B1070470123037100200A
:1044D000704700BF0023426980F8383080F83930D7
:1044E00080F85C3080F85D3080F85E3080F85F30B6
:1044F00006CA30B40D68046943662A4383660A60BD
:10450000A370426990F861301649146813441D7A0B
:104510005B7B01EBC5051B026D6803F4E06343F0B0
:1045200064032B6090F8623013449D7CDB7D01EBCB
:10453000C5011B02496803F4E06343F064030B60A8
:1045400021685368194205D003692C225A70036907
:1045500004229A71036920225A71036980229A7099
:1045600030BC70479C83000038B50269D478E4B24F
:10457000E106054624D51023D37063061FD504F049
:10458000040404F0FF03002C5AD042496A6E002351
:104590000B7085F85D30002A66D0904795F85D3045
:1045A000002B61D02B69D0229A702B6995F83B20A3
:1045B0001A712B69012285F85C200222DA7038BD5D
:1045C00004F0400303F0FF00002BD8D19379DBB255
:1045D00003F0600160294ED0937803F0100303F0DC
:1045E000FF01B3B114F0010437D195F85C3095F8B0
:1045F0005D1099424BD9591C2B4485F85C1093F8F7
:104600003B3013712B69D0229A702B690222DA7029
:10461000D5E785F86010937943F0200393712B69F7
:1046200095F839101A791F29D2B2C6D819480078DE
:104630000028C2D06818013185F839100276BCE72D
:104640002A6985F83930C02393702B69114A19798A
:10465000012111700222DA70B1E7C02393702B6937
:104660001A790222DA70AAE70122002385F85D2078
:1046700085F83B3096E703F0DF039371AB6E23B10F
:1046800085F8380095F8390098472A69A4E714712D
:10469000B8E700BF682AFF1F2DE9F047374FDFF862
:1046A000E0903B68026982B006460093DDF8008026
:1046B00000214FF49675D3789B065BD53B68019338
:1046C000019BC8EB03030F2BF5D949B1102BF2D096
:1046D00000209070336980229A7002B0BDE8F087A4
:1046E000726996F8613013440521187A00F0DEFDF6
:1046F000726996F861301344012193F812A0504674
:1047000000F0D4FD09240021504600F0C9FD2B46DD
:10471000013BFDD10121504600F0C2FD2B46013B7B
:10472000FDD1013CEFD1706996F8611001444FF45E
:1047300016720C7A4B7B09EBC4011B02496803F427
:10474000E06343F064030B6096F862300344997CA5
:10475000DB7D09EBC1011B02496803F4E06343F010
:1047600064030B60013AFDD13269D3789B064FF0A8
:104770000101A3D4012002B0BDE8F0876C2AFF1F1D
:104780009C830000F0B503691222DA700269937805
:1047900003F0200385B004460D46002B5ED0B42301
:1047A00093703C4922690B680093009E05E00B68FA
:1047B0000193019B9B1B042B42D8D37803F0200369
:1047C00003F0FF00002BF2D094F85D30002B31D0C5
:1047D0004FF0000E4FF0020C04EB0E0393F83B3049
:1047E00013710B680393039F206907E09B060DD5A7
:1047F0000B680293029BDB1B052B28D8C378DBB226
:1048000003F0020202F0FF06002AEFD080F803C096
:104810002669F378DBB2DF0632462DD49F062BD50E
:10482000DB0731D40EF1010E94F85D305FFA8EFE95
:104830007345D1D800201DBB002384F85E3004E00E
:104840009070236980229A70042005B0F0BD8670B4
:104850002369802204209A7005B0F0BD03F0FF06A2
:10486000FFF71AFF10B9042005B0F0BD236984F8E2
:104870005F60B0229A7094E78023B3700420DAE777
:1048800026698023B370D7E7BEF1000F0CBF02206A
:104890000320F6E76C2AFF1F2DE9F0410669002589
:1048A000122780F8385080F83950F770D0F810C0CF
:1048B0009CF802E00EF0200E88B0044688461546AB
:1048C0001E46BEF1000F49D0B4238CF802307A4B5B
:1048D00021691A680092DDF800E006E01A6801928A
:1048E0000198CEEB0000042830D8C87800F02000F2
:1048F00000F0FF070028F1D04FEA480242F0010221
:10490000D2B20A711A680292DDF808E0206906E066
:104910001A6803920399CEEB010105292AD8C178C0
:1049200001F0020101F0FF070029F1D04FF0020C65
:1049300080F803C02269D17811F0110722D12DBB74
:10494000002E0CBFA0238023937003E08F70236997
:1049500080229A70384608B0BDE8F0810EF0FF075B
:10496000FFF79AFE0028F5D0236984F85F70B02223
:104970009A70ACE787702369802238469A7008B035
:10498000BDE8F081802393700027E3E7012D78D004
:10499000A021917021690A79BE4667464FF0A80CA4
:1049A0001A680492049805E01A680592059A121A8A
:1049B000052A4DD8CA7802F0020202F0FF08002A48
:1049C000F2D0CF702169CA78D2B212F0100F084627
:1049D0005DD192065BD5013DEDB2012D4CD0BEF10B
:1049E0001F0F3ED90A79012DDAD11A680692069D69
:1049F00005E01A680792079A521B052A56D8C27812
:104A000002F0020202F0FF01002AF2D00223C3707A
:104A10002269D378DBB2D9063BD49B0637D5B023C5
:104A2000BEF11F0F937043D8226904EB0E03127975
:104A30001A760EF1010E5FFA8EFE00BF00BF00BFB6
:104A400016B1236980229A7084F839E0774681E7AD
:104A500081F80280236980229A70774684F839E0D1
:104A600078E704EB0E0291F8048082F818800EF1CA
:104A7000010E5FFA8EFEB6E781F802C02169084692
:104A8000ADE7A82191702069BE460279ADE777466F
:104A900060E710214FF49673D170013BFDD122697C
:104AA000937803F0F7037746937053E78170D1E76B
:104AB00023691B79C1E700BF6C2AFF1F0148FFF77C
:104AC00053BD00BF8008FF1F0148FFF74DBD00BF69
:104AD000EC08FF1F0148FFF747BD00BF1408FF1F88
:104AE00001B441EA000313F003036FD1403A41D30C
:104AF00051F8043B40F8043B51F8043B40F8043BB8
:104B000051F8043B40F8043B51F8043B40F8043BA7
:104B100051F8043B40F8043B51F8043B40F8043B97
:104B200051F8043B40F8043B51F8043B40F8043B87
:104B300051F8043B40F8043B51F8043B40F8043B77
:104B400051F8043B40F8043B51F8043B40F8043B67
:104B500051F8043B40F8043B51F8043B40F8043B57
:104B600051F8043B40F8043B51F8043B40F8043B47
:104B7000403ABDD2303211D351F8043B40F8043BE7
:104B800051F8043B40F8043B51F8043B40F8043B27
:104B900051F8043B40F8043B103AEDD20C3205D3F7
:104BA00051F8043B40F8043B043AF9D204320AD0ED
:104BB000D2071CBF11F8013B00F8013B03D30B786F
:104BC00003704B78437001BC704700BF0C2A4AD376
:104BD00010F0030311D0C3F10403D21ADB071CBF8A
:104BE00011F8013B00F8013B07D311F8013B00F835
:104BF000013B11F8013B00F8013B11F003033FF4C6
:104C000075AF30B4043AC91AC3F1040C51F8044B1F
:104C1000022B19D0032B0BD0240A51F8043B1D069C
:104C200044EA050440F8044B1C46043AF4D216E06A
:104C3000240E51F8043B1D0244EA050440F8044BDD
:104C40001C46043AF4D20AE0240C51F8043B1D043B
:104C500044EA050440F8044B1C46043AF4D20432FA
:104C6000B1EB0C0130BC043AA0D3013A11F8013B7E
:104C700000F8013BF9D20B7803704B7843708B78C6
:104C8000837001BC704700BF08B5104C08E0236872
:104C900059050DD423681A050FD42368DB0411D4F9
:104CA00023685803F3D500F0EBFC23685905F1D5D0
:104CB00000F00EF823681A05EFD500F009F8236814
:104CC000DB04EDD500F004F8EAE700BF34800440CF
:104CD00008B5FFF7D9FF00BF014B10221A807047BB
:104CE00000200540704700BF094908B50B6830B186
:104CF0006A461844A2F50052904202D20860184653
:104D000008BD02F08DF90C2303604FF0FF3008BDA1
:104D10005809FF1F084A1378802B01D000207047E4
:104D20000649074B07480860002119701378802B4B
:104D3000FCD00120704700BF03E0074044800440DE
:104D400001E0074000002822094A1378012B01D016
:104D50000020704703F1804303F5FC2360211970A4
:104D60001378802BFCD1034B034A1A600120704753
:104D700003E007404480044000000602704700BF83
:104D800010B4114B53F8302092F8804234B1012313
:104D900079B182F880305DF8044B704703EBC003B3
:104DA0005B681A6851B922F002021A605DF8044B80
:104DB000704782F800315DF8044B704742F00302FF
:104DC0001A605DF8044B70479C8300001C4A02EB9C
:104DD000C00301295B6811D004291BD052F83000B0
:104DE000002280F8802229B1022920D0032922D074
:104DF0001A6070474FF480721A60704752F83000A2
:104E00004FF4A27280F880121A601A6822F0200211
:104E10001A60704752F830104FF4A272012081F8E6
:104E200080021A601A6842F020021A60704740F24D
:104E300003121A6070474FF481721A60704700BF06
:104E40009C8300003F2848D8F8B5042A44D8DFE8FE
:104E500002F0484B4E0345004FF410262B4B03EB5A
:104E6000C0030D465C68216811F4E06148D0284B0E
:104E7000284A2949C3F82C2104F140422748C3F8A5
:104E80003411A2F59221264FC3F830017C29254820
:104E9000C3F83871C3F83C012CD9A2F594237C2BBC
:104EA0002AD9A2F596237C2B28D9A2F598237C2B0E
:104EB00029D9A2F59A227C2A27D81B4872B62368E2
:104EC00023F4702343F08072C4F3840116432360FB
:104ED00040F82150266062B6F8BD70474FF4302686
:104EE000BCE74FF40026B9E74FF44026B6E74FF48D
:104EF0002026B3E70D48E1E70D48DFE70D48DDE781
:104F0000FFF764FFB3E70C48D8E7F8BD9C830000C7
:104F10000002FF1FE107FF1F8907FF1FB507FF1FE3
:104F20005D07FF1F3107FF1FA40AFF1F5C09FF1F5A
:104F3000D409FF1F340AFF1F640AFF1F30B4054B5A
:104F4000054D064C002210211A602A60206019606D
:104F500030BC704714D0034004D0034000D003405D
:104F600038B5A0F14203012B044624D900297ADD8B
:104F7000994B1B78012505FA03F28A4202D83F2893
:104F80002CD938BDC21E012A30D9A0F11D02012A38
:104F900078D90E285BD9A4F12302032A5CD9A4F1A5
:104FA0001002012A94BF8D4A8D4A126802FB011239
:104FB00022FA03F320E0884B1B780B2B0AD90C2B29
:104FC0001CBF0C3B1941422C084657D0BDE8384065
:104FD00001F0FCBAC3F10C039940F4E72946FFF74E
:104FE000CFFE2946BDE83840FFF7F0BE7D4A126883
:104FF00002FB011222FA03F3A21E242A00F2E3802C
:10500000DFE812F0DA00D300CC00C500BE00B70024
:10501000B000A900A200E100E100E1009B00E10076
:1050200094008D00E100E10086007F0078007100AF
:10503000E100E100E100E100E1006A006300E1005D
:10504000E100E100E1005C0055004E00470044F241
:105050008412C240D2079ED5634A126802FB011235
:1050600022FA03F3C8E73F288BD80021FFF788FE18
:1050700020460121BDE83840FFF7A8BEBDE8384012
:1050800001F086BA594A126802FB011222FA03F3B0
:10509000B2E75749574A0B604FF45173136038BD5C
:1050A0005549564A0B604FF45173136038BD54494B
:1050B000544A0B604FF45173136038BD5249534A40
:1050C0000B604FF45173136038BD5149514A0B6066
:1050D0004FF45173136038BD4F49504A0B604FF481
:1050E0005173136038BD4E494E4A0B6040F2444341
:1050F000136038BD4C494D4A0B6040F24443136085
:1051000038BD4B494B4A0B6040F24443136038BDF5
:1051100049494A4A0B6040F24443136038BD48494C
:10512000484A0B6040F24463136038BD4649474A21
:105130000B6040F24463136038BD4549454A0B603B
:1051400040F24443136038BD4349444A0B6040F287
:105150004443136038BD4249424A0B6040F2444325
:10516000136038BD4049414A0B6040F2444313602C
:1051700038BD3F493F4A0B6040F24443136038BD9D
:105180003D493E4A0B6040F24443136038BD3C4900
:105190003C4A0B6040F24443136038BD3A493B4AF5
:1051A0000B604FF45173136038BD3949394A0B60B5
:1051B0004FF45173136038BD3749384A0B6040F2E1
:1051C0004443136038BD3F2C3FF6DBAE7F29D4BF8C
:1051D00000210121204649E7100BFF1F08900C40D9
:1051E000088003400890034008900B4008800B4063
:1051F00048900B402CB0044040900B4028B0044035
:1052000038900B4024B0044030900B4020B0044054
:1052100018800B404CA0044010800B4048A0044074
:105220001880034008B004401080034004B00440DC
:105230004080034018C004403880034014C004403C
:1052400018900C4004A0044010900C4000A00440B2
:1052500018900B4004C004402880034010B0044064
:10526000208003400CB0044028900B400CC0044048
:1052700020900B4008C004403080034010C0044020
:10528000488003401CC00440189003403490044000
:10529000109003403090044010900B4000C0044038
:1052A0003F2801D8FFF76CBD704700BF3F2801D8E9
:1052B000FFF78CBD704700BF72B60D490D4B0E4A0B
:1052C0001B680868126862B6520102D5322B88BF8B
:1052D0000130C3F52F33094903F21F334FF47A72BB
:1052E0009B08A1FB031302FB00F000EB9300704747
:1052F0006C2AFF1F18E000E004ED00E0176CC116F7
:105300002DE9F843054672B6224F234B234A1B680A
:105310003C68126862B6520102D5322B88BF013454
:10532000B5B3C3F52F3303F21F331D4EDFF868907A
:10533000DFF868809B084FF47A72A6FB031302FB28
:1053400004F404EB930472B6D9F800103A68D8F864
:1053500000E062B6C1F52F3303F21F339B08A6FBB2
:1053600003031EF0806FC4EB93034FF47A7002D0F6
:10537000322988BF013200FB0233B3F57A7F04D3B0
:10538000013D05D004F57A74DDE701F01BF8DAE79A
:10539000BDE8F8836C2AFF1F18E000E004ED00E090
:1053A000176CC116F8B54E4B4E48DFF85CC14E4C39
:1053B0004E49DFF858E14E4E4E4D4F4F4FF00062D0
:1053C0001A604FF080521A604FF000521A604FF08E
:1053D00080421A604FF000421A60002202602823C7
:1053E0004EF6FF70CCF80000CEF8003023600EF5CA
:1053F000012E0B6033602B6006F500263B6005F53F
:105400000025A36207F500278B6204F5012401F54E
:10541000012106F6E87605F6E87507F57F67103195
:105420000EF1100E203433602B60CEF800303B605C
:105430000B602360314CBB618B6109212160A7F5B2
:10544000002704F58054203F08343A602060BB6098
:10545000E36047F8041C04F5FD2407F5FE27043734
:1054600004F2FC7422603860A360FB6044F8041C02
:10547000083404F6FC74C7F8FC2F2060A4F5E1247E
:10548000A4F2DC7433602B60C7F8F81F21681C4855
:1054900041F40071216001681A4C0EF57F4E0EF147
:1054A000E80E07F5883706F5803605F5803541F0BA
:1054B00000710160CEF8002047F6FF7108223960C4
:1054C00033602B60226000F0F3FF1920FFF718FF14
:1054D00000F010FD40F21310BDE8F840FFF710BFD8
:1054E00004E100E004800340148003401C8003407A
:1054F000248003402C80034034800340008003401C
:105500000480044000900C40088003400C8003405D
:10551000431E032B14D872B60A4951F8230068B110
:1055200070B4094C058834F81320466841F82360AC
:10553000521B24F8132062B670BC704762B67047E5
:1055400000207047C82AFF1FD02BFF1F01380328F7
:105550000BD872B6074B53F8203043B100205B687C
:105560000130002BFBD162B670470020704718460F
:10557000F9E700BF1C2BFF1FF0B472B61A491B4E8F
:10558000012311F8014B194F9A00240742F001053D
:1055900005D556F8324064B156F83520BAB101331A
:1055A000052BEED162B6124B00221A70F0BC00F04F
:1055B00023BD0F4C0F4D217807EB43130830013901
:1055C0005860217047F8325062B6F0BC7047084A04
:1055D0000949137807EBC5040830013B606013707C
:1055E00047F8351062B6F0E7C88500000000FF1FDD
:1055F000452BFF1F88004000C8004000431E032BBE
:105600001DD81B4A400140F0100030B4104472B65F
:10561000184CE25C032A1BD8DFE802F002121517CF
:1056200003220D88E25410F0080F14BFC82388230A
:1056300043EA054308314160036062B630BC7047FD
:1056400008300222EDE70522EBE708300422E8E704
:10565000094A52F8230038B1084A52F82300416041
:1056600042F8231062B6E9E742F82310034AF7E74D
:105670000000FF1F542BFF1F1C2BFF1F2C2BFF1F95
:105680002DE9F04FDFF814B3DFF814A387B044E03E
:10569000AD4F4FEA930807EBC809013ED9F8042043
:1056A00003F00803F6B2A2F1080003F0FF04002B98
:1056B00040F0038157F838301B0C99B222F8081CCF
:1056C000002B00F0F180A14B22F8064C42F8044C6C
:1056D00053F82620002A00F06C819D4D55F82630A5
:1056E00058609C4C45F8260034F81630194424F8CC
:1056F000161000F061FC002800F05481964A974B88
:1057000019F0080F00F1080018BF1346C9F804008B
:1057100047F8383008238BF800309BF80040E4B29B
:1057200060071BD58E4B1B78ABB18E490A7802F00F
:10573000FF032AB1013BDBB20B70002B00F0B583F5
:1057400089490A7802F0FF032AB1013BDBB20B70F2
:10575000002B00F0F68004238BF8003004F00803DF
:1057600003F0FF02002B00F0D5809AF80030DBB286
:105770001E098DD19C08744F57F8342007EBC401E3
:10578000C2F38302013A49680C2A7ED8DFE802F0AE
:1057900081817D7D7D7D7D7D427D7D7D07000868E9
:1057A000724B734D01936C4B4A68724E47F834301C
:1057B00081B240F281646D4B6A6028600022012052
:1057C000A1423A611A60BA61307000F2F680B1F518
:1057D000D06F80F0E882B1F5817F00F0D38200F2D3
:1057E000D881802900F04D81822940F09282A988D9
:1057F000614B01F07F01042900F28C825F4C89002B
:105800000B44227062701A78930740F1388320703D
:1058100002203AE1554B01931A6862B3584B59493B
:10582000544E18880C7896F800E04028054684F01D
:10583000010C28BF402544F00204BEF1000F81F89E
:1058400000C0A0EB050007EBC40C0CBF8821C821E9
:1058500080B28EF0010E41EA0541CCF80420188098
:1058600086F800E02A4447F8341010B9402D18BFDC
:105870000022019B1A603E4B1A88B2F5A06F04D13A
:1058800000219A785970404B1A70404A01231370D6
:1058900040E7374A158842F22100854200F05281E4
:1058A0002D4A47F83420F0E72B4A2C4B19F0080F0B
:1058B00018BF134647F838302CE700F09DFB344AF8
:1058C000344952F82630002B00F02D8158688C5D49
:1058D00042F8260003F10802C9F80420032C05D879
:1058E000DFE804F0120F150204228A551A8819F015
:1058F000080F0CBF8823C82343EA024347F8383017
:1059000008E702228A55F1E703228A55EEE70522CD
:105910008A55EBE7E00700F17881210600F1A281CA
:10592000A20706D51C4A1D4913780220DBB213706A
:105930000870E30602D5194B10221A7007B0BDE8B3
:10594000F08F00F0C5FC06E70000FF1FC82AFF1F0C
:10595000742AFF1FD02BFF1FC800400088004000A2
:10596000502BFF1FD92AFF1F582BFF1F702AFF1F24
:105970003C2BFF1FD82AFF1FC0200740482BFF1FCA
:10598000842AFF1F442BFF1F9820074094200740C4
:105990001C2BFF1F542BFF1F88200740802007402F
:1059A00090200740B74A47F8380013780133137046
:1059B000B0E643F82600B44D93E642F22104A1423A
:1059C00000F0AD8000F20E81B1F5086F00F0548157
:1059D000B1F5106F40F09D81AC4AA9781170AC4DC3
:1059E000042402E00134142C0CD057F8343019068A
:1059F000F8D505EBC40301345868083800F0FCFA08
:105A0000142CF2D1A349A44BA44A0291A449A54C59
:105A10009D4D039405964FF0000988461C46164696
:105A20000495206828B1456800F0E6FA2846002D64
:105A3000F9D100232360049B30681A46002342F802
:105A4000293028B1456800F0D7FA2846002DF9D151
:105A500000223260029A98F800301146002241F884
:105A6000042B039A0291023B4FF0000122F8191017
:105A7000032B00F2B481DFE813F0E201AE01E20192
:105A8000AE01894C022022706270EA88824280F066
:105A90000D8286490D78402A45F0020E944607EBA8
:105AA000CE0028BF4FF0400C04EB0C03446002937F
:105AB000CCEB02004FEA0C484FF001090022C82449
:105AC00044EA080385F0010447F83E3032700C7058
:105AD000DFF8BCE1764BDFF8D481002840F020816C
