:1000000000000320D1010000695D0000215D0000B7
:10001000215D0000215D0000215D0000215D0000E8
:10002000215D0000215D0000215D0000695D000090
:10003000695D0000215D0000F5730000F9730000A8
:10004000695D0000695D0000695D0000695D000098
:10005000695D0000695D0000695D0000695D000088
:10006000695D0000695D0000695D0000695D000078
:10007000695D0000695D0000695D0000695D000068
:10008000695D0000695D0000695D0000695D000058
:10009000695D0000695D0000695D0000695D000048
:1000A000D95A0000E55A0000695D0000695D000052
:1000B000695D0000695D0000695D0000695D000028
:1000C000695D0000695D0000695D0000695D000018
:1000D000695D0000695D0000695D0000695D000008
:1000E000695D0000695D0000695D0000695D0000F8
:1000F000695D0000695D0000695D0000695D0000E8
:10010000695D0000695D0000695D0000695D0000D7
:10011000695D000019670000695D0000695D00000D
:10012000695D0000695D0000695D0000695D0000B7
:10013000695D0000695D0000695D0000695D0000A7
:10014000695D0000695D0000695D0000695D000097
:10015000695D0000695D0000695D0000695D000087
:10016000695D0000695D0000F15A0000695D0000F2
:10017000695D0000695D0000695D0000695D000067
:10018000695D0000695D0000695D0000695D000057
:10019000695D0000695D0000695D0000695D000047
:1001A000695D0000695D0000695D0000695D000037
:1001B000695D0000695D0000695D0000695D000027
:1001C000695D0000695D0000695D0000695D000017
:1001D0005C4B4CF2205210B51A804DF628121A8052
:1001E00000BF00BF05F0C4FD574B4FF030621A60EE
:1001F000564A9A60564ADA60564B4FF470021A60BB
:10020000554B564A1A60564B1A78110703D51A787F
:1002100042F008021A70534B5349AA221A70534AEB
:10022000534B8B4204D252F8040F43F8040BF8E707
:10023000504B514900228B4202D243F8042BFAE77B
:100240004E494F4A002352F8230041F8230001335E
:10025000742BF8D14B4B4C4A802103F8011B93427D
:10026000FBD14A4B454A1A60494B8A221A70A3F5C2
:10027000805324225A70A0221A709A799207FCD5D2
:100280009A79D406FCD4434A937903F00C03082BE3
:10029000FAD1414B60221A7002331A78802AFCD1BD
:1002A0003C4B01221A715D225A719A799006FCD555
:1002B0009979384A4906FBD5384B394919600021EC
:1002C000596020231370937903F00C030C2BFAD19F
:1002D000344B354A1A60354A354C136813F4807331
:1002E00003D123604FF4A8531360324B324A1A6093
:1002F00000225A60072243F8042C304AC3F80C2D20
:1003000062B606F09BF82368DA0705D52C4805F09D
:1003100061FE2C4B2C4A1A602C4B1B785B0609D5CE
:10032000284C294B22689A4204D1254805F052FEF8
:100330000023236009F092F805F020FD07F0CEF8C5
:10034000FEE700BF0E20054030800440823F0400DD
:100350000100002B88ED00E0002008E0030000858C
:1003600002D0074000E007402414FF1F6CAF0000DC
:100370003007FF1F2814FF1FC82CFF1F0002FF1F9C
:100380000000000000E400E064E400E008ED00E0AC
:10039000005006400040064001E007404480044011
:1003A0000000060204800440C010070010D0034083
:1003B00014D0034014E000E01FBF02000000202022
:1003C00047CE0C621CE00340A5C3945A00F00740DE
:1003D000FFFFFFFFFFFFFFFFFFFFFFFFFFFFFFFF2D
:1003E000FFFFFFFFFFFFFFFFFFFFFFFFFFFFFFFF1D
:1003F000FFFFFFFFFFFFFFFFFFFFFFFFFFFFFFFF0D
:10040000FFFFFFFFFFFFFFFFFFFFFFFFDEF9FFFF23
:1004100010B5054C237833B9044B13B10448AFF33E
:1004200000800123237010BD2814FF1F000000006E
:1004300070AF0000084B10B51BB108490848AFF376
:1004400000800848036803B910BD074B002BFBD0A0
:10045000BDE81040184700BF000000002C14FF1F2B
:1004600070AF00002414FF1F0000000043680B70F1
:1004700043681B0A4B70C3888B70C379CB70836849
:100480000B7183681B0A4B7143898B71C37ACB71E3
:10049000082070470B7843604A7843EA02234360A0
:1004A0008A7843EA02434360CA7843EA02634360BE
:1004B0000B7983604A7943EA022383608A7943EAAD
:1004C00002438360CA7943EA02638360082070476D
:1004D00000487047ECA8000000487047FCA80000E6
:1004E000F0B50C460A788280064614F8010F002306
:1004F00042EA0022B2801A4614F8010F98400833ED
:10050000202B42EA0002F7D1971D062F58D901F19E
:10051000050E551D73464C1913F8010F03F8010C15
:10052000A342F9D100234B5518460D44C6F808E004
:1005300015F8014F84400830202843EA0403F7D11E
:10054000381D0344834209D909320A440446013460
:1005500012F8015F02F8015CA342F8D80138CF1805
:100560000024084407F8014C2246F06017F8015BAC
:1005700095400832202A44EA0504F7D1181D0444A6
:10058000A04209D203330B440246013213F8015F43
:1005900003F8015CA242F8D30D1901380844002386
:1005A00005F8013C3061A8786B780A5DED780104AC
:1005B00041EA0323134343EA0563201D7361F0BD41
:1005C000551D01F1050EADE70048704720A9000058
:1005D000004870473CA900000B78F0B40371002379
:1005E00006460C461D4614F8012F9A400833202B6E
:1005F00045EA0205F7D1681D052801F1040708D96D
:100600002C1D3B460C4413F8012F03F8012C9C428F
:10061000F9D10D4400232B71B760F0BC704700BFC7
:100620000048704760A900000048704774A90000A6
:1006300000487047D0A800000048704798A9000003
:10064000B0F904300B70C3F307224A7002207047E0
:100650004A780B7843EA022383800220704700BF68
:1006600000487047BCA9000000487047CCA90000B2
:1006700043680B7010B4180C1C0A1A0E4C7088706A
:10068000CA7004205DF8044B704700BF10B44C786A
:100690000A788B78C97842EA042242EA034343EAA3
:1006A000016343605DF8044B0420704700487047C5
:1006B000F0A900000048704704AA000000487047F5
:1006C00028AA00000048704740AA00000048704770
:1006D00064AA00000048704780AA000000487047E4
:1006E000A4AA000000487047B8AA000010B40B7814
:1006F0004C78426943EA042303825DF8044B0C30D2
:10070000104700BF8069704700487047BCA90000CF
:1007100000487047CCA90000406B70470048704704
:10072000A4AA000000487047B8AA000090F8F80496
:10073000704700BFFFFFFFFFF8B505F009FE504C02
:10074000504D08F0E7FA4CA3D3E9002308F082FCEF
:10075000D4E9002308F0A0F9C5E9000105F0F8FD8F
:1007600008F0D8FA44A3D3E9002308F073FC464B01
:10077000D3E90067C4E900010022444B3046394602
:1007800008F0B0FD38B1304639460022404B08F041
:10079000C7FD00284ED13F4BD3ED007A3E4A3F4B78
:1007A000B3EE047AF4EEC77AF1EE10FA06D5BBEE9A
:1007B000047AF4EEC77AF1EE10FA2BDCD2ED006A7F
:1007C000D3ED007A93ED016A93ED027AD3ED034AFB
:1007D0009FED334A334BF8EEE77AB8EEC66A87EE00
:1007E000A65AC6EE265AB8EEC77AF8EEE44A87EE65
:1007F000266A84EEA67A75EE047AF5EE006A75EE46
:10080000A77A76EE277A77EE277A67EEA67AC3ED97
:10081000007AF8BDD2ED006A1C68181D07C866EEA4
:10082000A77A5C60FDEEE77A9860D960C3ED007A44
:100830001A61C7E71C4B1B68012B15D0002BAAD1EE
:100840001A4B1B4E93E80500336802F100415C1E11
:10085000D5E90023346008F0FDFB08F0A9FD0D4B3D
:1008600007EE900A186099E7114E104A3368D2E9F2
:1008700000015C1CECE700BF0000000080842E41FA
:10088000701DFF1F6014FF1F601DFF1F00009E40B2
:1008900000009EC0182BFF1F2008FF1FC022FF1F53
:1008A000000000008C14FF1FBC22FF1F1808FF1F50
:1008B0008814FF1FFFFFFFFFF8B505F049FD504CFE
:1008C000504D08F027FA4CA3D3E9002308F0C2FBEF
:1008D000D4E9002308F0E0F8C5E9000105F038FD8F
:1008E00008F018FA44A3D3E9002308F0B3FB464B01
:1008F000D3E90067C4E900010022444B3046394681
:1009000008F0F0FC38B1304639460022404B08F080
:1009100007FD00284ED13F4BD3ED007A3E4A3F4BB6
:10092000B3EE047AF4EEC77AF1EE10FA06D5BBEE18
:10093000047AF4EEC77AF1EE10FA2BDCD2ED006AFD
:10094000D3ED007A93ED016A93ED027AD3ED034A79
:100950009FED334A334BF8EEE77AB8EEC66A87EE7E
:10096000A65AC6EE265AB8EEC77AF8EEE44A87EEE3
:10097000266A84EEA67A75EE047AF5EE006A75EEC4
:10098000A77A76EE277A77EE277A67EEA67AC3ED16
:10099000007AF8BDD2ED006A1C68181D07C866EE23
:1009A000A77A5C60FDEEE77A9860D960C3ED007AC3
:1009B0001A61C7E71C4B1B68012B15D0002BAAD16D
:1009C0001A4B1B4E93E80500336802F100415C1E90
:1009D000D5E90023346008F03DFB08F0E9FC0D4B3D
:1009E00007EE900A186099E7114E104A3368D2E971
:1009F00000015C1CECE700BF0000000080842E4179
:100A0000902AFF1FF82AFF1F9014FF1F00009E402E
:100A100000009EC06C1DFF1F2008FF1FB014FF1FA9
:100A200000000000B81CFF1F841DFF1F1808FF1FD7
:100A3000342BFF1F43682DE9F0470B7043681B0AF6
:100A40004B70C3888B70C379CB704368002B00F068
:100A500085800A4600250426C36853F825301371A3
:100A60001C0C1F0A1B0E94715771D371436801351A
:100A7000AB42344602F1040206F10406ECD804F15C
:100A8000080204F1050A04F1060904F1070804F15B
:100A9000090C04F10A0E04F10B0517460C34036926
:100AA0008B5503691B0A01F80A30438A01F80930A3
:100AB000C37C01F808300369F3B101EB070E7546FA
:100AC0000022836953F822300EF822301C0C1E0AD3
:100AD0001B0EAC706E70EB700369013293423C46A2
:100AE00005F1040507F10407EBD804F1050C04F146
:100AF000060EE51D3A460834C3698B54C3691B0AC8
:100B000001F80C30C38B01F80E30C37F4B55C3691D
:100B10000BB30F4680460026D8F8243053F8260041
:100B200009F02EFCB10005463A19002325FA03F01E
:100B30000833202B02F8010BF8D1D8F82430043404
:100B4000381959582A4605F017F8D8F81C300136DC
:100B5000B3422C44E0D82046BDE8F087082217466F
:100B60000C240B254FF00A0E4FF0090C4FF007082C
:100B70004FF006094FF0050A042690E770B5037997
:100B80000B70064680680D4609F0FAFB2A460446BB
:100B9000002324FA03F10833202B02F8011FF8D1B7
:100BA000B168681D224604F0E7FF601D70BD00BFFC
:100BB000F8B583880B7083881B0A4B7006468068E3
:100BC0000D4609F0DDFB030E010A020C6B71A870E3
:100BD0002A71E97002460446B168A81D04F0CCFFF2
:100BE000F06809F0CDFB611D02462944063400235C
:100BF00022FA03F00833202B01F8010FF8D1043456
:100C00002819F168144404F0B7FF306909F0B8FB03
:100C10002A190746002327FA03F10833202B02F88C
:100C2000011BF8D1043428193A46316904F0A4FFB5
:100C3000381973692B540544190A1A0C1B0E697074
:100C4000AA70EB700430F8BD0846114606F0ACBA45
:100C500006F044BA2DE9F04F0A784B788C780546B7
:100C600042EA0323C8780E4643EA0443696843EA2C
:100C700000648C4283B000F2BA806C60002C00F0FB
:100C8000BF8005F10809344600274FF00408A17918
:100C90006379227994F807E0E868090441EA0323BC
:100CA000134343EA0E63AB6000EB8700042249461E
:100CB00004F062FF6B680137BB42424604F1040452
:100CC00008F10408E3D802F108074146B94602F1E9
:100CD000050E901DD31D02F1090B02F10A0802F165
:100CE0000B0A02F10C04305C16F80E20715C16F849
:100CF00003E02B69000440EA02220A4342EA0E6242
:100D00009A4200F292802A614AB305F1140A06EB76
:100D100009074FF00008B9787B783A78FC78A86921
:100D2000090441EA0323134343EA04636B6100EBC4
:100D300088000422514604F01FFF2B6908F10108C6
:100D400043454C4607F1040709F10409E3D804F1CF
:100D5000050B04F1060804F1070A4F46083416F89B
:100D6000082016F80B00F35D16F80A70E969120402
:100D700042EA0022134343EA07678F424FD8EF61EC
:100D80008FB34FF00009C84605F1200700239E46A7
:100D9000311911F8012B9A400833202B4EEA020E2C
:100DA000F7D1201D8644704509D2E31C3344024626
:100DB000013213F8011F03F8011C7245F8D306EB4A
:100DC0000E02431E02F8018C686A33442B6200EB6A
:100DD000890004223946744604F0CEFEEB6909F11D
:100DE00001094B45D2D8204603B0BDE8F08FA100E1
:100DF000E86808F0D9FE6C60E860002C7FF441AF31
:100E00000827B9460C244FF00B0A4FF00A084FF0A0
:100E1000090B072306204FF0050E042163E7B900F4
:100E2000686A08F0C1FE6862A9E79100A8690192AA
:100E300008F0BAFE019AA86165E700BFD0ED027A1A
:100E400017EE903AC3F3C752FF2AF0B4C3F3160368
:100E500000F0FD81002A00F0128102F56072DC0CC6
:100E600044EA02145E01C3F3C707E4B2C2F30712F7
:100E7000F6B2C3F3C723F5EEC07AF1EE10FA4FF0E5
:100E8000000548BF62F07F024B71CA71CE700F71CE
:100E90008C710D704D708D70D0ED037A17EE903A15
:100EA000C3F3C752FF2AC3F3160300F0C581002A1B
:100EB00000F0038102F56072DC0C44EA02145E016A
:100EC000C3F3C707E4B2C2F30712F6B2C3F3C723F2
:100ED000F5EEC07AF1EE10FA4FF0000548BF62F06F
:100EE0007F024B73CA73CE720F738C730D724D7287
:100EF0008D72D0ED047A17EE903AC3F3C752FF2AF1
:100F0000C3F3160300F07781002A00F04D8102F54B
:100F10006072DC0C44EA02145E01C3F3C707E4B25A
:100F2000C2F30712F6B2C3F3C723F5EEC07AF1EEAF
:100F300010FA4FF0000548BF62F07F024B75CA758A
:100F4000CE740F758C750D744D748D74D0ED067A5A
:100F500017EE903AC3F3C752FF2AC3F3160300F00B
:100F60003F81002A00F0038102F56072DC0C44EA44
:100F700002145E01C3F3C707E4B2C2F30712F6B26C
:100F8000C3F3C723F5EEC07AF1EE10FA4FF0000577
:100F900048BF62F07F024B77CA77CE760F778C77A7
:100FA0000D764D768D76D0ED077A17EE903AC3F335
:100FB000C752FF2AC3F3160300F03381002A00F062
:100FC000B88002F56072DC0C44EA02145E01C3F3DF
:100FD000C707E4B2C2F30712F6B2C3F3C723F5EEB4
:100FE000C07AF1EE10FA4FF0000548BF62F07F02C0
:100FF00081F8253081F8272081F8236081F824705A
:1010000081F8264081F8205081F8215081F8225043
:10101000D0ED087A17EE903AC3F3C752FF2AC3F314
:10102000160300F0F380002A65D002F56072D80C38
:1010300040EA02105D01C3F3C706C0B2C2F3071253
:10104000EDB2C3F3C723F5EEC07AF1EE10FA4FF01C
:10105000000448BF62F07F0281F82B5081F82C60B9
:1010600081F82E0081F8284081F8294081F82A4033
:10107000302081F82D3081F82F20F0BC7047002BF4
:1010800000F009815B001C0200F10D814FF46072D9
:10109000013A5B0094B21F0222B2F9D52401E4B2F6
:1010A000C2F30612C3F316035E0144EAD344C3F34A
:1010B000C707F6B2C3F3C723DDE6002B00F0E680D6
:1010C0005B001E0200F1F2804FF46072013A5B0097
:1010D00094B21D0222B2F9D52401E4B2C2F3061281
:1010E000C3F316035E0144EAD344C3F3C707F6B261
:1010F000C3F3C723ECE6002B00F0C3805B001D02A6
:1011000000F1D7804FF46072013A5B0090B21C028C
:1011100002B2F9D50001C0B2C2F30612C3F316033E
:101120005D0140EAD340C3F3C706EDB2C3F3C72362
:1011300089E7002B00F0A0805B001F0200F1BC805B
:101140004FF46072013A5B0094B21E0222B2F9D5EC
:101150002401E4B2C2F30612C3F316035E0144EAAB
:10116000D344C3F3C707F6B2C3F3C72337E7002B53
:101170007DD05B001E0200F1A2804FF46072013A44
:101180005B0094B21D0222B2F9D52401E4B2C2F38D
:101190000612C3F316035E0144EAD344C3F3C70740
:1011A000F6B2C3F3C723EDE6002B5BD05B001C0255
:1011B00076D44FF46072013A5B0094B21F0222B2FF
:1011C000F9D52401E4B2C2F30612C3F316035E019B
:1011D00044EAD344C3F3C707F6B2C3F3C723A4E674
:1011E0005E01DC0CC3F3C707F6B244F0F004C3F3AE
:1011F000C7237F22C6E65E01DC0CC3F3C707F6B245
:1012000044F0F004C3F3C7237F228EE65D01D80CBF
:10121000C3F3C706EDB240F0F000C3F3C7237F224B
:1012200011E75E01DC0CC3F3C707F6B244F0F0042B
:10123000C3F3C7237F22D2E65E01DC0CC3F3C707EA
:10124000F6B244F0F004C3F3C7237F2240E65E0108
:10125000DC0CC3F3C707F6B244F0F004C3F3C723B2
:101260007F2208E61A461C461F461E465DE61A46C1
:101270001C461F461E4685E61A461C461F461E464D
:10128000ADE61A4618461E461D46DCE61A461C46C2
:101290001F461E461CE61A461C461F461E46EAE529
:1012A0001446382291E714463822FBE614463822C9
:1012B00016E71046382231E7144638224CE7144628
:1012C000382266E7D0ED017A17EE903AC3F3C752A1
:1012D000FF2AF0B4C3F3160300F0E680002A78D0AA
:1012E00002F56072DC0C44EA02145E01C3F3C70726
:1012F000E4B2C2F30712F6B2C3F3C723F5EEC07A25
:10130000F1EE10FA4FF0000548BF62F07F024B711A
:10131000CA71CE700F718C710D704D708D70D0EDE3
:10132000027A17EE903AC3F3C752FF2AC3F31603AB
:1013300000F0AF80002A69D002F56072DC0C44EA4C
:1013400002145E01C3F3C707E4B2C2F30712F6B298
:10135000C3F3C723F5EEC07AF1EE10FA4FF00005A3
:1013600048BF62F07F024B73CA73CE720F738C73E7
:101370000D724D728D72D0ED037A17EE903AC3F371
:10138000C752FF2AC3F3160378D0002A5AD002F5B9
:101390006072D80C40EA02105D01C3F3C706C0B208
:1013A000C2F30712EDB2C3F3C723F5EEC07AF1EE34
:1013B00010FA4FF0000448BF62F07F02CD740E7542
:1013C00088750C744C748C7418204B75CA75F0BCFD
:1013D0007047002B7DD05B001E0200F182804FF42D
:1013E0006072013A5B0094B21D0222B2F9D5240169
:1013F000E4B2C2F30612C3F316035E0144EAD34417
:10140000C3F3C707F6B2C3F3C72377E7002B5BD05C
:101410005B001F0268D44FF46072013A5B0094B223
:101420001E0222B2F9D52401E4B2C2F30612C3F3BC
:1014300016035E0144EAD344C3F3C707F6B2C3F30D
:10144000C72387E7002B3AD05B001D0246D44FF438
:101450006072013A5B0090B21C0202B2F9D5000141
:10146000C0B2C2F30612C3F316035D0140EAD340D3
:10147000C3F3C706EDB2C3F3C72396E75D01D80CEB
:10148000C3F3C706EDB240F0F000C3F3C7237F22D9
:101490008BE75E01DC0CC3F3C707F6B244F0F0043F
:1014A000C3F3C7237F2255E75E01DC0CC3F3C707F4
:1014B000F6B244F0F004C3F3C7237F221EE71A46B6
:1014C00018461E461D4670E71A461C461F461E4615
:1014D00040E71A461C461F461E460FE710463822B4
:1014E000C1E71446382286E7144638229FE700BF3A
:1014F000D0ED017A17EE903AC3F3C752FF2AF0B449
:10150000C3F3160300F04081002A00F0A88002F522
:101510006072DC0C44EA02145E01C3F3C707E4B254
:10152000C2F30712F6B2C3F3C723F5EEC07AF1EEA9
:1015300010FA4FF0000548BF62F07F024B71CA718C
:10154000CE700F718C710D704D708D70D0ED027A70
:1015500017EE903AC3F3C752FF2AC3F3160300F005
:101560000881002A00F0998002F56072DC0C44EAE0
:1015700002145E01C3F3C707E4B2C2F30712F6B266
:10158000C3F3C723F5EEC07AF1EE10FA4FF0000571
:1015900048BF62F07F024B73CA73CE720F738C73B5
:1015A0000D724D728D72D0ED037A17EE903AC3F33F
:1015B000C752FF2AC3F3160300F0D080002A00F0C0
:1015C000A68002F56072DC0C44EA02145E01C3F3EB
:1015D000C707E4B2C2F30712F6B2C3F3C723F5EEAE
:1015E000C07AF1EE10FA4FF0000548BF62F07F02BA
:1015F0004B75CA75CE740F758C750D744D748D74E2
:10160000D0ED047A17EE903AC3F3C752FF2AC3F322
:10161000160300F09880002A5DD002F56072D80CA5
:1016200040EA02105D01C3F3C706C0B2C2F307125D
:10163000EDB2C3F3C723F5EEC07AF1EE10FA4FF026
:10164000000448BF62F07F02CD760E7788770C7673
:101650004C768C7620204B77CA77F0BC7047002BF5
:1016600000F0AC805B001C0200F1B0804FF46072AF
:10167000013A5B0094B21F0222B2F9D52401E4B210
:10168000C2F30612C3F316035E0144EAD344C3F364
:10169000C707F6B2C3F3C72347E7002B00F08980E2
:1016A0005B001E0200F195804FF46072013A5B000E
:1016B00094B21D0222B2F9D52401E4B2C2F306129B
:1016C000C3F316035E0144EAD344C3F3C707F6B27B
:1016D000C3F3C72356E7002B66D05B001D027BD403
:1016E0004FF46072013A5B0090B21C0202B2F9D56D
:1016F0000001C0B2C2F30612C3F316035D0140EA53
:10170000D340C3F3C706EDB2C3F3C72393E7002B5F
:1017100045D05B001F0256D44FF46072013A5B0063
:1017200094B21E0222B2F9D52401E4B2C2F3061229
:10173000C3F316035E0144EAD344C3F3C707F6B20A
:10174000C3F3C7234BE75D01D80CC3F3C706EDB263
:1017500040F0F000C3F3C7237F226CE75E01DC0C8E
:10176000C3F3C707F6B244F0F004C3F3C7237F22E4
:1017700035E75E01DC0CC3F3C707F6B244F0F004B2
:10178000C3F3C7237F22FDE65E01DC0CC3F3C7076A
:10179000F6B244F0F004C3F3C7237F22C5E61A462D
:1017A0001C461F461E461AE71A4618461E461D4688
:1017B00041E71A461C461F461E46E3E61A461C46EB
:1017C0001F461E46B1E614463822B1E714463822B9
:1017D00058E71446382273E7104638228CE700BFDA
:1017E000F0B585B02D4B026801932D490391032379
:1017F0008DF8083014682B4A944240D100243822D6
:10180000054680F8233280F8242280F8254280F8AB
:10181000264280F8274200F50A7004F0ADF9FF2750
:101820003D20C223FE26072185F81E0285F82032BE
:1018300085F81F4285F82242224685F81C7285F8F9
:101840001D6285F8211205F2212305F25F2001E0D7
:1018500013F8011F83420A44FAD1D2436C6885F819
:1018600060222368104A5B68934205F507700DD12A
:10187000452105F099FC4FF0FF3005B0F0BD01AAFD
:101880000721A0474FF0FF3005B0F0BD01464522CB
:10189000204698474FF0FF3005B0F0BDECA70000A0
:1018A000DCAA00007D250000490C00002DE9F04174
:1018B00091F807E00E798B794F7905464FEA0E12C1
:1018C000C87802F4FE6236010C4646EA101019058B
:1018D00042EA131340F2FF7240EA073001F470014C
:1018E000934241EA000182B005F10C0705F11400B2
:1018F00000F0A18140F27E46B3421AB243D94FF0C4
:10190000FF4200232EF07F0E134302AE43EA0E6324
:1019100046F8043D0422314604F02EF994F80FC035
:1019200094F80CE0A37BE07A94F80D804FEA0C1257
:1019300002F4FE624FEA0E1E19054EEA101042EA4A
:10194000131340F2FF7240EA083001F47001934231
:1019500041EA000105F1180000F0648140F27E4E7A
:1019600073451AB21FD8B2F5607F00F39A81B2F5C1
:101970005A7F40F3A981C2F56072013241F0807153
:10198000D140002250E1B2F5607F00F36F81B2F5E3
:101990005A7F40F39381C2F56072013241F0807149
:1019A000D140002249E14FF0FF4200232CF07F0C90
:1019B000134343EA0C6304223146019304F0DCF83C
:1019C00094F817C094F814E0A37DE07C94F8158097
:1019D0004FEA0C1202F4FE624FEA0E1E19054EEA9F
:1019E000101042EA131340F2FF7240EA083001F48B
:1019F0007001934241EA000105F11C0000F00981E9
:101A000040F27E4E73451AB20FD8B2F5607F00F3F4
:101A10003681B2F55A7F40F35381C2F560720132CC
:101A200041F08071D1400022F5E04FF0FF420023E9
:101A30002CF07F0C134343EA0C63042231460193DC
:101A400004F09AF894F81FC094F81CE0A37FE07E9D
:101A500094F81D804FEA0C1202F4FE624FEA0E1E4B
:101A600019054EEA101042EA131340F2FF7240EAE1
:101A7000083001F47001934241EA000105F12400AD
:101A800000F0BE8040F27E4E73451AB20FD8B2F518
:101A9000607F00F3FD80B2F55A7F40F31381C2F5F9
:101AA0006072013241F08071D1400022AAE04FF013
:101AB000FF4200232CF07F0C134343EA0C63042203
:101AC0003146019304F058F894F827C094F824E0C4
:101AD00094F8263094F8230094F825804FEA0C12ED
:101AE00002F4FE624FEA0E1E19054EEA101042EA99
:101AF000131340F2FF7240EA083001F47001934280
:101B000041EA000105F1280071D040F27E4E734594
:101B10001AB20FD8B2F5607F00F39F80B2F55A7FFA
:101B200040F3CA80C2F56072013241F08071D14049
:101B300000225EE04FF0FF4200232CF07F0C1343A5
:101B400043EA0C6304223146019304F015F894F83B
:101B50002C2094F82FE094F82E3094F82B0094F871
:101B60002DC014014FEA0E1202F4FE62190544EA78
:101B7000101042EA131340F2FF7240EA0C3001F4F5
:101B80007001934241EA000105F12C0026D040F299
:101B90007E44A3421AB20ED8B2F5607F54DCB2F58F
:101BA0005A7F40F38780C2F56072013241F0807144
:101BB000D140002214E04FF0FF4200232EF07F0EB0
:101BC000134343EA0E6331460422019303F0D4FF2A
:101BD0002B6B384602B0BDE8F04118474FF0FF428A
:101BE0006FF07F43994236D04B1C5B08E6E74FF01D
:101BF000FF426FF07F43994236D04B1C5B089CE755
:101C00004FF0FF426FF07F43994248D04B1C5B0876
:101C100050E74FF0FF426FF07F43994236D04B1CA4
:101C20005B0805E74FF0FF426FF07F4399423FD0DA
:101C30004B1C5B08BAE64FF0FF426FF07F439942BE
:101C40001BD04B1C5B085DE6A3F56073DA056FF0F3
:101C50007F439942C8D11D4BB0E7A3F56073DA0505
:101C60006FF07F439942C8D1184B66E7A3F56073C4
:101C7000DA056FF07F439942E3D1144B42E6A3F5B6
:101C80006073DA056FF07F439942C8D10F4BCFE6FE
:101C9000A3F56073DA056FF07F439942B6D10B4B21
:101CA00008E7A3F56073DA056FF07F439942BFD16F
:101CB000064B7BE6002293E700229AE70022BCE76E
:101CC0000022A8E700229DE70022ADE7FFFF7F008A
:101CD000F0B5CF790D798B7991F805E006463A0198
:101CE000C87802F4FE622D010C4645EA1010190571
:101CF00042EA131340F2FF7240EA0E3001F4700121
:101D0000934241EA000183B006F1080000F0968199
:101D100040F27E45AB421AB241D94FF0FF42002358
:101D200027F07F07134302AD43EA076345F8043DFC
:101D30000422294603F020FF94F80FE0277BA37BC1
:101D4000E07A94F80DC04FEA0E1202F4FE623F01F1
:101D5000190547EA101042EA131340F2FF7240EAF5
:101D60000C3001F47001934241EA000106F10C00CD
:101D700000F05B8140F27E47BB421AB21FD8B2F539
:101D8000607F00F39181B2F55A7F40F3A081C2F5E4
:101D90006072013241F08071D140002247E1B2F51A
:101DA000607F00F36681B2F55A7F40F38A81C2F505
:101DB0006072013241F08071D140002240E14FF069
:101DC000FF4200232EF07F0E134343EA0E630422EA
:101DD0002946019303F0D0FE94F817E0277DA37DF8
:101DE000E07C94F815C04FEA0E1202F4FE623F0147
:101DF000190547EA101042EA131340F2FF7240EA55
:101E00000C3001F47001934241EA000106F1100028
:101E100000F0028140F27E47BB421AB20FD8B2F501
:101E2000607F00F32F81B2F55A7F40F34C81C2F5F9
:101E30006072013241F08071D1400022EEE04FF03B
:101E4000FF4200232EF07F0E134343EA0E63042269
:101E50002946019303F090FE94F81FE0277FA37FAB
:101E6000E07E94F81DC04FEA0E1202F4FE623F01BC
:101E7000190547EA101042EA131340F2FF7240EAD4
:101E80000C3001F47001934241EA000106F11800A0
:101E900000F0B98040F27E47BB421AB20FD8B2F5CB
:101EA000607F00F3F880B2F55A7F40F30E81C2F5EF
:101EB0006072013241F08071D1400022A5E04FF004
:101EC000FF4200232EF07F0E134343EA0E630422E9
:101ED0002946019303F050FE94F827E094F824700B
:101EE00094F8263094F8230094F825C04FEA0E1297
:101EF00002F4FE623F01190547EA101042EA13138B
:101F000040F2FF7240EA0C3001F47001934241EA62
:101F1000000106F11C006DD040F27E47BB421AB2B0
:101F20000FD8B2F5607F00F39B80B2F55A7F40F383
:101F3000C680C2F56072013241F08071D14000224A
:101F40005AE04FF0FF4200232EF07F0E134343EA86
:101F50000E6304222946019303F00EFE94F82F70BD
:101F600094F82C0094F82B1094F82E3094F82DE06F
:101F70003A0102F4FE62000140EA1110190542EA3A
:101F8000131340F2FF7240EA0E3401F470019342E1
:101F900006F1200041EA040123D040F27E44A3422E
:101FA0001AB20ED8B2F5607F51DCB2F55A7F40F319
:101FB0008480C2F56072013241F08071D14000220C
:101FC00011E04FF0FF42002327F07F07134343EA5D
:101FD000076329460422019303F0CEFD302003B0AD
:101FE000F0BD4FF0FF426FF07F43994236D04B1C5B
:101FF0005B08E9E74FF0FF426FF07F43994236D02C
:102000004B1C5B08A0E74FF0FF426FF07F43994203
:1020100048D04B1C5B0855E74FF0FF426FF07F4301
:10202000994236D04B1C5B080CE74FF0FF426FF033
:102030007F4399423FD04B1C5B08C3E64FF0FF4201
:102040006FF07F4399421BD04B1C5B0868E6A3F5F9
:102050006073DA056FF07F439942C8D11D4BB3E737
:10206000A3F56073DA056FF07F439942C8D1194B2D
:102070006AE7A3F56073DA056FF07F439942E3D115
:10208000144B4DE6A3F56073DA056FF07F43994278
:10209000C8D1104BD6E6A3F56073DA056FF07F4325
:1020A0009942B6D10B4B0DE7A3F56073DA056FF0DB
:1020B0007F439942BFD1074B84E6002293E7002279
:1020C0009AE70022BCE70022A8E700229DE7002251
:1020D000ADE700BFFFFF7F00F0B5CF790D798B79B9
:1020E00091F805E006463A01C87802F4FE622D0137
:1020F0000C4645EA1010190542EA131340F2FF722C
:1021000040EA0E3001F47001934241EA000183B0CD
:1021100006F1040000F0B28040F27E45AB421AB2F4
:1021200040D94FF0FF42002327F07F07134302AD51
:1021300043EA076345F8043D0422294603F01CFDE9
:1021400094F80FE0277BA37BE07A94F80DC04FEA68
:102150000E1202F4FE623F01190547EA101042EA2E
:10216000131340F2FF7240EA0C3001F47001934205
:1021700041EA000106F1080077D040F27E47BB42F9
:102180001AB21ED8B2F5607F00F39380B2F55A7F81
:1021900040F39880C2F56072013241F08071D14005
:1021A000002264E0B2F5607F7ADCB2F55A7F40F33A
:1021B0008D80C2F56072013241F08071D140002201
:1021C0005EE04FF0FF4200232EF07F0E134343EA00
:1021D0000E6304222946019303F0CEFCE77D207DA7
:1021E000E17CA37D94F815E03A0102F4FE6200015F
:1021F00040EA1110190542EA131340F2FF7240EA57
:102200000E3401F47001934206F10C0041EA04011E
:1022100022D040F27E44A3421AB20DD8B2F5607FBC
:1022200035DCB2F55A7F4FDDC2F56072013241F004
:102230008071D140002211E04FF0FF42002327F0CF
:102240007F07134343EA076329460422019303F0FF
:1022500093FC182003B0F0BD4FF0FF426FF07F43B6
:1022600099421BD04B1C5B08E9E74FF0FF426FF02F
:102270007F43994224D04B1C5B08A5E74FF0FF42F7
:102280006FF07F43994212D04B1C5B084CE7A3F5DB
:102290006073DA056FF07F439942E3D10C4BCEE7D0
:1022A000A3F56073DA056FF07F439942ECD1084BD8
:1022B0003AE7A3F56073DA056FF07F439942DAD10C
:1022C000034B81E70022D2E70022C7E70022D7E7CD
:1022D000FFFF7F00F0B5CF790D798B7991F805E09C
:1022E00006463A01C87802F4FE622D010C4645EA22
:1022F0001010190542EA131340F2FF7240EA0E3043
:1023000001F47001934241EA000183B006F1040038
:1023100000F0FC8040F27E45AB421AB241D94FF04A
:10232000FF42002327F07F07134302AD43EA076310
:1023300045F8043D0422294603F01EFC94F80FE002
:10234000277BA37BE07A94F80DC04FEA0E1202F4CB
:10235000FE623F01190547EA101042EA131340F2EA
:10236000FF7240EA0C3001F47001934241EA00012F
:1023700006F1080000F0C18040F27E47BB421AB26D
:102380001FD8B2F5607F00F3DC80B2F55A7F40F3CE
:10239000EE80C2F56072013241F08071D1400022BE
:1023A000ADE0B2F5607F00F3D580B2F55A7F40F31F
:1023B000E080C2F56072013241F08071D1400022AC
:1023C000A6E04FF0FF4200232EF07F0E134343EAB6
:1023D0000E6304222946019303F0CEFB94F817E024
:1023E000277DA37DE07C94F815C04FEA0E1202F41D
:1023F000FE623F01190547EA101042EA131340F24A
:10240000FF7240EA0C3001F47001934241EA00018E
:1024100006F10C0068D040F27E47BB421AB20FD8DA
:10242000B2F5607F00F38480B2F55A7F40F39D805F
:10243000C2F56072013241F08071D140002255E056
:102440004FF0FF4200232EF07F0E134343EA0E634A
:1024500004222946019303F08FFBE77F207FE17E72
:10246000A37F94F81DE03A0102F4FE62000140EA05
:102470001110190542EA131340F2FF7240EA0E34BC
:1024800001F47001934206F1100041EA040122D0E8
:1024900040F27E44A3421AB20DD8B2F5607F3EDC12
:1024A000B2F55A7F5FDDC2F56072013241F0807192
:1024B000D140002211E04FF0FF42002327F07F07B8
:1024C000134343EA076329460422019303F054FBB4
:1024D000202003B0F0BD4FF0FF426FF07F439942E0
:1024E00024D04B1C5B08E9E74FF0FF426FF07F43BD
:1024F000994224D04B1C5B08A5E74FF0FF426FF0D8
:102500007F43994224D04B1C5B085DE74FF0FF42AC
:102510006FF07F43994224D04B1C5B0802E7A3F580
:102520006073DA056FF07F439942DAD1124BC5E749
:10253000A3F56073DA056FF07F439942DAD10E4B51
:1025400081E7A3F56073DA056FF07F439942DAD132
:10255000094B39E7A3F56073DA056FF07F439942C1
:10256000DAD1054BDEE60022B7E70022BEE7002203
:10257000C5E70022CCE700BFFFFF7F00F0B563296D
:1025800085B003DD90F8F844002C46D0136805466A
:102590000F4610461B6805F223219847C2B2C0F3CC
:1025A0000721561885F81E2247F30722F643FF231A
:1025B0004FF0FE0EFCB285F82222421C85F8206204
:1025C00085F81F1285F81C3285F81DE285F8214236
:1025D0000DDB00F22221294405F22123002201E033
:1025E00013F8014F8B422244FAD1D343DBB22A18AD
:1025F00000F10804B4F5007F82F8233217DC6A6822
:10260000354E13685B68B34205F5077008D1214663
:1026100004F0CAFD204605B0F0BD204605B0F0BD6F
:102620000146104622469847204605B0F0BD2B4A89
:102630002B492B68019203208DF8080003911B6839
:10264000284A93423FD10024382285F8230285F896
:10265000242285F8254285F8264285F8274205F58B
:102660000A7003F089FAFF273D20C223FE260721C6
:1026700085F81E0285F8203285F81F4285F822422F
:10268000224685F81C7285F81D6285F8211205F234
:10269000212305F25F2001E013F8011F98420A444C
:1026A000FAD1D243686885F8602203680A4A5B68F9
:1026B000934205F507710BD10846452104F074FDDE
:1026C0004FF0FF30A7E7284601AA07219847F7E710
:1026D00045229847F4E700BF490C0000ECA7000032
:1026E000DCAA00007D2500002DE9F04755EC104BD9
:1026F00082B00022002310EE100A294606F0F2FDF7
:10270000002200284FF000032046294614BF4FF056
:10271000FF3A4FF0010A06F003FE0022002800F005
:10272000A2804FF080432046294606F0F9FDB8B359
:102730009FED791B45EC104B05F072F822462B46B5
:10274000204629468DED000B06F05AFB74A3D3E911
:10275000002306F055FB9DED000B73A3D3E9002386
:1027600006460F4651EC100B06F04AFB02460B469C
:102770003046394606F092F906460F46204629466D
:102780006BA3D3E9002306F03BFB32463B4606F041
:1027900085F969A3D3E9002306F07EF906460F46C2
:1027A000002200232046294606F0BAFD0022A8B3E5
:1027B0004FF080432046294606F09EFDB0B960A345
:1027C000D3E900233046394606F0AAFD10B15CA7D4
:1027D000D7E90067504606F0ADFA32463B4606F0B0
:1027E0000FFB06F0BDFD02B0BDE8F08756A3D3E9AC
:1027F00000232046294606F093FD0028DFD020461E
:10280000294653A3D3E9002306F0FAFA52A3D3E9E9
:10281000002306F043F906460F46D0E74FF0404349
:102820002046294606F072FD0028C8D00022002369
:102830002046294606F074FD0028D7D148A3D3E9E5
:1028400000232046294606F04DFD0028B7D000227F
:1028500000232046294606F063FD0028CFD12046FC
:1028600005F10041CDE74FF040432046294606F0F0
:1028700039FD002894D0002200232046294606F086
:102880004FFD00287FF454AFA04605F100499FEDAD
:10289000221B49EC108B04F0C3FF23A3D3E90023D0
:1028A00051EC100B06F0ACFA002206460F4600234E
:1028B0002046294606F034FDD0B922464B46204634
:1028C000494606F09DFA16A3D3E9002306F098FACC
:1028D00032463B4606F0E2F8002206460F46002349
:1028E0002046294606F01CFD80B92046494647E7A8
:1028F00022462B462046294606F082FA08A3D3E951
:10290000002306F07DFA32463B4633E7204629464F
:1029100036E700BFAFF30080000000000000084071
:10292000000000002DB20BC0000000A0A44EC83F64
:1029300000000020AEC73740000000202F9D22403D
:102940000000000000E06F4000000040E17A843F9A
:10295000000000C01E85FB3F000000A047E136409C
:1029600000000040E17A84BF70B51E4A1E4E00236D
:10297000051E33601360A8BF01230C46A8BF336057
:1029800000296FEA0501A8BF01234FEAD1714FF07A
:102990001E00A8BF136003F0CFFCE90F1C2003F05A
:1029A000CBFCE143C90F272003F0C6FCE10F252033
:1029B00003F0C2FC85EAE571A1EBE571002CB8BF1C
:1029C0006442FF29A8BFFF211D2003F015FBFF2C47
:1029D00021464FF02600A8BFFF21BDE8704003F05C
:1029E0000BBB00BF841DFF1FBC22FF1F2DE9F04F52
:1029F0008DB059EC168B8DED062B8DED045B8DEDB6
:102A0000023B8DED004B8DED0A0B8DED081B03F0A5
:102A10009FFC9DED081B9DED0A0B574B574C186012
:102A200053EC112B51EC100B06F036F89DED004BDA
:102A30009DED023B82468B4653EC142B51EC130B5D
:102A4000C4E900AB06F028F804460D4645EC174BE8
:102A50004B4F4C4E87ED007B42464B465046594605
:102A6000CDE9004506F0CCF9D6E9002306F016F8CA
:102A700004460D4645EC174B424686ED007B4B461F
:102A8000DDE90001CDE9024506F0BAF93E4BD3E994
:102A9000002306F003F8DDE90045064622462046FD
:102AA000394C0F46C4E900672B46294605F0F6FF6E
:102AB000002204460D46354B3046394606F0A0F953
:102AC00002460B462046294605F0E8FF9DED045BD3
:102AD000064653EC152B0F46DDE9000105F0DCFF3F
:102AE00042464B4606F0B6FA0022002306F088F96B
:102AF00002460B463046394605F0D0FF52460646A0
:102B00000F465B465046594605F0C8FF0022044672
:102B10000D461E4BDDE9020106F072F902460B4636
:102B20002046294605F0BAFF9DED062B044653ECDE
:102B3000122B0D465046594605F0AEFF42464B4615
:102B400006F088FA0022002306F05AF902460B46E6
:102B50002046294605F0A2FF41EC100BFFF7C4FD0B
:102B600047EC106B0446FFF7BFFD014620460DB051
:102B7000BDE8F04FFFF7F8BE302BFF1F5814FF1FC2
:102B8000402BFF1FD02AFF1F982AFF1F0000E03FA5
:102B900010B57149044604F08BFC00287AD001215D
:102BA000022003F0C9FB0121032003F0C5FB002133
:102BB000042003F0C1FB6949204604F079FC002899
:102BC00000F0BB800021022003F0B6FB01210320AE
:102BD00003F0B2FB0121042003F0AEFB6049204664
:102BE00004F066FC002800F099800121022003F027
:102BF000A3FB0021032003F09FFB0121042003F02D
:102C00009BFB5849204604F053FC002878D0002153
:102C1000022003F091FB0021032003F08DFB012132
:102C2000042003F089FB5049204604F041FC0028B1
:102C300059D00121022003F07FFB0021032003F083
:102C40007BFB0021042003F077FB4849204604F079
:102C50002FFC00283AD00021022003F06DFB012157
:102C6000032003F069FB0021042003F065FB4049C9
:102C7000204604F01DFCE0B10021022003F05CFBC3
:102C80000021032003F058FB00210420BDE8104080
:102C900003F052BB3749204604F00AFC00287FF4B9
:102CA0007EAF3549204604F003FC00287FF477AF5F
:102CB00081E73249204604F0FBFB0028DCD12046A6
:102CC0002F4904F0F5FB0028D6D110BD2D49204630
:102CD00004F0EEFB0028BED12B49204604F0E8FBAF
:102CE0000028B8D1C3E72949204604F0E1FB0028B9
:102CF0009FD12749204604F0DBFB002899D1A4E7A7
:102D00002449204604F0D4FB002880D122492046E3
:102D100004F0CEFB00287FF47AAF84E71F492046F9
:102D200004F0C6FB00287FF460AF1D49204604F084
:102D3000BFFB00287FF459AF63E71A49204604F02F
:102D4000B7FB00287FF43EAF1749204604F0B0FBE4
:102D500000287FF437AF41E718AB000024AB000038
:102D60003CAB000054AB00006CAB000084AB000037
:102D70009CAB00001CAB000020AB0000A4AB00002B
:102D8000ACAB00008CAB000094AB000074AB000057
:102D90007CAB00005CAB000064AB000044AB000007
:102DA0004CAB00002CAB000034AB000010B5B0F908
:102DB00004300F4C012B84B023600CD04BB90D496B
:102DC000684604F061FB6846FFF7E2FE684604F0DF
:102DD0001BFB04B010BD0849684604F055FB68466B
:102DE000FFF7D6FE684604F00FFB2368E6E700BF56
:102DF000E01CFF1F18AB000024AB0000FFFFFFFF2B
:102E00002DE9F04F2DED048B642889B000F013817B
:102E1000B0EE408AF0EE608AB0EE419AF0EE619A30
:102E2000012806D902286BD009B0BDEC048BBDE89F
:102E3000F08F002800F0FC808B4904A804F024FBEC
:102E400004A8FFF7A5FE04A804F0DEFA82A3D3E9E4
:102E5000002351EC180B05F0D3FF002206460F4665
:102E6000824B51EC190B05F0CBFF80468946024698
:102E70000B463046394605F011FEDFF830E20446D5
:102E80000D46CEE9004542464B463046394605F0F0
:102E900003FEDFF81CE206460F46CEE9006770A38A
:102EA000D3E900232046294605F0AAFF0022704BF3
:102EB000704D06F0CFF80022002305F0EFFD06F07C
:102EC0004FFA044666A3D3E90023304639462C6006
:102ED00005F096FF0022664B06F0BCF800220023A6
:102EE00005F0DCFD06F03CFA634A0346194620462D
:102EF0001360FFF739FD09B0BDEC048BBDE8F08F1E
:102F00005E49DFF8A8B1DFF8A8A104A804F0BCFA74
:102F100004A8FFF73DFE04A804F076FA53EC182B42
:102F200018EE100A194605F0B9FD554B064618680B
:102F30000F4605F011FF53EC192B05F061FF514BC3
:102F400093ED007AF1EE007A67EE277A804617EE6D
:102F5000900A894605F000FF424604460D464B465E
:102F60003046394605F09AFD22462B4606F072F8A7
:102F7000CDE900019DED007B42464B463046394687
:102F80008BED007B05F088FD22462B4606F062F8AB
:102F90003D4A3E4B3E4D1B68064610680F46C01A20
:102FA000CAE9006705F0C6FE00248046894622462D
:102FB0002B46DDE9000106F0B3F918B1CBE9004575
:102FC000CDE90045324D00243046394622462B4695
:102FD00006F0A6F918B1CAE9004526462F462D4A43
:102FE0002D4B106893ED009B05F0B6FE2B4B2C4A41
:102FF000CDE90201186892ED008B05F0ADFEB0EE50
:10300000495AF0EE695AB0EE482AF0EE682A49ECC7
:10301000168B9DED024B47EC136B41EC110B9DEDB4
:10302000000BFFF7E3FC09B0BDEC048BBDE8F08FAB
:1030300004A81C4902E71C4904A804F025FA04A8C6
:10304000FFF7A6FD04A804F0DFF909B0BDEC048B7E
:10305000BDE8F08FAFF300800000000000C05240D8
:103060000000000000E06F403CAB00000000494061
:1030700000005940801DFF1F681DFF1F24AB00008A
:103080001408FF1F1008FF1F382BFF1F302BFF1FD6
:1030900000002E40B81CFF1F8014FF1F8C14FF1F60
:1030A000781DFF1F6CAB000018AB0000102BFF1F3A
:1030B0009814FF1FF8B50446806805F04DFE0646DB
:1030C000206A0F4605F048FED4ED067AF5EE407A08
:1030D000F1EE10FA0B46B1EE047A22490246F4EE04
:1030E000477A04BF00200860F1EE10FA0FD1E068C3
:1030F00001240C6005F030FE02460B46204643ECEE
:10310000112B47EC106BBDE8F840FFF779BE9FED3F
:10311000167AF4EE477AF1EE10FA10D0F5EE407A16
:10312000F1EE10FA18BF642043EC112B47EC106B42
:103130000CBF08680860BDE8F840FFF761BE0B48A7
:10314000DFF82CE000240025C0E90045CEE9004569
:10315000022043EC112B47EC106BBDE8F8400860EF
:10316000FFF74EBECC1CFF1F0000B442D02AFF1F49
:10317000982AFF1F30B5684D85B000240121022038
:10318000C5F8E444C5F8E844C5F8F044C5F8EC4493
:1031900003F0D8F80121032003F0D4F80121042022
:1031A00003F0D0F85D49684604F06EF96846FFF711
:1031B000EFFC684604F028F901211D2003F0C2F855
:1031C00001211E2003F0BEF801211C2003F0BAF8F3
:1031D0000221182003F0B6F80221192003F0B2F8FA
:1031E0000121262003F0AEF80121272003F0AAF8E0
:1031F0000121252003F0A6F80221212003F0A2F8E6
:103200000221222003F09EF804224549182002F0F2
:1032100065FE04224249192002F060FE0422414961
:10322000212002F05BFE04223E49222002F056FEDD
:1032300005F27C422346114602E00133192B0AD0E5
:1032400051F8040F0028F8D103F59070364945F87D
:10325000201064334B60002302E00133192B0AD0A5
:1032600052F8041F0029F8D103F590712F4A45F850
:103270002120643353602E4A0023114602E00133BB
:10328000192B0BD051F8040F0028F8D1294905EB70
:1032900083007D33C0F81C148B60CD60244900236B
:1032A00002E00133192B0BD051F8040F0028F8D19C
:1032B000214905EB83007D33C0F81C148B60CD6081
:1032C0001B49002302E00133192B0BD051F8040FE6
:1032D0000028F8D1194905EB83007D33C0F81C1490
:1032E0008B60CD60002302E00133192B0BD052F824
:1032F000041F0029F8D1124A05EB83017D33C1F880
:103300001C249360D5600F4802F0F2F80E4802F0DA
:10331000F9FB05B030BD00BF881DFF1FB4AB000036
:1033200039070000B9080000E41CFF1FB42AFF1F82
:10333000A021FF1F4C1DFF1FA41CFF1F241DFF1FEA
:10334000381DFF1F9408FF1F801CFF1FFFFFFFFF9A
:103350002DE9F04FC64B2DED048B1B68022B95B069
:1033600000F0E582C34FC449C44B3A68079208682D
:103370001B68079A03449342C0F08C813B68C04CA1
:103380000993099ED4F8003542F6F822F31A9342C5
:1033900084BF002384F8F834D4F8E434B84A33B155
:1033A000D2F804359E4284BF0023C2F8E434DFF82B
:1033B000E082B34DA2692AB13B680D930D9B9B1B24
:1033C0009A4221D3606803685B6943456CD103F07E
:1033D00085FE00286BDBD4F8F434D4F8E424DFF85D
:1033E000A0E20344072AC4F8F4344BD08AB9FF287A
:1033F00000F0B0803B680C930C9B41F288319B1B22
:103400008B42D7D98EF8F82415B0BDEC048BBDE8FB
:10341000F08F012A00F0A680022A00F0ED80032A36
:1034200000F0F580042A00F0FC80052A00F00981F4
:10343000062A00F00E81082ABCD1924A1A400023C5
:103440009A42C4F8E434C0F28483FF2AB2D1D4F89B
:10345000EC34DFF82CA2002B00F0F9840A2B00F0EA
:103460009983062B00F0CC830B2B00F08F83BC33A9
:1034700055F8230000289DD003680AF11C011B6841
:10348000984797E7D5F8F024D5F8E834A918013B18
:1034900001320877C5F8F024C5F8E834002B89D14B
:1034A0000823C4F8E43485E79847002893DA94F8B1
:1034B000F8347348002BA7D0D0F8FC3440F6C4127F
:1034C000F31A9342A0D9FF23FE21002280F81C3278
:1034D00080F81D12F72308250A2180F8203280F891
:1034E000232280F8242280F8252280F8262280F8E2
:1034F000272280F8282280F8292280F82A2280F8C2
:103500001F2280F8222280F81E5280F8211200F239
:10351000212300F22A2001E013F8011F83420A440C
:10352000FAD1D243606884F82B220368564A5B685C
:10353000934240F013831021544803F035FE3B685A
:103540001193119BC4F8FC64E36015B0BDEC048BCF
:10355000BDE8F08F012206F11403C5F8E424C5F894
:10356000043527E7FE2868D095F8F8240023C5F82D
:10357000E434002A7FF41EAFFF23FE21082085F8E3
:103580001C3285F81D12F7230A2185F8203285F8B0
:1035900023220EF2212385F8242285F8252285F89E
:1035A000262285F8272285F8282285F8292285F801
:1035B0002A2285F81F2285F8222285F81E0285F826
:1035C00021120EF22A2E01E013F8011F73450A445E
:1035D000FAD1D243606884F82B2203682A4A5B68D8
:1035E000934240F090811021284803F0DDFD3B68B4
:1035F0000B930B9BE360DDE600220323C5F8E80490
:10360000C5F8F404C5F8F024C5F8E434D2E6D5F8DA
:10361000E83403EB00200423C5F8E804C5F8E434DB
:10362000C8E6184A1A40002AC0F27C81FF2A0CBF63
:1036300005230023C4F8E434BCE60223C5F8E434CF
:10364000B8E60623C5F8EC04C5F8F404C5F8E4347C
:10365000B0E6D5F8EC34D5F8E82403EB00230721D5
:10366000C5F8EC34C5F8E414002A3FF419AFA1E61C
:10367000CC1CFF1F4C2BFF1F002BFF1F0C08FF1F34
:10368000881DFF1FFF000080490C0000A41FFF1FC2
:10369000510C0000D048D14A3C68D14B089490EDC1
:1036A000009AD04CD2ED008A089A0A6084ED019A03
:1036B000D3E90001C4ED028A05F07AFECA4BE0604E
:1036C00008EE100AD3E9000105F072FEC74BC84AA4
:1036D000996807EE900AD8680368C4ED047A1B68FD
:1036E000934240F00D82632904DD90F8F834002BFA
:1036F0003FF444AE19EE103AC3F3C752FF2AC3F3A6
:10370000160300F00481002A00F0A28102F5607225
:10371000DC0C5D0144EA0214C3F3C70EE4B2C2F349
:103720000716EDB2C3F3C723B5EEC09AF1EE10FA57
:1037300080F8283244BF66F07F0380F82A3218EE02
:10374000903A4FF0000280F8232280F8242280F87B
:103750002522C3F3C75258BF80F82A62FF2A80F897
:10376000265280F827E280F82942C3F3160300F0BE
:10377000DA81002A00F04E8102F56072140144EAF9
:10378000D3445D01C3F3C70EE4B2C2F30716EDB232
:10379000C3F3C723F5EEC08AF1EE10FA80F8303299
:1037A00044BF66F07F0380F8323218EE103A4FF0D3
:1037B000000280F82B2280F82C2280F82D22C3F3FF
:1037C000C75258BF80F83262FF2A80F82E5280F824
:1037D0002FE280F83142C3F3160300F09981002AEA
:1037E00000F0548102F56072DC0C5D0144EA0214C1
:1037F000C3F3C70EE4B2C2F30716EDB2C3F3C72397
:10380000B5EEC08AF1EE10FA80F8383244BF66F0A7
:103810007F0380F83A3217EE903A4FF0000280F8BA
:10382000332280F8342280F83522C3F3C75258BFC0
:1038300080F83A62FF2A80F8365280F837E280F842
:103840003942C3F3160300F07981002A00F03B816E
:1038500002F56072DC0C5D0144EA0214C3F3C70E8A
:10386000E4B2C2F30716EDB2C3F3C723F5EEC07A94
:10387000F1EE10FA4FF0000280F8403280F8414239
:1038800048BF66F07F034FF0FF0480F83E5280F897
:103890003B2280F83C2280F83D2254BF80F84262EF
:1038A00080F84232FE26DF232025002280F81C42C9
:1038B000CCB241F3072180F8203280F8221280F840
:1038C0003FE280F81D6280F81E5280F81F2280F8C7
:1038D000214200F2212300F2422101E013F8014FBE
:1038E0008B422244FAD1D243446880F843222368B1
:1038F000404A5B68934200F5077040F0048128213C
:1039000003F052FC3AE510223B4998476FE65D010F
:10391000DC0CC3F3C70EEDB244F0F004C3F3C723CD
:103920007F2601E7013A62F0FF0201327EE6DFF80E
:10393000D890DFF8D8B0294EDFF89CA02F4C304D3E
:10394000304FDFF8CC8002F003FDD9F80030CBF81F
:103950000000C01A05F0EEF91DA3D3E9002305F01D
:103960004FFACDE90201306805F0F6F9CDE9000122
:10397000DAF8000005F0F0F994ED005B41EC110B72
:1039800095ED003B97ED002B9DED026B9DED004BFF
:1039900098ED000BFFF72AF8DBF80030C9F800308B
:1039A000DAF8000005F0D8F902460B46D8E9000124
:1039B00005F072F8C7E90001306805F0CDF902465C
:1039C0000B46D5E9000105F067F8C4E90001C9E438
:1039D0008DEDB5A0F7C6B03E8C14FF1FB81CFF1FBD
:1039E0005814FF1FD82AFF1FD02AFF1F4C1DFF1F8E
:1039F0007D250000490C0000A41FFF1F8014FF1F3D
:103A00009814FF1F781DFF1F302BFF1F382BFF1F3F
:103A1000102BFF1F002B00F0B4805B001E0200F192
:103A2000F9814FF46074013C5B00A2B21D0214B234
:103A3000F9D51201D2B2C4F30616C3F316035D0121
:103A400042EAD344C3F3C70EEDB2C3F3C723A1E6E2
:103A5000002B00F091805B001E0200F1E1814FF429
:103A60006074013C5B00A2B21D0214B2F9D51201D0
:103A7000D2B2C4F30616C3F316035D0142EAD3447F
:103A8000C3F3C70EEDB2C3F3C7234DE6002B6ED0D0
:103A90005B001E0200F1C2814FF46074013C5B00C8
:103AA000A2B21D0214B2F9D51201D2B2C4F30616A5
:103AB000C3F316035D0142EAD344C3F3C70EEDB26C
:103AC000C3F3C7239CE6002B4CD05B001E0200F121
:103AD000A3814FF46074013C5B00A2B21D0214B2DA
:103AE000F9D51201D2B2C4F30616C3F316035D0171
:103AF00042EAD344C3F3C70EEDB2C3F3C723B5E61E
:103B0000224698473AE4014628222046984735E461
:103B10005D01DC0CC3F3C70EEDB244F0F004C3F357
:103B2000C7237F266CE65D01DC0CC3F3C70EEDB244
:103B300044F0F004C3F3C7237F262BE65D01DC0CC1
:103B4000C3F3C70EEDB244F0F004C3F3C7237F26DE
:103B50008CE6013A62F0FF02013276E41022D1498C
:103B60009847ECE41E461C469E461D467EE61E46D1
:103B70001C469E461D4643E61E461C469E461D4666
:103B8000D2E51E461C469E461D4603E6002385F8E8
:103B9000F8340FE43B680E930E9BEA683968109185
:103BA000C149286ADFF818C3DDF840909B1AA1FBD1
:103BB000031E4FEA9E1E4FF47A718444BB48EA69A3
:103BC00001FB1E3300FB03CCB74BA3FB093B4FEAC1
:103BD0009B1B013A01FB1B91724400FB11C3CBEB11
:103BE00002020AF114010AF110006B612A6101F06E
:103BF000AFFF3B680F930F9BC5F80035FFF7DABBAB
:103C0000D5F81C90D5F81035994507D94FEA8901A8
:103C1000D5F8180505F0C8FFC5F81805C4F81095C3
:103C2000B9F1000F00F00181DFF898924FF0040A1B
:103C30004FF0000B99F8221099F8213099F82020C4
:103C400099F823E0D4F81805090441EA0323134343
:103C500043EA0E6300EB8B009549C4F81435042247
:103C600001F08AFFD4F810350BF1010B5B4551468A
:103C700009F104090AF1040ADCD801F1080B01F189
:103C80000B0001F1050E01F1060C01F1070901F12C
:103C9000090301F10A020C31CDF808A00090DA46C0
:103CA0000491A44402989CF81CC0A64420449EF8A9
:103CB0001C10007FA1444FEA0C4C4CEA012C99F8EF
:103CC0001CE0D4F81C154CEA000C4CEA0E6989453E
:103CD0000BD94FEA8901D5F824050593029205F026
:103CE00063FF059B029AC5F82405C4F81C95B9F139
:103CF000000F00F0978005EB0A0B4FF000090096CB
:103D00009BF81E109BF81D309BF81C209BF81FE0B1
:103D1000D4F82405090441EA03231343654943EA1F
:103D20000E630B6000EB8900042201F025FFD4F83C
:103D30001C3509F101094B4551460BF1040B0AF101
:103D4000040ADDD8C81D009E0090D3464B1D8A1D75
:103D500001F1080922442344117F009A187FD4F806
:103D600028352244A344964609049BF81C209EF85B
:103D70001CA041EA00210A4342EA0A6A9A4507D98F
:103D80004FEA8A01D5F8300505F00EFFC5F8300579
:103D9000C4F828A5BAF1000F37D04FF0000BDA466F
:103DA00009F11C01002321449E4611F8012B9A4081
:103DB0000833202B4EEA020EF7D109F104008644A5
:103DC000864509D909F11F03234402460132597877
:103DD00003F8011B9645F9D804EB0E02364982F828
:103DE0001BA0431EA1F5A262D4F83005134400EBDA
:103DF0008B00C4F82C350422F14601F0BDFED4F846
:103E000028350BF1010B5B45CAD8012384F808352E
:103E1000FFF7D0BA382610E6382666E6382647E699
:103E2000382628E6DDF8109094E70C234FF0080BB5
:103E3000049304210B230093DA460A2209234FF04E
:103E400007094FF0060C4FF0050E029129E79B463B
:103E50000AF22321194B119311A89146CDF848B0CD
:103E6000CDF84CB0FCF702FBC1B2C0F307228B18AF
:103E7000DB438AF81E12FE258AF820320A21431CF1
:103E80008AF81C928AF822B28AF81F228AF81D52F8
:103E90008AF8211221DB00F222255B4655440AF202
:103EA000212213E0A41FFF1FD34D621040420F00D8
:103EB0009C22FF1FA822FF1FB422FF1FBCA70000E7
:103EC00000CA9A3B881DFF1F12F8011FAA420B442B
:103ED000FAD16FEA03095FFA89F9231800F10802A1
:103EE000B2F5007F83F82392D14900F347824868F6
:103EF000036801F507715B6898473B680A93CD4FEB
:103F00000A9BE36007F164030093A7F5836557F804
:103F1000043F002B00F0B88058689A68016802924C
:103F2000D3F800B08B6898473B68824658680368AE
:103F3000DB6898473B68029AD3F81080B8F1630FAA
:103F4000814604DD94F8F834002B00F09D80C2F324
:103F5000072384F8232284F82432584606F010FA06
:103F600003464FEA136E020A000C594684F82532C4
:103F700084F8262284F827021A4684F828E2AE48FC
:103F8000029301F0F9FD504606F0FAF9029B024651
:103F900003F2292020440633002122FA01FE0831D1
:103FA000202900F801EBF8D1A44804335146184405
:103FB00002EB030A01F0E0FD484606F0E1F90AF2DF
:103FC00023228346224400232BFA03F10833202BBB
:103FD00002F8011BF8D1994B0AF1040A494603EB98
:103FE0000A005A4601F0C8FD0BEB0A0000F1040E6E
:103FF00021185FFA8EF9CEF3072C0022022309EB79
:104000000C0B81F8243281F8232281F8252281F8D3
:1040100026226FEA0B0B5FFA88F1FF234FF0FE0AAE
:1040200048F30728BEF1FF3F84F820B284F81E92BF
:1040300084F81FC284F81C3284F81DA284F821126F
:1040400084F822820BDB00F226207D4B284401E01D
:1040500013F8011F83420A44FAD1D343DBB204EBC5
:104060000E010EF10802B2F5007F81F8233200F351
:1040700039816868734903685B688B4240F0E88067
:104080001146714803F090F8009B9F427FF43FAFC8
:10409000DFF8B8B10296ABF59C651E4656F8040FE2
:1040A000002800F0B48090E80C0000939268D0F8EB
:1040B00008A09047814630680268D26890478046E1
:1040C000306802685268904763280746009B04DD09
:1040D00094F8F824002A00F09A80C3F3072284F8A9
:1040E000233284F82422504606F04AF903464FEA68
:1040F000136E020A000C514684F8253284F82622F9
:1041000084F827021A4684F828E24B48009301F00D
:1041100033FD484606F034F9009B024603F229209D
:1041200020440633002122FA01FE0831202900F83C
:1041300001EBF8D1414804334946184402EB030926
:1041400001F01AFD404606F01BF909F223228246CF
:10415000224400232AFA03F10833202B02F8011B22
:10416000F8D1364B09F10409414603EB09005246E8
:1041700001F002FD0AEB090000F1040E5FFA8EF86F
:10418000CEF3072C04EB000908EB0C010022C94315
:10419000022389F8243289F8232289F8252289F814
:1041A0002622FF234FF0FE0984F82012BEF1FF3FC4
:1041B000F9B247F3072784F81E8284F81FC284F8F7
:1041C0001C3284F81D9284F8211284F822720BDBD1
:1041D00000F226201A4B284401E013F8011F834205
:1041E0000A44FAD1D343DBB204EB0E010EF108020C
:1041F000B2F5007F81F823322DDC6868114903682D
:104200005B688B4210D111460F4802F0CDFF5E452E
:104210007FF444AF029EC4F8FC640123C4F8006537
:1042200084F8F834FFF7F0B807499847EFE700BF84
:10423000881DFF1FA021FF1FB11FFF1FAB1FFF1F06
:10424000A91FFF1F490C0000A41FFF1F6822FF1FAA
:104250004C49984718E7DFF834E14B4FBEE80F00B0
:104260000FC7BEE80F000FC7BEE80F000FC79EE8DC
:10427000030000234FF0030C4FF0380EFF2285F8A7
:1042800023C285F824E24FF0FE0C4FF03D0E85F876
:10429000253285F8263285F8273287E80300C220C8
:1042A00085F81C220722A7F1370185F81F3285F80F
:1042B0002232073785F81DC285F81EE285F82002F4
:1042C00085F8212201E011F8012F8F421344FAD121
:1042D000DB43606884F8603203682A495B684522E2
:1042E000984794E7DFF8A4C0DFF89CE0BCE80F0033
:1042F000AEE80F00BCE80F00AEE80F00BCE80F000E
:10430000AEE80F009CE8030000234FF003084FF0D5
:10431000380CFF2285F8238285F824C24FF0FE086E
:104320004FF03D0C85F8253285F8263285F8273286
:104330008EE80300C22085F81C220722AEF1370167
:1043400085F81F3285F822320EF1070E85F81D829E
:1043500085F81EC285F8200285F8212201E011F8B7
:10436000012F71451344FAD1DB43606884F8603251
:10437000036804495B684522984785E60846FDF7CF
:104380002FFABAE5A41FFF1FB01FFF1FDCAA000011
:104390002DE9F04F8DB0C84AC84B06920022044662
:1043A00000F5836600F27C45ADF81C200B92089363
:1043B00009930A9356F8043F002B00F0C280586816
:1043C0001F6801689A6808978B68ADF81C209847A9
:1043D0003368099058680368DB6898472368316838
:1043E0000A904FF400721B68D1F810800B92B44A07
:1043F0009342824640F08C81B8F1630F04DD94F85B
:10440000F834002B00F09D80BDF81C30DDF82090C2
:1044100084F823321B0A84F82432484605F0B0FFA2
:1044200007463B0E3A0C000A494684F8283284F8C5
:10443000257284F8260284F8272204F229203A46BD
:1044400001F09AFBDDF824B0584605F099FF04F21C
:104450002329791D024606374944002322FA03F036
:104460000833202B01F8010FF8D10437594609EB26
:104470000700174401F080FB504605F081FF09EB6F
:104480000703834600222BFA02F10832202A03F8A0
:10449000011BF8D10437514609EB07005A4601F0D9
:1044A0006BFB0BEB07031F1D09EB03015FFA87FA98
:1044B000C7F3072C00220AEB0C0E4FF0020B09F891
:1044C00003206FEA0E0E8A70CA7081F801B0FF20D7
:1044D0005FFA88F14FF0FE0948F30728B7F1FF3F74
:1044E00084F820E284F81EA284F81FC284F81C021B
:1044F00084F81D9284F8211284F82282C0F2B481DB
:1045000003F22623E01804F2212301E013F8011F2F
:1045100098420A44FAD1D243D2B2E31907F1080112
:10452000B1F5007F83F8232200F306816768654AAE
:104530003B685B68934204F5077040F0F38002F03B
:1045400033FEAE427FF436AFDFF8749104F59C6819
:1045500055F8040F002800F0D28081680368426893
:104560000891ADF81C209B6898472B6809901A6841
:104570001846D36898472B6821680A901A680E6815
:1045800052684FF4007118460B9190474E4507460C
:1045900040F0C380632804DD94F8F834002B00F069
:1045A000AE80BDF81C30089E84F823321B0A84F8C4
:1045B0002432304605F0E4FE82464FEA1A634FEAA1
:1045C0001A42000A314684F8283284F825A284F879
:1045D000260284F8272204F22920524601F0CCFA60
:1045E00009990191084605F0CBFE04F223260AF151
:1045F0000502019983460AF1060A324400232BFA88
:1046000003F00833202B02F8010FF8D10AF1040A55
:104610005A4606EB0A0001F0AFFA0A9901910846E2
:1046200005F0AEFED3440199824606EB0B0300224F
:104630002AFA02F00832202A03F8010BF8D10BF114
:10464000040B06EB0B00524601F096FA0AEB0B0343
:104650001A1D0B99F1545FFA82FCC2F3072E1E4417
:104660000CEB0E004FEA112B4FEA114AC043090E22
:1046700086F801B086F802A0F1704FF0FF0BF9B296
:104680004FF0FE0A47F3072784F82002501C84F8F5
:104690001EC284F81FE284F81CB284F81DA284F8BC
:1046A000211284F8227218DB03F22623E618002078
:1046B00004F221230AE000BFD4A7000014AB0000DD
:1046C0007D250000490C000013F8011FB342084487
:1046D000FAD16FEA000B5FFA8BFBA31802F1080115
:1046E000B1F5007F83F823B271DC6668654A3368F0
:1046F0005B68934204F5077019D102F055FDA84597
:104700007FF426AF012384F8F8340DB0BDE8F08FB4
:10471000414606AA2046984713E7014606AA2046C6
:10472000B047ECE70A4601463846984709E70A468B
:10473000014630469847E2E7534A03920321534A21
:10474000236805928DF810101B68514A934240F07F
:1047500086800027382284F8231284F824224B49CB
:1047600084F8257284F8267284F8277204F50A709A
:1047700001F002FAFF213D20C2234FF0FE0E84F823
:104780001C12072184F81E0284F8203284F81F725C
:1047900084F822723A4684F81DE284F8211204F269
:1047A000212304F25F2001E013F8011F98420A441C
:1047B000FAD1D243606884F860220368314A5B68AA
:1047C000934204F5077159D108464521B7E62E4AB0
:1047D0000392032123682D4A05928DF810101B685F
:1047E0004B4546D10026382284F8231284F824222F
:1047F000264984F8256284F8266284F8276204F545
:104800000A7001F0B9F9FF213D20C223FE2784F888
:104810001C12072184F81E0284F8203284F81F62DB
:1048200084F82262324684F81D7284F8211204F260
:10483000212304F25F2001E013F8011F83420A44A0
:10484000FAD1D243606884F8602203680D4A5B683D
:10485000934204F5077109D1084645214DE703AAA3
:104860000721204698476CE6024656E645229847BF
:1048700045E703AA07212046984740E74522984785
:104880005FE600BF490C0000ECA70000DCAA0000B6
:104890007D2500002DE9F04FBB4E93B033680693A1
:1048A000069DD0F8003542F6F822EB1A934284BFF9
:1048B000002380F8F834D0F8E434044633B1D0F85B
:1048C0000435AB423CBF0023C0F8E434AF4FDFF8FF
:1048D000D092A26932B133680793079B5B1B9A425F
:1048E000C0F01B81606803685B69BB4266D102F05F
:1048F000F5FB002865DBD4F8F434D4F8E424034451
:10490000072AC4F8F43447D082B9FF2869D0336845
:104910000893089B41F288315B1B8B42D9D984F8FC
:10492000F8246FF0010013B0BDE8F08F012A60D0C9
:10493000022A00F0B680032A00F0BE80042A00F0AC
:10494000C580052A00F0D280062A00F0D780082A08
:10495000BFD18F4A1A4000239A42C4F8E434C0F20F
:104960004D81FF2AB5D1D4F8EC34002B00F0D08271
:104970000A2B00F07A82062B00F053810B2B00F0FB
:104980004281BC3354F823000028A2D0036804F10C
:104990001C011B6898479CE7D4F8F034E2180133F7
:1049A000C4F8F0341077D4F8E834013BC4F8E834A4
:1049B000002B8ED10823C4F8E4348AE798470028F6
:1049C00099DA94F8F8040028ADD0D4F8FC3440F615
:1049D000C412EB1A934200F2A580002013B0BDE888
:1049E000F08F012205F11403C4F8E424C4F804355F
:1049F0006FE7FE2876D094F8F8240023C4F8E43456
:104A0000002A7FF466AF634923680F911B686249EF
:104A100010928B42119240F0E780FF210820F7238B
:104A20004FF0FE0E84F81C120A2184F81E0284F84E
:104A3000203284F8232284F8242284F8252284F862
:104A4000262284F8272284F8282284F8292284F850
:104A50002A2284F81F2284F8222284F81DE284F896
:104A6000211204F2212304F22A2001E013F8011F8D
:104A700098420A44FAD1D243D4F804E084F82B22B5
:104A8000DEF80030454A5B68934204F5077040F059
:104A9000B080102102F088FB33680993099BE36022
:104AA00017E700220323C4F8E804C4F8F404C4F8A8
:104AB000F024C4F8E4340CE7D4F8E83403EB002025
:104AC0000423C4F8E804C4F8E43402E7304A1A4086
:104AD000002AC0F28480FF2A0CBF05230023C4F8FB
:104AE000E434F6E60223C4F8E434F2E60623C4F81C
:104AF000EC04C4F8F404C4F8E434EAE6D4F8EC3482
:104B0000D4F8E82403EB00230721C4F8EC34C4F8FC
:104B1000E414002A3FF44EAFDBE66FF0010013B05F
:104B2000BDE8F08F1B4A23680F921B681A490022C8
:104B30008B42109211926AD1FF210820F723FE27A1
:104B400084F81C120A2184F81E0284F8203284F8AA
:104B5000232284F8242284F8252284F8262284F84B
:104B6000272284F8282284F8292284F82A2284F82B
:104B70001F2284F8222284F81D7284F8211204F284
:104B8000212304F22A200FE04C2BFF1F510C0000C0
:104B9000FF000080BCA700007D250000490C00003C
:104BA00040420F0013F8011F83420A44FAD1D24356
:104BB000676884F82B223B68D24A5B68934204F50D
:104BC000077029D1102102F0EFFA33680B930B9B89
:104BD000C4F8FC540020E36013B0BDE8F08F013A44
:104BE00062F0FF02013276E70FAA0A2120469847B9
:104BF00052E701461022704698474DE7013A62F0AD
:104C0000FF020132ADE6002384F8F83461E60FAA12
:104C10000A2120469847D8E701461022384698478F
:104C2000D3E7227F637F94F81E80E17F42EA03236B
:104C300043EA0843D4F8102543EA0168904504F19B
:104C40001C0B07D94FEA8801D4F8180504F0ACFF13
:104C5000C4F81805C4F81085B8F1000F00F073818E
:104C600004F21453019300230295D84625464FF0D1
:104C7000040A1C4698F8062098F8050098F80410D5
:104C800098F807E0120442EA00220A43D5F8180512
:104C9000019942EA0E62C5F8142500EB8400042253
:104CA00000F06AFFD5F810250134A242504608F101
:104CB00004080AF1040ADDD800F10901019100F1AC
:104CC0000B012C4600F10802029D029100F10C013B
:104CD000CDF80CA0134600F1050E00F1060C00F112
:104CE000070800F10A0A04911BF80C0003991BF84D
:104CF0000EE01BF801C01BF80880D4F81C15000456
:104D000040EA0E2040EA0C0C4CEA086888450BD9B2
:104D10004FEA8801D4F824050593039204F044FF78
:104D2000059B039AC4F82405C4F81C85B8F1000F4C
:104D300000F0068104F5A462019204F20C5203957E
:104D40000BEB030A25464FF0000802921C469AF826
:104D500002009AF801209AF800109AF803E0029BEA
:104D6000000440EA02220A43D5F82405019942EAE8
:104D70000E625A6100EB8800042200F0FDFED5F8B7
:104D80001C2508F10108424521460AF1040A04F1F4
:104D90000404DCD823461A464B1D2C460193039D80
:104DA000CB1D01F1060A029301F10808019B1BF8D3
:104DB0000A001BF803101BF80230029A00041BF8CB
:104DC00002A0D4F8282540EA01210B4343EA0A6AED
:104DD000924507D94FEA8A01D4F8300504F0E4FE81
:104DE000C4F83005C4F828A5BAF1000F39D004F290
:104DF0002C534FF0000A019300239E460BEB080151
:104E000011F8012B9A400833202B4EEA020EF7D1FD
:104E100008F104018E4471450AD208F103035B4492
:104E20000A46013213F8010F03F8010C7245F8D35A
:104E30000BEB0E024B1E4FF0000102F8011CD4F8E0
:104E4000300501995B44C4F82C3500EB8A0004223C
:104E5000F04600F091FED4F828350AF1010A5345D6
:104E6000CAD8012384F8083533E533680C930C98CD
:104E700094F8202094F82110336894F81D8094F859
:104E80001CA00E93E36894F81EE094F81FB042EA69
:104E9000012C94F822101C4AC01A4AEA082394F8FC
:104EA00023A0A2FB00824CEA014143EA0E4EDFF848
:104EB0005C800E9B41EA0A6A4EEA0B61D04401F124
:104EC000FF3A11494FF47A7CA1FB031E92090CFBB7
:104ED00012004FEA9E1E09FB00800CFB1E33214688
:104EE000524409FB1303CEEB0202226104F11000CD
:104EF00041F8143F00F02CFE33680D930D9BC4F86D
:104F00000035E6E4490C0000D34D621000CA9A3B1C
:104F1000226816490F91109311930A2113682046B5
:104F20000FAA984733680A930A9BE3602046FFF76D
:104F30002FFAC4F8FC54C4F800554FF0FF30F2E4E7
:104F4000DDF8108032E70C2104910B210291092138
:104F500008220191042113464FF00A0A4FF0070876
:104F60004FF0060C4FF0050E0391BDE6BCA7000004
:104F7000F8B56B486B4D6C4E00F0C0FD6B4B2B6071
:104F800000244FF461434FF40077AB6021463A466A
:104F90006E6005F11C00EC602C616C61AC616426F4
:104FA00004F0B0FD3A46214605F5077004F0AAFD6D
:104FB0002146324605F21C4004F0A4FD324621464B
:104FC00005F5906004F09EFD5948C5F8E444C5F825
:104FD000E844C5F8EC44C5F8F044C5F8F44485F855
:104FE000F844C5F8FC44C5F80045C5F8044585F803
:104FF0000845C5F81045C5F81445C5F81845C5F865
:105000001C45C5F82445C5F82845C5F82C45C5F804
:105010003045C5F80C0505F5A46500234549464A09
:10502000DFF88CE1454E464F2B60464DDFF884C1DA
:1050300045488C800F605160CEF800504349444D84
:10504000146111603560434A4349444DCCF8007007
:10505000ACF80440CEF804C0CEF810407360056090
:10506000466004613E483F4DDFF84CE110605360FC
:105070009360D3604A6013613B4A3C483C4E0C61EC
:105080000A603C49CEF8045029606B60AB60EB606D
:10509000394D3A4ACEF81040CEF800507060DFF833
:1050A0001CE1016043608360C3603548354D346165
:1050B00030603548354ECEF804201160536093605F
:1050C000D360334ACEF81040CEF800202960314A30
:1050D0006B60DFF8ECC0C76004822F4F75603461ED
:1050E000AB600124EB60DFF8DCE02C4D37608560BD
:1050F0002B4FC0F800C0C0F814E02A4E2A4D84613E
:105100002A485463116153619361D3611162536200
:105110009362D3621760D66015639060F8BD00BFDC
:10512000801CFF1F881DFF1F2C0BFF1F94A8000071
:1051300004A800001C1DFF1F6814FF1F042BFF1F85
:105140001CA80000C8AB0000A02AFF1FBCAB0000D9
:1051500034A80000D82AFF1F4C1DFF1FD4AB00004D
:1051600064A80000A014FF1FE0AB0000D01CFF1FCC
:10517000241DFF1F4CA80000F0AB0000BC1CFF1F4B
:10518000F8AB00004414FF1FB42AFF1F1C2BFF1FA5
:1051900004AC0000E41CFF1F0CAC000024AC0000B9
:1051A000A8A800007CA80000B53000001CAC0000DE
:1051B000901CFF1FEC2AFF1FA41CFF1F381DFF1FA0
:1051C000C0A80000AD2D000090F8392090F83800FC
:1051D000101A704790F8383090F839209A4205D963
:1051E0005A1C034480F83820187E70474FF0FF3077
:1051F000704700BF2DE9F04FDFF844A14E4DDAF8BB
:1052000000608DB09946179C099606900791DDF8CD
:1052100024B0BDF858600492002C08BF2C46002A28
:1052200076D04300202A1046DBB2A8BF2022434F8D
:10523000DFF81081059203930292019000259DF8FA
:105240000C2084F83B20236807994FF0010284F872
:105250005E2084F85D201B68204698470121204687
:1052600000F09EFA9DF80C3084F83B304FF00103BB
:1052700084F85E3084F85D30019B06991F2BD4BF03
:10528000DAB220220123204600F014FB23681B69B8
:10529000BB4226D194F8393094F83800181A20B35C
:1052A0003EB1DAF800300A930A9BCBEB0303B3421A
:1052B0001BD223685B69434509EB050220D194F8B2
:1052C000383094F83910994220D9591C234484F875
:1052D0003810187E107023681B690135BB426DB20F
:1052E000D8D0204698470028DAD1019A059B049926
:1052F000D21A0192029A8A4213440ADA02939EE772
:10530000009220469847009AC0B2E3E7FF20E1E709
:10531000049D66B1DAF800300B930B9BCBEB030BCB
:10532000B34504D3049B9D42B8BF4FF0FF352846D8
:105330000DB0BDE8F08F00BF9408FF1FC9510000F9
:105340004C2BFF1FD551000070B5049D134C002D50
:1053500008BF254640002C6885F83B00012085F8F1
:105360005E0085F85D001646284622681C46904778
:105370005EB1013E54FA86F6013C2B6814F8011F19
:105380001B6828469847B442F7D12846012100F00F
:1053900007FAB0FA80F0400970BD00BF9408FF1F03
:1053A0002DE9F041144C84B024880A9D009498465D
:1053B00014460DF10E030122019506460F46FFF734
:1053C00019FF01229DF80E3002FA04F4B8F1000F23
:1053D0000FD123EA040404AB0095394603F8014DCC
:1053E000304601228DF80E40FFF7AEFF04B0BDE855
:1053F000F0811C43E4B2EEE72408FF1F2DE9F043DF
:10540000194C85B024880D9D0094914698460195CD
:105410000DF10E03012206460F469DF83040FFF7BE
:10542000E9FEE8B1C8EB09090122914402FA08F843
:1054300004FA09F108F1FF339DF80E40009503FAD4
:1054400009F8C9B201EA080124EA080404AB0C43D4
:1054500003F8014D394630468DF80E40FFF774FFD2
:1054600005B0BDE8F08300BF2408FF1F002070478F
:1054700090F8383090F839209A4286BF1B18187E71
:105480004FF0FF30704700BF704700BF38B505468A
:10549000B0F85E0090B195F85D301446C3F121027A
:1054A00094420CD805F13B001844224600F064FBFE
:1054B00095F85D30234485F85D30204638BD0120E5
:1054C00014462871EEE700BFB0F85E306BB190F87B
:1054D0005D30202B07D8C218013380F85D300120E1
:1054E00082F83B107047012303710020704700BF12
:1054F0000023426980F8383080F8393080F85C3019
:1055000080F85D3080F85E3080F85F3006CA30B4D5
:105510000D68046943662A4383660A60A370426982
:1055200090F861301649146813441D7A5B7B01EBD7
:10553000C5051B026D6803F4E06343F064032B6050
:1055400090F8623013449D7CDB7D01EBC5011B02AA
:10555000496803F4E06343F064030B602168536817
:10556000194205D003692C225A70036904229A71EA
:10557000036920225A71036980229A7030BC7047F7
:10558000B8AC000038B50269D478E4B2E10605464B
:1055900024D51023D37063061FD504F0040404F04F
:1055A000FF03002C5AD042496A6E00230B7085F825
:1055B0005D30002A66D0904795F85D30002B61D0B1
:1055C0002B69D0229A702B6995F83B201A712B69B0
:1055D000012285F85C200222DA7038BD04F0400315
:1055E00003F0FF00002BD8D19379DBB203F0600108
:1055F00060294ED0937803F0100303F0FF01B3B19C
:1056000014F0010437D195F85C3095F85D1099429B
:105610004BD9591C2B4485F85C1093F83B3013711F
:105620002B69D0229A702B690222DA70D5E785F8AF
:105630006010937943F0200393712B6995F839102A
:105640001A791F29D2B2C6D8194800780028C2D0CA
:105650006818013185F839100276BCE72A6985F8A7
:105660003930C02393702B69114A197901211170C7
:105670000222DA70B1E7C02393702B691A790222F3
:10568000DA70AAE70122002385F85D2085F83B3017
:1056900096E703F0DF039371AB6E23B185F8380012
:1056A00095F8390098472A69A4E71471B8E700BF54
:1056B000482BFF1F2DE9F047374FDFF8E0903B689C
:1056C000026982B006460093DDF8008000214FF4A5
:1056D0009675D3789B065BD53B680193019BC8EB1D
:1056E00003030F2BF5D949B1102BF2D00020907095
:1056F000336980229A7002B0BDE8F087726996F82B
:10570000613013440521187A00F01CFE726996F886
:1057100061301344012193F812A0504600F012FEAC
:1057200009240021504600F007FE2B46013BFDD125
:105730000121504600F000FE2B46013BFDD1013C0B
:10574000EFD1706996F8611001444FF416720C7A2B
:105750004B7B09EBC4011B02496803F4E06343F08F
:1057600064030B6096F862300344997CDB7D09EB9F
:10577000C1011B02496803F4E06343F064030B605A
:10578000013AFDD13269D3789B064FF00101A3D4D1
:10579000012002B0BDE8F0874C2BFF1FB8AC000021
:1057A000F0B503691222DA700269937803F02003DE
:1057B00085B004460D46002B5ED0B42393703C495F
:1057C00022690B680093009E05E00B680193019B22
:1057D0009B1B042B42D8D37803F0200303F0FF0077
:1057E000002BF2D094F85D30002B31D04FF0000E3A
:1057F0004FF0020C04EB0E0393F83B3013710B686F
:105800000393039F206907E09B060DD50B68029365
:10581000029BDB1B052B28D8C378DBB203F0020206
:1058200002F0FF06002AEFD080F803C02669F37863
:10583000DBB2DF0632462DD49F062BD5DB0731D4F1
:105840000EF1010E94F85D305FFA8EFE7345D1D8EB
:1058500000201DBB002384F85E3004E090702369B3
:1058600080229A70042005B0F0BD867023698022E2
:1058700004209A7005B0F0BD03F0FF06FFF71AFF91
:1058800010B9042005B0F0BD236984F85F60B02230
:105890009A7094E78023B3700420DAE726698023A6
:1058A000B370D7E7BEF1000F0CBF02200320F6E76C
:1058B0004C2BFF1F2DE9F04106690025122780F8C7
:1058C000385080F83950F770D0F810C09CF802E0DA
:1058D0000EF0200E88B00446884615461E46BEF1DE
:1058E000000F49D0B4238CF802307A4B21691A6832
:1058F0000092DDF800E006E01A6801920198CEEB14
:105900000000042830D8C87800F0200000F0FF071D
:105910000028F1D04FEA480242F00102D2B20A71E7
:105920001A680292DDF808E0206906E01A6803921E
:105930000399CEEB010105292AD8C17801F00201B3
:1059400001F0FF070029F1D04FF0020C80F803C0EE
:105950002269D17811F0110722D12DBB002E0CBF86
:10596000A0238023937003E08F70236980229A70B4
:10597000384608B0BDE8F0810EF0FF07FFF79AFE49
:105980000028F5D0236984F85F70B0229A70ACE7E4
:1059900087702369802238469A7008B0BDE8F0818C
:1059A000802393700027E3E7012D78D0A021917028
:1059B00021690A79BE4667464FF0A80C1A6804921E
:1059C000049805E01A680592059A121A052A4DD81E
:1059D000CA7802F0020202F0FF08002AF2D0CF706B
:1059E0002169CA78D2B212F0100F08465DD1920632
:1059F0005BD5013DEDB2012D4CD0BEF11F0F3ED95C
:105A00000A79012DDAD11A680692069D05E01A6816
:105A10000792079A521B052A56D8C27802F0020252
:105A200002F0FF01002AF2D00223C3702269D3786A
:105A3000DBB2D9063BD49B0637D5B023BEF11F0F8E
:105A4000937043D8226904EB0E0312791A760EF193
:105A5000010E5FFA8EFE00BF00BF00BF16B12369C2
:105A600080229A7084F839E0774681E781F80280D5
:105A7000236980229A70774684F839E078E704EB4E
:105A80000E0291F8048082F818800EF1010E5FFA80
:105A90008EFEB6E781F802C021690846ADE7A8216D
:105AA00091702069BE460279ADE7774660E7102124
:105AB0004FF49673D170013BFDD12269937803F0C6
:105AC000F7037746937053E78170D1E723691B7919
:105AD000C1E700BF4C2BFF1F0148FFF753BD00BFBC
