:1000000000000320D10100002D660000E56500001E
:10001000E5650000E5650000E5650000E5650000B8
:10002000E5650000E5650000E56500002D6600005F
:100030002D660000E5650000B97C0000BD7C000075
:100040002D6600002D6600002D6600002D66000064
:100050002D6600002D6600002D6600002D66000054
:100060002D6600002D6600002D6600002D66000044
:100070002D6600002D6600002D6600002D66000034
:100080002D6600002D6600002D6600002D66000024
:100090002D6600002D6600002D6600002D66000014
:1000A00045520000515200002D6600002D660000F0
:1000B0002D6600002D6600002D6600002D660000F4
:1000C0002D6600002D6600002D6600002D660000E4
:1000D0002D6600002D6600002D6600002D660000D4
:1000E0002D6600002D6600002D6600002D660000C4
:1000F0002D6600002D6600002D6600002D660000B4
:100100002D6600002D6600002D6600002D660000A3
:100110002D660000DD6F00002D6600002D660000DA
:100120002D6600002D6600002D6600002D66000083
:100130002D6600002D6600002D6600002D66000073
:100140002D6600002D6600002D6600002D66000063
:100150002D6600002D6600002D6600002D66000053
:100160002D6600002D6600005D5200002D66000027
:100170002D6600002D6600002D6600002D66000033
:100180002D6600002D6600002D6600002D66000023
:100190002D6600002D6600002D6600002D66000013
:1001A0002D6600002D6600002D6600002D66000003
:1001B0002D6600002D6600002D6600002D660000F3
:1001C0002D6600002D6600002D6600002D660000E3
:1001D0005C4B4CF2205210B51A804DF628121A8052
:1001E00000BF00BF06F026FA574B4FF030621A608E
:1001F000564A9A60564ADA60564B4FF470021A60BB
:10020000554B564A1A60564B1A78110703D51A787F
:1002100042F008021A70534B5349AA221A70534AEB
:10022000534B8B4204D252F8040F43F8040BF8E707
:10023000504B514900228B4202D243F8042BFAE77B
:100240004E494F4A002352F8230041F8230001335E
:10025000742BF8D14B4B4C4A802103F8011B93427D
:10026000FBD14A4B454A1A60494B8A221A70A3F5C2
:10027000805324225A70A0221A709A799207FCD5D2
:100280009A79D406FCD4434A937903F00C03082BE3
:10029000FAD1414B60221A7002331A78802AFCD1BD
:1002A0003C4B01221A715D225A719A799006FCD555
:1002B0009979384A4906FBD5384B394919600021EC
:1002C000596020231370937903F00C030C2BFAD19F
:1002D000344B354A1A60354A354C136813F4807331
:1002E00003D123604FF4A8531360324B324A1A6093
:1002F00000225A60072243F8042C304AC3F80C2D20
:1003000062B606F0FDFC2368DA0705D52C4806F036
:10031000C3FA2C4B2C4A1A602C4B1B785B0609D570
:10032000284C294B22689A4204D1254806F0B4FA99
:10033000002323600AF08CFA06F082F907F030FD02
:10034000FEE700BF0E20054030800440823F0400DD
:100350000100002B88ED00E0002008E0030000858C
:1003600002D0074000E007401414FF1FB4C400008F
:100370003007FF1F1814FF1F802DFF1F0002FF1FF3
:100380000000000000E400E064E400E008ED00E0AC
:10039000005006400040064001E007404480044011
:1003A0000000060204800440C010070010D0034083
:1003B00014D0034014E000E01FBF02000000202022
:1003C0000A3D48621CE00340A5C3945A00F0074070
:1003D000FFFFFFFFFFFFFFFFFFFFFFFFFFFFFFFF2D
:1003E000FFFFFFFFFFFFFFFFFFFFFFFFFFFFFFFF1D
:1003F000FFFFFFFFFFFFFFFFFFFFFFFFFFFFFFFF0D
:10040000FFFFFFFFFFFFFFFFFFFFFFFFDEF9FFFF23
:1004100010B5054C237833B9044B13B10448AFF33E
:1004200000800123237010BD1814FF1F000000007E
:10043000B0C40000084B10B51BB108490848AFF321
:1004400000800848036803B910BD074B002BFBD0A0
:10045000BDE81040184700BF000000001C14FF1F3B
:10046000B0C400001414FF1F0000000043680B70AC
:1004700043681B0A4B70C3888B70C379CB70836849
:100480000B7183681B0A4B7143898B71C37ACB71E3
:10049000082070470B7843604A7843EA02234360A0
:1004A0008A7843EA02434360CA7843EA02634360BE
:1004B0000B7983604A7943EA022383608A7943EAAD
:1004C00002438360CA7943EA02638360082070476D
:1004D0000048704738BD00000048704748BD000024
:1004E000F0B50C460A788280064614F8010F002306
:1004F00042EA0022B2801A4614F8010F98400833ED
:10050000202B42EA0002F7D1971D062F58D901F19E
:10051000050E551D73464C1913F8010F03F8010C15
:10052000A342F9D100234B5518460D44C6F808E004
:1005300015F8014F84400830202843EA0403F7D11E
:10054000381D0344834209D909320A440446013460
:1005500012F8015F02F8015CA342F8D80138CF1805
:100560000024084407F8014C2246F06017F8015BAC
:1005700095400832202A44EA0504F7D1181D0444A6
:10058000A04209D203330B440246013213F8015F43
:1005900003F8015CA242F8D30D1901380844002386
:1005A00005F8013C3061A8786B780A5DED780104AC
:1005B00041EA0323134343EA0563201D7361F0BD41
:1005C000551D01F1050EADE7004870476CBD0000F8
:1005D0000048704788BD00000B78F0B40371002319
:1005E00006460C461D4614F8012F9A400833202B6E
:1005F00045EA0205F7D1681D052801F1040708D96D
:100600002C1D3B460C4413F8012F03F8012C9C428F
:10061000F9D10D4400232B71B760F0BC704700BFC7
:1006200000487047ACBD000000487047C0BD0000E6
:1006300000487047DCC0000000487047E4BD00007F
:10064000B0F904300B70C3F307224A7002207047E0
:100650004A780B7843EA022383800220704700BF68
:100660000048704708BE00000048704718BE0000F0
:1006700043680B7010B4180C1C0A1A0E4C7088706A
:10068000CA7004205DF8044B704700BF10B44C786A
:100690000A788B78C97842EA042242EA034343EAA3
:1006A000016343605DF8044B0420704700487047C5
:1006B0003CBE00000048704750BE00008268C3681E
:1006C0000B71F0B4140A4C70170C160E1D0A1C0C9A
:1006D0001B0E8F70CE704D718C710A70CB710269D8
:1006E00043690B73140A4C72170C160E1D0A1C0C6E
:1006F0001B0E8F72CE724D738C730A72CB7382692C
:10070000C3690B751C0A180C170A160C150E1B0E64
:1007100088750A744F748E74CD744C75CB7518201F
:10072000F0BC70472DE9F04F91F801C091F800E05E
:100730000F7991F802B091F803A0064648794EEA85
:100740000C2E91F806C047EA0020CF794EEA0B4EF6
:1007500040EA0C404EEA0A6840EA0769C6E90289A5
:1007600091F808C091F809E00F7B487B91F80A9056
:1007700091F80B804CEA0E2E91F80EC047EA00204B
:10078000CF7B4EEA094E40EA0C404EEA086440EA4C
:100790000765C6E904450D7C4C7C087D91F815C0C1
:1007A00091F812808F7D91F813E045EA0424CD7D05
:1007B00040EA0C2144EA084441EA074144EA0E6257
:1007C00041EA05631820C6E90623BDE8F08F00BFA3
:1007D0000048704774BE0000004870478CBE00009F
:1007E0008268C3680B71F0B4140A4C70170C160EB3
:1007F0001D0A1C0C1B0E8F70CE704D718C710A700F
:10080000CB71026943690B73140A4C72170C160EF4
:100810001D0A1C0C1B0E8F72CE724D738C730A72E4
:10082000CB738269C3690B75140A170C160E1D0A67
:100830004C741C0C1B0E8F74CE744D758C750A7421
:10084000CB75036A426A0B761F0A1E0C150A140C3C
:10085000100E1B0E4F768E764D778C77C8770A7701
:100860002020CB76F0BC70472DE9F04F91F8019035
:1008700091F800C091F804E091F802B091F803A05B
:10088000804648794CEA092C91F806904EEA0020FF
:1008900091F807E04CEA0B4C40EA09404CEA0A6642
:1008A00040EA0E67C8E9026791F809E00F7A0E7B0B
:1008B000487B91F80A9091F80BC047EA0E2791F80F
:1008C0000EE046EA0020CE7B47EA094740EA0E40A8
:1008D00047EA0C6440EA0665C8E904450E7C4D7C95
:1008E0000C7D487D91F812E0CF7C46EA05258E7D8F
:1008F00044EA0020CC7D45EA0E4540EA064045EA40
:10090000076240EA0463C8E906234C7E087E8F7EB6
:10091000CE7E0A7F4B7F8D7F40EA042042EA03238C
:10092000CC7F83B040EA074143EA054341EA0662CF
:1009300043EA046300920193DDE900232020C8E923
:10094000082303B0BDE8F08F00487047B0BE000038
:1009500000487047CCBE000000487047F0BE000061
:100960000048704704BF00000048704728BF0000DF
:100970000048704744BF0000C06D70470048704792
:10098000F0BE00000048704704BF000090F8F80473
:10099000704700BFFFFFFFFFF8B506F03BF9544C6E
:1009A000544D09F0D9F84CA3D3E9002309F074FAA7
:1009B000D4E9002308F092FFC5E9000106F02AF906
:1009C00009F0CAF844A3D3E9002309F065FA4A4BB9
:1009D000D3E90067C4E900010022484B304639469C
:1009E00009F0A2FB38B1304639460022444B09F0E9
:1009F000B9FB00284ED1434BD3ED007AB3EE047A15
:100A0000F4EEC77AF1EE10FA06D5BBEE047AF4EEF6
:100A1000C77AF1EE10FA2CDC3B4BD3ED007ADFED18
:100A20003B6A93ED016A93ED027AD3ED034A9FEDA1
:100A3000384A384BF8EEE77AB8EEC66A87EEA65A1F
:100A4000C6EE265AB8EEC77AF8EEE44A87EE266A72
:100A500084EEA67A75EE047AF5EE006A75EEA77A52
:100A600076EE277A77EE277A67EEA67AC3ED007ADC
:100A7000F8BD254B9FED257A1C68181D07C867EE49
:100A8000877A5C60FDEEE77A9860C3ED007AD96002
:100A90001A61C4E7204B1B68012B13D0002BAAD18D
:100AA0001E4E3168D5E900234C1E0DA1D1E900018D
:100AB000346009F0F1F909F09DFB124B07EE900A42
:100AC00018609BE7154E3168D5E900234C1C06A140
:100AD000D1E90001ECE700BF0000000080842E4156
:100AE00000000020EACE6ABF00000020EACE6A3F84
:100AF000401DFF1F6014FF1F301DFF1F00009E40A0
:100B000000009EC03C1DFF1FB022FF1F00401C467E
:100B1000000000008C14FF1F9822FF1F8814FF1F85
:100B2000F8B506F077F8544C544D09F015F84CA37D
:100B3000D3E9002309F0B0F9D4E9002308F0CEFE90
:100B4000C5E9000106F066F809F006F844A3D3E908
:100B5000002309F0A1F94A4BD3E90067C4E9000179
:100B60000022484B3046394609F0DEFA38B13046AB
:100B700039460022444B09F0F5FA00284ED1434B88
:100B8000D3ED007AB3EE047AF4EEC77AF1EE10FA00
:100B900006D5BBEE047AF4EEC77AF1EE10FA2CDC3F
:100BA0003B4BD3ED007ADFED3B6A93ED016A93EDA9
:100BB000027AD3ED034A9FED384A384BF8EEE77AD4
:100BC000B8EEC66A87EEA65AC6EE265AB8EEC77ABF
:100BD000F8EEE44A87EE266A84EEA67A75EE047A89
:100BE000F5EE006A75EEA77A76EE277A77EE277A29
:100BF00067EEA67AC3ED007AF8BD254B9FED257A06
:100C00001C68181D07C867EE877A5C60FDEEE77AFE
:100C10009860C3ED007AD9601A61C4E7204B1B6865
:100C2000012B13D0002BAAD11E4E3168D5E9002329
:100C30004C1E0DA1D1E90001346009F02DF909F035
:100C4000D9FA124B07EE900A18609BE7154E3168EF
:100C5000D5E900234C1C06A1D1E90001ECE700BF57
:100C60000000000080842E4100000020EACE6ABF10
:100C700000000020EACE6A3F802AFF1F682BFF1F7A
:100C80009814FF1F00009E4000009EC0F02BFF1F25
:100C9000A814FF1F00401C4600000000901CFF1F0E
:100CA000601DFF1F982BFF1F43682DE9F0470B7055
:100CB00043681B0A4B70C3888B70C379CB70436841
:100CC000002B00F085800A4600250426C36853F8EF
:100CD000253013711C0C1F0A1B0E94715771D371B0
:100CE00043680135AB42344602F1040206F10406C2
:100CF000ECD804F1080204F1050A04F1060904F134
:100D0000070804F1090C04F10A0E04F10B0517465B
:100D10000C3403698B5503691B0A01F80A30438AB6
:100D200001F80930C37C01F808300369F3B101EB25
:100D3000070E75460022836953F822300EF82230E0
:100D40001C0C1E0A1B0EAC706E70EB700369013236
:100D500093423C4605F1040507F10407EBD804F182
:100D6000050C04F1060EE51D3A460834C3698B54A0
:100D7000C3691B0A01F80C30C38B01F80E30C37F26
:100D80004B55C3690BB30F4680460026D8F8243074
:100D900053F826000AF0F4FCB10005463A19002386
:100DA00025FA03F00833202B02F8010BF8D1D8F80C
:100DB00024300434381959582A4605F03FFBD8F836
:100DC0001C300136B3422C44E0D82046BDE8F08701
:100DD000082217460C240B254FF00A0E4FF0090C81
:100DE0004FF007084FF006094FF0050A042690E778
:100DF00070B503790B70064680680D460AF0C0FC9A
:100E00002A460446002324FA03F10833202B02F873
:100E1000011FF8D1B168681D224605F00FFB601D67
:100E200070BD00BFF8B583880B7083881B0A4B70B8
:100E3000064680680D460AF0A3FC030E010A020C68
:100E40006B71A8702A71E97002460446B168A81D4A
:100E500005F0F4FAF0680AF093FC611D024629449B
:100E60000634002322FA03F00833202B01F8010F87
:100E7000F8D104342819F168144405F0DFFA306918
:100E80000AF07EFC2A190746002327FA03F10833EB
:100E9000202B02F8011BF8D1043428193A46316995
:100EA00005F0CCFA381973692B540544190A1A0C49
:100EB0001B0E6970AA70EB700430F8BD084611462D
:100EC00006F0D4BD06F06CBD2DE9F04F0A784B78E2
:100ED0008C78054642EA0323C8780E4643EA044369
:100EE000696843EA00648C4283B000F2BA806C60A7
:100EF000002C00F0BF8005F10809344600274FF0B0
:100F00000408A1796379227994F807E0E868090474
:100F100041EA0323134343EA0E63AB6000EB87000F
:100F20000422494605F08AFA6B680137BB42424603
:100F300004F1040408F10408E3D802F1080741466B
:100F4000B94602F1050E901DD31D02F1090B02F105
:100F50000A0802F10B0A02F10C04305C16F80E20AC
:100F6000715C16F803E02B69000440EA02220A4390
:100F700042EA0E629A4200F292802A614AB305F177
:100F8000140A06EB09074FF00008B9787B783A7825
:100F9000FC78A869090441EA0323134343EA046384
:100FA0006B6100EB88000422514605F047FA2B697B
:100FB00008F1010843454C4607F1040709F104090B
:100FC000E3D804F1050B04F1060804F1070A4F46C3
:100FD000083416F8082016F80B00F35D16F80A70AE
:100FE000E969120442EA0022134343EA07678F4289
:100FF0004FD8EF618FB34FF00009C84605F12007C5
:1010000000239E46311911F8012B9A400833202BFA
:101010004EEA020EF7D1201D8644704509D2E31C2A
:1010200033440246013213F8011F03F8011C7245D4
:10103000F8D306EB0E02431E02F8018C686A3344B3
:101040002B6200EB890004223946744605F0F6F95C
:10105000EB6909F101094B45D2D8204603B0BDE840
:10106000F08FA100E86809F099FF6C60E860002C3F
:101070007FF441AF0827B9460C244FF00B0A4FF01C
:101080000A084FF0090B072306204FF0050E042134
:1010900063E7B900686A09F081FF6862A9E7910017
:1010A000A869019209F07AFF019AA86165E700BF7B
:1010B000026943690B71F0B4140A4C70170C160ED8
:1010C0001D0A1C0C1B0E8F70CE704D718C710A7036
:1010D000CB718269C3690B73140A4C72170C160E1C
:1010E0001D0A1C0C1B0E8F72CE724D738C730A720C
:1010F000CB73026A436A0B75140A170C160E1D0A8D
:101100004C741C0C1B0E8F74CE744D758C750A7448
:10111000CB75036B426B0B761C0A4C761F0C160AC0
:10112000150C140E1B0E8F764E778D77CC770A77C1
:10113000CB76826BC36B81F82430140A81F821408E
:10114000170C160E1D0A1C0C1B0E81F8227081F85C
:10115000236081F8255081F8264081F8202081F80D
:101160002730026C436C81F82C301C0A180C170ACB
:10117000160C150E1B0E81F82E0081F8282081F820
:10118000297081F82A6081F82B5081F82D4081F870
:101190002F303020F0BC7047026943690B71F0B406
:1011A000140A4C70170C160E1D0A1C0C1B0E8F70A7
:1011B000CE704D718C710A70CB718269C3690B73EB
:1011C000140A4C72170C160E1D0A1C0C1B0E8F7283
:1011D000CE724D738C730A72CB73026A436A0B75BD
:1011E000140A170C160E1D0A4C741C0C1B0E8F745F
:1011F000CE744D758C750A74CB75036B426B0B7690
:101200001C0A4C761F0C160A150C140E1B0E8F763A
:101210004E778D77CC770A77CB76826BC36B81F86C
:101220002430140A81F82140170C160E1D0A1C0CDC
:101230001B0E81F8227081F8236081F8255081F817
:10124000264081F8202081F82730026C436C81F819
:101250002C30140A81F82940170C160E1D0A1C0C9C
:101260001B0E81F82A7081F82B6081F82D5081F8CF
:101270002E4081F8282081F82F30036D426D81F8CF
:1012800030301C0A81F831401F0C160A150C140E60
:101290001B0E81F8327081F8356081F8365081F884
:1012A000374081F8333081F83420826DC36D81F886
:1012B0003C30140A81F83940170C160E1D0A1C0C1C
:1012C0001B0E81F83A7081F83B6081F83D5081F83F
:1012D0003E4081F8382081F83F30026E436E81F83D
:1012E0004430140A81F84140170C160E1D0A1C0CDC
:1012F0001B0E81F8427081F8436081F8455081F8F7
:10130000464081F8402081F84730826EC36E81F8F4
:101310004C30140A170C160E1D0A81F849401C0C9B
:101320001B0E81F8482081F84A7081F84B6081F8E3
:101330004D5081F84E4081F84F30026F436F81F875
:101340005430140A170C160E1D0A81F851401C0C5B
:101350001B0E81F8527081F8536081F8555081F866
:10136000564081F8502081F85730826FC36F81F862
:101370005C301C0A180C170A160C150E1B0E81F88F
:10138000597081F85A6081F85B5081F85D4081F8AE
:101390005E0081F85820602081F85F30F0BC704713
:1013A000F0B585B02D4B026801932D4903910323BD
:1013B0008DF8083014682B4A944240D1002438221A
:1013C000054680F8233280F8242280F8254280F8F0
:1013D000264280F8274200F50A7005F02FF8FF2713
:1013E0003D20C223FE26072185F81E0285F8203203
:1013F00085F81F4285F82242224685F81C7285F83E
:101400001D6285F8211205F2212305F25F2001E01B
:1014100013F8011F83420A44FAD1D2436C6885F85D
:1014200060222368104A5B68934205F507700DD16E
:10143000452106F01BFB4FF0FF3005B0F0BD01AABF
:101440000721A0474FF0FF3005B0F0BD014645220F
:10145000204698474FF0FF3005B0F0BD54BC000067
:1014600068BF00004D1A0000BD0E00002DE9F04FCE
:1014700091F801C091F800E04A7991F802B091F832
:1014800003A0034608794EEA0C2E91F806C040EA04
:101490000222C8794EEA0B4E42EA0C424EEA0A6832
:1014A00042EA0069C3E9088991F809C091F808E0A7
:1014B000087B4A7B91F80A9091F80B804EEA0C2E3B
:1014C00091F80EC040EA0222C87B4EEA094E42EA79
:1014D0000C424EEA086642EA0067C3E90A674F7C9D
:1014E0000E7C087D4A7D91F812C091F813E046EA1F
:1014F00007268F7D40EA0222C87D87B046EA0C4667
:1015000042EA074246EA0E6642EA0062019200960B
:10151000DDE90067C3E90C6791F819E00E7E8F7E64
:101520000A7F487F91F81BC046EA0E2691F81EE01C
:1015300046EA074642EA0020CF7F9A6D40EA0E4015
:1015400046EA0C6640EA076003900296DDE902670E
:10155000C3E9106791F820E091F8217091F82460B8
:1015600091F8250091F8228091F823C04EEA0727D0
:1015700091F826E046EA002091F8276047EA0847FC
:1015800040EA0E4047EA0C6740EA0660059004977F
:10159000DDE90467C3E9126791F8287091F82960C2
:1015A00091F82C0091F82D8091F82A9091F82BC099
:1015B00091F82EE047EA062691F82F7040EA0821BC
:1015C00046EA094641EA0E4146EA0C6441EA0765EB
:1015D00003F11000C3E9144507B0BDE8F04F104710
:1015E0002DE9F04F91F801C091F800E04A7991F8A7
:1015F00002B091F803A0034608794EEA0C2E91F848
:1016000006C040EA0222C8794EEA0B4E42EA0C427A
:101610004EEA0A6842EA0069C3E9048991F809C000
:1016200091F808E0087B4A7B91F80A9091F80B80CA
:101630004EEA0C2E91F80EC040EA0222C87B4EEA18
:10164000094E42EA0C424EEA086642EA0067C3E9E4
:1016500006674F7C0E7C087D4A7D91F812C091F898
:1016600013E046EA07268F7D40EA0222C87D87B054
:1016700046EA0C4642EA074246EA0E6642EA006241
:1016800001920096DDE90067C3E908674F7E0E7E90
:10169000087F4A7F91F81AC091F81BE046EA0726B6
:1016A0008F7F40EA0222C87F46EA0C4642EA0742A0
:1016B00046EA0E6642EA006203920296DDE902679C
:1016C000C3E90C6791F8207091F8216091F824002B
:1016D00091F8252091F822C091F823E047EA0626E8
:1016E00091F8267040EA022291F8270046EA0C465B
:1016F00042EA074246EA0E6642EA00620592049612
:10170000DDE90467C3E90E6791F8297091F82C00B0
:1017100091F8286091F82D2091F82BC091F82A803B
:1017200091F82EE046EA072640EA022291F82F704F
:1017300042EA0E4246EA084141EA0C6442EA076581
:101740003020C3E9104507B0BDE8F08F2DE9F04F18
:1017500091F801C091F800E04A7991F802B091F84F
:1017600003A0034608794EEA0C2E91F806C040EA21
:101770000222C8794EEA0B4E42EA0C424EEA0A684F
:1017800042EA0069C3E9048991F809C091F808E0C8
:10179000087B4A7B91F80A9091F80B804EEA0C2E58
:1017A00091F80EC040EA0222C87B4EEA094E42EA96
:1017B0000C424EEA086642EA0067C3E906674F7CBE
:1017C0000E7C91F812C0087D4A7D91F813E046EA3C
:1017D00007268F7D40EA0222C87D46EA0C4642EA8F
:1017E000074246EA0E6442EA0065C3E908454D7EB9
:1017F0000C7E087F4A7F8F7ECE7E44EA05248D7F53
:1018000040EA0222C87F93B044EA074442EA054214
:1018100044EA066442EA006201920094DDE9004570
:10182000C3E90C4591F8215091F8204091F824002B
:1018300091F8252091F8227091F8236044EA05245C
:1018400091F8265040EA022291F8270044EA074422
:1018500042EA054244EA066442EA006203920294C4
:10186000DDE90245C3E90E4591F8295091F8284079
:1018700091F82A7091F82C0091F82D2091F82B60A6
:1018800044EA052491F82E5040EA022291F82F00F4
:1018900044EA074442EA054244EA066442EA006236
:1018A00005920494DDE90445C3E9104591F83150EF
:1018B00091F8304091F8340091F8352091F8327069
:1018C00091F8336044EA052491F8365040EA022248
:1018D00091F8370044EA074442EA054244EA0664C4
:1018E00042EA006207920694DDE90645C3E9144521
:1018F00091F8395091F8384091F83C0091F83D202A
:1019000091F83A7091F83B6044EA052491F83E5012
:1019100040EA022291F83F0044EA074442EA0542C5
:1019200044EA066442EA006209920894DDE9084547
:10193000C3E9164591F8415091F8404091F84400B0
:1019400091F8452091F8427091F8436044EA0524EB
:1019500091F8465040EA022291F8470044EA0744D1
:1019600042EA054244EA066442EA00620B920A94A3
:10197000DDE90A45C3E9184591F8495091F8484016
:1019800091F84C0091F84D2091F84A7091F84B6015
:1019900044EA052491F84E5040EA022291F84F00A3
:1019A00044EA074442EA054244EA066442EA006225
:1019B0000D920C94DDE90C45C3E91A4591F850509D
:1019C00091F8514091F8540091F8552091F85270D7
:1019D00091F8536045EA042491F8565040EA0222F7
:1019E00091F8570044EA074442EA054244EA066493
:1019F00042EA00620E940F92DDE90E45C3E91C45F0
:101A000091F8595091F85C0091F8584091F85D2098
:101A100091F85E6091F85AE091F85B7044EA052411
:101A200040EA022291F85F5042EA064244EA0E413F
:101A300042EA056241EA076110911192DDE9104521
:101A40006020C3E91E4513B0BDE8F08FF0B56329EF
:101A500085B003DD90F8F844002C46D013680546A5
:101A60000F4610461B6805F223219847C2B2C0F307
:101A70000721561885F81E2247F30722F643FF2355
:101A80004FF0FE0EFCB285F82222421C85F820623F
:101A900085F81F1285F81C3285F81DE285F8214271
:101AA0000DDB00F22221294405F22123002201E06E
:101AB00013F8014F8B422244FAD1D343DBB22A18E8
:101AC00000F10804B4F5007F82F8233217DC6A685D
:101AD000354E13685B68B34205F5077008D121469F
:101AE00005F0C4FF204605B0F0BD204605B0F0BDAE
:101AF0000146104622469847204605B0F0BD2B4AC5
:101B00002B492B68019203208DF8080003911B6874
:101B1000284A93423FD10024382285F8230285F8D1
:101B2000242285F8254285F8264285F8274205F5C6
:101B30000A7004F083FCFF273D20C223FE26072104
:101B400085F81E0285F8203285F81F4285F822426A
:101B5000224685F81C7285F81D6285F8211205F26F
:101B6000212305F25F2001E013F8011F98420A4487
:101B7000FAD1D243686885F8602203680A4A5B6834
:101B8000934205F507710BD10846452105F06EFF1C
:101B90004FF0FF30A7E7284601AA07219847F7E74B
:101BA00045229847F4E700BFBD0E000054BC00007A
:101BB00068BF00004D1A00002DE9F04755EC104BAE
:101BC00082B00022002310EE100A294608F0ACFA79
:101BD000002200284FF000032046294614BF4FF092
:101BE000FF3A4FF0010A08F0BDFA0022002800F089
:101BF000A2804FF080432046294608F0B3FAB8B3DC
:101C00009FED791B45EC104B06F072FA22462B46ED
:101C1000204629468DED000B08F014F874A3D3E993
:101C2000002308F00FF89DED000B73A3D3E9002308
:101C300006460F4651EC100B08F004F802460B461E
:101C40003046394607F04CFE06460F4620462946E8
:101C50006BA3D3E9002307F0F5FF32463B4607F0BC
:101C60003FFE69A3D3E9002307F038FE06460F467E
:101C7000002200232046294608F074FA0022A8B367
:101C80004FF080432046294608F058FAB0B960A3C7
:101C9000D3E900233046394608F064FA10B15CA756
:101CA000D7E90067504607F067FF32463B4607F02A
:101CB000C9FF08F077FA02B0BDE8F08756A3D3E970
:101CC00000232046294608F04DFA0028DFD02046A0
:101CD000294653A3D3E9002307F0B4FF52A3D3E965
:101CE000002307F0FDFD06460F46D0E74FF04043C6
:101CF0002046294608F02CFA0028C8D000220023EC
:101D00002046294608F02EFA0028D7D148A3D3E967
:101D100000232046294608F007FA0028B7D0002201
:101D200000232046294608F01DFA0028CFD120467E
:101D300005F10041CDE74FF040432046294608F029
:101D4000F3F9002894D0002200232046294608F009
:101D500009FA00287FF454AFA04605F100499FED31
:101D6000221B49EC108B06F0C3F923A3D3E900230F
:101D700051EC100B07F066FF002206460F460023C9
:101D80002046294608F0EEF9D0B922464B462046B7
:101D9000494607F057FF16A3D3E9002307F052FF87
:101DA00032463B4607F09CFD002206460F460023C4
:101DB0002046294608F0D6F980B92046494647E72B
:101DC00022462B462046294607F03CFF08A3D3E9CC
:101DD000002307F037FF32463B4633E720462946CB
:101DE00036E700BFAFF300800000000000000840AD
:101DF000000000002DB20BC0000000A0A44EC83FA0
:101E000000000020AEC73740000000202F9D224078
:101E10000000000000E06F4000000040E17A843FD5
:101E2000000000C01E85FB3F000000A047E13640D7
:101E300000000040E17A84BF70B51E4A1E4E0023A8
:101E4000051E33601360A8BF01230C46A8BF336092
:101E500000296FEA0501A8BF01234FEAD1714FF0B5
:101E60001E00A8BF136004F0C9FEE90F1C2004F097
:101E7000C5FEE143C90F272004F0C0FEE10F252075
:101E800004F0BCFE85EAE571A1EBE571002CB8BF5A
:101E90006442FF29A8BFFF211D2004F00FFDFF2C85
:101EA00021464FF02600A8BFFF21BDE8704004F096
:101EB00005BD00BF601DFF1F9822FF1F2DE9F04FD9
:101EC0008DB059EC168B8DED062B8DED045B8DEDF1
:101ED000023B8DED004B8DED0A0B8DED081B04F0E0
:101EE00099FE9DED081B9DED0A0B574B574C186052
:101EF00053EC112B51EC100B07F0F0FC9DED004B57
:101F00009DED023B82468B4653EC142B51EC130B98
:101F1000C4E900AB07F0E2FC04460D4645EC174B64
:101F20004B4F4C4E87ED007B42464B465046594640
:101F3000CDE9004507F086FED6E9002307F0D0FC86
:101F400004460D4645EC174B424686ED007B4B465A
:101F5000DDE90001CDE9024507F074FE3E4BD3E90F
:101F6000002307F0BDFCDDE9004506462246204679
:101F7000394C0F46C4E900672B46294607F0B0FCF0
:101F8000002204460D46354B3046394607F05AFECE
:101F900002460B462046294607F0A2FC9DED045B55
:101FA000064653EC152B0F46DDE9000107F096FCC1
:101FB00042464B4607F070FF0022002307F042FE26
:101FC00002460B463046394607F08AFC5246064622
:101FD0000F465B465046594607F082FC00220446F5
:101FE0000D461E4BDDE9020107F02CFE02460B46B2
:101FF0002046294607F074FC9DED062B044653EC61
:10200000122B0D465046594607F068FC42464B4697
:1020100007F042FF0022002307F014FE02460B46A1
:102020002046294607F05CFC41EC100BFFF7C4FD8D
:1020300047EC106B0446FFF7BFFD014620460DB08C
:10204000BDE8F04FFFF7F8BE942BFF1F5814FF1F99
:10205000F82BFF1F282BFF1F882AFF1F0000E03FDF
:102060002DE9F04FDFF87CA1DFF87CB14E4D4F4EEB
:102070004F4FDFF87881DFF878914E4B4E484F4C48
:1020800093B05A4605932946534604900297CDF8DB
:1020900004800396CDF80090494803F04BF9B5F958
:1020A0000000484D07F068FDC4E90401BBF90000D9
:1020B00007F062FDC4E90601BAF9000007F05CFD13
:1020C000414B1B681A68C4E90801D26809A918467F
:1020D00090473E4A0E9B1360184607F05FFDC4E927
:1020E0001E01B9F9000007F047FDC4E90C01B8F979
:1020F000000007F041FDC4E90E01B7F9000007F048
:102100003BFDB6F90080C4E91001404607F034FDFC
:10211000294BB3F90070C4E91401384607F02CFDCF
:10212000244BC4E91601B3F9000007F025FD284B44
:102130001B68C4E91801C3EB080007F01DFD254B1F
:10214000CDE906011868381A07F016FD9DED061B4B
:1021500041EC100B05F0CAFF002251EC100B1E4B96
:1021600007F070FD0EA3D3E9002307F095FE08F0F9
:1021700041F81A4B04461C60B6F9000007F0FCFC5D
:10218000174BC5E90201186807F008FDC5E904010D
:10219000204607F003FDC5E9060113B0BDE8F08F46
:1021A00000000080FB210940A02BFF1F9014FF1F9F
:1021B000A82BFF1F702BFF1F9214FF1F902AFF1FD9
:1021C000801CFF1F3814FF1F781CFF1F941CFF1F6B
:1021D0001408FF1F1008FF1F00806640AC2BFF1F74
:1021E000F42BFF1F7C1CFF1FA22BFF1FA62BFF1F22
:1021F000A42BFF1F10B57149044605F0BBFD002854
:102200007AD00121022004F0F9FC0121032004F01E
:10221000F5FC0021042004F0F1FC6949204605F09A
:10222000A9FD002800F0BB800021022004F0E6FC9C
:102230000121032004F0E2FC0121042004F0DEFC73
:102240006049204605F096FD002800F099800121A4
:10225000022004F0D3FC0021032004F0CFFC012174
:10226000042004F0CBFC5849204605F083FD0028EB
:1022700078D00021022004F0C1FC0021032004F0EA
:10228000BDFC0121042004F0B9FC5049204605F0B2
:1022900071FD002859D00121022004F0AFFC00217B
:1022A000032004F0ABFC0021042004F0A7FC484903
:1022B000204605F05FFD00283AD00021022004F0FE
:1022C0009DFC0121032004F099FC0021042004F06E
:1022D00095FC4049204605F04DFDE0B1002102206B
:1022E00004F08CFC0021032004F088FC0021042071
:1022F000BDE8104004F082BC3749204605F03AFDA5
:1023000000287FF47EAF3549204605F033FD0028D4
:102310007FF477AF81E73249204605F02BFD002896
:10232000DCD120462F4905F025FD0028D6D110BD6F
:102330002D49204605F01EFD0028BED12B49204620
:1023400005F018FD0028B8D1C3E72949204605F05B
:1023500011FD00289FD12749204605F00BFD0028DC
:1023600099D1A4E72449204605F004FD002880D136
:102370002249204605F0FEFC00287FF47AAF84E76E
:102380001F49204605F0F6FC00287FF460AF1D4988
:10239000204605F0EFFC00287FF459AF63E71A49A7
:1023A000204605F0E7FC00287FF43EAF17492046A1
:1023B00005F0E0FC00287FF437AF41E7A4BF000040
:1023C000B0BF0000C8BF0000E0BF0000F8BF0000C1
:1023D00010C0000028C00000A8BF0000ACBF000073
:1023E00030C0000038C0000018C0000020C000004D
:1023F00000C0000008C00000E8BF0000F0BF0000FF
:10240000D0BF0000D8BF0000B8BF0000C0BF0000B0
:102410002DE9F04F2DED068B642887B000F0078181
:10242000B0EE408AF0EE608AB0EE419AF0EE619A2A
:10243000012806D902286BD007B0BDEC068BBDE899
:10244000F08F002800F0F080894902A805F07EFC9A
:1024500002A8FFF7CFFE02A805F038FC7CA3D3E961
:10246000002351EC180B07F0EDFB002206460F4647
:10247000804B51EC190B07F0E5FB8046894602467C
:102480000B463046394607F02BFADFF820E20446C7
:102490000D46CEE9004542464B463046394607F0E8
:1024A0001DFADFF80CE206460F46CEE900676AA384
:1024B000D3E900232046294607F0C4FB00226E4BD7
:1024C0006E4D07F0E9FC0022002307F009FA07F03F
:1024D00069FE044660A3D3E90023304639462C60E8
:1024E00007F0B0FB0022644B07F0D6FC002200236B
:1024F00007F0F6F907F056FE614A034619462046F2
:102500001360FFF799FC07B0BDEC068BBDE8F08FB8
:102510005C49DFF89891DFF8988102A805F016FC75
:1025200002A8FFF767FE02A805F0D0FB53EC182BBA
:1025300018EE100A194607F0D3F949A3D3E900238E
:1025400004460D4651EC190B07F07CFB06460F467E
:1025500002460B462046294607F0C2F942A3D3E9BA
:10256000002307F099FC82468B4632463B462046C4
:102570002946C9E900AB07F0B1F93BA3D3E9002331
:1025800007F08AFC404A414B414D1B6806461068E3
:102590000F46C01AC8E9006707F0EEFA002441ECC4
:1025A0001A0B22462B465046594607F0DBFD18B160
:1025B000C9E90045A246AB46354D002430463946B0
:1025C00022462B4607F0CEFD18B1C8E90045264645
:1025D0002F46304A304B106893ED009B07F0DEFA2F
:1025E0002E4B2F4ACDE90001186892ED008B07F0C1
:1025F000D5FAB0EE4A6AF0EE6A6AB0EE495AF0EEE9
:10260000695A9DED004BB0EE482AF0EE682A47EC7F
:10261000136B41EC110B4BEC10ABFFF74FFC07B009
:10262000BDEC068BBDE8F08F02A81E490EE71E49DF
:1026300002A805F08BFB02A8FFF7DCFD02A805F05D
:1026400045FB07B0BDEC068BBDE8F08FAFF3008013
:102650000000000000C052400000000000E06F4099
:1026600000000040DF4FCD3F00000040E17AC43F52
:10267000C8BF000000004940000059405C1DFF1F1A
:10268000381DFF1FB0BF00009C2BFF1F942BFF1FA6
:1026900000002E40901CFF1F8014FF1F8C14FF1F92
:1026A000101DFF1FF8BF0000A4BF0000782BFF1F04
:1026B000A014FF1FF8B5D0E90C672DED048B04467C
:1026C000002200233046394607F024FD94ED049B98
:1026D00094ED108B1D4D08B100232B6000221C4B84
:1026E0003046394607F016FD88B194ED068B01207F
:1026F0002860B0EE481AF0EE681AB0EE490AF0EE23
:10270000690ABDEC048BBDE8F840FFF781BE0022EA
:10271000104B3046394607F0FDFC40B9304639468B
:102720000022002307F0F6FC60B12868E1E70A4CBC
:102730000A49002200230220C4E90023C1E9002342
:102740002860D6E764202860D3E700BF981CFF1FED
:102750000000144000805640282BFF1F882AFF1FCE
:10276000F0B56C4D85B0002401210220C5F8E44489
:10277000C5F8E844C5F8F044C5F8EC4404F044FA60
:102780000121032004F040FA0121042004F03CFA66
:102790006149684605F0DAFA6846FFF72BFD68469E
:1027A00005F094FA01211D2004F02EFA01211E20CB
:1027B00004F02AFA01211C2004F026FA0221182034
:1027C00004F022FA0221192004F01EFA0121262029
:1027D00004F01AFA0121272004F016FA012125201D
:1027E00004F012FA0221212004F00EFA0221222024
:1027F00004F00AFA04224949182003F0D1FF042208
:102800004649192003F0CCFF04224549212003F05A
:10281000C7FF04224249222003F0C2FF234605F2EB
:102820007C4202E00133192B0AD052F8041F002920
:10283000F8D103F590713B4A45F821206433536089
:10284000394A002302E00133192B0BD052F8041F40
:102850000029F8D1354A05EB83017D33C1F81C24EA
:102860009360D56058227621314802F08FFF0746E9
:1028700020B1304802F0FCFC05B0F0BD2E4E85F8CA
:1028800025020FCE2D4C85F826720FC40FCE0FC433
:102890000FCE0FC42346306823F837094FF0010CE0
:1028A0003221FE2285F824124FF0FF0E372604EB6A
:1028B0000C000721C82485F8277285F823C285F803
:1028C0001CE285F81D223A4685F81F7285F82272AF
:1028D00085F81E6285F8204285F8211201E013F880
:1028E000011F83420A44FAD1D243686885F85A220C
:1028F0000368134A5B68934208D13F21114805F0F1
:10290000B5F80C4802F0B4FC05B0F0BD3F220D490B
:102910009847AEE7641DFF1F40C000009909000002
:10292000210B0000A81CFF1F7C21FF1F9C22FF1F02
:10293000B02BFF1F801CFF1F48C000008C1FFF1F13
:10294000BD0E0000801FFF1F2DE9F04FC14B1B681B
:10295000022B95B000F05C83BF4EC04A33680793EA
:10296000136807990A338B42C0F0AD813368BC4CC1
:102970000993DDF824B0D4F8003542F6F822C3EB11
:102980000B03934284BF002384F8F834D4F8E43472
:10299000B34A33B1D2F804359B4584BF0023C2F853
:1029A000E434AF4DA26932B133680D930D9BCBEB8C
:1029B00003039A4225D36068AA4A03685B6993427D
:1029C00040F08A8004F0ECFF0028C0F28980D4F83F
:1029D000F434D4F8E424DFF888E20344072AC4F886
:1029E000F43466D082B9FF2800F0CC8033680C93B1
:1029F0000C9B41F28831CBEB03038B42D2D98EF88A
:102A0000F82415B0BDE8F08F012A00F0C380022A37
:102A100000F00A81032A00F01281042A00F02C81C0
:102A2000052A00F03981062A00F03E81082AB9D132
:102A30008D4A1A4000239A42C4F8E434C0F23C8321
:102A4000FF2AAFD1D4F8EC34DFF81492002B00F059
:102A5000B5840A2B00F03D83062B00F06F830B2B0F
:102A600000F03383BC3355F8230000289AD0036864
:102A70007E4A1B68934240F08F86EA692B6A816D1B
:102A8000C0E908236A6AAB6AC0E90A23EA6A2B6BC9
:102A9000C0E90C236A6BAB6BC0E91023EA6B2B6CAB
:102AA000C0E912236A6CAB6C1030C0E91023884770
:102AB00078E7D5F8F024D5F8E834A918013B0132BD
:102AC0000877C5F8F024C5F8E834002B7FF46AAF26
:102AD0000823C4F8E43465E798470028BFF677AFC9
:102AE00094F8F8345E48002B8BD0D0F8FC3440F6D4
:102AF000C412C3EB0B03934283D9FF23FE210022B0
:102B000080F81C3280F81D12F72308250A2180F86E
:102B1000203280F8232280F8242280F8252280F8B1
:102B2000262280F8272280F8282280F8292280F89F
:102B30002A2280F81F2280F8222280F81E5280F874
:102B4000211200F2212300F22A2001E013F8011FD4
:102B500083420A44FAD1D243606884F82B22036886
:102B6000434A5B68934240F0AC821021414804F034
:102B70007DFF33681193119BC4F8FCB4E36015B07A
:102B8000BDE8F08F01220BF11403C5F8E424C5F869
:102B9000043507E7FE287BD095F8F8240023C5F814
:102BA000E434002A7FF4FEAEFF23FE21082085F8DE
:102BB0001C3285F81D12F7230A2185F8203285F88A
:102BC00023220EF2212385F8242285F8252285F878
:102BD000262285F8272285F8282285F8292285F8DB
:102BE0002A2285F81F2285F8222285F81E0285F800
:102BF00021120EF22A2E01E013F8011F73450A4438
:102C0000FAD1D243606884F82B220368184A5B68C3
:102C1000934240F0E3811021164804F027FF336807
:102C20000B930B9BE360BDE600220323C5F8E80489
:102C3000C5F8F404C5F8F024C5F8E434B2E6D5F8D4
:102C4000E83403EB00200423C5F8E804C5F8E434B5
:102C5000A8E600BF981CFF1F042CFF1F742BFF1F4A
:102C6000641DFF1FC50E0000FF0000806D140000F2
:102C7000BD0E0000801FFF1FDF4A1A40002AC0F26D
:102C8000B681FF2A0CBF05230023C4F8E43489E68B
:102C90000223C5F8E43485E60623C5F8EC04C5F83C
:102CA000F404C5F8E4347DE6D5F8EC34D5F8E8242E
:102CB00003EB00230721C5F8EC34C5F8E414002A1F
:102CC0003FF406AF6EE633680893089B1360FFF786
:102CD000C7F9CA4BCA4AD868996803681B68934207
:102CE00040F0E781632904DD90F8F834002B3FF4CD
:102CF0003DAEC44BD3F810E05F6980F823E24FEAA1
:102D00001E2C80F824C24FEA1E4C4FEA1E6E9D69AD
:102D100080F826E24FEA172E80F8277280F828E222
:102D20004FEA174E3F0EDC6980F82A722F0A80F8AE
:102D30002B5280F82C722F0C2D0E1A6A80F82E520E
:102D4000250A80F829E280F82F42D3F824E080F8A1
:102D50003052250C240E80F8315280F83242150A88
:102D6000140C80F83322120E80F8345280F8354269
:102D70004FEA1E254FEA1E4480F8362280F837E2DB
:102D80004FEA1E62D3F830E080F825C280F83A227C
:102D90004FEA1E2C5A6B80F82D7280F8385280F85A
:102DA000394280F83BE280F83CC24FEA1E4C4FEAC1
:102DB0001E6E9F6B80F83EE24FEA122E80F840E2D2
:102DC0004FEA126EDD6B80F842E24FEA172E80F870
:102DD000437280F844E24FEA174E3F0E1C6C80F8B5
:102DE00046722F0A80F8475280F848722F0C2D0E39
:102DF00080F83F2280F83DC280F84A524FEA124CD8
:102E0000250A5A6C80F845E280F84B42D3F850E02E
:102E100080F84C52250C240E80F84D5280F84E421A
:102E2000150A140C80F84F22120E80F8505280F8C8
:102E300051424FEA1E254FEA1E4480F852224FEAC3
:102E40001E6280F841C280F8497280F853E280F82F
:102E50005452D3F854E080F8554280F8562203F1DA
:102E60005802A4CA4FEA1E2C80F857E280F858C2D4
:102E70004FEA1E4C4FEA1E6E80F85AE24FEA122EBD
:102E800080F85CE24FEA126E80F85EE24FEA152E9F
:102E900080F860E24FEA156E5C6E80F862E24FEAFD
:102EA000172E80F8637280F864E24FEA174E3F0EE7
:102EB00080F859C280F85B224FEA124C80F86672A3
:102EC0009A6E80F85DC2270A4FEA154C80F85F526F
:102ED00080F86742DD6E80F86872270C240E80F857
:102EE000697280F86A42170A140C80F86B2280F825
:102EF0006C72120E2F0A80F86D422C0C80F861C2A1
:102F000080F865E280F86E2280F86F5280F8707267
:102F100080F871421C6F5A6F9F6F80F873422D0EBC
:102F200080F87252250A80F87452250C240EDB6F4B
:102F300080F87642140C80F8755280F87722150AD2
:102F400080F87942120E3C0C80F8785280F87A2290
:102F50001D0A1A0C80F87F3280F87D421B0EFF2478
:102F60004FEA172C4FEA176E80F87B7280F8805278
:102F7000FE27602580F8812280F8823200229F237C
:102F800080F81C42CCB241F3072180F8203280F84F
:102F9000221280F87CC280F87EE280F81D7280F8F0
:102FA0001E5280F81F2280F8214200F2212300F2F5
:102FB000822101E013F8014F8B422244FAD1D2431F
:102FC000446880F8832223680F4A5B68934200F5C7
:102FD000077007D1682104F049FDC7E410220B49AE
:102FE00098471CE60146682220469847BEE4013A0D
:102FF00062F0FF02013244E6FF0000809C22FF1FC6
:103000004D1A0000902AFF1FBD0E0000801FFF1FF9
:10301000DFF89093DFF890B3D74EDFF890A3D74C4A
:10302000D74DD84FDFF8888303F0F4FDD9F800308E
:10303000CBF80000C01A06F09FFDCDA3D3E9002312
:1030400006F000FECDE90201306806F0A7FDCDE9EB
:103050000001DAF8000006F0A1FD94ED005B41EC00
:10306000110B95ED003B97ED002B9DED026B9DED57
:10307000004B98ED000BFEF721FFDBF80030C9F89C
:103080000030DAF8000006F089FD02460B46D8E968
:10309000000106F023FCC7E90001306806F07EFD60
:1030A00002460B46D5E9000106F018FCC4E9000110
:1030B00052E4B54A984759E4013A62F0FF020132FE
:1030C000BEE41022B149984753E5002385F8F8344F
:1030D00068E433680E930E9BEA6831681091AC483F
:1030E000DDF84080296ADFF8CCC2A94F9B1AA0FB0B
:1030F000030EEA694FEA9E1E8C444FF47A70A5498C
:10310000A7FB087A00FB1E334FEA9A1A013A01FB2B
:1031100003C300FB1A80724401FB1033CAEB0202A6
:1031200009F1140109F110006B612A6103F072F9D1
:1031300033680F930F9BC5F8003533E4D5F81C8036
:10314000D5F81035984507D94FEA8801D5F8180504
:1031500007F024FFC5F81805C4F81085B8F1000F72
:1031600000F0F480DFF850824FF004094FF0000ABD
:1031700098F8221098F8213098F8202098F823E049
:10318000D4F81805090441EA0323134343EA0E6304
:1031900000EB8A008049C4F81435042203F04EF98C
:1031A000D4F810350AF1010A5345494608F10408DC
:1031B00009F10409DCD801F1080A01F1050E01F159
:1031C000060C01F1070801F1090301F10A0201F1FE
:1031D0000B070C3148460091D146A444A6449CF804
:1031E0001CC09EF81C102044A0444FEA0C4C007FE9
:1031F00098F81CE04CEA012C4CEA000CD4F81C15A1
:103200004CEA0E6888450BD94FEA8801D5F82405A9
:103210000592029307F0C2FE059A029BC5F82405A9
:10322000C4F81C85B8F1000F00F08D8005EB090A89
:103230004FF000089AF81E109AF81D309AF81C20DA
:103240009AF81FE0D4F82405090441EA0323134344
:10325000524943EA0E630B6000EB8800042203F03E
:10326000EDF8D4F81C3508F10108434549460AF148
:10327000040A09F10409DDD8C81DCA464B1D8A1D80
:10328000074601F1080822442344117F187FD4F82F
:1032900028353A462244A244964609049AF81C204E
:1032A0009EF81C9041EA00210A4342EA09699945C7
:1032B00007D94FEA8901D5F8300507F06FFEC5F848
:1032C0003005C4F82895B9F1000F37D04FF0000A47
:1032D000D14608F11C01002321449E4611F8012B20
:1032E0009A400833202B4EEA020EF7D108F1040071
:1032F0008644864509D908F11F032344024601325A
:10330000597803F8011B9645F9D804EB0E022449BD
:1033100082F81B90431EA1F5A262D4F83005134435
:1033200000EB8A00C4F82C350422F04603F086F83E
:10333000D4F828350AF1010A5345CAD8012384F884
:103340000835FFF72FBBDDF800809CE70C234FF01A
:10335000080A00930B231F46D1460A2209234FF087
:1033600007084FF0060C4FF0050E042035E700BFAC
:103370008DEDB5A0F7C6B03E901CFF1F8014FF1F57
:10338000A014FF1F101DFF1F902AFF1F801FFF1F8B
:10339000D34D621040420F007822FF1F8422FF1F8E
:1033A0009022FF1F942BFF1F9C2BFF1F8C14FF1FCD
:1033B000782BFF1F00CA9A3B641DFF1F9A4609F233
:1033C0002321744B119311A89046CDF848A0CDF855
:1033D0004CA0FDF74BF8C2B2C0F307215318DB43F2
:1033E00089F81E22FE250A22471C89F81C8289F8CA
:1033F00022A289F8203289F81F1289F81D5289F813
:1034000021220FDB00F222214944534609F22129EF
:1034100001E019F8012F89451344FAD16FEA030836
:103420005FFA88F8231800F10802B2F5007F83F8EC
:103430002382594900F34D824868036801F50771FA
:103440005B68984733680A93544E0A9BE36006F121
:1034500064030093A6F5836556F8043F002B00F043
:10346000C18058689A6801680292D3F800A08B68FE
:1034700098473368814658680368DB689847336823
:10348000029A1F69632F804604DD94F8F834002BFC
:1034900000F0A880C2F3072384F8232284F82432A2
:1034A000504608F06DF903464FEA136E020A000C0D
:1034B000514684F8253284F8262284F827021A46D9
:1034C00084F828E23648029302F0B8FF484608F034
:1034D00057F9029B024603F22920204406330021BB
:1034E00022FA01FE0831202900F801EBF8D12D481D
:1034F00004334946184402EB030902F09FFF40469B
:1035000008F03EF909F223228246224400232AFAD7
:1035100003F10833202B02F8011BF8D1214B09F1EC
:103520000409414603EB0900524602F087FF0AEB0B
:10353000090000F1040E21185FFA8EF8CEF3072C73
:103540000022022308EB0C0A81F8243281F823229E
:1035500081F8252281F826226FEA0A0AF9B2FF23B0
:103560004FF0FE0947F30727BEF1FF3F84F820A282
:1035700084F81E8284F81FC284F81C3284F81D92DD
:1035800084F8211284F8227217DB00F22620064B01
:1035900028440DE024BC0000641DFF1F7C21FF1F98
:1035A0008D1FFF1F871FFF1F851FFF1F13F8011FA0
:1035B00083420A44FAD1D343DBB204EB0E010EF18D
:1035C0000802B2F5007F81F8233200F3F8806868C2
:1035D000C34903685B688B4240F0EA801146C148EA
:1035E00004F044FA009B9E427FF436AFDFF820A33C
:1035F000CDF808B09B465BF8040F002800F0BE80B1
:1036000090E80802B8499A68D0F808808A4200F029
:10361000CD8090470746DBF800000368DA68B349BD
:103620008A4200F0C18090470646DBF8000003683C
:103630005B68AF4A934240F0B480C56D632D04DDF2
:1036400094F8F834002B00F09980C9F30723404622
:1036500084F8239284F8243208F092F881464FEAE5
:103660001963020A000C414684F8283284F82622A5
:1036700084F827024A4684F825929E4802F0DEFE2E
:10368000384608F07DF809F229210246214409F163
:103690000608002322FA03F00833202B01F8010B5F
:1036A000F8D1954B08F1040803EB08003946904423
:1036B00002F0C4FE304608F063F808F22322074601
:1036C0002244002327FA03F10833202B02F8011BC0
:1036D000F8D1894B08F104083A464744314603EBD8
:1036E00008003E1D02F0AAFE5FFA86FCC6F3072E14
:1036F000E3190CEB0E000022C043022183F82412D0
:1037000083F8232283F8252283F8262284F82002D6
:10371000E8B245F30725FE23FF2184F82252751CE9
:1037200084F81D3284F81EC284F81FE284F81C124B
:1037300084F82102714BC0F2D08007F2262119448F
:1037400003F2212301E013F8010F99420244FAD158
:10375000D343DBB2A11906F10802B2F5007F81F86C
:103760002332664F72DC78685D4903685B688B4280
:1037700021D1114607F5077004F078F9D3457FF49D
:103780003AAFDDF808B0C4F8FCB40123C4F800B5C2
:1037900084F8F834FFF735B909F11C019847FFF7B1
:1037A00001B99847054649E7554E41E7554F35E77A
:1037B0004C49984716E707F507719847DEE7DFF8A9
:1037C0004CE1514FBEE80F000FC7BEE80F000FC716
:1037D000BEE80F000FC79EE8030000234FF0030C64
:1037E0004FF0380EFF2285F823C285F824E24FF00F
:1037F000FE0C4FF03D0E85F8253285F8263285F80F
:10380000273287E80300C22085F81C220722A7F18F
:10381000370185F81F3285F82232073785F81DC237
:1038200085F81EE285F8200285F8212201E011F8D2
:10383000012FB9421344FAD1DB43606884F8603247
:10384000036828495B6845229847CBE62F4D0FCD8A
:1038500007F50A760FC60FCD0FC60FCD0FC695E838
:10386000030000220325382387F8235287F82432E7
:103870004FF0FF0C4FF0FE0E3D2587F8252287F80C
:10388000262287F827224FF0C20886E80300072186
:1038900087F81F2287F82222A6F13700F31D87F848
:1038A0001CC287F81DE287F81E5287F8208287F82D
:1038B000211201E010F8011F83420A44FAD1D243D9
:1038C000606884F86022036806495B68452298476F
:1038D00054E70846FDF764FDB4E50B463AE700BF40
:1038E000BD0E0000801FFF1F7D090000850900003C
:1038F000790900008D1FFF1F871FFF1F641DFF1F19
:1039000004BF0000F0BE00008C1FFF1F68BF000056
:103910004422FF1F2DE9F04F8DB0CB4ACB4B0692CE
:103920000022044600F5836500F27C46ADF81C20B9
:103930000B92089309930A9355F8043F002B00F06B
:10394000C28058681F6801689A6808978B68ADF84C
:103950001C2098472B68099058680368DB689847D3
:10396000236829680A904FF400721B68D1F8108010
:103970000B92B74A9342824640F0A981B8F1630F97
:1039800004DD94F8F834002B00F09D80BDF81C3065
:10399000DDF8209084F823321B0A84F8243248464C
:1039A00007F0EEFE07463B0E3A0C000A494684F843
:1039B000283284F8257284F8260284F8272204F23B
:1039C00029203A4602F03AFDDDF824B0584607F0C7
:1039D000D7FE04F22329791D024606374944002305
:1039E00022FA03F00833202B01F8010FF8D1043735
:1039F000594609EB0700174402F020FD504607F036
:103A0000BFFE09EB0703834600222BFA02F10832BE
:103A1000202A03F8011BF8D10437514609EB0700AF
:103A20005A4602F00BFD0BEB07031F1D09EB0301C8
:103A30005FFA87FAC7F3072C00220AEB0C0E4FF04F
:103A4000020B09F803206FEA0E0E8A70CA7081F823
:103A500001B0FF205FFA88F14FF0FE0948F3072814
:103A6000B7F1FF3F84F820E284F81EA284F81FC259
:103A700084F81C0284F81D9284F8211284F82282B2
:103A8000C0F2D08103F22623E01804F2212301E0E2
:103A900013F8011F98420A44FAD1D243D2B2E31973
:103AA00007F10801B1F5007F83F8232200F3238199
:103AB0006768684A3B685B68934204F5077040F0AA
:103AC000108103F0D3FFAE427FF436AF04F59C695A
:103AD00056F8040F002800F0E4800368826841680B
:103AE00008929A68ADF81C105B498A4240F0F48055
:103AF0005A4A0992DA685A498A4240F0E380594AA0
:103B000021680A924FF400725B680D680B92564A66
:103B1000934240F0D480D0F85C804D4FBD4240F0DD
:103B2000C980B8F1630F04DD94F8F834002B00F07D
:103B3000B880BDF81C30089D84F823321B0A84F835
:103B40002432284607F01CFE82464FEA1A634FEAE9
:103B50001A42000A294684F8283284F825A284F8FB
:103B6000260284F8272204F22920524602F066FC3D
:103B700009990191084607F003FE04F223250AF192
:103B80000502019983460AF1060A2A4400232BFA0A
:103B900003F00833202B02F8010FF8D10AF1040AD0
:103BA0005A4605EB0A0002F049FC0A9901910846C1
:103BB00007F0E6FDD3440199824605EB0B03002292
:103BC0002AFA02F00832202A03F8010BF8D10BF18F
:103BD000040B05EB0B00524602F030FC0AEB0B0322
:103BE0001A1D0B99E9545FFA82FCC2F3072E1D449B
:103BF0000CEB0E004FEA112B4FEA114AC043090E9D
:103C000085F801B085F802A0E9704FF0FF0B5FFA6C
:103C100088F14FF0FE0A48F3072884F82002501C70
:103C200084F81EC284F81FE284F81CB284F81DA236
:103C300084F8211284F8228221DB03F22623E5187E
:103C4000002004F2212313E03CBC0000A0BF0000D0
:103C50004D1A0000BD0E00007D090000F0BE0000FE
:103C60008509000004BF00007909000013F8011F56
:103C7000AB420844FAD16FEA000B5FFA8BFBA31842
:103C800002F10801B1F5007F83F823B27EDC65689C
:103C90006B4A2B685B68934204F5077026D103F0EA
:103CA000E5FEB1457FF414AF012384F8F8340DB07C
:103CB000BDE8F08F414606AA2046A847F1E798479D
:103CC00080462AE7904702463068036818E7414675
:103CD00006AA20469847F6E69047024630680368F1
:103CE00007E70A46014638469847ECE60A46014689
:103CF00028469847D5E7534A03920321524A23683E
:103D000005928DF810101B68504A934240F0858050
:103D10000027382284F8231284F824224A4984F8A0
:103D2000257284F8267284F8277204F50A7002F06E
:103D300085FBFF213D20C2234FF0FE0E84F81C12AC
:103D4000072184F81E0284F8203284F81F7284F858
:103D500022723A4684F81DE284F8211204F22123EB
:103D600004F25F2001E013F8011F98420A44FAD1DF
:103D7000D243606884F860220368314A5B689342EA
:103D800004F5077158D1084645219AE62D4A2E4977
:103D90002368039203208DF8100005911B68BB4235
:103DA00045D10025382284F8230284F8242284F89F
:103DB000255284F8265284F8275204F50A7002F03E
:103DC0003DFBFF213D20C223FE2784F81C12072162
:103DD00084F81E0284F8203284F81F5284F822529C
:103DE0002A4684F81D7284F8211204F2212304F279
:103DF0005F2001E013F8011F83420A44FAD1D24345
:103E0000606884F8602203680D4A5B68934204F599
:103E1000077109D10846452141E703AA0721204639
:103E2000984750E602463AE64522984739E703AA02
:103E300007212046984734E74522984743E600BFCC
:103E4000BD0E000054BC000068BF00004D1A000009
:103E50002DE9F04FC04E97B033680A930A9DD0F811
:103E6000003542F6F822EB1A934284BF002380F813
:103E7000F834D0F8E434044633B1D0F80435AB421A
:103E80003CBF0023C0F8E434DFF8D8A2A26932B105
:103E900033680B930B9B5B1B9A42C0F0F581606803
:103EA00003685B69534540F0398103F079FD0028D0
:103EB000C0F23881D4F8F434D4F8E4240344072A57
:103EC000C4F8F43400F017818AB9FF2800F03B8170
:103ED00033680C930C9B41F288315B1B8B42D5D924
:103EE00084F8F8246FF0010017B0BDE8F08F012AC4
:103EF00000F03A81022A00F08C81032A00F09481BC
:103F0000042A00F09B81052A00F0A781062A00F010
:103F1000AC81082ABAD1914A1A4000239A42C4F8C7
:103F2000E434C0F21482FF2AB0D1D4F8EC34002B70
:103F300000F085830A2B00F03583062B00F02282E7
:103F40000B2B00F00982BC3354F8230000289DD0CD
:103F50000368834A1B68934204F11C0140F06D839F
:103F600094F81DE0277F94F81E9094F8218094F82F
:103F7000201094F81FC047EA0E2794F822E047EA81
:103F8000094741EA082194F8239041EA0E4147EAA3
:103F90000C6241EA0963C0E9082394F8251094F8FB
:103FA000242094F826C094F829E094F8283094F856
:103FB000277042EA012294F82A1042EA0C4243EAAE
:103FC0000E2394F82BC043EA014342EA076243EA16
:103FD0000C6300920193DDE90023C0E90A2394F801
:103FE0002C2094F82D1094F82EC094F831E094F819
:103FF000303094F82F7042EA012294F8321042EAED
:104000000C4243EA0E2394F833C043EA014342EAE8
:10401000076243EA0C6302920393DDE90223C0E9DD
:104020000C2394F835C094F8342094F836E094F8D2
:10403000397094F8383094F8371042EA0C2242EA8A
:104040000E4E94F83A2094F83BC043EA072343EA23
:1040500002434EEA016143EA0C6304910593DDE9F2
:104060000423C0E9102394F83D1094F83C2094F800
:104070003EC094F841E094F8403094F83F7042EA32
:10408000012294F8421043EA0E2342EA0C4294F8CB
:1040900043C043EA014141EA0C6342EA07620692E7
:1040A0000793DDE90623C0E9122394F8441094F83D
:1040B000452094F8468094F8487094F8493094F874
:1040C0004AE094F847C041EA022247EA032394F801
:1040D0004B1042EA084243EA0E4342EA0C6243EACA
:1040E000016308920993DDE90823816DC0E9142377
:1040F00010308847CAE6D4F8F034E2180133C4F827
:10410000F0341077D4F8E834013BC4F8E834002BDD
:104110007FF4BCAE0823C4F8E434B7E6984700281F
:10412000BFF6C8AE94F8F80400283FF4DDAED4F82A
:10413000FC3440F6C412EB1A934200F2AA8000202D
:1041400017B0BDE8F08F012205F11403C4F8E42490
:10415000C4F804359AE600BF042CFF1FFF0000805E
:104160006D140000C50E0000FE2872D094F8F824EB
:104170000023C4F8E434002A7FF488AE7D49236824
:1041800013911B687C4914928B42159240F0D580A4
:10419000FF210820F723FE2784F81C120A2184F847
:1041A0001E0284F8203284F8232284F8242284F822
:1041B000252284F8262284F8272284F8282284F8ED
:1041C000292284F82A2284F81F2284F8222284F8E3
:1041D0001D7284F8211204F2212304F22A2001E046
:1041E00013F8011F98420A44FAD1D243676884F851
:1041F0002B223B68614A5B68934204F5077040F0EC
:10420000A180102103F032FC33680D930D9BE36015
:104210003CE600220323C4F8E804C4F8F404C4F81C
:10422000F024C4F8E43431E6D4F8E83403EB002099
:104230000423C4F8E804C4F8E43427E6504A1A40DA
:10424000002A75DBFF2A0CBF05230023C4F8E434E1
:104250001CE60223C4F8E43418E60623C4F8EC0490
:10426000C4F8F404C4F8E43410E6D4F8EC34D4F818
:10427000E82403EB00230721C4F8EC34C4F8E41469
:10428000002A3FF447AF01E66FF0010017B0BDE828
:10429000F08F384A236813921B68374900228B42FB
:1042A000149215925CD1FF210820F723FE2784F891
:1042B0001C120A2184F81E0284F8203284F823227A
:1042C00084F8242284F8252284F8262284F82722E0
:1042D00084F8282284F8292284F82A2284F81F22CC
:1042E00084F8222284F81D7284F8211204F221231A
:1042F00004F22A2001E013F8011F83420A44FAD194
:10430000D243676884F82B223B681C4A5B6893425F
:1043100004F5077029D1102103F0A8FB33680F932F
:104320000F9BC4F8FC540020E36017B0BDE8F08F89
:10433000013A62F0FF02013284E713AA0A21204603
:10434000984761E701461022384698475CE7013AF2
:1043500062F0FF020132E6E5002384F8F83495E5C7
:1043600013AA0A2120469847D8E70146102238466A
:104370009847D3E724BC00004D1A0000BD0E000092
:10438000FF000080227F637F94F81E80E17F42EA75
:10439000032343EA0843D4F8102543EA0168904513
:1043A00004F11C0707D94FEA8801D4F8180506F074
:1043B000F5FDC4F81805C4F81085B8F1000F00F039
:1043C000568104F214530093B8464FF004094FF09D
:1043D000000B98F8063098F8050098F8042098F833
:1043E00007101B0443EA00231343D4F8180543EADB
:1043F0000163C4F8143500EB8B000422009902F02D
:104400001DF8D4F810350BF1010B5B454A4608F155
:10441000040809F10409DCD802F1090302F1080BD0
:1044200002F10B0102F1050E02F1060C02F1070880
:10443000009302F10A030C3248460291D9460492D5
:1044400017F80C2017F80EC0385C17F808E0D4F8FD
:104450001C15120442EA0C22104340EA0E688845FB
:1044600009D94FEA8801D4F82405069306F096FD91
:10447000069BC4F82405C4F81C85B8F1000F00F0B1
:10448000088104F5A463009304F20C5307EB0908B8
:104490004FF0000B029398F8021098F8013098F84A
:1044A000002098F803E0D4F82405090441EA032326
:1044B0001343029A009943EA0E63536100EB8B00A9
:1044C000042201F0BBFFD4F81C350BF1010B5B4556
:1044D0004A4608F1040809F10409DCD8531DD11D2E
:1044E0000093CB46931D029102F10808F95C009BF2
:1044F000029AF85C17F80B3017F80290D4F82825C8
:10450000090441EA00210B4343EA0969914507D9AF
:104510004FEA8901D4F8300506F040FDC4F83005B3
:10452000C4F82895B9F1000F38D04FF0000904F213
:104530002C53CB46009300239E4607EB080111F84D
:10454000012B9A400833202B4EEA020EF7D108F1D6
:1045500004018E4471450AD208F103033B440A4624
:10456000013213F8010F03F8010C7245F8D307EB81
:104570000E024B1E02F801BCD4F8300500993B44F2
:10458000C4F82C3500EB89000422F04601F056FFF8
:10459000D4F8283509F101094B45CCD8012384F81A
:1045A000083573E433681093109F3168237F1291AC
:1045B000617FE06894F821C094F8202094F822E00C
:1045C00094F82380DFF8D89043EA0121324B42EA85
:1045D0000C223F1A94F81EC0A3FB0730E37F42EA87
:1045E0000E4E41EA0C41129A4EEA086E41EA03610E
:1045F000DFF8B080284B4FF47A7C8009F044A3FBAD
:10460000023E0CFB10774FEA9E1E01390CFB1E2266
:10461000084409FB0787214609FB1273CEEB000211
:10462000226104F1100041F8143F01F0F3FE3368F9
:104630001193119BC4F8003528E4984726E42268BA
:1046400016491391149315930A211368204613AA4F
:10465000984733680E930E9BE3602046FFF75AF9A4
:10466000C4F8FC54C4F800554FF0FF303CE40C2370
:104670004FF0080B049309220B230293D9460A2317
:1046800000924FF007084FF0060C4FF0050E042083
:10469000D6E6DDF8108029E7D34D621024BC000077
:1046A00040420F0000CA9A3BF8B5754C7549764DEB
:1046B000764E204600F0E2FE754A7649204605F027
:1046C00003F9204601F0EEF9734B1860204601F023
:1046D000EBF9724B1860724800F0C6FD714B2B600D
:1046E00000244FF461434FF40077AB6021463A4613
:1046F0006E6005F11C00EC602C616C61AC6164269D
:1047000006F0FAFB3A46214605F5077006F0F4FB81
:104710002146324605F21C4006F0EEFB32462146A9
:1047200005F5906006F0E8FB5F49C5F8E444C5F87C
:10473000E844C5F8EC44C5F8F044C5F8F44485F8FD
:10474000F844C5F8FC44C5F80045C5F8044585F8AB
:104750000845C5F81045C5F81445C5F81845C5F80D
:104760001C45C5F82445C5F82845C5F82C45C5F8AD
:104770003045C5F80C1505F5A4654C4F4C484D491E
:10478000DFF888E1848000262E604B4D7E603D601E
:104790004A4E4B4D056048604A480C610860CEF8AF
:1047A00000504949AEF80440C6F804E0DFF860E183
:1047B00046483461C6F800E0454E0E60454D0C6138
:1047C0004F604549454E464F046100220023016079
:1047D000456044482860C5E90223C5E90423C5E9CA
:1047E0000623C5E90823404D40497E60C6E90223FF
:1047F000C6E90423C6E9062335603D4E3E603D4EC2
:104800003D480E603D4E3C61C1E90423C1E90623E9
:10481000C1E90823C1E90C23C1E90E23C1E9102332
:10482000C1E91423C1E91623C1E91823C1E91A23F8
:10483000C1E91C238D608D628D64DFF8D8C0DFF87C
:10484000D8E02F4FC1E91E23C0E90823C0E90A239D
:10485000C0E90C23C0E91023C0E91223C0E91423E6
:1048600034610122274C284B7160C6F800C0856175
:104870008563C0F800E007618465C2658360F8BDA8
:10488000B02BFF1F8808FF1F641DFF1F200BFF1F99
:104890000C08FF1FE5540000781CFF1F582BFF1F5A
:1048A000801CFF1F14BD00006CBC00009C1CFF1F7F
:1048B000081DFF1F6814FF1F9CBC0000481DFF1F40
:1048C00084BC00007CC00000102BFF1F181DFF1FC0
:1048D00094C00000302BFF1FA0C000003814FF1F41
:1048E000802BFF1FCCBC0000B4BC0000902AFF1F2F
:1048F000B0C00000FCBC0000A81CFF1F9C22FF1FD2
:10490000E4BC0000B5260000D4C000005C2BFF1FF3
:1049100088C00000C0C0000028BD000090F8392009
:1049200090F83800101A704790F8383090F8392015
:104930009A4205D95A1C034480F83820187E7047E3
:104940004FF0FF30704700BF2DE9F04FDFF844A172
:104950004E4DDAF800608DB09946179C0996069086
:104960000791DDF824B0BDF858600492002C08BF10
:104970002C46002A76D04300202A1046DBB2A8BF7E
:104980002022434FDFF81081059203930292019099
:1049900000259DF80C2084F83B20236807994FF0F0
:1049A000010284F85E2084F85D201B682046984749
:1049B0000121204600F0AAFA9DF80C3084F83B3023
:1049C0004FF0010384F85E3084F85D30019B069956
:1049D0001F2BD4BFDAB220220123204600F020FB97
:1049E00023681B69BB4226D194F8393094F838000B
:1049F000181A20B33EB1DAF800300A930A9BCBEBC9
:104A00000303B3421BD223685B69434509EB0502EC
:104A100020D194F8383094F83910994220D9591C93
:104A2000234484F83810187E107023681B69013500
:104A3000BB426DB2D8D0204698470028DAD1019AFF
:104A4000059B0499D21A0192029A8A4213440ADA07
:104A500002939EE7009220469847009AC0B2E3E78F
:104A6000FF20E1E7049D66B1DAF800300B930B9B61
:104A7000CBEB030BB34504D3049B9D42B8BF4FF06F
:104A8000FF3528460DB0BDE8F08F00BF8808FF1F36
:104A90001D490000042CFF1F2949000070B5049D2A
:104AA000134C002D08BF254640002C6885F83B00BC
:104AB000012085F85E0085F85D00164628462268CC
:104AC0001C4690475EB1013E54FA86F6013C2B68C5
:104AD00014F8011F1B6828469847B442F7D12846AE
:104AE000012100F013FAB0FA80F0400970BD00BF58
:104AF0008808FF1F10B584B004AC009304F8012DA2
:104B000001222346FFF7CAFF04B010BD2DE9F04192
:104B1000144C84B024880A9D0094984614460DF1E4
:104B20000E030122019506460F46FFF70DFF0122F5
:104B30009DF80E3002FA04F4B8F1000F0FD123EA09
:104B4000040404AB0095394603F8014D30460122B8
:104B50008DF80E40FFF7A2FF04B0BDE8F0811C43C2
:104B6000E4B2EEE71808FF1F2DE9F043194C85B0B9
:104B700024880D9D00949146984601950DF10E03F1
:104B8000012206460F469DF83040FFF7DDFEE8B1F2
:104B9000C8EB09090122914402FA08F804FA09F164
:104BA00008F1FF339DF80E40009503FA09F8C9B2E9
:104BB00001EA080124EA080404AB0C4303F8014DA0
:104BC000394630468DF80E40FFF768FF05B0BDE866
:104BD000F08300BF1808FF1F0020704790F838309E
:104BE00090F839209A4286BF1B18187E4FF0FF308C
:104BF000704700BF704700BF38B50546B0F85E008B
:104C000090B195F85D301446C3F1210294420CD85E
:104C100005F13B001844224601F010FC95F85D3088
:104C2000234485F85D30204638BD012014462871A4
:104C3000EEE700BFB0F85E306BB190F85D30202B2E
:104C400007D8C218013380F85D30012082F83B108C
:104C50007047012303710020704700BF00234269A1
:104C600080F8383080F8393080F85C3080F85D307A
:104C700080F85E3080F85F3006CA30B40D68046991
:104C800043662A4383660A60A370426990F86130E4
:104C90001649146813441D7A5B7B01EBC5051B02A2
:104CA0006D6803F4E06343F064032B6090F86230B6
:104CB00013449D7CDB7D01EBC5011B02496803F4B5
:104CC000E06343F064030B6021685368194205D028
:104CD00003692C225A70036904229A710369202205
:104CE0005A71036980229A7030BC7047BCC10000C1
:104CF00038B50269D478E4B2E106054624D510231C
:104D0000D37063061FD504F0040404F0FF03002CE5
:104D10005AD042496A6E00230B7085F85D30002A34
:104D200066D0904795F85D30002B61D02B69D0227A
:104D30009A702B6995F83B201A712B69012285F82E
:104D40005C200222DA7038BD04F0400303F0FF005B
:104D5000002BD8D19379DBB203F0600160294ED0EB
:104D6000937803F0100303F0FF01B3B114F00104D2
:104D700037D195F85C3095F85D1099424BD9591CA4
:104D80002B4485F85C1093F83B3013712B69D022CB
:104D90009A702B690222DA70D5E785F86010937952
:104DA00043F0200393712B6995F839101A791F2964
:104DB000D2B2C6D8194800780028C2D0681801318C
:104DC00085F839100276BCE72A6985F83930C023A6
:104DD00093702B69114A1979012111700222DA703E
:104DE000B1E7C02393702B691A790222DA70AAE71F
:104DF0000122002385F85D2085F83B3096E703F01B
:104E0000DF039371AB6E23B185F8380095F8390054
:104E100098472A69A4E71471B8E700BF002CFF1F68
:104E20002DE9F047374FDFF8E0903B68026982B028
:104E300006460093DDF8008000214FF49675D37884
:104E40009B065BD53B680193019BC8EB03030F2BCB
:104E5000F5D949B1102BF2D000209070336980222F
:104E60009A7002B0BDE8F087726996F86130134419
:104E70000521187A01F0C8FE726996F86130134472
:104E8000012193F812A0504601F0BEFE0924002132
:104E9000504601F0B3FE2B46013BFDD101215046A7
:104EA00001F0ACFE2B46013BFDD1013CEFD1706916
:104EB00096F8611001444FF416720C7A4B7B09EBA3
:104EC000C4011B02496803F4E06343F064030B6010
:104ED00096F862300344997CDB7D09EBC1011B022B
:104EE000496803F4E06343F064030B60013AFDD1C9
:104EF0003269D3789B064FF00101A3D4012002B0A0
:104F0000BDE8F087042CFF1FBCC10000F0B50369A9
:104F10001222DA700269937803F0200385B0044608
:104F20000D46002B5ED0B42393703C4922690B6878
:104F30000093009E05E00B680193019B9B1B042BD3
:104F400042D8D37803F0200303F0FF00002BF2D007
:104F500094F85D30002B31D04FF0000E4FF0020C72
:104F600004EB0E0393F83B3013710B680393039F1C
:104F7000206907E09B060DD50B680293029BDB1BA3
:104F8000052B28D8C378DBB203F0020202F0FF063B
:104F9000002AEFD080F803C02669F378DBB2DF0681
:104FA00032462DD49F062BD5DB0731D40EF1010EEE
:104FB00094F85D305FFA8EFE7345D1D800201DBB9A
:104FC000002384F85E3004E09070236980229A7098
:104FD000042005B0F0BD86702369802204209A70F9
:104FE00005B0F0BD03F0FF06FFF71AFF10B904206B
:104FF00005B0F0BD236984F85F60B0229A7094E731
:105000008023B3700420DAE726698023B370D7E7E2
:10501000BEF1000F0CBF02200320F6E7042CFF1F97
:105020002DE9F04106690025122780F8385080F8F4
:105030003950F770D0F810C09CF802E00EF0200E46
:1050400088B00446884615461E46BEF1000F49D07A
:10505000B4238CF802307A4B21691A680092DDF88B
:1050600000E006E01A6801920198CEEB00000428E7
:1050700030D8C87800F0200000F0FF070028F1D0F9
:105080004FEA480242F00102D2B20A711A68029253
:10509000DDF808E0206906E01A6803920399CEEB78
:1050A000010105292AD8C17801F0020101F0FF07AA
:1050B0000029F1D04FF0020C80F803C02269D178AA
:1050C00011F0110722D12DBB002E0CBFA02380238D
:1050D000937003E08F70236980229A70384608B07D
:1050E000BDE8F0810EF0FF07FFF79AFE0028F5D02B
:1050F000236984F85F70B0229A70ACE787702369E7
:10510000802238469A7008B0BDE8F0818023937001
:105110000027E3E7012D78D0A021917021690A7959
:10512000BE4667464FF0A80C1A680492049805E042
:105130001A680592059A121A052A4DD8CA7802F003
:10514000020202F0FF08002AF2D0CF702169CA786B
:10515000D2B212F0100F08465DD192065BD5013D28
:10516000EDB2012D4CD0BEF11F0F3ED90A79012DB1
:10517000DAD11A680692069D05E01A680792079A26
:10518000521B052A56D8C27802F0020202F0FF0133
:10519000002AF2D00223C3702269D378DBB2D90689
:1051A0003BD49B0637D5B023BEF11F0F937043D875
:1051B000226904EB0E0312791A760EF1010E5FFAE2
:1051C0008EFE00BF00BF00BF16B1236980229A7017
:1051D00084F839E0774681E781F8028023698022EC
:1051E0009A70774684F839E078E704EB0E0291F87C
:1051F000048082F818800EF1010E5FFA8EFEB6E789
:1052000081F802C021690846ADE7A82191702069A4
:10521000BE460279ADE7774660E710214FF49673FA
:10522000D170013BFDD12269937803F0F7037746F3
:10523000937053E78170D1E723691B79C1E700BF01
:10524000042CFF1F0148FFF753BD00BF8808FF1F54
:105250000148FFF74DBD00BFF408FF1F0148FFF7ED
:1052600047BD00BF1C08FF1F68230370704700BFC5
:1052700030B583B00024054623460078009406220A
:105280006B21FFF743FC012328780093019403234B
:1052900002226B21FFF768FC287801940094022316
:1052A00004221B21FFF760FC28780194009402235C
:1052B00004221C21FFF758FC03B030BD2DE9F04754
:1052C0001B4D82B02D880A9F0B9E044600780095E6
:1052D00000258A46914698460195631C0E223B2183
:1052E0000C9DFFF731FB6278A37843EA0223AAF80A
:1052F0000030E278237943EA0223A9F8003062798A
:10530000A37943EA0223A8F80030627AA37A43EA39
:1053100002233B80E27A237B43EA02233380627BD1
:10532000A37B43EA02232B8002B0BDE8F08700BFD5
:105330001808FF1F2DE9F04184B080460A9F0B9E9C
:105340000C9D00970196029504460D9F0E9E0F9DA1
:10535000FFF7B4FF18F8010B002302223721FFF7F3
:10536000C9FB0A2001F07AFC002301220A210C204B
:10537000FFF7C0FB0A2001F071FC0E4B00221B88D6
:10538000009301924346062203210C20FFF7DCFA2A
:10539000A278637843EA02233B802279E37843EAE8
:1053A00002233380A279637943EA02232B8004B07D
:1053B000BDE8F0811808FF1F704700BF704700BFAD
:1053C000704700BF10B51021044602F0F3FC2046E0
:1053D00010BD00BF10B51021044602F0EBFC2046C2
:1053E00010BD00BF70B528220C46054608460021B6
:1053F00005F082FD0B220A49204606F02FFA002311
:10540000E372AD6807480849084A256101260D2561
:10541000E66063626561E061A161226270BD00BF08
:1054200098C10000000020C20000AA420AD7233C15
:1054300070B528220C4605460846002105F05CFDA3
:105440000B220A49204606F009FA0023E372AD68F0
:1054500007480849084A256101260625E660636277
:105460006561E061A161226270BD00BF98C100006A
:105470000000964300808944A69B443C38B590F8D0
:10548000382090F83C300160002502F0800203F0E3
:10549000C00365F3C71265F38713044680F838200C
:1054A00045608560C5600561856180F83C301020ED
:1054B00002F07EFC03460949C4604FF48C72E06040
:1054C00019609A60102002F073FC0346044A85605C
:1054D000C46020611A60204638BD00BF84C100004E
:1054E000A8C1000038B58568044635B1284600F0EB
:1054F000E1FB28462C2102F05DFC606810B1102110
:1055000002F058FCE06848B103685B68984720697E
:1055100010B103685B689847204638BD20690028B1
:10552000F7D1F9E710B5436884B08DF80D206BB161
:1055300004AA002402F8041D1846114601940094A0
:105540000123022200F0FCFA04B010BD04AC01F00B
:105550007F0204F8042D806800932146022200F0A7
:10556000BFFC04B010BD00BF30B5446885B004ABCB
:105570006CB103F8041D01220025204619468DE870
:10558000240000F06FFB9DF80C0005B030BD61F009
:105590007F0103F8041D0122FF24806819468DE86D
:1055A000140000F049FD9DF80C0005B030BD00BFAF
:1055B00030B5426885B004AB92B103F8041D0025F4
:1055C0000224104619468DE83000012200F04AFB03
:1055D0009DF80C009DF80D3043EA002005B030BD69
:1055E00061F07F0103F8041DFF2402228068194640
:1055F0008DE81400012200F01FFDE9E730B5426894
:1056000085B004ABB2B103F8041D00250324104695
:1056100019468DE83000012200F024FB9DF80D3082
:105620009DF80C209DF80E001B0243EA024318432C
:1056300005B030BD61F07F0103F8041DFF24032293
:10564000806819468DE81400012200F0F5FCE5E7BA
:1056500038B5FA210446FFF7D1FF218CB4F9242094
:10566000B4F92250DFED0E7AC1EB202303FB03F3E4
:105670001B134900C1EBE01102FB03F39B1305FB75
:1056800001F003EBE02000EB800380331B1200EEFF
:10569000103AB8EEC00AE06180EE270A38BD00BFBC
:1056A0000000C84270B524250C4682B006462A4642
:1056B0000846002105F020FC0D4BF0681B680193A3
:1056C0008369B668019A25600D216660A160226138
:1056D00033B99FED080A012084ED050A02B070BDC0
:1056E000FFF7B6FF012084ED050A02B070BD00BFD0
:1056F000042CFF1F0000C07F10B588210446FFF76F
:1057000057FF40BA20848A212046FFF751FF40BA54
:1057100060848C212046FFF74BFF40BAA0848E2185
:105720002046FFF745FF40BAE08490212046FFF76E
:105730003FFF40BA208592212046FFF739FF40BA4B
:10574000608594212046FFF733FF40BAA08596215B
:105750002046FFF72DFF40BAE08598212046FFF74D
:1057600027FF40BA20869A212046FFF721FF40BA42
:1057700060869C212046FFF71BFF40BAA0869E2131
:105780002046FFF715FF40BAE08610BDF8B5044685
:105790008068154658B100F097FA30B1D021204604
:1057A000FFF7E2FEA842A06117D00020F8BD6068B4
:1057B0000E4610B1102102F0FDFA102002F0F8FAA6
:1057C00031460746226800F085F9676038460121B6
:1057D00000F0A6F90028E1D1E7E72046FFF78CFFAB
:1057E000A36923B9642001F039FA0120F8BD94F8C7
:1057F0003C3094F83820052163F03F0361F3020345
:1058000002F0C70261F3C5036FF3020284F83C3073
:1058100084F838202046C2F3C012F521FFF782FE3B
:1058200094F83C20C2F3C20302F007019B0043EA54
:105830004113204643EA9212F421FFF773FED1E7A9
:105840008369002B00F000812DE9F04F044685B0FC
:10585000FFF7FEFEF7212046FFF7D0FEE669B4F918
:105860002A20B4F928800390F717B6F5FA3647F1E5
:10587000FF37A6FB06AB06FB07F30BEB430B02FB64
:105880000BFED3170AFB03EEA2FB0A237344150A8F
:1058900045EA03651B124FEAE87908FB07FC00950F
:1058A0000193A8FB060106FB09CCDDE90023614456
:1058B0004FEA00384FEA013912EB080249EA105961
:1058C00043EB0903101CE28C43F50041A0FB028965
:1058D00002FB01994FEA69024FEAE97352EA0301B8
:1058E00000F0AD80B4F92E8003984FEAE87908FB08
:1058F00007F106FB0911A8FB06670F440511B4F96F
:1059000030004FEA4749C11749EAD6394FEA4648BD
:1059100000FB0BF60AFB0166A0FB0AABB4F92C00F6
:10592000B344C100002601910096DDE90067C5F58A
:1059300080151AEB080A4FEAE5714BEB090BE807F3
:1059400016EB0A064FEAC17147EB0B0741EA550116
:10595000801B61EB070110EB000841EB010918EB1C
:10596000000649EB01074FEA87194FEA861818EB42
:10597000060849EA966949EB07094FEA89054FEAA3
:10598000880645EA987516EB000845EB01094FEAD1
:1059900088064FEA8905801945EA9875694104F03F
:1059A00087FDB4F936204D134FEA503E4EEAC14E02
:1059B00002FB05F6D3170EFB0366A2FB0E2333444E
:1059C000B4F93460B4F9324002FB05F50EFB03551F
:1059D000F717A2FB0E2306FB01FE2B444FEA526889
:1059E00000FB07E5A6FB00672F4448EAC3184FEA0F
:1059F000D64A10EB08004FEA63694AEA473A41EB9E
:105A000009014FEAE74B1AEB000A4BEB010BE517D4
:105A10004FEA1A2242EA0B62290120014FEA2B23A6
:105A2000801841EA1471594104F004FD9FED080A01
:105A300007EE900A27EE800A05B0BDE8F08F9FEDD3
:105A4000050A05B0BDE8F08F9FED030A704700BF5F
:105A50000000803B000000000000C07F70B52426DD
:105A60000C4682B0054632460846002105F044FA4D
:105A70000A4BA9681B6801930622019BE86826600F
:105A80006160A2602361FFF7DBFEDFED057A80EE47
:105A9000270A012084ED050A02B070BD042CFF1F07
:105AA0000000C842C06870470069704770B504467E
:105AB00040681E4603685B6815469847854201D0DA
:105AC000002070BD31466068FFF720FAB0FA80F020
:105AD000400970BD30B4002520240572C4600170F7
