:1000000000000320D1010000714C0000294C0000C9
:10001000294C0000294C0000294C0000294C00000C
:10002000294C0000294C0000294C0000714C0000B4
:10003000714C0000294C0000FD62000001630000CB
:10004000714C0000714C0000714C0000714C0000BC
:10005000714C0000714C0000714C0000714C0000AC
:10006000714C0000714C0000714C0000714C00009C
:10007000714C0000714C0000714C0000714C00008C
:10008000714C0000714C0000714C0000714C00007C
:10009000714C0000714C0000714C0000714C00006C
:1000A0002D4A0000394A0000714C0000714C0000DC
:1000B000714C0000714C0000714C0000714C00004C
:1000C000714C0000714C0000714C0000714C00003C
:1000D000714C0000714C0000714C0000714C00002C
:1000E000714C0000714C0000714C0000714C00001C
:1000F000714C0000714C0000714C0000714C00000C
:10010000714C0000714C0000714C0000714C0000FB
:10011000714C000021560000714C0000714C000031
:10012000714C0000714C0000714C0000714C0000DB
:10013000714C0000714C0000714C0000714C0000CB
:10014000714C0000714C0000714C0000714C0000BB
:10015000714C0000714C0000714C0000714C0000AB
:10016000714C0000714C0000454A0000714C0000C9
:10017000714C0000714C0000714C0000714C00008B
:10018000714C0000714C0000714C0000714C00007B
:10019000714C0000714C0000714C0000714C00006B
:1001A000714C0000714C0000714C0000714C00005B
:1001B000714C0000714C0000714C0000714C00004B
:1001C000714C0000714C0000714C0000714C00003B
:1001D0005C4B4CF2205210B51A804DF628121A8052
:1001E00000BF00BF04F048FD574B4FF030621A606B
:1001F000564A9A60564ADA60564B4FF470021A60BB
:10020000554B564A1A60564B1A78110703D51A787F
:1002100042F008021A70534B5349AA221A70534AEB
:10022000534B8B4204D252F8040F43F8040BF8E707
:10023000504B514900228B4202D243F8042BFAE77B
:100240004E494F4A002352F8230041F8230001335E
:10025000742BF8D14B4B4C4A802103F8011B93427D
:10026000FBD14A4B454A1A60494B8A221A70A3F5C2
:10027000805324225A70A0221A709A799207FCD5D2
:100280009A79D406FCD4434A937903F00C03082BE3
:10029000FAD1414B60221A7002331A78802AFCD1BD
:1002A0003C4B01221A715D225A719A799006FCD555
:1002B0009979384A4906FBD5384B394919600021EC
:1002C000596020231370937903F00C030C2BFAD19F
:1002D000344B354A1A60354A354C136813F4807331
:1002E00003D123604FF4A8531360324B324A1A6093
:1002F00000225A60072243F8042C304AC3F80C2D20
:1003000062B605F01FF82368DA0705D52C4804F01B
:10031000E5FD2C4B2C4A1A602C4B1B785B0609D54B
:10032000284C294B22689A4204D1254804F0D6FD76
:100330000023236008F016F804F0A4FC06F052F83D
:10034000FEE700BF0E20054030800440823F0400DD
:100350000100002B88ED00E0002008E0030000858C
:1003600002D0074000E007401C14FF1F949E0000CD
:100370003007FF1F2014FF1F202DFF1F0002FF1F4B
:100380000000000000E400E064E400E008ED00E0AC
:10039000005006400040064001E007404480044011
:1003A0000000060204800440C010070010D0034083
:1003B00014D0034014E000E01FBF02000000202022
:1003C0009F0943621CE00340A5C3945A00F0074014
:1003D000FFFFFFFFFFFFFFFFFFFFFFFFFFFFFFFF2D
:1003E000FFFFFFFFFFFFFFFFFFFFFFFFFFFFFFFF1D
:1003F000FFFFFFFFFFFFFFFFFFFFFFFFFFFFFFFF0D
:10040000FFFFFFFFFFFFFFFFFFFFFFFFDEF9FFFF23
:1004100010B5054C237833B9044B13B10448AFF33E
:1004200000800123237010BD2014FF1F0000000076
:10043000989E0000084B10B51BB108490848AFF35F
:1004400000800848036803B910BD074B002BFBD0A0
:10045000BDE81040184700BF000000002414FF1F33
:10046000989E00001C14FF1F0000000043680B70E2
:1004700043681B0A4B70C3888B70C379CB70836849
:100480000B7183681B0A4B7143898B71C37ACB71E3
:10049000082070470B7843604A7843EA02234360A0
:1004A0008A7843EA02434360CA7843EA02634360BE
:1004B0000B7983604A7943EA022383608A7943EAAD
:1004C00002438360CA7943EA02638360082070476D
:1004D00000487047EC97000000487047FC97000008
:1004E000F0B50C460A788280064614F8010F002306
:1004F00042EA0022B2801A4614F8010F98400833ED
:10050000202B42EA0002F7D1971D062F58D901F19E
:10051000050E551D73464C1913F8010F03F8010C15
:10052000A342F9D100234B5518460D44C6F808E004
:1005300015F8014F84400830202843EA0403F7D11E
:10054000381D0344834209D909320A440446013460
:1005500012F8015F02F8015CA342F8D80138CF1805
:100560000024084407F8014C2246F06017F8015BAC
:1005700095400832202A44EA0504F7D1181D0444A6
:10058000A04209D203330B440246013213F8015F43
:1005900003F8015CA242F8D30D1901380844002386
:1005A00005F8013C3061A8786B780A5DED780104AC
:1005B00041EA0323134343EA0563201D7361F0BD41
:1005C000551D01F1050EADE7004870472098000069
:1005D000004870473C9800000B78F0B4037100238A
:1005E00006460C461D4614F8012F9A400833202B6E
:1005F00045EA0205F7D1681D052801F1040708D96D
:100600002C1D3B460C4413F8012F03F8012C9C428F
:10061000F9D10D4400232B71B760F0BC704700BFC7
:1006200000487047609800000048704774980000C8
:1006300000487047D0970000004870479898000025
:10064000B0F904300B70C3F307224A7002207047E0
:100650004A780B7843EA022383800220704700BF68
:1006600000487047BC98000000487047CC980000D4
:1006700043680B7010B4180C1C0A1A0E4C7088706A
:10068000CA7004205DF8044B704700BF10B44C786A
:100690000A788B78C97842EA042242EA034343EAA3
:1006A000016343605DF8044B0420704700487047C5
:1006B000F098000000487047049900008268C36801
:1006C0000B71F0B4140A4C70170C160E1D0A1C0C9A
:1006D0001B0E8F70CE704D718C710A70CB710269D8
:1006E00043690B73140A4C72170C160E1D0A1C0C6E
:1006F0001B0E8F72CE724D738C730A72CB7382692C
:10070000C3690B751C0A180C170A160C150E1B0E64
:1007100088750A744F748E74CD744C75CB7518201F
:10072000F0BC70472DE9F04F91F801C091F800E05E
:100730000F7991F802B091F803A0064648794EEA85
:100740000C2E91F806C047EA0020CF794EEA0B4EF6
:1007500040EA0C404EEA0A6840EA0769C6E90289A5
:1007600091F808C091F809E00F7B487B91F80A9056
:1007700091F80B804CEA0E2E91F80EC047EA00204B
:10078000CF7B4EEA094E40EA0C404EEA086440EA4C
:100790000765C6E904450D7C4C7C087D91F815C0C1
:1007A00091F812808F7D91F813E045EA0424CD7D05
:1007B00040EA0C2144EA084441EA074144EA0E6257
:1007C00041EA05631820C6E90623BDE8F08F00BFA3
:1007D0000048704728990000004870474099000081
:1007E0008268C3680B71F0B4140A4C70170C160EB3
:1007F0001D0A1C0C1B0E8F70CE704D718C710A700F
:10080000CB71026943690B73140A4C72170C160EF4
:100810001D0A1C0C1B0E8F72CE724D738C730A72E4
:10082000CB738269C3690B75140A170C160E1D0A67
:100830004C741C0C1B0E8F74CE744D758C750A7421
:10084000CB75036A426A0B761F0A1E0C150A140C3C
:10085000100E1B0E4F768E764D778C77C8770A7701
:100860002020CB76F0BC70472DE9F04F91F8019035
:1008700091F800C091F804E091F802B091F803A05B
:10088000804648794CEA092C91F806904EEA0020FF
:1008900091F807E04CEA0B4C40EA09404CEA0A6642
:1008A00040EA0E67C8E9026791F809E00F7A0E7B0B
:1008B000487B91F80A9091F80BC047EA0E2791F80F
:1008C0000EE046EA0020CE7B47EA094740EA0E40A8
:1008D00047EA0C6440EA0665C8E904450E7C4D7C95
:1008E0000C7D487D91F812E0CF7C46EA05258E7D8F
:1008F00044EA0020CC7D45EA0E4540EA064045EA40
:10090000076240EA0463C8E906234C7E087E8F7EB6
:10091000CE7E0A7F4B7F8D7F40EA042042EA03238C
:10092000CC7F83B040EA074143EA054341EA0662CF
:1009300043EA046300920193DDE900232020C8E923
:10094000082303B0BDE8F08F0048704764990000A9
:10095000004870478099000000487047A499000043
:1009600000487047B899000000487047DC990000C3
:1009700000487047F8990000C06D70470048704704
:10098000A499000000487047B899000090F8F80456
:10099000704700BFFFFFFFFFF8B504F05DFC504C4F
:1009A000504D07F03BF94CA3D3E9002307F0D6FAEA
:1009B000D4E9002306F0F4FFC5E9000104F04CFC83
:1009C00007F02CF944A3D3E9002307F0C7FA464BFC
:1009D000D3E90067C4E900010022444B30463946A0
:1009E00007F004FC38B1304639460022404B07F08E
:1009F0001BFC00284ED13F4BD3ED007A3E4A3F4BC3
:100A0000B3EE047AF4EEC77AF1EE10FA06D5BBEE37
:100A1000047AF4EEC77AF1EE10FA2BDCD2ED006A1C
:100A2000D3ED007A93ED016A93ED027AD3ED034A98
:100A30009FED334A334BF8EEE77AB8EEC66A87EE9D
:100A4000A65AC6EE265AB8EEC77AF8EEE44A87EE02
:100A5000266A84EEA67A75EE047AF5EE006A75EEE3
:100A6000A77A76EE277A77EE277A67EEA67AC3ED35
:100A7000007AF8BDD2ED006A1C68181D07C866EE42
:100A8000A77A5C60FDEEE77A9860D960C3ED007AE2
:100A90001A61C7E71C4B1B68012B15D0002BAAD18C
:100AA0001A4B1B4E93E80500336802F100415C1EAF
:100AB000D5E90023346007F051FA07F0FDFB0D4B38
:100AC00007EE900A186099E7114E104A3368D2E990
:100AD00000015C1CECE700BF0000000080842E4198
:100AE000401DFF1F6814FF1F301DFF1F00009E40A8
:100AF00000009EC0702BFF1F2008FF1FA422FF1FB5
:100B0000000000009414FF1F8C22FF1F1808FF1F15
:100B10009014FF1FFFFFFFFFF8B504F09DFB504C42
:100B2000504D07F07BF84CA3D3E9002307F016FAE9
:100B3000D4E9002306F034FFC5E9000104F08CFB82
:100B400007F06CF844A3D3E9002307F007FA464BFB
:100B5000D3E90067C4E900010022444B304639461E
:100B600007F044FB38B1304639460022404B07F0CD
:100B70005BFB00284ED13F4BD3ED007A3E4A3F4B02
:100B8000B3EE047AF4EEC77AF1EE10FA06D5BBEEB6
:100B9000047AF4EEC77AF1EE10FA2BDCD2ED006A9B
:100BA000D3ED007A93ED016A93ED027AD3ED034A17
:100BB0009FED334A334BF8EEE77AB8EEC66A87EE1C
:100BC000A65AC6EE265AB8EEC77AF8EEE44A87EE81
:100BD000266A84EEA67A75EE047AF5EE006A75EE62
:100BE000A77A76EE277A77EE277A67EEA67AC3EDB4
:100BF000007AF8BDD2ED006A1C68181D07C866EEC1
:100C0000A77A5C60FDEEE77A9860D960C3ED007A60
:100C10001A61C7E71C4B1B68012B15D0002BAAD10A
:100C20001A4B1B4E93E80500336802F100415C1E2D
:100C3000D5E90023346007F091F907F03DFB0D4B37
:100C400007EE900A186099E7114E104A3368D2E90E
:100C500000015C1CECE700BF0000000080842E4116
:100C6000782AFF1F582BFF1F9814FF1F00009E407B
:100C700000009EC03C1DFF1F2008FF1FA814FF1F7F
:100C8000000000009C1CFF1F541DFF1F1808FF1FC1
:100C90008C2BFF1F43682DE9F0470B7043681B0A3C
:100CA0004B70C3888B70C379CB704368002B00F006
:100CB00085800A4600250426C36853F82530137141
:100CC0001C0C1F0A1B0E94715771D37143680135B8
:100CD000AB42344602F1040206F10406ECD804F1FA
:100CE000080204F1050A04F1060904F1070804F1F9
:100CF000090C04F10A0E04F10B0517460C340369C4
:100D00008B5503691B0A01F80A30438A01F8093040
:100D1000C37C01F808300369F3B101EB070E754697
:100D20000022836953F822300EF822301C0C1E0A70
:100D30001B0EAC706E70EB700369013293423C463F
:100D400005F1040507F10407EBD804F1050C04F1E3
:100D5000060EE51D3A460834C3698B54C3691B0A65
:100D600001F80C30C38B01F80E30C37F4B55C369BB
:100D70000BB30F4680460026D8F8243053F82600DF
:100D800008F07EFAB10005463A19002325FA03F06F
:100D90000833202B02F8010BF8D1D8F824300434A2
:100DA000381959582A4603F06BFED8F81C30013622
:100DB000B3422C44E0D82046BDE8F087082217460D
:100DC0000C240B254FF00A0E4FF0090C4FF00708CA
:100DD0004FF006094FF0050A042690E770B5037935
:100DE0000B70064680680D4608F04AFA2A4604460B
:100DF000002324FA03F10833202B02F8011FF8D155
:100E0000B168681D224603F03BFE601D70BD00BF47
:100E1000F8B583880B7083881B0A4B700646806880
:100E20000D4608F02DFA030E010A020C6B71A87032
:100E30002A71E97002460446B168A81D03F020FE3D
:100E4000F06808F01DFA611D0246294406340023AB
:100E500022FA03F00833202B01F8010FF8D10434F3
:100E60002819F168144403F00BFE306908F008FA01
:100E70002A190746002327FA03F10833202B02F82A
:100E8000011BF8D1043428193A46316903F0F8FD02
:100E9000381973692B540544190A1A0C1B0E697012
:100EA000AA70EB700430F8BD0846114605F000B991
:100EB00005F098B82DE9F04F0A784B788C78054604
:100EC00042EA0323C8780E4643EA0443696843EACA
:100ED00000648C4283B000F2BA806C60002C00F099
:100EE000BF8005F10809344600274FF00408A179B6
:100EF0006379227994F807E0E868090441EA03235A
:100F0000134343EA0E63AB6000EB870004224946BB
:100F100003F0B6FD6B680137BB42424604F104049E
:100F200008F10408E3D802F108074146B94602F186
:100F3000050E901DD31D02F1090B02F10A0802F102
:100F40000B0A02F10C04305C16F80E20715C16F8E6
:100F500003E02B69000440EA02220A4342EA0E62DF
:100F60009A4200F292802A614AB305F1140A06EB14
:100F700009074FF00008B9787B783A78FC78A869BF
:100F8000090441EA0323134343EA04636B6100EB62
:100F900088000422514603F073FD2B6908F1010813
:100FA00043454C4607F1040709F10409E3D804F16D
:100FB000050B04F1060804F1070A4F46083416F839
:100FC000082016F80B00F35D16F80A70E9691204A0
:100FD00042EA0022134343EA07678F424FD8EF618A
:100FE0008FB34FF00009C84605F1200700239E4645
:100FF000311911F8012B9A400833202B4EEA020ECA
:10100000F7D1201D8644704509D2E31C33440246C3
:10101000013213F8011F03F8011C7245F8D306EBE7
:101020000E02431E02F8018C686A33442B6200EB07
:10103000890004223946744603F022FDEB6909F168
:1010400001094B45D2D8204603B0BDE8F08FA1007E
:10105000E86807F02DFD6C60E860002C7FF441AF7C
:101060000827B9460C244FF00B0A4FF00A084FF03E
:10107000090B072306204FF0050E042163E7B90092
:10108000686A07F015FD6862A9E79100A8690192F6
:1010900007F00EFD019AA86165E700BF0269436988
:1010A0000B71F0B4140A4C70170C160E1D0A1C0CB0
:1010B0001B0E8F70CE704D718C710A70CB7182696E
:1010C000C3690B73140A4C72170C160E1D0A1C0C04
:1010D0001B0E8F72CE724D738C730A72CB73026AC1
:1010E000436A0B75140A170C160E1D0A4C741C0C5F
:1010F0001B0E8F74CE744D758C750A74CB75036B93
:10110000426B0B761C0A4C761F0C160A150C140E3B
:101110001B0E8F764E778D77CC770A77CB76826BE6
:10112000C36B81F82430140A81F82140170C160E85
:101130001D0A1C0C1B0E81F8227081F8236081F8B7
:10114000255081F8264081F8202081F82730026C54
:10115000436C81F82C301C0A180C170A160C150E5B
:101160001B0E81F82E0081F8282081F8297081F863
:101170002A6081F82B5081F82D4081F82F303020E3
:10118000F0BC7047026943690B71F0B4140A4C70EB
:10119000170C160E1D0A1C0C1B0E8F70CE704D7195
:1011A0008C710A70CB718269C3690B73140A4C721B
:1011B000170C160E1D0A1C0C1B0E8F72CE724D736F
:1011C0008C730A72CB73026A436A0B75140A170C8C
:1011D000160E1D0A4C741C0C1B0E8F74CE744D75AC
:1011E0008C750A74CB75036B426B0B761C0A4C76BC
:1011F0001F0C160A150C140E1B0E8F764E778D776A
:10120000CC770A77CB76826BC36B81F82430140AD3
:1012100081F82140170C160E1D0A1C0C1B0E81F8BC
:10122000227081F8236081F8255081F8264081F8EA
:10123000202081F82730026C436C81F82C30140A8E
:1012400081F82940170C160E1D0A1C0C1B0E81F884
:101250002A7081F82B6081F82D5081F82E4081F89A
:10126000282081F82F30036D426D81F830301C0A40
:1012700081F831401F0C160A150C140E1B0E81F854
:10128000327081F8356081F8365081F8374081F846
:10129000333081F83420826DC36D81F83C30140AFC
:1012A00081F83940170C160E1D0A1C0C1B0E81F814
:1012B0003A7081F83B6081F83D5081F83E4081F8FA
:1012C000382081F83F30026E436E81F84430140AB2
:1012D00081F84140170C160E1D0A1C0C1B0E81F8DC
:1012E000427081F8436081F8455081F8464081F8AA
:1012F000402081F84730826EC36E81F84C30140A6A
:10130000170C160E1D0A81F849401C0C1B0E81F8A3
:10131000482081F84A7081F84B6081F84D5081F87F
:101320004E4081F84F30026F436F81F85430140AF9
:10133000170C160E1D0A81F851401C0C1B0E81F86B
:10134000527081F8536081F8555081F8564081F809
:10135000502081F85730826FC36F81F85C301C0ACF
:10136000180C170A160C150E1B0E81F8597081F80F
:101370005A6081F85B5081F85D4081F85E0081F829
:101380005820602081F85F30F0BC70472DE9F04FA5
:1013900091F801C091F800E04A7991F802B091F813
:1013A00003A0034608794EEA0C2E91F806C040EAE5
:1013B0000222C8794EEA0B4E42EA0C424EEA0A6813
:1013C00042EA0069C3E9088991F809C091F808E088
:1013D000087B4A7B91F80A9091F80B804EEA0C2E1C
:1013E00091F80EC040EA0222C87B4EEA094E42EA5A
:1013F0000C424EEA086642EA0067C3E90A674F7C7E
:101400000E7C087D4A7D91F812C091F813E046EAFF
:1014100007268F7D40EA0222C87D87B046EA0C4647
:1014200042EA074246EA0E6642EA006201920096EC
:10143000DDE90067C3E90C6791F819E00E7E8F7E45
:101440000A7F487F91F81BC046EA0E2691F81EE0FD
:1014500046EA074642EA0020CF7F9A6D40EA0E40F6
:1014600046EA0C6640EA076003900296DDE90267EF
:10147000C3E9106791F820E091F8217091F8246099
:1014800091F8250091F8228091F823C04EEA0727B1
:1014900091F826E046EA002091F8276047EA0847DD
:1014A00040EA0E4047EA0C6740EA06600590049760
:1014B000DDE90467C3E9126791F8287091F82960A3
:1014C00091F82C0091F82D8091F82A9091F82BC07A
:1014D00091F82EE047EA062691F82F7040EA08219D
:1014E00046EA094641EA0E4146EA0C6441EA0765CC
:1014F00003F11000C3E9144507B0BDE8F04F1047F1
:101500002DE9F04F91F801C091F800E04A7991F887
:1015100002B091F803A0034608794EEA0C2E91F828
:1015200006C040EA0222C8794EEA0B4E42EA0C425B
:101530004EEA0A6842EA0069C3E9048991F809C0E1
:1015400091F808E0087B4A7B91F80A9091F80B80AB
:101550004EEA0C2E91F80EC040EA0222C87B4EEAF9
:10156000094E42EA0C424EEA086642EA0067C3E9C5
:1015700006674F7C0E7C087D4A7D91F812C091F879
:1015800013E046EA07268F7D40EA0222C87D87B035
:1015900046EA0C4642EA074246EA0E6642EA006222
:1015A00001920096DDE90067C3E908674F7E0E7E71
:1015B000087F4A7F91F81AC091F81BE046EA072697
:1015C0008F7F40EA0222C87F46EA0C4642EA074281
:1015D00046EA0E6642EA006203920296DDE902677D
:1015E000C3E90C6791F8207091F8216091F824000C
:1015F00091F8252091F822C091F823E047EA0626C9
:1016000091F8267040EA022291F8270046EA0C463B
:1016100042EA074246EA0E6642EA006205920496F2
:10162000DDE90467C3E90E6791F8297091F82C0091
:1016300091F8286091F82D2091F82BC091F82A801C
:1016400091F82EE046EA072640EA022291F82F7030
:1016500042EA0E4246EA084141EA0C6442EA076562
:101660003020C3E9104507B0BDE8F08F2DE9F04FF9
:1016700091F801C091F800E04A7991F802B091F830
:1016800003A0034608794EEA0C2E91F806C040EA02
:101690000222C8794EEA0B4E42EA0C424EEA0A6830
:1016A00042EA0069C3E9048991F809C091F808E0A9
:1016B000087B4A7B91F80A9091F80B804EEA0C2E39
:1016C00091F80EC040EA0222C87B4EEA094E42EA77
:1016D0000C424EEA086642EA0067C3E906674F7C9F
:1016E0000E7C91F812C0087D4A7D91F813E046EA1D
:1016F00007268F7D40EA0222C87D46EA0C4642EA70
:10170000074246EA0E6442EA0065C3E908454D7E99
:101710000C7E087F4A7F8F7ECE7E44EA05248D7F33
:1017200040EA0222C87F93B044EA074442EA0542F5
:1017300044EA066442EA006201920094DDE9004551
:10174000C3E90C4591F8215091F8204091F824000C
:1017500091F8252091F8227091F8236044EA05243D
:1017600091F8265040EA022291F8270044EA074403
:1017700042EA054244EA066442EA006203920294A5
:10178000DDE90245C3E90E4591F8295091F828405A
:1017900091F82A7091F82C0091F82D2091F82B6087
:1017A00044EA052491F82E5040EA022291F82F00D5
:1017B00044EA074442EA054244EA066442EA006217
:1017C00005920494DDE90445C3E9104591F83150D0
:1017D00091F8304091F8340091F8352091F832704A
:1017E00091F8336044EA052491F8365040EA022229
:1017F00091F8370044EA074442EA054244EA0664A5
:1018000042EA006207920694DDE90645C3E9144501
:1018100091F8395091F8384091F83C0091F83D200A
:1018200091F83A7091F83B6044EA052491F83E50F3
:1018300040EA022291F83F0044EA074442EA0542A6
:1018400044EA066442EA006209920894DDE9084528
:10185000C3E9164591F8415091F8404091F8440091
:1018600091F8452091F8427091F8436044EA0524CC
:1018700091F8465040EA022291F8470044EA0744B2
:1018800042EA054244EA066442EA00620B920A9484
:10189000DDE90A45C3E9184591F8495091F84840F7
:1018A00091F84C0091F84D2091F84A7091F84B60F6
:1018B00044EA052491F84E5040EA022291F84F0084
:1018C00044EA074442EA054244EA066442EA006206
:1018D0000D920C94DDE90C45C3E91A4591F850507E
:1018E00091F8514091F8540091F8552091F85270B8
:1018F00091F8536045EA042491F8565040EA0222D8
:1019000091F8570044EA074442EA054244EA066473
:1019100042EA00620E940F92DDE90E45C3E91C45D0
:1019200091F8595091F85C0091F8584091F85D2079
:1019300091F85E6091F85AE091F85B7044EA0524F2
:1019400040EA022291F85F5042EA064244EA0E4120
:1019500042EA056241EA076110911192DDE9104502
:101960006020C3E91E4513B0BDE8F08FF0B56329D0
:1019700085B003DD90F8F844002C46D01368054686
:101980000F4610461B6805F223219847C2B2C0F3E8
:101990000721561885F81E2247F30722F643FF2336
:1019A0004FF0FE0EFCB285F82222421C85F8206220
:1019B00085F81F1285F81C3285F81DE285F8214252
:1019C0000DDB00F22221294405F22123002201E04F
:1019D00013F8014F8B422244FAD1D343DBB22A18C9
:1019E00000F10804B4F5007F82F8233217DC6A683E
:1019F000354E13685B68B34205F5077008D1214680
:101A000004F056FB204605B0F0BD204605B0F0BD01
:101A10000146104622469847204605B0F0BD2B4AA5
:101A20002B492B68019203208DF8080003911B6855
:101A3000284A93423FD10024382285F8230285F8B2
:101A4000242285F8254285F8264285F8274205F5A7
:101A50000A7003F015F8FF273D20C223FE26072158
:101A600085F81E0285F8203285F81F4285F822424B
:101A7000224685F81C7285F81D6285F8211205F250
:101A8000212305F25F2001E013F8011F98420A4468
:101A9000FAD1D243686885F8602203680A4A5B6815
:101AA000934205F507710BD10846452104F000FB70
:101AB0004FF0FF30A7E7284601AA07219847F7E72C
:101AC00045229847F4E700BFA90E0000EC960000FD
:101AD0001C9A00006D1900002DE9F04755EC104BE1
:101AE00082B00022002310EE100A294606F07EFB89
:101AF000002200284FF000032046294614BF4FF073
:101B0000FF3A4FF0010A06F08FFB0022002800F098
:101B1000A2804FF080432046294606F085FBB8B3EB
:101B20009FED791B45EC104B04F0FEFD22462B4641
:101B3000204629468DED000B06F0E6F874A3D3E9A4
:101B4000002306F0E1F89DED000B73A3D3E9002319
:101B500006460F4651EC100B06F0D6F802460B462F
:101B60003046394605F01EFF06460F4620462946F8
:101B70006BA3D3E9002306F0C7F832463B4605F0D5
:101B800011FF69A3D3E9002305F00AFF06460F46BB
:101B9000002200232046294606F046FB0022A8B377
:101BA0004FF080432046294606F02AFBB0B960A3D7
:101BB000D3E900233046394606F036FB10B15CA766
:101BC000D7E90067504606F039F832463B4606F042
:101BD0009BF806F049FB02B0BDE8F08756A3D3E9B5
:101BE00000232046294606F01FFB0028DFD02046B0
:101BF000294653A3D3E9002306F086F852A3D3E97C
:101C0000002305F0CFFE06460F46D0E74FF04043D5
:101C10002046294606F0FEFA0028C8D000220023FC
:101C20002046294606F000FB0028D7D148A3D3E977
:101C300000232046294606F0D9FA0028B7D0002212
:101C400000232046294606F0EFFA0028CFD120468F
:101C500005F10041CDE74FF040432046294606F00C
:101C6000C5FA002894D0002200232046294606F019
:101C7000DBFA00287FF454AFA04605F100499FED40
:101C8000221B49EC108B04F04FFD23A3D3E9002362
:101C900051EC100B06F038F8002206460F460023E0
:101CA0002046294606F0C0FAD0B922464B462046C7
:101CB000494606F029F816A3D3E9002306F024F8D4
:101CC00032463B4605F06EFE002206460F460023D4
:101CD0002046294606F0A8FA80B92046494647E73B
:101CE00022462B462046294606F00EF808A3D3E9E3
:101CF000002306F009F832463B4633E720462946E2
:101D000036E700BFAFF3008000000000000008408D
:101D1000000000002DB20BC0000000A0A44EC83F80
:101D200000000020AEC73740000000202F9D224059
:101D30000000000000E06F4000000040E17A843FB6
:101D4000000000C01E85FB3F000000A047E13640B8
:101D500000000040E17A84BF70B51E4A1E4E002389
:101D6000051E33601360A8BF01230C46A8BF336073
:101D700000296FEA0501A8BF01234FEAD1714FF096
:101D80001E00A8BF136003F05BFAE90F1C2003F0EC
:101D900057FAE143C90F272003F052FAE10F25203B
:101DA00003F04EFA85EAE571A1EBE571002CB8BFAE
:101DB0006442FF29A8BFFF211D2003F0A1F8FF2CDA
:101DC00021464FF02600A8BFFF21BDE8704003F078
:101DD00097B800BF541DFF1F8C22FF1F2DE9F04F45
:101DE0008DB059EC168B8DED062B8DED045B8DEDD2
:101DF000023B8DED004B8DED0A0B8DED081B03F0C2
:101E00002BFA9DED081B9DED0A0B574B574C1860A4
:101E100053EC112B51EC100B05F0C2FD9DED004B66
:101E20009DED023B82468B4653EC142B51EC130B79
:101E3000C4E900AB05F0B4FD04460D4645EC174B74
:101E40004B4F4C4E87ED007B42464B465046594621
:101E5000CDE9004505F058FFD6E9002305F0A2FDC5
:101E600004460D4645EC174B424686ED007B4B463B
:101E7000DDE90001CDE9024505F046FF3E4BD3E91F
:101E8000002305F08FFDDDE9004506462246204689
:101E9000394C0F46C4E900672B46294605F082FD00
:101EA000002204460D46354B3046394605F02CFFDE
:101EB00002460B462046294605F074FD9DED045B65
:101EC000064653EC152B0F46DDE9000105F068FDD1
:101ED00042464B4606F042F80022002305F014FF6C
:101EE00002460B463046394605F05CFD5246064632
:101EF0000F465B465046594605F054FD0022044605
:101F00000D461E4BDDE9020105F0FEFE02460B46C2
:101F10002046294605F046FD9DED062B044653EC70
:101F2000122B0D465046594605F03AFD42464B46A7
:101F300006F014F80022002305F0E6FE02460B46E8
:101F40002046294605F02EFD41EC100BFFF7C4FD9D
:101F500047EC106B0446FFF7BFFD014620460DB06D
:101F6000BDE8F04FFFF7F8BE882BFF1F6014FF1F7E
:101F7000982BFF1F202BFF1F802AFF1F0000E03F30
:101F800010B57149044604F017FA00287AD00121EF
:101F9000022003F055F90121032003F051F900213B
:101FA000042003F04DF96949204604F005FA0028A1
:101FB00000F0BB800021022003F042F90121032040
:101FC00003F03EF90121042003F03AF9604920466C
:101FD00004F0F2F9002800F099800121022003F0BA
:101FE0002FF90021032003F02BF90121042003F035
:101FF00027F95849204604F0DFF9002878D000215D
:10200000022003F01DF90021032003F019F901213A
:10201000042003F015F95049204604F0CDF90028BA
:1020200059D00121022003F00BF90021032003F015
:1020300007F90021042003F003F94849204604F081
:10204000BBF900283AD00021022003F0F9F8012161
:10205000032003F0F5F80021042003F0F1F84049D3
:10206000204604F0A9F9E0B10021022003F0E8F8CD
:102070000021032003F0E4F800210420BDE8104013
:1020800003F0DEB83749204604F096F900287FF4C3
:102090007EAF3549204604F08FF900287FF477AFF2
:1020A00081E73249204604F087F90028DCD1204638
:1020B0002F4904F081F90028D6D110BD2D492046C2
:1020C00004F07AF90028BED12B49204604F074F9B7
:1020D0000028B8D1C3E72949204604F06DF900284B
:1020E0009FD12749204604F067F9002899D1A4E739
:1020F0002449204604F060F9002880D12249204676
:1021000004F05AF900287FF47AAF84E71F4920468B
:1021100004F052F900287FF460AF1D49204604F016
:102120004BF900287FF459AF63E71A49204604F0C1
:1021300043F900287FF43EAF1749204604F03CF9EC
:1021400000287FF437AF41E7589A0000649A0000F6
:102150007C9A0000949A0000AC9A0000C49A000097
:10216000DC9A00005C9A0000609A0000E49A00008B
:10217000EC9A0000CC9A0000D49A0000B49A0000B7
:10218000BC9A00009C9A0000A49A0000849A000067
:102190008C9A00006C9A0000749A0000FFFFFFFF09
:1021A0002DE9F04F2DED048B642889B000F01381E8
:1021B000B0EE408AF0EE608AB0EE419AF0EE619A9D
:1021C000012806D902286BD009B0BDEC048BBDE80C
:1021D000F08F002800F0FC808B4904A804F0D8F8A8
:1021E00004A8FFF7CDFE04A804F092F882A3D3E977
:1021F000002351EC180B05F087FD002206460F4620
:10220000824B51EC190B05F07FFD80468946024652
:102210000B463046394605F0C5FBDFF830E2044690
:102220000D46CEE9004542464B463046394605F05C
:10223000B7FBDFF81CE206460F46CEE9006770A345
:10224000D3E900232046294605F05EFD0022704BAD
:10225000704D05F083FE0022002305F0A3FB06F07D
:1022600003F8044666A3D3E90023304639462C60C0
:1022700005F04AFD0022664B05F070FE00220023A7
:1022800005F090FB05F0F0FF634A0346194620462F
:102290001360FFF761FD09B0BDEC048BBDE8F08F62
:1022A0005E49DFF8A8B1DFF8A8A104A804F070F82F
:1022B00004A8FFF765FE04A804F02AF853EC182BD5
:1022C00018EE100A194605F06DFB554B06461868C6
:1022D0000F4605F0C5FC53EC192B05F015FD514BCD
:1022E00093ED007AF1EE007A67EE277A804617EEDA
:1022F000900A894605F0B4FC424604460D464B461A
:102300003046394605F04EFB22462B4605F026FEA8
:10231000CDE900019DED007B42464B4630463946F3
:102320008BED007B05F03CFB22462B4605F016FEAC
:102330003D4A3E4B3E4D1B68064610680F46C01A8C
:10234000CAE9006705F07AFC0024804689462246E7
:102350002B46DDE9000105F067FF18B1CBE9004528
:10236000CDE90045324D00243046394622462B4601
:1023700005F05AFF18B1CAE9004526462F462D4AF6
:102380002D4B106893ED009B05F06AFC2B4B2C4AFB
:10239000CDE90201186892ED008B05F061FCB0EE0A
:1023A000495AF0EE695AB0EE482AF0EE682A49EC34
:1023B000168B9DED024B47EC136B41EC110B9DED21
:1023C000000BFFF70BFD09B0BDEC048BBDE8F08FEF
:1023D00004A81C4902E71C4904A803F0D9FF04A87B
:1023E000FFF7CEFD04A803F093FF09B0BDEC048B0A
:1023F000BDE8F08FAFF300800000000000C0524045
:102400000000000000E06F407C9A0000000049409E
:1024100000005940501DFF1F381DFF1F649A000027
:102420001408FF1F1008FF1F902BFF1F882BFF1F92
:1024300000002E409C1CFF1F8814FF1F9414FF1FD8
:10244000481DFF1FAC9A0000589A0000682BFF1F20
:10245000A014FF1FF8B5D0E90C672DED048B0446DE
:10246000002200233046394605F0B6FE94ED049B69
:1024700094ED108B1D4D08B100232B6000221C4BE6
:102480003046394605F0A8FE88B194ED068B012050
:102490002860B0EE481AF0EE681AB0EE490AF0EE85
:1024A000690ABDEC048BBDE8F840FFF779BE002255
:1024B000104B3046394605F08FFE40B9304639465C
:1024C0000022002305F088FE60B12868E1E70A4C8D
:1024D0000A49002200230220C4E90023C1E90023A5
:1024E0002860D6E764202860D3E700BFA01CFF1F48
:1024F0000000144000805640202BFF1F802AFF1F41
:1025000030B54A4D85B0002401210220C5F8E444CD
:10251000C5F8E844C5F8F044C5F8EC4402F096FE6E
:102520000121032002F092FE0121042002F08EFE20
:102530003F49684603F02CFF6846FFF721FD6846D7
:1025400003F0E6FE01211D2002F080FE01211E2085
:1025500002F07CFE01211C2002F078FE02211820EE
:1025600002F074FE0221192002F070FE01212620E3
:1025700002F06CFE0121272002F068FE01212520D7
:1025800002F064FE0221212002F060FE02212220DE
:1025900002F05CFE04222749182002F023FC0422EA
:1025A0002449192002F01EFC04222349212002F0B4
:1025B00019FC04222049222002F014FC234605F2D3
:1025C0007C4202E00133192B0AD052F8041F002983
:1025D000F8D103F59071194A45F82120643353600E
:1025E000174A0023114602E00133192B0BD051F892
:1025F000040F0028F8D1134905EB83007D33C0F8A0
:102600001C148B60CD60002302E00133192B0BD02A
:1026100052F8041F0029F8D10B4A05EB83017D33E2
:10262000C1F81C249360D56005B030BD581DFF1F54
:10263000F49A000099090000190B0000B01CFF1F5C
:102640007021FF1F181DFF1F9022FF1FFFFFFFFFBC
:102650002DE9F04FC24B1B68022B95B000F044846B
:10266000C04EC14AC14B3168079110681B68079979
:1026700003448B42C0F0B2813368BD4C0993DDF84E
:1026800024B0D4F8003542F6F822C3EB0B03934292
:1026900084BF002384F8F834D4F8E434B44A33B166
:1026A000D2F804359B4584BF0023C2F8E434B04D12
:1026B000A26932B133680D930D9BCBEB03039A42B1
:1026C00025D36068AB4A03685B69934240F08A8017
:1026D00003F088FC0028C0F28980D4F8F434D4F8E0
:1026E000E424DFF88CE20344072AC4F8F43466D00B
:1026F00082B9FF2800F0CC8033680C930C9B41F228
:102700008831CBEB03038B42D2D98EF8F82415B075
:10271000BDE8F08F012A00F0C380022A00F00A8190
:10272000032A00F01281042A00F02E81052A00F00D
:102730003B81062A00F04081082AB9D18E4A1A400E
:1027400000239A42C4F8E434C0F22984FF2AAFD1AE
:10275000D4F8EC34DFF81892002B00F0A2850A2B95
:1027600000F02C84062B00F083840B2B00F02184D6
:10277000BC3355F8230000289AD003687F4A1B68B1
:10278000934240F07D87EA692B6A816DC0E9082396
:102790006A6AAB6AC0E90A23EA6A2B6BC0E90C23B8
:1027A0006A6BAB6BC0E91023EA6B2B6CC0E9122398
:1027B0006A6CAB6C1030C0E91023884778E7D5F815
:1027C000F024D5F8E834A918013B01320877C5F8A0
:1027D000F024C5F8E834002B7FF46AAF0823C4F86E
:1027E000E43465E798470028BFF677AF94F8F834EB
:1027F0005F48002B8BD0D0F8FC3440F6C412C3EBFA
:102800000B03934283D9FF23FE21002280F81C3260
:1028100080F81D12F72308250A2180F8203280F85D
:10282000232280F8242280F8252280F8262280F8AE
:10283000272280F8282280F8292280F82A2280F88E
:102840001F2280F8222280F81E5280F8211200F206
:10285000212300F22A2001E013F8011F83420A44D9
:10286000FAD1D243606884F82B220368444A5B683B
:10287000934240F09A831021424803F019FC3368D8
:102880001193119BC4F8FCB4E36015B0BDE8F08F60
:1028900001220BF11403C5F8E424C5F8043507E759
:1028A000FE287DD095F8F8240023C5F8E434002AEA
:1028B0007FF4FEAEFF23FE21082085F81C3285F848
:1028C0001D12F7230A2185F8203285F823220EF203
:1028D000212385F8242285F8252285F8262285F8EB
:1028E000272285F8282285F8292285F82A2285F8CA
:1028F0001F2285F8222285F81E0285F821120EF289
:102900002A2E01E013F8011F9E450A44FAD1D24352
:10291000606884F82B220368194A5B68934240F090
:10292000D1821021174803F0C3FB33680B930B9B34
:10293000E360BDE600220323C5F8E804C5F8F4040B
:10294000C5F8F024C5F8E434B2E6D5F8E83403EB72
:1029500000200423C5F8E804C5F8E434A8E600BF65
:10296000A01CFF1FA42BFF1F602BFF1F0C08FF1FC5
:10297000581DFF1FB10E0000FF0000808D130000E6
:10298000A90E0000741FFF1F134A1A40002AC0F24C
:10299000A682FF2A0CBF05230023C4F8E43487E68F
:1029A0000223C5F8E43483E60623C5F8EC04C5F831
:1029B000F404C5F8E4347BE6D5F8EC34D5F8E82423
:1029C00003EB00230721C5F8EC34C5F8E414002A12
:1029D0003FF404AF6CE600BFFF0000803368D049CD
:1029E0000893089B13600868CE4DDFF84C83CE4CEB
:1029F00005F036F9CD4BC5E90201186805F030F94C
:102A0000CB4ADFF838C3D768D2F808E03B681B68C8
:102A1000C5E90401D8E90001C5E90601DCE90001C6
:102A2000A342C5E9080140F0B582BEF1630F04DDA1
:102A300097F8F834002B00F09881BE4BD3F8108043
:102A4000D3F814C087F8238203F1180007C84FEAAF
:102A5000182987F824924FEA18494FEA186887F82E
:102A600026824FEA1C2887F827C287F828824FEA77
:102A70001C484FEA1C6C87F82AC24FEA102C87F8D2
:102A80002B0287F82CC24FEA104C000E87F82E025A
:102A9000080A87F8298287F82F12D3F8248087F84C
:102AA0003002080C090E87F8310287F83212100A3A
:102AB000110C87F83322120E87F8340287F835128A
:102AC0004FEA18204FEA184187F8362287F83782F4
:102AD0004FEA1862D3F8308087F8259287F83A22B7
:102AE0004FEA18295A6B87F82DC287F8380287F801
:102AF000391287F83B8287F83C924FEA18494FEA2F
:102B00001868D3F838C087F83E824FEA122887F851
:102B100040824FEA1268D86B87F842824FEA1C283D
:102B200087F843C287F844824FEA1C484FEA1C6C7E
:102B3000196C87F846C24FEA102C87F8470287F8CD
:102B400048C24FEA104C000E87F83F2287F83D92AA
:102B500087F84A024FEA1249080A5A6C87F84582F8
:102B600087F84B12D3F8508087F84C02080C090EF6
:102B700087F84D0287F84E12100A110C87F84F2281
:102B8000120E87F8500287F851124FEA18204FEAC8
:102B9000184187F8522287F853824FEA1862D3F817
:102BA000548087F8419287F849C24FEA182987F87C
:102BB000540287F8551287F856229A6D87F8578283
:102BC00087F858924FEA18494FEA1868D86D87F885
:102BD0005A824FEA122887F85C824FEA1268D3F8CB
:102BE00060C087F85E824FEA102887F860824FEA5B
:102BF0001068596E87F862824FEA1C2887F863C212
:102C000087F864824FEA1C484FEA1C6C87F8599297
:102C100087F85B224FEA124987F866C29A6E87F8F6
:102C20005D924FEA112C4FEA104987F85F0287F84E
:102C30006712D86E87F868C24FEA114C090E87F800
:102C400069C287F86A124FEA122C110C87F86B22BE
:102C500087F86CC2120E4FEA102C87F86D12010C27
:102C600087F8619287F8658287F86E2287F86F028D
:102C700087F870C287F8711203F1700191E80610AD
:102C8000000E87F87202080A87F8731287F8740238
:102C9000080C090EDB6F87F87612110C87F87502A5
:102CA00087F87722100A87F87912120E4FEA1C4132
:102CB00087F8780287F87A22180A1A0C87F87F3288
:102CC00087F87D121B0EFF214FEA1C294FEA1C6872
:102CD00087F87BC287F880024FF0FE0C602087F8EF
:102CE000812287F8823200229F2387F81C125FFA24
:102CF0008EF14EF3072E87F81E0287F8203287F8F0
:102D00007C9287F87E8287F81DC287F81F2287F899
:102D1000211287F822E207F2212307F2822011E034
:102D20009414FF1F282BFF1F6D1900009C1CFF1F10
:102D30009022FF1F882AFF1F6014FF1F202BFF1FF8
:102D400013F8011F83420A44FAD1D243786887F806
:102D500083220368B64A5B68934207F5077140F027
:102D6000BB800846682103F0A3F9B24BD868996884
:102D700003681B68A34240F00981632904DD90F8D1
:102D8000F834002B3FF478AC05F10C028CCAD5F86E
:102D900008E080F823E24FEA1E2C80F824C24FEAB4
:102DA0001E4C4FEA1E6E80F826E24FEA122E80F883
:102DB00025C280F828E24FEA124C4FEA126E80F8E2
:102DC00029C280F82AE24FEA134C4FEA132EAC696D
:102DD00080F8272280F82B32EA6980F82CE280F80C
:102DE0002DC24FEA136ED5F820C06B6A80F83342CB
:102DF0003D0A80F830523D0C80F83152250A80F8A7
:102E00003452250C240E80F83642140C80F82F72B0
:102E100080F835523F0E150A80F8372280F8394283
:102E2000120E4FEA1C4480F82EE280F8327280F8CD
:102E3000385280F83A221D0A80F83BC21A0C4FEA39
:102E40001C6780F83F3280F83D421B0EFF244FEA9A
:102E50001C2E80F83E7280F84052FE27202580F814
:102E6000412280F842320022DF2380F81C42CCB29B
:102E700041F3072180F8203280F8221280F83CE2EA
:102E800080F81D7280F81E5280F81F2280F82142BF
:102E900000F2212300F2422101E013F8014F8B429E
:102EA0002244FAD1D243446880F843222368604A1E
:102EB0005B68934200F5077008D1282103F0F8F809
:102EC000FFF7DABB10225C4998472EE5014628221D
:102ED00020469847FFF7D0BB6822984745E7013A5C
:102EE00062F0FF02013254E5DFF87091DFF870B153
:102EF000524EDFF870A1524C524D534FDFF86881AB
:102F000002F0AAF9D9F80030CBF80000C01A04F09A
:102F100095FE45A3D3E9002304F0F6FECDE90201B6
:102F2000306804F09DFECDE90001DAF8000004F0FD
:102F300097FE94ED005B41EC110B95ED003B97ED96
:102F4000002B9DED026B9DED004B98ED000BFEF705
:102F500045FFDBF80030C9F80030DAF8000004F073
:102F60007FFE02460B46D8E9000104F019FDC7E9CF
:102F70000001306804F074FE02460B46D5E90001FA
:102F800004F00EFDC4E90001FFF76ABB2F4A984721
:102F9000FFF772BB714638462D4A9847E5E6013A7D
:102FA00062F0FF020132FFF7D1BB1022224998479D
:102FB00065E4002385F8F834FFF77ABB33680E9395
:102FC0000E9BEA68316810912248DDF84080296A3A
:102FD000DFF898C01F4F9B1AA0FB030EEA694FEA67
:102FE0009E1E8C444FF47A701B49A7FB087A00FBA5
:102FF0001E334FEA9A1A013A01FB03C300FB1A8001
:10300000724401FB1033CAEB020209F1140109F109
:1030100010006B612A6101F01FFD33680F930F9B55
:10302000C5F80035FFF744BB8DEDB5A0F7C6B03E3F
:10303000A90E0000181DFF1F741FFF1F9C1CFF1FFF
:103040008814FF1FA014FF1F481DFF1F282BFF1F00
:10305000882AFF1FD34D621040420F00882BFF1FAC
:10306000902BFF1F9414FF1F682BFF1F00CA9A3B71
:10307000D5F81C80D5F81035984507D94FEA880156
:10308000D5F8180505F014FDC5F81805C4F8108525
:10309000B8F1000F00F0F480DFF86C824FF0040903
:1030A0004FF0000A98F8221098F8213098F8202064
:1030B00098F823E0D4F81805090441EA03231343E0
:1030C00043EA0E6300EB8A008B49C4F814350422EE
:1030D00001F0D6FCD4F810350AF1010A53454946EF
:1030E00008F1040809F10409DCD801F1080A01F12A
:1030F000050E01F1060C01F1070801F1090301F1C8
:103100000A0201F10B070C3148460091D146A44454
:10311000A6449CF81CC09EF81C102044A0444FEA12
:103120000C4C007F98F81CE04CEA012C4CEA000C97
:10313000D4F81C154CEA0E6888450BD94FEA880173
:10314000D5F824050592029305F0B2FC059A029B7E
:10315000C5F82405C4F81C85B8F1000F00F08D8077
:1031600005EB090A4FF000089AF81E109AF81D3076
:103170009AF81C209AF81FE0D4F82405090441EAC3
:10318000032313435D4943EA0E630B6000EB8800A1
:10319000042201F075FCD4F81C3508F10108434500
:1031A00049460AF1040A09F10409DDD8C81DCA46D6
:1031B0004B1D8A1D074601F1080822442344117F54
:1031C000187FD4F828353A462244A244964609048A
:1031D0009AF81C209EF81C9041EA00210A4342EA1A
:1031E0000969994507D94FEA8901D5F8300505F0F5
:1031F0005FFCC5F83005C4F82895B9F1000F37D049
:103200004FF0000AD14608F11C01002321449E46DC
:1032100011F8012B9A400833202B4EEA020EF7D109
:1032200008F104008644864509D908F11F032344A8
:1032300002460132597803F8011B9645F9D804EB90
:103240000E022F4982F81B90431EA1F5A262D4F80A
:103250003005134400EB8A00C4F82C350422F046F4
:1032600001F00EFCD4F828350AF1010A5345CAD8FA
:10327000012384F80835FFF71BBADDF800809CE7CE
:103280000C234FF0080A00930B231F46D1460A2255
:1032900009234FF007084FF0060C4FF0050E0420ED
:1032A00035E79A4609F22321164B119311A890464F
:1032B000CDF848A0CDF84CA0FDF7D8F8C2B2C0F3C5
:1032C00007215318DB4389F81E22FE250A22471CDA
:1032D00089F81C8289F822A289F8203289F81F1205
:1032E00089F81D5289F8212219DB00F22221494474
:1032F000534609F221290BE06C22FF1F7822FF1FA1
:103300008422FF1FBC960000581DFF1F19F8012FD3
:1033100089451344FAD16FEA03085FFA88F8231845
:1033200000F10802B2F5007F83F82382DFF88CE316
:1033300000F35D82DEF8040003680EF507715B6838
:10334000984733680A93D44E0A9BE36006F16403FE
:103350000093A6F5836556F8043F002B00F0B58076
:1033600058689A6801680292D3F800A08B68984761
:103370003368814658680368DB6898473368029A67
:103380001F69632F804604DD94F8F834002B00F0A9
:103390009C80C2F3072384F8232284F82432504609
:1033A00005F06EFF03464FEA136E020A000C514609
:1033B00084F8253284F8262284F827021A4684F8F5
:1033C00028E2B648029301F05BFB484605F058FF3F
:1033D000029B024603F2292020440633002122FAF0
:1033E00001FE0831202900F801EBF8D1AC48043384
:1033F0004946184402EB030901F042FB404605F040
:103400003FFF09F223228246224400232AFA03F1D5
:103410000833202B02F8011BF8D1A14B09F1040954
:10342000414603EB0900524601F02AFB0AEB090072
:1034300000F1040E21185FFA8EF8CEF3072C00225B
:10344000022308EB0C0A81F8243281F8232281F848
:10345000252281F826226FEA0A0AF9B2FF234FF0EB
:10346000FE0947F30727BEF1FF3F84F820A284F846
:103470001E8284F81FC284F81C3284F81D9284F8DE
:10348000211284F822720BDB00F22620854B28449F
:1034900001E013F8011F83420A44FAD1D343DBB29F
:1034A00004EB0E010EF10802B2F5007F81F8233221
:1034B00000F3138168687C4903685B688B4240F0C5
:1034C00005811146794802F0F3FD009B9E427FF48E
:1034D00042AFDFF8F4A1CDF808B09B465BF8040FCB
:1034E000002800F0BF8090E8080271499A68D0F87F
:1034F00008808A4200F0CE8090470746DBF8000043
:103500000368DA686B498A4200F0C2809047064639
:10351000DBF8000003685B68674A934240F0B580BF
:10352000C56D632D04DD94F8F834002B00F09A800B
:10353000C9F30723404684F8239284F8243205F027
:103540009FFE81464FEA1963020A000C414684F847
:10355000283284F8262284F827024A4684F82592E5
:103560004E4801F08DFA384605F08AFE09F229210D
:103570000246214409F10608002322FA03F0083329
:10358000202B01F8010BF8D1454B08F1040803EB9F
:1035900008003946904401F073FA304605F070FE99
:1035A00008F2232207462244002327FA03F10833B6
:1035B000202B02F8011BF8D1394B08F104083A46D8
:1035C0004744314603EB08003E1D01F059FA5FFA0B
:1035D00086FCC6F3072EE3190CEB0E000022C04355
:1035E000022183F8241283F8232283F8252283F80A
:1035F000262284F82002E8B245F30725FE23FF21A6
:1036000084F82252751C84F81D3284F81EC284F896
:103610001FE284F81C1284F82102284BC0F2298191
:1036200007F22621194403F2212301E013F8010FC8
:1036300099420244FAD1D343DBB2A11906F1080240
:10364000B2F5007F81F823321C4F00F38D8078683B
:10365000154903685B688B423BD1114607F507703B
:1036600002F026FDD3457FF439AFDDF808B0C4F889
:10367000FCB40123C4F800B584F8F834FFF747B868
:1036800009F11C019847FFF713B89847054648E72A
:103690000B4E40E70B4F34E77021FF1F811FFF1FC8
:1036A0007B1FFF1F791FFF1FA90E0000741FFF1F44
:1036B0007D0900008509000079090000581DFF1FE1
:1036C000B8990000A49900003822FF1F6A49984762
:1036D000FBE607F507719847C4E7DFF8A4E1674FF9
:1036E000BEE80F000FC7BEE80F000FC7BEE80F000F
:1036F0000FC79EE8030000234FF0030C4FF0380E75
:10370000FF2285F823C285F824E24FF0FE0C4FF02B
:103710003D0E85F8253285F8263285F8273287E870
:103720000300C22085F81C220722A7F1370185F883
:103730001F3285F82232073785F81DC285F81EE250
:1037400085F8200285F8212201E011F8012F8F422F
:103750001344FAD1DB43606884F860320368464959
:103760005B6845229847B0E6454D0FCD07F50A76D0
:103770000FC60FCD0FC60FCD0FC695E80300002270
:103780000325382387F8235287F824324FF0FF0CA3
:103790004FF0FE0E3D2587F8252287F8262287F870
:1037A00027224FF0C20886E80300072187F81F226E
:1037B00087F82222A6F13700F31D87F81CC287F88C
:1037C0001DE287F81E5287F8208287F8211201E057
:1037D00010F8011F83420A44FAD1D243606884F88A
:1037E0006022036824495B68452298473AE7244FE2
:1037F0000FCF0EF50A750FC50FCF0FC50FCF0FC531
:1038000097E8030000234FF0030C3827FF228EF8BF
:1038100023C28EF824724FF0FE0C3D278EF825321D
:103820008EF826328EF8273285E80300C2208EF803
:103830001C220722A5F137018EF81F328EF82232A2
:1038400007358EF81DC28EF81E728EF820028EF893
:10385000212201E011F8012FA9421344FAD1DB43E0
:10386000606884F86032036803495B6845229847C2
:1038700067E50B46E1E600BF741FFF1F801FFF1FB7
:103880001C9A00002DE9F04F8DB0CB4ACB4B06922D
:103890000022044600F5836500F27C46ADF81C204A
:1038A0000B92089309930A9355F8043F002B00F0FC
:1038B000C28058681F6801689A6808978B68ADF8DD
:1038C0001C2098472B68099058680368DB68984764
:1038D000236829680A904FF400721B68D1F81080A1
:1038E0000B92B74A9342824640F0A981B8F1630F28
:1038F00004DD94F8F834002B00F09D80BDF81C30F6
:10390000DDF8209084F823321B0A84F824324846DC
:1039100005F0B6FC07463B0E3A0C000A494684F80F
:10392000283284F8257284F8260284F8272204F2CB
:1039300029203A4601F0A4F8DDF824B0584605F0F5
:103940009FFC04F22329791D0246063749440023CF
:1039500022FA03F00833202B01F8010FF8D10437C5
:10396000594609EB0700174401F08AF8504605F064
:1039700087FC09EB0703834600222BFA02F1083289
:10398000202A03F8011BF8D10437514609EB070040
:103990005A4601F075F80BEB07031F1D09EB0301F5
:1039A0005FFA87FAC7F3072C00220AEB0C0E4FF0E0
:1039B000020B09F803206FEA0E0E8A70CA7081F8B4
:1039C00001B0FF205FFA88F14FF0FE0948F30728A5
:1039D000B7F1FF3F84F820E284F81EA284F81FC2EA
:1039E00084F81C0284F81D9284F8211284F8228243
:1039F000C0F2D08103F22623E01804F2212301E073
:103A000013F8011F98420A44FAD1D243D2B2E31903
:103A100007F10801B1F5007F83F8232200F3238129
:103A20006768684A3B685B68934204F5077040F03A
:103A3000108102F03DFBAE427FF436AF04F59C6985
:103A400056F8040F002800F0E4800368826841689B
:103A500008929A68ADF81C105B498A4240F0F480E5
:103A60005A4A0992DA685A498A4240F0E380594A30
:103A700021680A924FF400725B680D680B92564AF7
:103A8000934240F0D480D0F85C804D4FBD4240F06E
:103A9000C980B8F1630F04DD94F8F834002B00F00E
:103AA000B880BDF81C30089D84F823321B0A84F8C6
:103AB0002432284605F0E4FB82464FEA1A634FEAB7
:103AC0001A42000A294684F8283284F825A284F88C
:103AD000260284F8272204F22920524600F0D0FF63
:103AE00009990191084605F0CBFB04F223250AF160
:103AF0000502019983460AF1060A2A4400232BFA9B
:103B000003F00833202B02F8010FF8D10AF1040A60
:103B10005A4605EB0A0000F0B3FF0A9901910846E6
:103B200005F0AEFBD3440199824605EB0B0300225E
:103B30002AFA02F00832202A03F8010BF8D10BF11F
:103B4000040B05EB0B00524600F09AFF0AEB0B0347
:103B50001A1D0B99E9545FFA82FCC2F3072E1D442B
:103B60000CEB0E004FEA112B4FEA114AC043090E2D
:103B700085F801B085F802A0E9704FF0FF0B5FFAFD
:103B800088F14FF0FE0A48F3072884F82002501C01
:103B900084F81EC284F81FE284F81CB284F81DA2C7
:103BA00084F8211284F8228221DB03F22623E5180F
:103BB000002004F2212313E0D4960000549A000060
:103BC0006D190000A90E00007D090000A4990000F5
:103BD00085090000B89900007909000013F8011F59
:103BE000AB420844FAD16FEA000B5FFA8BFBA318D3
:103BF00002F10801B1F5007F83F823B27EDC65682D
:103C00006B4A2B685B68934204F5077026D102F07B
:103C10004FFAB1457FF414AF012384F8F8340DB0A6
:103C2000BDE8F08F414606AA2046A847F1E798472D
:103C300080462AE7904702463068036818E7414605
:103C400006AA20469847F6E6904702463068036881
:103C500007E70A46014638469847ECE60A46014619
:103C600028469847D5E7534A03920321524A2368CE
:103C700005928DF810101B68504A934240F08580E1
:103C80000027382284F8231284F824224A4984F831
:103C9000257284F8267284F8277204F50A7000F001
:103CA000EFFEFF213D20C2234FF0FE0E84F81C12D0
:103CB000072184F81E0284F8203284F81F7284F8E9
:103CC00022723A4684F81DE284F8211204F221237C
:103CD00004F25F2001E013F8011F98420A44FAD170
:103CE000D243606884F860220368314A5B6893427B
:103CF00004F5077158D1084645219AE62D4A2E4908
:103D00002368039203208DF8100005911B68BB42C5
:103D100045D10025382284F8230284F8242284F82F
:103D2000255284F8265284F8275204F50A7000F0D0
:103D3000A7FEFF213D20C223FE2784F81C12072185
:103D400084F81E0284F8203284F81F5284F822522C
:103D50002A4684F81D7284F8211204F2212304F209
:103D60005F2001E013F8011F83420A44FAD1D243D5
:103D7000606884F8602203680D4A5B68934204F52A
:103D8000077109D10846452141E703AA07212046CA
:103D9000984750E602463AE64522984739E703AA93
:103DA00007212046984734E74522984743E600BF5D
:103DB000A90E0000EC9600001C9A00006D1900008E
:103DC0002DE9F04FC04E97B033680A930A9DD0F8A2
:103DD000003542F6F822EB1A934284BF002380F8A4
:103DE000F834D0F8E434044633B1D0F80435AB42AB
:103DF0003CBF0023C0F8E434DFF8D8A2A26932B196
:103E000033680B930B9B5B1B9A42C0F0F581606893
:103E100003685B69534540F0398102F0E3F80028FC
:103E2000C0F23881D4F8F434D4F8E4240344072AE7
:103E3000C4F8F43400F017818AB9FF2800F03B8100
:103E400033680C930C9B41F288315B1B8B42D5D9B4
:103E500084F8F8246FF0010017B0BDE8F08F012A54
:103E600000F03A81022A00F08C81032A00F094814C
:103E7000042A00F09B81052A00F0A781062A00F0A1
:103E8000AC81082ABAD1914A1A4000239A42C4F858
:103E9000E434C0F21482FF2AB0D1D4F8EC34002B01
:103EA00000F085830A2B00F03583062B00F0228278
:103EB0000B2B00F00982BC3354F8230000289DD05E
:103EC0000368834A1B68934204F11C0140F06D8330
:103ED00094F81DE0277F94F81E9094F8218094F8C0
:103EE000201094F81FC047EA0E2794F822E047EA12
:103EF000094741EA082194F8239041EA0E4147EA34
:103F00000C6241EA0963C0E9082394F8251094F88B
:103F1000242094F826C094F829E094F8283094F8E6
:103F2000277042EA012294F82A1042EA0C4243EA3E
:103F30000E2394F82BC043EA014342EA076243EAA6
:103F40000C6300920193DDE90023C0E90A2394F891
:103F50002C2094F82D1094F82EC094F831E094F8A9
:103F6000303094F82F7042EA012294F8321042EA7D
:103F70000C4243EA0E2394F833C043EA014342EA79
:103F8000076243EA0C6302920393DDE90223C0E96E
:103F90000C2394F835C094F8342094F836E094F863
:103FA000397094F8383094F8371042EA0C2242EA1B
:103FB0000E4E94F83A2094F83BC043EA072343EAB4
:103FC00002434EEA016143EA0C6304910593DDE983
:103FD0000423C0E9102394F83D1094F83C2094F891
:103FE0003EC094F841E094F8403094F83F7042EAC3
:103FF000012294F8421043EA0E2342EA0C4294F85C
:1040000043C043EA014141EA0C6342EA0762069277
:104010000793DDE90623C0E9122394F8441094F8CD
:10402000452094F8468094F8487094F8493094F804
:104030004AE094F847C041EA022247EA032394F891
:104040004B1042EA084243EA0E4342EA0C6243EA5A
:10405000016308920993DDE90823816DC0E9142307
:1040600010308847CAE6D4F8F034E2180133C4F8B7
:10407000F0341077D4F8E834013BC4F8E834002B6E
:104080007FF4BCAE0823C4F8E434B7E698470028B0
:10409000BFF6C8AE94F8F80400283FF4DDAED4F8BB
:1040A000FC3440F6C412EB1A934200F2AA800020BE
:1040B00017B0BDE8F08F012205F11403C4F8E42421
:1040C000C4F804359AE600BFA42BFF1FFF00008050
:1040D0008D130000B10E0000FE2872D094F8F82471
:1040E0000023C4F8E434002A7FF488AE7D492368B5
:1040F00013911B687C4914928B42159240F0D58035
:10410000FF210820F723FE2784F81C120A2184F8D7
:104110001E0284F8203284F8232284F8242284F8B2
:10412000252284F8262284F8272284F8282284F87D
:10413000292284F82A2284F81F2284F8222284F873
:104140001D7284F8211204F2212304F22A2001E0D6
:1041500013F8011F98420A44FAD1D243676884F8E1
:104160002B223B68614A5B68934204F5077040F07C
:10417000A180102101F09CFF33680D930D9BE3603B
:104180003CE600220323C4F8E804C4F8F404C4F8AD
:10419000F024C4F8E43431E6D4F8E83403EB00202A
:1041A0000423C4F8E804C4F8E43427E6504A1A406B
:1041B000002A75DBFF2A0CBF05230023C4F8E43472
:1041C0001CE60223C4F8E43418E60623C4F8EC0421
:1041D000C4F8F404C4F8E43410E6D4F8EC34D4F8A9
:1041E000E82403EB00230721C4F8EC34C4F8E414FA
:1041F000002A3FF447AF01E66FF0010017B0BDE8B9
:10420000F08F384A236813921B68374900228B428B
:10421000149215925CD1FF210820F723FE2784F821
:104220001C120A2184F81E0284F8203284F823220A
:1042300084F8242284F8252284F8262284F8272270
:1042400084F8282284F8292284F82A2284F81F225C
:1042500084F8222284F81D7284F8211204F22123AA
:1042600004F22A2001E013F8011F83420A44FAD124
:10427000D243676884F82B223B681C4A5B689342F0
:1042800004F5077029D1102101F012FF33680F9354
:104290000F9BC4F8FC540020E36017B0BDE8F08F1A
:1042A000013A62F0FF02013284E713AA0A21204694
:1042B000984761E701461022384698475CE7013A83
:1042C00062F0FF020132E6E5002384F8F83495E558
:1042D00013AA0A2120469847D8E7014610223846FB
:1042E0009847D3E7BC9600006D190000A90E0000A6
:1042F000FF000080227F637F94F81E80E17F42EA06
:10430000032343EA0843D4F8102543EA01689045A3
:1043100004F11C0707D94FEA8801D4F8180504F006
:10432000C7FBC4F81805C4F81085B8F1000F00F0F9
:10433000568104F214530093B8464FF004094FF02D
:10434000000B98F8063098F8050098F8042098F8C3
:1043500007101B0443EA00231343D4F8180543EA6B
:104360000163C4F8143500EB8B000422009900F0BF
:1043700087FBD4F810350BF1010B5B454A4608F179
:10438000040809F10409DCD802F1090302F1080B61
:1043900002F10B0102F1050E02F1060C02F1070811
:1043A000009302F10A030C3248460291D946049266
:1043B00017F80C2017F80EC0385C17F808E0D4F88E
:1043C0001C15120442EA0C22104340EA0E6888458C
:1043D00009D94FEA8801D4F82405069304F068FB54
:1043E000069BC4F82405C4F81C85B8F1000F00F042
:1043F000088104F5A463009304F20C5307EB090849
:104400004FF0000B029398F8021098F8013098F8DA
:10441000002098F803E0D4F82405090441EA0323B6
:104420001343029A009943EA0E63536100EB8B0039
:10443000042200F025FBD4F81C350BF1010B5B4581
:104440004A4608F1040809F10409DCD8531DD11DBE
:104450000093CB46931D029102F10808F95C009B82
:10446000029AF85C17F80B3017F80290D4F8282558
:10447000090441EA00210B4343EA0969914507D940
:104480004FEA8901D4F8300504F012FBC4F8300576
:10449000C4F82895B9F1000F38D04FF0000904F2A4
:1044A0002C53CB46009300239E4607EB080111F8DE
:1044B000012B9A400833202B4EEA020EF7D108F167
:1044C00004018E4471450AD208F103033B440A46B5
:1044D000013213F8010F03F8010C7245F8D307EB12
:1044E0000E024B1E02F801BCD4F8300500993B4483
:1044F000C4F82C3500EB89000422F04600F0C0FA25
:10450000D4F8283509F101094B45CCD8012384F8AA
:10451000083573E433681093109F3168237F12913C
:10452000617FE06894F821C094F8202094F822E09C
:1045300094F82380DFF8D89043EA0121324B42EA15
:104540000C223F1A94F81EC0A3FB0730E37F42EA17
:104550000E4E41EA0C41129A4EEA086E41EA03619E
:10456000DFF8B080284B4FF47A7C8009F044A3FB3D
:10457000023E0CFB10774FEA9E1E01390CFB1E22F7
:10458000084409FB0787214609FB1273CEEB0002A2
:10459000226104F1100041F8143F00F05DFA336825
:1045A0001193119BC4F8003528E4984726E422684B
:1045B00016491391149315930A211368204613AAE0
:1045C000984733680E930E9BE3602046FFF75AF935
:1045D000C4F8FC54C4F800554FF0FF303CE40C2301
:1045E0004FF0080B049309220B230293D9460A23A8
:1045F00000924FF007084FF0060C4FF0050E042014
:10460000D6E6DDF8108029E7D34D6210BC96000095
:1046100040420F0000CA9A3BF8B56B486B4D6C4E98
:1046200000F016FA6B4B2B6000244FF461434FF4FB
:104630000077AB6021463A466E6005F11C00EC60E5
:104640002C616C61AC61642604F0E0F93A462146C5
:1046500005F5077004F0DAF92146324605F21C40F0
:1046600004F0D4F93246214605F5906004F0CEF905
:104670005949C5F8E444C5F8E844C5F8EC44C5F820
:10468000F044C5F8F44485F8F844C5F8FC44C5F88E
:104690000045C5F8044585F80845C5F81045C5F836
:1046A0001445C5F81845C5F81C45C5F82445C5F896
:1046B0002845C5F82C45C5F83045C5F80C1505F555
:1046C000A465464F46484749DFF870E184800026DC
:1046D0002E60454D7E603D60444E454D056048600E
:1046E00044480C610860CEF800504349AEF80440DD
:1046F000C6F804E0DFF848E140483461C6F800E05D
:104700003F4E0E603F4D0C614F603F493F4E404F62
:10471000046100220023016045603E482860C5E92D
:104720000223C5E90423C5E90623C5E908233A4D58
:104730003A497E60C6E90223C6E90423C6E9062396
:104740003560374E3E60374E37480E60374E3C611D
:10475000C1E90423C1E90623C1E90823C1E90C2307
:10476000C1E90E23C1E91023C1E91423C1E91623CD
:10477000C1E91823C1E91A23C1E91C238D608D62A8
:104780008D64DFF8C0C0DFF8C0E0294FC1E91E2307
:10479000C0E90823C0E90A23C0E90C23C0E91023BB
:1047A000C0E91223C0E9142334610122214C224BB9
:1047B0007160C6F800C085618563C0F800E00761DC
:1047C0008465C2658360F8BD781CFF1F581DFF1FFC
:1047D000280BFF1FAC97000004970000A41CFF1FCC
:1047E000101DFF1F7014FF1F34970000881CFF1F4F
:1047F0001C970000FC9A0000082BFF1F181DFF1FCC
:10480000149B0000282BFF1F209B00004014FF1F5B
:10481000742BFF1F649700004C970000882AFF1F2D
:10482000309B000094970000B01CFF1F9022FF1FD8
:104830007C97000055240000549B0000502BFF1F64
:10484000089B0000409B0000C097000090F83920B2
:1048500090F83800101A704790F8383090F83920E6
:104860009A4205D95A1C034480F83820187E7047B4
:104870004FF0FF30704700BF0020704790F838308D
:1048800090F839209A4286BF1B18187E4FF0FF30EF
:10489000704700BF704700BF38B50546B0F85E00EE
:1048A00090B195F85D301446C3F1210294420CD8C2
:1048B00005F13B001844224600F0E2F895F85D301F
:1048C000234485F85D30204638BD01201446287108
:1048D000EEE700BFB0F85E306BB190F85D30202B92
:1048E00007D8C218013380F85D30012082F83B10F0
:1048F0007047012303710020704700BF38B502697B
:10490000D478E4B2E106054624D51023D3706306BB
:104910001FD504F0040404F0FF03002C5AD04249D0
:104920006A6E00230B7085F85D30002A66D09047D0
:1049300095F85D30002B61D02B69D0229A702B69DD
:1049400095F83B201A712B69012285F85C20022220
:10495000DA7038BD04F0400303F0FF00002BD8D11B
:104960009379DBB203F0600160294ED0937803F0B5
:10497000100303F0FF01B3B114F0010437D195F82F
:104980005C3095F85D1099424BD9591C2B4485F841
:104990005C1093F83B3013712B69D0229A702B690D
:1049A0000222DA70D5E785F86010937943F020038E
:1049B00093712B6995F839101A791F29D2B2C6D88C
:1049C000194800780028C2D06818013185F83910DC
:1049D0000276BCE72A6985F83930C02393702B69C9
:1049E000114A1979012111700222DA70B1E7C0234E
:1049F00093702B691A790222DA70AAE70122002348
:104A000085F85D2085F83B3096E703F0DF0393716E
:104A1000AB6E23B185F8380095F8390098472A69BC
:104A2000A4E71471B8E700BFA02BFF1F0148FFF7F0
:104A300065BF00BF9008FF1F0148FFF75FBF00BFC1
:104A4000FC08FF1F0148FFF759BF00BF2408FF1FE4
:104A500068230370704700BF70B40D68064B04688C
:104A6000064E6A0AA3FB0232D3091C4406FB135309
:104A700004600B6070BC7047834B040000CA9A3B13
:104A800001B441EA000313F003036FD1403A41D36C
:104A900051F8043B40F8043B51F8043B40F8043B18
:104AA00051F8043B40F8043B51F8043B40F8043B08
:104AB00051F8043B40F8043B51F8043B40F8043BF8
:104AC00051F8043B40F8043B51F8043B40F8043BE8
:104AD00051F8043B40F8043B51F8043B40F8043BD8
:104AE00051F8043B40F8043B51F8043B40F8043BC8
:104AF00051F8043B40F8043B51F8043B40F8043BB8
:104B000051F8043B40F8043B51F8043B40F8043BA7
:104B1000403ABDD2303211D351F8043B40F8043B47
:104B200051F8043B40F8043B51F8043B40F8043B87
:104B300051F8043B40F8043B103AEDD20C3205D357
:104B400051F8043B40F8043B043AF9D204320AD04D
:104B5000D2071CBF11F8013B00F8013B03D30B78CF
:104B600003704B78437001BC704700BF0C2A4AD3D6
:104B700010F0030311D0C3F10403D21ADB071CBFEA
:104B800011F8013B00F8013B07D311F8013B00F895
:104B9000013B11F8013B00F8013B11F003033FF426
:104BA00075AF30B4043AC91AC3F1040C51F8044B80
:104BB000022B19D0032B0BD0240A51F8043B1D06FD
:104BC00044EA050440F8044B1C46043AF4D216E0CB
:104BD000240E51F8043B1D0244EA050440F8044B3E
:104BE0001C46043AF4D20AE0240C51F8043B1D049C
:104BF00044EA050440F8044B1C46043AF4D204325B
:104C0000B1EB0C0130BC043AA0D3013A11F8013BDE
:104C100000F8013BF9D20B7803704B7843708B7826
:104C2000837001BC704700BF08B5104C08E02368D2
:104C300059050DD423681A050FD42368DB0411D459
:104C400023685803F3D500F0EBFC23685905F1D530
:104C500000F00EF823681A05EFD500F009F8236874
:104C6000DB04EDD500F004F8EAE700BF348004402F
:104C700008B5FFF7D9FF00BF014B10221A8070471B
:104C800000200540704700BF094908B50B6830B1E6
:104C90006A461844A2F50052904202D208601846B3
:104CA00008BD03F059FB0C2303604FF0FF3008BD33
:104CB0006809FF1F084A1378802B01D00020704735
:104CC0000649074B07480860002119701378802BAC
:104CD000FCD00120704700BF03E00740448004403F
:104CE00001E0074000002822094A1378012B01D077
:104CF0000020704703F1804303F5FC236021197005
:104D00001378802BFCD1034B034A1A6001207047B3
:104D100003E007404480044000000602704700BFE3
:104D200010B4114B53F8302092F8804234B1012373
:104D300079B182F880305DF8044B704703EBC00313
:104D40005B681A6851B922F002021A605DF8044BE0
:104D5000704782F800315DF8044B704742F003025F
:104D60001A605DF8044B7047E09B00001C4A02EBA0
:104D7000C00301295B6811D004291BD052F8300010
:104D8000002280F8802229B1022920D0032922D0D4
:104D90001A6070474FF480721A60704752F8300002
:104DA0004FF4A27280F880121A601A6822F0200272
:104DB0001A60704752F830104FF4A272012081F847
:104DC00080021A601A6842F020021A60704740F2AE
:104DD00003121A6070474FF481721A60704700BF67
:104DE000E09B00003F2848D8F8B5042A44D8DFE803
:104DF00002F0484B4E0345004FF410262B4B03EBBB
:104E0000C0030D465C68216811F4E06148D0284B6E
:104E1000284A2949C3F82C2104F140422748C3F805
:104E20003411A2F59221264FC3F830017C29254880
:104E3000C3F83871C3F83C012CD9A2F594237C2B1C
:104E40002AD9A2F596237C2B28D9A2F598237C2B6E
:104E500029D9A2F59A227C2A27D81B4872B6236842
:104E600023F4702343F08072C4F38401164323605B
:104E700040F82150266062B6F8BD70474FF43026E6
:104E8000BCE74FF40026B9E74FF44026B6E74FF4ED
:104E90002026B3E70D48E1E70D48DFE70D48DDE7E1
:104EA000FFF764FFB3E70C48D8E7F8BDE09B0000CC
:104EB0000002FF1FE107FF1F8907FF1FB507FF1F44
:104EC0005D07FF1F3107FF1FB40AFF1F6C09FF1F9B
:104ED000E409FF1F440AFF1F740AFF1F30B4054B8B
:104EE000054D064C002210211A602A6020601960CE
:104EF00030BC704714D0034004D0034000D00340BE
:104F000038B5A0F14203012B044624D900297ADDEB
:104F1000994B1B78012505FA03F28A4202D83F28F3
:104F20002CD938BDC21E012A30D9A0F11D02012A98
:104F300078D90E285BD9A4F12302032A5CD9A4F105
:104F40001002012A94BF8D4A8D4A126802FB011299
:104F500022FA03F320E0884B1B780B2B0AD90C2B89
:104F60001CBF0C3B1941422C084657D0BDE83840C5
:104F700001F052BBC3F10C039940F4E72946FFF757
:104F8000CFFE2946BDE83840FFF7F0BE7D4A1268E3
:104F900002FB011222FA03F3A21E242A00F2E3808C
:104FA000DFE812F0DA00D300CC00C500BE00B70085
:104FB000B000A900A200E100E100E1009B00E100D7
:104FC00094008D00E100E10086007F007800710010
:104FD000E100E100E100E100E1006A006300E100BE
:104FE000E100E100E1005C0055004E00470044F2A2
:104FF0008412C240D2079ED5634A126802FB011296
:1050000022FA03F3C8E73F288BD80021FFF788FE78
:1050100020460121BDE83840FFF7A8BEBDE8384072
:1050200001F0DCBA594A126802FB011222FA03F3BA
:10503000B2E75749574A0B604FF45173136038BDBC
:105040005549564A0B604FF45173136038BD5449AB
:10505000544A0B604FF45173136038BD5249534AA0
:105060000B604FF45173136038BD5149514A0B60C6
:105070004FF45173136038BD4F49504A0B604FF4E1
:105080005173136038BD4E494E4A0B6040F24443A1
:10509000136038BD4C494D4A0B6040F244431360E5
:1050A00038BD4B494B4A0B6040F24443136038BD56
:1050B00049494A4A0B6040F24443136038BD4849AD
:1050C000484A0B6040F24463136038BD4649474A82
:1050D0000B6040F24463136038BD4549454A0B609C
:1050E00040F24443136038BD4349444A0B6040F2E8
:1050F0004443136038BD4249424A0B6040F2444386
:10510000136038BD4049414A0B6040F2444313608C
:1051100038BD3F493F4A0B6040F24443136038BDFD
:105120003D493E4A0B6040F24443136038BD3C4960
:105130003C4A0B6040F24443136038BD3A493B4A55
:105140000B604FF45173136038BD3949394A0B6015
:105150004FF45173136038BD3749384A0B6040F241
:105160004443136038BD3F2C3FF6DBAE7F29D4BFEC
:1051700000210121204649E7200BFF1F08900C4029
:10518000088003400890034008900B4008800B40C3
:1051900048900B402CB0044040900B4028B0044095
:1051A00038900B4024B0044030900B4020B00440B5
:1051B00018800B404CA0044010800B4048A00440D5
:1051C0001880034008B004401080034004B004403D
:1051D0004080034018C004403880034014C004409D
:1051E00018900C4004A0044010900C4000A0044013
:1051F00018900B4004C004402880034010B00440C5
:10520000208003400CB0044028900B400CC00440A8
:1052100020900B4008C004403080034010C0044080
:10522000488003401CC00440189003403490044060
:10523000109003403090044010900B4000C0044098
:105240003F2801D8FFF76CBD704700BF3F2801D849
:10525000FFF78CBD704700BF72B60D490D4B0E4A6B
:105260001B680868126862B6520102D5322B88BFEB
:105270000130C3F52F33094903F21F334FF47A721B
:105280009B08A1FB031302FB00F000EB93007047A7
:10529000A42BFF1F18E000E004ED00E0176CC1161E
:1052A0002DE9F843054672B6224F234B234A1B686B
:1052B0003C68126862B6520102D5322B88BF0134B5
:1052C000B5B3C3F52F3303F21F331D4EDFF86890DB
:1052D000DFF868809B084FF47A72A6FB031302FB89
:1052E00004F404EB930472B6D9F800103A68D8F8C5
:1052F00000E062B6C1F52F3303F21F339B08A6FB13
:1053000003031EF0806FC4EB93034FF47A7002D056
:10531000322988BF013200FB0233B3F57A7F04D310
:10532000013D05D004F57A74DDE701F071F8DAE7A4
:10533000BDE8F883A42BFF1F18E000E004ED00E0B7
:10534000176CC116F8B54E4B4E48DFF85CC14E4C99
:105350004E49DFF858E14E4E4E4D4F4F4FF0006230
:105360001A604FF080521A604FF000521A604FF0EE
:1053700080421A604FF000421A6000220260282327
:105380004EF6FF70CCF80000CEF8003023600EF52A
:10539000012E0B6033602B6006F500263B6005F59F
:1053A0000025A36207F500278B6204F5012401F5AF
:1053B000012106F6E87605F6E87507F57F671031F6
:1053C0000EF1100E203433602B60CEF800303B60BD
:1053D0000B602360314CBB618B6109212160A7F513
:1053E000002704F58054203F08343A602060BB60F9
:1053F000E36047F8041C04F5FD2407F5FE27043795
:1054000004F2FC7422603860A360FB6044F8041C62
:10541000083404F6FC74C7F8FC2F2060A4F5E124DE
:10542000A4F2DC7433602B60C7F8F81F21681C48B5
:1054300041F40071216001681A4C0EF57F4E0EF1A7
:10544000E80E07F5883706F5803605F5803541F01A
:1054500000710160CEF8002047F6FF710822396024
:1054600033602B60226001F049F81920FFF718FF24
:1054700000F010FD40F21310BDE8F840FFF710BF38
:1054800004E100E004800340148003401C800340DA
:10549000248003402C80034034800340008003407C
:1054A0000480044000900C40088003400C800340BE
:1054B000431E032B14D872B60A4951F8230068B171
:1054C00070B4094C058834F81320466841F823600D
:1054D000521B24F8132062B670BC704762B6704746
:1054E00000207047002CFF1F082DFF1F01380328E4
:1054F0000BD872B6074B53F8203043B100205B68DD
:105500000130002BFBD162B670470020704718466F
:10551000F9E700BF542CFF1FF0B472B61A491B4EB6
:10552000012311F8014B194F9A00240742F001059D
:1055300005D556F8324064B156F83520BAB101337A
:10554000052BEED162B6124B00221A70F0BC00F0AF
:1055500023BD0F4C0F4D217807EB43130830013961
:105560005860217047F8325062B6F0BC7047084A64
:105570000949137807EBC5040830013B60601370DC
:1055800047F8351062B6F0E7089E00000000FF1FE4
:105590007D2CFF1F88004000C8004000431E032BE5
:1055A0001DD81B4A400140F0100030B4104472B6C0
:1055B000184CE25C032A1BD8DFE802F00212151730
:1055C00003220D88E25410F0080F14BFC82388236B
:1055D00043EA054308314160036062B630BC70475E
:1055E00008300222EDE70522EBE708300422E8E765
:1055F000094A52F8230038B1084A52F823004160A2
:1056000042F8231062B6E9E742F82310034AF7E7AD
:105610000000FF1F8C2CFF1F542CFF1F642CFF1F4A
:105620002DE9F04FDFF814B3DFF814A387B044E09E
:10563000AD4F4FEA930807EBC809013ED9F80420A3
:1056400003F00803F6B2A2F1080003F0FF04002BF8
:1056500040F0038157F838301B0C99B222F8081C2F
:10566000002B00F0F180A14B22F8064C42F8044CCC
:1056700053F82620002A00F06C819D4D55F8263005
:1056800058609C4C45F8260034F81630194424F82C
:10569000161000F061FC002800F05481964A974BE8
:1056A00019F0080F00F1080018BF1346C9F80400EC
:1056B00047F8383008238BF800309BF80040E4B2FC
:1056C00060071BD58E4B1B78ABB18E490A7802F070
:1056D000FF032AB1013BDBB20B70002B00F0B58356
:1056E00089490A7802F0FF032AB1013BDBB20B7053
:1056F000002B00F0F68004238BF8003004F0080340
:1057000003F0FF02002B00F0D5809AF80030DBB2E6
:105710001E098DD19C08744F57F8342007EBC40143
:10572000C2F38302013A49680C2A7ED8DFE802F00E
:1057300081817D7D7D7D7D7D427D7D7D0700086849
:10574000724B734D01936C4B4A68724E47F834307C
:1057500081B240F281646D4B6A60286000220120B2
:10576000A1423A611A60BA61307000F2F680B1F578
:10577000D06F80F0E882B1F5817F00F0D38200F233
:10578000D881802900F04D81822940F09282A98839
:10579000614B01F07F01042900F28C825F4C89008B
:1057A0000B44227062701A78930740F1388320709E
:1057B00002203AE1554B01931A6862B3584B59499C
:1057C000544E18880C7896F800E04028054684F07E
:1057D000010C28BF402544F00204BEF1000F81F8FF
:1057E00000C0A0EB050007EBC40C0CBF8821C8214A
:1057F00080B28EF0010E41EA0541CCF804201880F9
:1058000086F800E02A4447F8341010B9402D18BF3C
:105810000022019B1A603E4B1A88B2F5A06F04D19A
:1058200000219A785970404B1A70404A0123137036
:1058300040E7374A158842F22100854200F0528144
:105840002D4A47F83420F0E72B4A2C4B19F0080F6B
:1058500018BF134647F838302CE700F09DFB344A58
:10586000344952F82630002B00F02D8158688C5DA9
:1058700042F8260003F10802C9F80420032C05D8D9
:10588000DFE804F0120F150204228A551A8819F075
:10589000080F0CBF8823C82343EA024347F8383077
:1058A00008E702228A55F1E703228A55EEE705222E
:1058B0008A55EBE7E00700F17881210600F1A2812B
:1058C000A20706D51C4A1D4913780220DBB21370CB
:1058D0000870E30602D5194B10221A7007B0BDE814
:1058E000F08F00F0C5FC06E70000FF1F002CFF1F33
:1058F000AC2BFF1F082DFF1FC80040008800400090
:10590000882CFF1F112CFF1F902CFF1FA82BFF1F9F
:10591000742CFF1F102CFF1FC0200740802CFF1F7E
:10592000BC2BFF1F7C2CFF1F9820074094200740B2
:10593000542CFF1F8C2CFF1F88200740802007401D
:1059400090200740B74A47F83800137801331370A6
:10595000B0E643F82600B44D93E642F22104A1429A
:1059600000F0AD8000F20E81B1F5086F00F05481B7
:10597000B1F5106F40F09D81AC4AA9781170AC4D23
:10598000042402E00134142C0CD057F834301906EA
:10599000F8D505EBC40301345868083800F0FCFA68
:1059A000142CF2D1A349A44BA44A0291A449A54CBA
:1059B0009D4D039405964FF0000988461C461646F7
:1059C0000495206828B1456800F0E6FA2846002DC5
:1059D000F9D100232360049B30681A46002342F863
:1059E000293028B1456800F0D7FA2846002DF9D1B2
:1059F00000223260029A98F800301146002241F8E5
:105A0000042B039A0291023B4FF0000122F8191077
:105A1000032B00F2B481DFE813F0E201AE01E201F2
:105A2000AE01894C022022706270EA88824280F0C6
:105A30000D8286490D78402A45F0020E944607EB08
:105A4000CE0028BF4FF0400C04EB0C0344600293DF
:105A5000CCEB02004FEA0C484FF001090022C824A9
:105A600044EA080385F0010447F83E3032700C70B8
:105A7000DFF8BCE1764BDFF8D481002840F02081CC
:105A8000BCF1400F1BD144F0020407EBC403029F9A
:105A9000DFF89CE15F60002A40F02781020442F0B9
:105AA000880286F800900D7007444EF834203B467B
:105AB000402804D10020674A019910800B60664A93
:105AC00001231370B1E68B5D032B00F2248101A248
:105AD00052F823F0B5560000B5560000F95B0000FF
