:1000000000000320D1010000A55700005D5700004B
:100010005D5700005D5700005D5700005D57000010
:100020005D5700005D5700005D570000A5570000B8
:10003000A55700005D570000316E0000356E0000CE
:10004000A5570000A5570000A5570000A5570000C0
:10005000A5570000A5570000A5570000A5570000B0
:10006000A5570000A5570000A5570000A5570000A0
:10007000A5570000A5570000A5570000A557000090
:10008000A5570000A5570000A5570000A557000080
:10009000A5570000A5570000A5570000A557000070
:1000A0001555000021550000A5570000A557000078
:1000B000A5570000A5570000A5570000A557000050
:1000C000A5570000A5570000A5570000A557000040
:1000D000A5570000A5570000A5570000A557000030
:1000E000A5570000A5570000A5570000A557000020
:1000F000A5570000A5570000A5570000A557000010
:10010000A5570000A5570000A5570000A5570000FF
:10011000A557000055610000A5570000A557000035
:10012000A5570000A5570000A5570000A5570000DF
:10013000A5570000A5570000A5570000A5570000CF
:10014000A5570000A5570000A5570000A5570000BF
:10015000A5570000A5570000A5570000A5570000AF
:10016000A5570000A55700002D550000A557000019
:10017000A5570000A5570000A5570000A55700008F
:10018000A5570000A5570000A5570000A55700007F
:10019000A5570000A5570000A5570000A55700006F
:1001A000A5570000A5570000A5570000A55700005F
:1001B000A5570000A5570000A5570000A55700004F
:1001C000A5570000A5570000A5570000A55700003F
:1001D0005C4B4CF2205210B51A804DF628121A8052
:1001E00000BF00BF05F0E2FA574B4FF030621A60D3
:1001F000564A9A60564ADA60564B4FF470021A60BB
:10020000554B564A1A60564B1A78110703D51A787F
:1002100042F008021A70534B5349AA221A70534AEB
:10022000534B8B4204D252F8040F43F8040BF8E707
:10023000504B514900228B4202D243F8042BFAE77B
:100240004E494F4A002352F8230041F8230001335E
:10025000742BF8D14B4B4C4A802103F8011B93427D
:10026000FBD14A4B454A1A60494B8A221A70A3F5C2
:10027000805324225A70A0221A709A799207FCD5D2
:100280009A79D406FCD4434A937903F00C03082BE3
:10029000FAD1414B60221A7002331A78802AFCD1BD
:1002A0003C4B01221A715D225A719A799006FCD555
:1002B0009979384A4906FBD5384B394919600021EC
:1002C000596020231370937903F00C030C2BFAD19F
:1002D000344B354A1A60354A354C136813F4807331
:1002E00003D123604FF4A8531360324B324A1A6093
:1002F00000225A60072243F8042C304AC3F80C2D20
:1003000062B605F0B9FD2368DA0705D52C4805F07B
:100310007FFB2C4B2C4A1A602C4B1B785B0609D5B3
:10032000284C294B22689A4204D1254805F070FBDD
:100330000023236007F076FC05F03EFA06F000FE8D
:10034000FEE700BF0E20054030800440823F0400DD
:100350000100002B88ED00E0002008E0030000858C
:1003600002D0074000E007401C14FF1F2497000044
:100370003007FF1F2014FF1F602CFF1F0002FF1F0C
:100380000000000000E400E064E400E008ED00E0AC
:10039000005006400040064001E007404480044011
:1003A0000000060204800440C010070010D0034083
:1003B00014D0034014E000E01FBF02000000202022
:1003C00001CA0C621CE00340A5C3945A00F0074028
:1003D000FFFFFFFFFFFFFFFFFFFFFFFFFFFFFFFF2D
:1003E000FFFFFFFFFFFFFFFFFFFFFFFFFFFFFFFF1D
:1003F000FFFFFFFFFFFFFFFFFFFFFFFFFFFFFFFF0D
:10040000FFFFFFFFFFFFFFFFFFFFFFFFDEF9FFFF23
:1004100010B5054C237833B9044B13B10448AFF33E
:1004200000800123237010BD2014FF1F0000000076
:1004300028970000084B10B51BB108490848AFF3D6
:1004400000800848036803B910BD074B002BFBD0A0
:10045000BDE81040184700BF000000002414FF1F33
:10046000289700001C14FF1F0000000043680B7059
:1004700043681B0A4B70C3888B70C379CB70836849
:100480000B7183681B0A4B7143898B71C37ACB71E3
:10049000082070470B7843604A7843EA02234360A0
:1004A0008A7843EA02434360CA7843EA02634360BE
:1004B0000B7983604A7943EA022383608A7943EAAD
:1004C00002438360CA7943EA02638360082070476D
:1004D000004870479090000000487047A0900000CE
:1004E000F0B50C460A788280064614F8010F002306
:1004F00042EA0022B2801A4614F8010F98400833ED
:10050000202B42EA0002F7D1971D062F58D901F19E
:10051000050E551D73464C1913F8010F03F8010C15
:10052000A342F9D100234B5518460D44C6F808E004
:1005300015F8014F84400830202843EA0403F7D11E
:10054000381D0344834209D909320A440446013460
:1005500012F8015F02F8015CA342F8D80138CF1805
:100560000024084407F8014C2246F06017F8015BAC
:1005700095400832202A44EA0504F7D1181D0444A6
:10058000A04209D203330B440246013213F8015F43
:1005900003F8015CA242F8D30D1901380844002386
:1005A00005F8013C3061A8786B780A5DED780104AC
:1005B00041EA0323134343EA0563201D7361F0BD41
:1005C000551D01F1050EADE700487047C4900000CD
:1005D00000487047E09000000B78F0B403710023EE
:1005E00006460C461D4614F8012F9A400833202B6E
:1005F00045EA0205F7D1681D052801F1040708D96D
:100600002C1D3B460C4413F8012F03F8012C9C428F
:10061000F9D10D4400232B71B760F0BC704700BFC7
:10062000004870470491000000487047189100008E
:1006300000487047E4930000004870473C91000078
:10064000B0F904300B70C3F307224A7002207047E0
:100650004A780B7843EA022383800220704700BF68
:10066000004870476091000000487047709100009A
:1006700043680B7010B4180C1C0A1A0E4C7088706A
:10068000CA7004205DF8044B704700BF10B44C786A
:100690000A788B78C97842EA042242EA034343EAA3
:1006A000016343605DF8044B0420704700487047C5
:1006B0009491000000487047A891000000487047DE
:1006C000CC91000000487047E4910000004870475A
:1006D00008920000004870472492000000487047CC
:1006E00048920000004870475C92000010B40B78FC
:1006F0004C78426943EA042303825DF8044B0C30D2
:10070000104700BF80697047004870476091000043
:100710000048704770910000406B70470048704778
:1007200048920000004870475C92000090F8F8047E
:10073000704700BF43682DE9F0470B7043681B0A00
:100740004B70C3888B70C379CB704368002B00F06B
:1007500085800A4600250426C36853F825301371A6
:100760001C0C1F0A1B0E94715771D371436801351D
:10077000AB42344602F1040206F10406ECD804F15F
:10078000080204F1050A04F1060904F1070804F15E
:10079000090C04F10A0E04F10B0517460C34036929
:1007A0008B5503691B0A01F80A30438A01F80930A6
:1007B000C37C01F808300369F3B101EB070E7546FD
:1007C0000022836953F822300EF822301C0C1E0AD6
:1007D0001B0EAC706E70EB700369013293423C46A5
:1007E00005F1040507F10407EBD804F1050C04F149
:1007F000060EE51D3A460834C3698B54C3691B0ACB
:1008000001F80C30C38B01F80E30C37F4B55C36920
:100810000BB30F4680460026D8F8243053F8260044
:1008200008F08EF9B10005463A19002325FA03F0C5
:100830000833202B02F8010BF8D1D8F82430043407
:10084000381959582A4604F0B5FED8F81C3001363C
:10085000B3422C44E0D82046BDE8F0870822174672
:100860000C240B254FF00A0E4FF0090C4FF007082F
:100870004FF006094FF0050A042690E770B503799A
:100880000B70064680680D4608F05AF92A46044661
:10089000002324FA03F10833202B02F8011FF8D1BA
:1008A000B168681D224604F085FE601D70BD00BF62
:1008B000F8B583880B7083881B0A4B7006468068E6
:1008C0000D4608F03DF9030E010A020C6B71A87089
:1008D0002A71E97002460446B168A81D04F06AFE58
:1008E000F06808F02DF9611D024629440634002302
:1008F00022FA03F00833202B01F8010FF8D1043459
:100900002819F168144404F055FE306908F018F90C
:100910002A190746002327FA03F10833202B02F88F
:10092000011BF8D1043428193A46316904F042FE1B
:10093000381973692B540544190A1A0C1B0E697077
:10094000AA70EB700430F8BD0846114606F04AB9AB
:1009500006F0E2B82DE9F04F0A784B788C7805461E
:1009600042EA0323C8780E4643EA0443696843EA2F
:1009700000648C4283B000F2BA806C60002C00F0FE
:10098000BF8005F10809344600274FF00408A1791B
:100990006379227994F807E0E868090441EA0323BF
:1009A000134343EA0E63AB6000EB87000422494621
:1009B00004F000FE6B680137BB42424604F10404B8
:1009C00008F10408E3D802F108074146B94602F1EC
:1009D000050E901DD31D02F1090B02F10A0802F168
:1009E0000B0A02F10C04305C16F80E20715C16F84C
:1009F00003E02B69000440EA02220A4342EA0E6245
:100A00009A4200F292802A614AB305F1140A06EB79
:100A100009074FF00008B9787B783A78FC78A86924
:100A2000090441EA0323134343EA04636B6100EBC7
:100A300088000422514604F0BDFD2B6908F101082D
:100A400043454C4607F1040709F10409E3D804F1D2
:100A5000050B04F1060804F1070A4F46083416F89E
:100A6000082016F80B00F35D16F80A70E969120405
:100A700042EA0022134343EA07678F424FD8EF61EF
:100A80008FB34FF00009C84605F1200700239E46AA
:100A9000311911F8012B9A400833202B4EEA020E2F
:100AA000F7D1201D8644704509D2E31C3344024629
:100AB000013213F8011F03F8011C7245F8D306EB4D
:100AC0000E02431E02F8018C686A33442B6200EB6D
:100AD000890004223946744604F06CFDEB6909F183
:100AE00001094B45D2D8204603B0BDE8F08FA100E4
:100AF000E86807F03DFC6C60E860002C7FF441AFD3
:100B00000827B9460C244FF00B0A4FF00A084FF0A3
:100B1000090B072306204FF0050E042163E7B900F7
:100B2000686A07F025FC6862A9E79100A86901924C
:100B300007F01EFC019AA86165E700BFD0ED027ABC
:100B400017EE903AC3F3C752FF2AF0B4C3F316036B
:100B500000F0FD81002A00F0128102F56072DC0CC9
:100B600044EA02145E01C3F3C707E4B2C2F30712FA
:100B7000F6B2C3F3C723F5EEC07AF1EE10FA4FF0E8
:100B8000000548BF62F07F024B71CA71CE700F71D1
:100B90008C710D704D708D70D0ED037A17EE903A18
:100BA000C3F3C752FF2AC3F3160300F0C581002A1E
:100BB00000F0038102F56072DC0C44EA02145E016D
:100BC000C3F3C707E4B2C2F30712F6B2C3F3C723F5
:100BD000F5EEC07AF1EE10FA4FF0000548BF62F072
:100BE0007F024B73CA73CE720F738C730D724D728A
:100BF0008D72D0ED047A17EE903AC3F3C752FF2AF4
:100C0000C3F3160300F07781002A00F04D8102F54E
:100C10006072DC0C44EA02145E01C3F3C707E4B25D
:100C2000C2F30712F6B2C3F3C723F5EEC07AF1EEB2
:100C300010FA4FF0000548BF62F07F024B75CA758D
:100C4000CE740F758C750D744D748D74D0ED067A5D
:100C500017EE903AC3F3C752FF2AC3F3160300F00E
:100C60003F81002A00F0038102F56072DC0C44EA47
:100C700002145E01C3F3C707E4B2C2F30712F6B26F
:100C8000C3F3C723F5EEC07AF1EE10FA4FF000057A
:100C900048BF62F07F024B77CA77CE760F778C77AA
:100CA0000D764D768D76D0ED077A17EE903AC3F338
:100CB000C752FF2AC3F3160300F03381002A00F065
:100CC000B88002F56072DC0C44EA02145E01C3F3E2
:100CD000C707E4B2C2F30712F6B2C3F3C723F5EEB7
:100CE000C07AF1EE10FA4FF0000548BF62F07F02C3
:100CF00081F8253081F8272081F8236081F824705D
:100D000081F8264081F8205081F8215081F8225046
:100D1000D0ED087A17EE903AC3F3C752FF2AC3F317
:100D2000160300F0F380002A65D002F56072D80C3B
:100D300040EA02105D01C3F3C706C0B2C2F3071256
:100D4000EDB2C3F3C723F5EEC07AF1EE10FA4FF01F
:100D5000000448BF62F07F0281F82B5081F82C60BC
:100D600081F82E0081F8284081F8294081F82A4036
:100D7000302081F82D3081F82F20F0BC7047002BF7
:100D800000F009815B001C0200F10D814FF46072DC
:100D9000013A5B0094B21F0222B2F9D52401E4B2F9
:100DA000C2F30612C3F316035E0144EAD344C3F34D
:100DB000C707F6B2C3F3C723DDE6002B00F0E680D9
:100DC0005B001E0200F1F2804FF46072013A5B009A
:100DD00094B21D0222B2F9D52401E4B2C2F3061284
:100DE000C3F316035E0144EAD344C3F3C707F6B264
:100DF000C3F3C723ECE6002B00F0C3805B001D02A9
:100E000000F1D7804FF46072013A5B0090B21C028F
:100E100002B2F9D50001C0B2C2F30612C3F3160341
:100E20005D0140EAD340C3F3C706EDB2C3F3C72365
:100E300089E7002B00F0A0805B001F0200F1BC805E
:100E40004FF46072013A5B0094B21E0222B2F9D5EF
:100E50002401E4B2C2F30612C3F316035E0144EAAE
:100E6000D344C3F3C707F6B2C3F3C72337E7002B56
:100E70007DD05B001E0200F1A2804FF46072013A47
:100E80005B0094B21D0222B2F9D52401E4B2C2F390
:100E90000612C3F316035E0144EAD344C3F3C70743
:100EA000F6B2C3F3C723EDE6002B5BD05B001C0258
:100EB00076D44FF46072013A5B0094B21F0222B202
:100EC000F9D52401E4B2C2F30612C3F316035E019E
:100ED00044EAD344C3F3C707F6B2C3F3C723A4E677
:100EE0005E01DC0CC3F3C707F6B244F0F004C3F3B1
:100EF000C7237F22C6E65E01DC0CC3F3C707F6B248
:100F000044F0F004C3F3C7237F228EE65D01D80CC2
:100F1000C3F3C706EDB240F0F000C3F3C7237F224E
:100F200011E75E01DC0CC3F3C707F6B244F0F0042E
:100F3000C3F3C7237F22D2E65E01DC0CC3F3C707ED
:100F4000F6B244F0F004C3F3C7237F2240E65E010B
:100F5000DC0CC3F3C707F6B244F0F004C3F3C723B5
:100F60007F2208E61A461C461F461E465DE61A46C4
:100F70001C461F461E4685E61A461C461F461E4650
:100F8000ADE61A4618461E461D46DCE61A461C46C5
:100F90001F461E461CE61A461C461F461E46EAE52C
:100FA0001446382291E714463822FBE614463822CC
:100FB00016E71046382231E7144638224CE714462B
:100FC000382266E7D0ED017A17EE903AC3F3C752A4
:100FD000FF2AF0B4C3F3160300F0E680002A78D0AD
:100FE00002F56072DC0C44EA02145E01C3F3C70729
:100FF000E4B2C2F30712F6B2C3F3C723F5EEC07A28
:10100000F1EE10FA4FF0000548BF62F07F024B711D
:10101000CA71CE700F718C710D704D708D70D0EDE6
:10102000027A17EE903AC3F3C752FF2AC3F31603AE
:1010300000F0AF80002A69D002F56072DC0C44EA4F
:1010400002145E01C3F3C707E4B2C2F30712F6B29B
:10105000C3F3C723F5EEC07AF1EE10FA4FF00005A6
:1010600048BF62F07F024B73CA73CE720F738C73EA
:101070000D724D728D72D0ED037A17EE903AC3F374
:10108000C752FF2AC3F3160378D0002A5AD002F5BC
:101090006072D80C40EA02105D01C3F3C706C0B20B
:1010A000C2F30712EDB2C3F3C723F5EEC07AF1EE37
:1010B00010FA4FF0000448BF62F07F02CD740E7545
:1010C00088750C744C748C7418204B75CA75F0BC00
:1010D0007047002B7DD05B001E0200F182804FF430
:1010E0006072013A5B0094B21D0222B2F9D524016C
:1010F000E4B2C2F30612C3F316035E0144EAD3441A
:10110000C3F3C707F6B2C3F3C72377E7002B5BD05F
:101110005B001F0268D44FF46072013A5B0094B226
:101120001E0222B2F9D52401E4B2C2F30612C3F3BF
:1011300016035E0144EAD344C3F3C707F6B2C3F310
:10114000C72387E7002B3AD05B001D0246D44FF43B
:101150006072013A5B0090B21C0202B2F9D5000144
:10116000C0B2C2F30612C3F316035D0140EAD340D6
:10117000C3F3C706EDB2C3F3C72396E75D01D80CEE
:10118000C3F3C706EDB240F0F000C3F3C7237F22DC
:101190008BE75E01DC0CC3F3C707F6B244F0F00442
:1011A000C3F3C7237F2255E75E01DC0CC3F3C707F7
:1011B000F6B244F0F004C3F3C7237F221EE71A46B9
:1011C00018461E461D4670E71A461C461F461E4618
:1011D00040E71A461C461F461E460FE710463822B7
:1011E000C1E71446382286E7144638229FE700BF3D
:1011F000D0ED017A17EE903AC3F3C752FF2AF0B44C
:10120000C3F3160300F04081002A00F0A88002F525
:101210006072DC0C44EA02145E01C3F3C707E4B257
:10122000C2F30712F6B2C3F3C723F5EEC07AF1EEAC
:1012300010FA4FF0000548BF62F07F024B71CA718F
:10124000CE700F718C710D704D708D70D0ED027A73
:1012500017EE903AC3F3C752FF2AC3F3160300F008
:101260000881002A00F0998002F56072DC0C44EAE3
:1012700002145E01C3F3C707E4B2C2F30712F6B269
:10128000C3F3C723F5EEC07AF1EE10FA4FF0000574
:1012900048BF62F07F024B73CA73CE720F738C73B8
:1012A0000D724D728D72D0ED037A17EE903AC3F342
:1012B000C752FF2AC3F3160300F0D080002A00F0C3
:1012C000A68002F56072DC0C44EA02145E01C3F3EE
:1012D000C707E4B2C2F30712F6B2C3F3C723F5EEB1
:1012E000C07AF1EE10FA4FF0000548BF62F07F02BD
:1012F0004B75CA75CE740F758C750D744D748D74E5
:10130000D0ED047A17EE903AC3F3C752FF2AC3F325
:10131000160300F09880002A5DD002F56072D80CA8
:1013200040EA02105D01C3F3C706C0B2C2F3071260
:10133000EDB2C3F3C723F5EEC07AF1EE10FA4FF029
:10134000000448BF62F07F02CD760E7788770C7676
:101350004C768C7620204B77CA77F0BC7047002BF8
:1013600000F0AC805B001C0200F1B0804FF46072B2
:10137000013A5B0094B21F0222B2F9D52401E4B213
:10138000C2F30612C3F316035E0144EAD344C3F367
:10139000C707F6B2C3F3C72347E7002B00F08980E5
:1013A0005B001E0200F195804FF46072013A5B0011
:1013B00094B21D0222B2F9D52401E4B2C2F306129E
:1013C000C3F316035E0144EAD344C3F3C707F6B27E
:1013D000C3F3C72356E7002B66D05B001D027BD406
:1013E0004FF46072013A5B0090B21C0202B2F9D570
:1013F0000001C0B2C2F30612C3F316035D0140EA56
:10140000D340C3F3C706EDB2C3F3C72393E7002B62
:1014100045D05B001F0256D44FF46072013A5B0066
:1014200094B21E0222B2F9D52401E4B2C2F306122C
:10143000C3F316035E0144EAD344C3F3C707F6B20D
:10144000C3F3C7234BE75D01D80CC3F3C706EDB266
:1014500040F0F000C3F3C7237F226CE75E01DC0C91
:10146000C3F3C707F6B244F0F004C3F3C7237F22E7
:1014700035E75E01DC0CC3F3C707F6B244F0F004B5
:10148000C3F3C7237F22FDE65E01DC0CC3F3C7076D
:10149000F6B244F0F004C3F3C7237F22C5E61A4630
:1014A0001C461F461E461AE71A4618461E461D468B
:1014B00041E71A461C461F461E46E3E61A461C46EE
:1014C0001F461E46B1E614463822B1E714463822BC
:1014D00058E71446382273E7104638228CE700BFDD
:1014E000F0B585B02D4B026801932D49039103237C
:1014F0008DF8083014682B4A944240D100243822D9
:10150000054680F8233280F8242280F8254280F8AE
:10151000264280F8274200F50A7004F04BF8FF27B6
:101520003D20C223FE26072185F81E0285F82032C1
:1015300085F81F4285F82242224685F81C7285F8FC
:101540001D6285F8211205F2212305F25F2001E0DA
:1015500013F8011F83420A44FAD1D2436C6885F81C
:1015600060222368104A5B68934205F507700DD12D
:10157000452105F037FB4FF0FF3005B0F0BD01AA63
:101580000721A0474FF0FF3005B0F0BD01464522CE
:10159000204698474FF0FF3005B0F0BDAC8F0000FB
:1015A00080920000ED260000490900002DE9F0417D
:1015B00091F807E00E798B794F7905464FEA0E12C4
:1015C000C87802F4FE6236010C4646EA101019058E
:1015D00042EA131340F2FF7240EA073001F470014F
:1015E000934241EA000182B005F10C0705F11400B5
:1015F00000F0A18140F27E46B3421AB243D94FF0C7
:10160000FF4200232EF07F0E134302AE43EA0E6327
:1016100046F8043D0422314603F0CCFF94F80FC095
:1016200094F80CE0A37BE07A94F80D804FEA0C125A
:1016300002F4FE624FEA0E1E19054EEA101042EA4D
:10164000131340F2FF7240EA083001F47001934234
:1016500041EA000105F1180000F0648140F27E4E7D
:1016600073451AB21FD8B2F5607F00F39A81B2F5C4
:101670005A7F40F3A981C2F56072013241F0807156
:10168000D140002250E1B2F5607F00F36F81B2F5E6
:101690005A7F40F39381C2F56072013241F080714C
:1016A000D140002249E14FF0FF4200232CF07F0C93
:1016B000134343EA0C6304223146019303F07AFF9B
:1016C00094F817C094F814E0A37DE07C94F815809A
:1016D0004FEA0C1202F4FE624FEA0E1E19054EEAA2
:1016E000101042EA131340F2FF7240EA083001F48E
:1016F0007001934241EA000105F11C0000F00981EC
:1017000040F27E4E73451AB20FD8B2F5607F00F3F7
:101710003681B2F55A7F40F35381C2F560720132CF
:1017200041F08071D1400022F5E04FF0FF420023EC
:101730002CF07F0C134343EA0C63042231460193DF
:1017400003F038FF94F81FC094F81CE0A37FE07EFC
:1017500094F81D804FEA0C1202F4FE624FEA0E1E4E
:1017600019054EEA101042EA131340F2FF7240EAE4
:10177000083001F47001934241EA000105F12400B0
:1017800000F0BE8040F27E4E73451AB20FD8B2F51B
:10179000607F00F3FD80B2F55A7F40F31381C2F5FC
:1017A0006072013241F08071D1400022AAE04FF016
:1017B000FF4200232CF07F0C134343EA0C63042206
:1017C0003146019303F0F6FE94F827C094F824E024
:1017D00094F8263094F8230094F825804FEA0C12F0
:1017E00002F4FE624FEA0E1E19054EEA101042EA9C
:1017F000131340F2FF7240EA083001F47001934283
:1018000041EA000105F1280071D040F27E4E734597
:101810001AB20FD8B2F5607F00F39F80B2F55A7FFD
:1018200040F3CA80C2F56072013241F08071D1404C
:1018300000225EE04FF0FF4200232CF07F0C1343A8
:1018400043EA0C6304223146019303F0B3FE94F89B
:101850002C2094F82FE094F82E3094F82B0094F874
:101860002DC014014FEA0E1202F4FE62190544EA7B
:10187000101042EA131340F2FF7240EA0C3001F4F8
:101880007001934241EA000105F12C0026D040F29C
:101890007E44A3421AB20ED8B2F5607F54DCB2F592
:1018A0005A7F40F38780C2F56072013241F0807147
:1018B000D140002214E04FF0FF4200232EF07F0EB3
:1018C000134343EA0E6331460422019303F072FE90
:1018D0002B6B384602B0BDE8F04118474FF0FF428D
:1018E0006FF07F43994236D04B1C5B08E6E74FF020
:1018F000FF426FF07F43994236D04B1C5B089CE758
:101900004FF0FF426FF07F43994248D04B1C5B0879
:1019100050E74FF0FF426FF07F43994236D04B1CA7
:101920005B0805E74FF0FF426FF07F4399423FD0DD
:101930004B1C5B08BAE64FF0FF426FF07F439942C1
:101940001BD04B1C5B085DE6A3F56073DA056FF0F6
:101950007F439942C8D11D4BB0E7A3F56073DA0508
:101960006FF07F439942C8D1184B66E7A3F56073C7
:10197000DA056FF07F439942E3D1144B42E6A3F5B9
:101980006073DA056FF07F439942C8D10F4BCFE601
:10199000A3F56073DA056FF07F439942B6D10B4B24
:1019A00008E7A3F56073DA056FF07F439942BFD172
:1019B000064B7BE6002293E700229AE70022BCE771
:1019C0000022A8E700229DE70022ADE7FFFF7F008D
:1019D000F0B5CF790D798B7991F805E006463A019B
:1019E000C87802F4FE622D010C4645EA1010190574
:1019F00042EA131340F2FF7240EA0E3001F4700124
:101A0000934241EA000183B006F1080000F096819C
:101A100040F27E45AB421AB241D94FF0FF4200235B
:101A200027F07F07134302AD43EA076345F8043DFF
:101A30000422294603F0BEFD94F80FE0277BA37B28
:101A4000E07A94F80DC04FEA0E1202F4FE623F01F4
:101A5000190547EA101042EA131340F2FF7240EAF8
:101A60000C3001F47001934241EA000106F10C00D0
:101A700000F05B8140F27E47BB421AB21FD8B2F53C
:101A8000607F00F39181B2F55A7F40F3A081C2F5E7
:101A90006072013241F08071D140002247E1B2F51D
:101AA000607F00F36681B2F55A7F40F38A81C2F508
:101AB0006072013241F08071D140002240E14FF06C
:101AC000FF4200232EF07F0E134343EA0E630422ED
:101AD0002946019303F06EFD94F817E0277DA37D5E
:101AE000E07C94F815C04FEA0E1202F4FE623F014A
:101AF000190547EA101042EA131340F2FF7240EA58
:101B00000C3001F47001934241EA000106F110002B
:101B100000F0028140F27E47BB421AB20FD8B2F504
:101B2000607F00F32F81B2F55A7F40F34C81C2F5FC
:101B30006072013241F08071D1400022EEE04FF03E
:101B4000FF4200232EF07F0E134343EA0E6304226C
:101B50002946019303F02EFD94F81FE0277FA37F11
:101B6000E07E94F81DC04FEA0E1202F4FE623F01BF
:101B7000190547EA101042EA131340F2FF7240EAD7
:101B80000C3001F47001934241EA000106F11800A3
:101B900000F0B98040F27E47BB421AB20FD8B2F5CE
:101BA000607F00F3F880B2F55A7F40F30E81C2F5F2
:101BB0006072013241F08071D1400022A5E04FF007
:101BC000FF4200232EF07F0E134343EA0E630422EC
:101BD0002946019303F0EEFC94F827E094F8247072
:101BE00094F8263094F8230094F825C04FEA0E129A
:101BF00002F4FE623F01190547EA101042EA13138E
:101C000040F2FF7240EA0C3001F47001934241EA65
:101C1000000106F11C006DD040F27E47BB421AB2B3
:101C20000FD8B2F5607F00F39B80B2F55A7F40F386
:101C3000C680C2F56072013241F08071D14000224D
:101C40005AE04FF0FF4200232EF07F0E134343EA89
:101C50000E6304222946019303F0ACFC94F82F7024
:101C600094F82C0094F82B1094F82E3094F82DE072
:101C70003A0102F4FE62000140EA1110190542EA3D
:101C8000131340F2FF7240EA0E3401F470019342E4
:101C900006F1200041EA040123D040F27E44A34231
:101CA0001AB20ED8B2F5607F51DCB2F55A7F40F31C
:101CB0008480C2F56072013241F08071D14000220F
:101CC00011E04FF0FF42002327F07F07134343EA60
:101CD000076329460422019303F06CFC302003B013
:101CE000F0BD4FF0FF426FF07F43994236D04B1C5E
:101CF0005B08E9E74FF0FF426FF07F43994236D02F
:101D00004B1C5B08A0E74FF0FF426FF07F43994206
:101D100048D04B1C5B0855E74FF0FF426FF07F4304
:101D2000994236D04B1C5B080CE74FF0FF426FF036
:101D30007F4399423FD04B1C5B08C3E64FF0FF4204
:101D40006FF07F4399421BD04B1C5B0868E6A3F5FC
:101D50006073DA056FF07F439942C8D11D4BB3E73A
:101D6000A3F56073DA056FF07F439942C8D1194B30
:101D70006AE7A3F56073DA056FF07F439942E3D118
:101D8000144B4DE6A3F56073DA056FF07F4399427B
:101D9000C8D1104BD6E6A3F56073DA056FF07F4328
:101DA0009942B6D10B4B0DE7A3F56073DA056FF0DE
:101DB0007F439942BFD1074B84E6002293E700227C
:101DC0009AE70022BCE70022A8E700229DE7002254
:101DD000ADE700BFFFFF7F00F0B5CF790D798B79BC
:101DE00091F805E006463A01C87802F4FE622D013A
:101DF0000C4645EA1010190542EA131340F2FF722F
:101E000040EA0E3001F47001934241EA000183B0D0
:101E100006F1040000F0B28040F27E45AB421AB2F7
:101E200040D94FF0FF42002327F07F07134302AD54
:101E300043EA076345F8043D0422294603F0BAFB50
:101E400094F80FE0277BA37BE07A94F80DC04FEA6B
:101E50000E1202F4FE623F01190547EA101042EA31
:101E6000131340F2FF7240EA0C3001F47001934208
:101E700041EA000106F1080077D040F27E47BB42FC
:101E80001AB21ED8B2F5607F00F39380B2F55A7F84
:101E900040F39880C2F56072013241F08071D14008
:101EA000002264E0B2F5607F7ADCB2F55A7F40F33D
:101EB0008D80C2F56072013241F08071D140002204
:101EC0005EE04FF0FF4200232EF07F0E134343EA03
:101ED0000E6304222946019303F06CFBE77D207D0D
:101EE000E17CA37D94F815E03A0102F4FE62000162
:101EF00040EA1110190542EA131340F2FF7240EA5A
:101F00000E3401F47001934206F10C0041EA040121
:101F100022D040F27E44A3421AB20DD8B2F5607FBF
:101F200035DCB2F55A7F4FDDC2F56072013241F007
:101F30008071D140002211E04FF0FF42002327F0D2
:101F40007F07134343EA076329460422019303F002
:101F500031FB182003B0F0BD4FF0FF426FF07F431C
:101F600099421BD04B1C5B08E9E74FF0FF426FF032
:101F70007F43994224D04B1C5B08A5E74FF0FF42FA
:101F80006FF07F43994212D04B1C5B084CE7A3F5DE
:101F90006073DA056FF07F439942E3D10C4BCEE7D3
:101FA000A3F56073DA056FF07F439942ECD1084BDB
:101FB0003AE7A3F56073DA056FF07F439942DAD10F
:101FC000034B81E70022D2E70022C7E70022D7E7D0
:101FD000FFFF7F00FFFFFFFF2DE9F84303F0D6FE70
:101FE000794DDFF82082DFF8209205F08DFA74A396
:101FF000D3E9002305F028FCD5E9002305F046F9D4
:10200000C8E9000103F0C2FE05F07EFA6CA3D3E933
:10201000002305F019FCD9E90067C5E90001002299
:102020006A4B3046394605F057FD38B10022684BFF
:102030003046394605F06EFD00287ED1654BD3ED64
:10204000007AB3EE047AF4EEC77AF1EE10FA5AD4BD
:10205000614D624B624ED86899680768614A3B6877
:102060009480B34240F08C80632902DD90F8F8340C
:102070007BB341F30726F3B253FA81F3C4F307228B
:1020800053FA84F31344DB4380F8234280F821128F
:1020900080F8253280F824220224FD23426880F84B
:1020A0001E424FF0FF0EFE27002180F8226280F8CA
:1020B0001CE280F81D7280F81F1280F8203213682D
:1020C000494C5B68A34200F507705BD10A2104F01C
:1020D00089FD464B95ED006A9FED457A03F11002AC
:1020E000F3EC017AF8EEE77A9A42C7EE866A37EEA9
:1020F000267AF5D1F5EE007A27EE277A3D4B83ED6F
:10210000007ABDE8F883BBEE047AF4EEC77AF1EE0C
:1021100010FA314D9DDD95ED007A344B67EE877AEC
:102120001A68586899685A60FDEEE77ADA6898602C
:10213000D960C3ED007A1A618BE72F4B1B68012B26
:1021400025D0002B7FF47AAF00222C4B3046394645
:1021500005F09CF82A4B1C685B6803F10045C9E94F
:102160000001D8E900232046294605F06DFB05F063
:1021700003FD184B07EE900A4FF0FF34186060E73C
:102180009847A6E7014610460A229847A1E7002291
:102190001A4B1B4C3046394605F07AF8D8E9002333
:1021A000C9E90001D4E9000105F04EFB05F0E4FCAB
:1021B000084B07EE900A0124186042E7AFF3008055
:1021C0000000000080842E41301DFF1F00009E4053
:1021D00000009EC02C1DFF1F1808FF1F5814FF1F72
:1021E000ED260000DC1CFF1F490900008C22FF1FA8
:1021F000000000006C14FF1F8822FF1F0000F03F4A
:102200001008FF1F5014FF1F201DFF1FFFFFFFFFBF
:102210002DE9F84303F0BAFD794DDFF82082DFF8AD
:10222000209205F071F974A3D3E9002305F00CFBAB
:10223000D5E9002305F02AF8C8E9000103F0A6FD5E
:1022400005F062F96CA3D3E9002305F0FDFAD9E9A2
:102250000067C5E9000100226A4B3046394605F0A7
:102260003BFC38B10022684B3046394605F052FC41
:1022700000287ED1654BD3ED007AB3EE047AF4EEFC
:10228000C77AF1EE10FA5AD4614D624B624ED868AB
:1022900099680768614A3B689480B34240F08C803B
:1022A000632902DD90F8F8347BB341F30726F3B2DB
:1022B00053FA81F3C4F3072253FA84F31344DB4344
:1022C00080F8234280F8211280F8253280F82422F9
:1022D0000224FD23426880F81E424FF0FF0EFE27C5
:1022E000002180F8226280F81CE280F81D7280F8DC
:1022F0001F1280F820321368494C5B68A34200F536
:1023000007705BD10A2104F06DFC464B95ED006A25
:102310009FED457A03F11002F3EC017AF8EEE77ACB
:102320009A42C7EE866A37EE267AF5D1F5EE007A44
:1023300027EE277A3D4B83ED007ABDE8F883BBEEAC
:10234000047AF4EEC77AF1EE10FA314D9DDD95ED89
:10235000007A344B67EE877A1A68586899685A6031
:10236000FDEEE77ADA689860D960C3ED007A1A6109
:102370008BE72F4B1B68012B25D0002B7FF47AAF06
:1023800000222C4B3046394604F080FF2A4B1C6853
:102390005B6803F10045C9E90001D8E90023204644
:1023A000294605F051FA05F0E7FB184B07EE900AB5
:1023B0004FF0FF34186060E79847A6E701461046E3
:1023C0000A229847A1E700221A4B1B4C3046394697
:1023D00004F05EFFD8E90023C9E90001D4E9000157
:1023E00005F032FA05F0C8FB084B07EE900A01240D
:1023F000186042E7AFF300800000000080842E41A7
:10240000602AFF1F00009E4000009EC0DC2AFF1FC4
:102410001808FF1F381DFF1FED260000D42AFF1FDC
:10242000490900008814FF1F000000007C1CFF1FEA
:10243000501DFF1F0000F03F1008FF1FB02AFF1FB4
:102440007014FF1FF0B5CF790D798B7991F805E005
:1024500006463A01C87802F4FE622D010C4645EAB0
:102460001010190542EA131340F2FF7240EA0E30D1
:1024700001F47001934241EA000183B006F10400C7
:1024800000F0FC8040F27E45AB421AB241D94FF0D9
:10249000FF42002327F07F07134302AD43EA07639F
:1024A00045F8043D0422294603F084F894F80FE02F
:1024B000277BA37BE07A94F80DC04FEA0E1202F45A
:1024C000FE623F01190547EA101042EA131340F279
:1024D000FF7240EA0C3001F47001934241EA0001BE
:1024E00006F1080000F0C18040F27E47BB421AB2FC
:1024F0001FD8B2F5607F00F3DC80B2F55A7F40F35D
:10250000EE80C2F56072013241F08071D14000224C
:10251000ADE0B2F5607F00F3D580B2F55A7F40F3AD
:10252000E080C2F56072013241F08071D14000223A
:10253000A6E04FF0FF4200232EF07F0E134343EA44
:102540000E6304222946019303F034F894F817E04F
:10255000277DA37DE07C94F815C04FEA0E1202F4AB
:10256000FE623F01190547EA101042EA131340F2D8
:10257000FF7240EA0C3001F47001934241EA00011D
:1025800006F10C0068D040F27E47BB421AB20FD869
:10259000B2F5607F00F38480B2F55A7F40F39D80EE
:1025A000C2F56072013241F08071D140002255E0E5
:1025B0004FF0FF4200232EF07F0E134343EA0E63D9
:1025C00004222946019302F0F5FFE77F207FE17E98
:1025D000A37F94F81DE03A0102F4FE62000140EA94
:1025E0001110190542EA131340F2FF7240EA0E344B
:1025F00001F47001934206F1100041EA040122D077
:1026000040F27E44A3421AB20DD8B2F5607F3EDCA0
:10261000B2F55A7F5FDDC2F56072013241F0807120
:10262000D140002211E04FF0FF42002327F07F0746
:10263000134343EA076329460422019302F0BAFFD9
:10264000202003B0F0BD4FF0FF426FF07F4399426E
:1026500024D04B1C5B08E9E74FF0FF426FF07F434B
:10266000994224D04B1C5B08A5E74FF0FF426FF066
:102670007F43994224D04B1C5B085DE74FF0FF423B
:102680006FF07F43994224D04B1C5B0802E7A3F50F
:102690006073DA056FF07F439942DAD1124BC5E7D8
:1026A000A3F56073DA056FF07F439942DAD10E4BE0
:1026B00081E7A3F56073DA056FF07F439942DAD1C1
:1026C000094B39E7A3F56073DA056FF07F43994250
:1026D000DAD1054BDEE60022B7E70022BEE7002292
:1026E000C5E70022CCE700BFFFFF7F00F0B56329FC
:1026F00085B003DD90F8F844002C46D013680546F9
:102700000F4610461B6805F223219847C2B2C0F35A
:102710000721561885F81E2247F30722F643FF23A8
:102720004FF0FE0EFCB285F82222421C85F8206292
:1027300085F81F1285F81C3285F81DE285F82142C4
:102740000DDB00F22221294405F22123002201E0C1
:1027500013F8014F8B422244FAD1D343DBB22A183B
:1027600000F10804B4F5007F82F8233217DC6A68B0
:10277000354E13685B68B34205F5077008D12146F2
:1027800004F030FA204605B0F0BD204605B0F0BD9B
:102790000146104622469847204605B0F0BD2B4A18
:1027A0002B492B68019203208DF8080003911B68C8
:1027B000284A93423FD10024382285F8230285F825
:1027C000242285F8254285F8264285F8274205F51A
:1027D0000A7002F0EFFEFF273D20C223FE260721EC
:1027E00085F81E0285F8203285F81F4285F82242BE
:1027F000224685F81C7285F81D6285F8211205F2C3
:10280000212305F25F2001E013F8011F98420A44DA
:10281000FAD1D243686885F8602203680A4A5B6887
:10282000934205F507710BD10846452104F0DAF90A
:102830004FF0FF30A7E7284601AA07219847F7E79E
:1028400045229847F4E700BF49090000AC8F00001B
:1028500080920000ED26000070B51E4A1E4E002337
:10286000051E33601360C8BF01230C46C8BF336028
:1028700000296FEA0501C8BF01234FEAD1714FF06B
:102880001E00C8BF136003F075FAE90F1C2003F0A7
:1028900071FAE143C90F272003F06CFAE10F2520FC
:1028A00003F068FA85EAE571A1EBE571002CB8BF89
:1028B0006442FF29A8BFFF211D2003F0BBF8FF2CB5
:1028C00021464FF02600A8BFFF21BDE8704003F06D
:1028D000B1B800BF501DFF1F8822FF1F10B57149FE
:1028E000044604F017FB00287AD00121022003F0EF
:1028F00041FA0121032003F03DFA0021042003F0F6
:1029000039FA6949204604F005FB002800F0BB8035
:102910000021022003F02EFA0121032003F02AFAFD
:102920000121042003F026FA6049204604F0F2FA5F
:10293000002800F099800121022003F01BFA0021F9
:10294000032003F017FA0121042003F013FA584979
:10295000204604F0DFFA002878D00021022003F09E
:1029600009FA0021032003F005FA0121042003F0F5
:1029700001FA5049204604F0CDFA002859D001212F
:10298000022003F0F7F90021032003F0F3F90021FE
:10299000042003F0EFF94849204604F0BBFA002870
:1029A0003AD00021022003F0E5F90121032003F0D1
:1029B000E1F90021042003F0DDF94049204604F04C
:1029C000A9FAE0B10021022003F0D4F9002103208C
:1029D00003F0D0F900210420BDE8104003F0CAB98B
:1029E0003749204604F096FA00287FF47EAF354937
:1029F000204604F08FFA00287FF477AF81E7324950
:102A0000204604F087FA0028DCD120462F4904F044
:102A100081FA0028D6D110BD2D49204604F07AFA5B
:102A20000028BED12B49204604F074FA0028B8D102
:102A3000C3E72949204604F06DFA00289FD12749B1
:102A4000204604F067FA002899D1A4E724492046DB
:102A500004F060FA002880D12249204604F05AFA96
:102A600000287FF47AAF84E71F49204604F052FA29
:102A700000287FF460AF1D49204604F04BFA00287F
:102A80007FF459AF63E71A49204604F043FA00285F
:102A90007FF43EAF1749204604F03CFA00287FF44B
:102AA00037AF41E7BC920000C8920000E0920000FE
:102AB000F89200001093000028930000409300005B
:102AC000C0920000C49200004893000050930000A0
:102AD000309300003893000018930000209300000A
:102AE0000093000008930000E8920000F0920000BC
:102AF000D0920000D892000010B5B0F904300F4C0D
:102B0000012B84B023600CD04BB90D49684604F00A
:102B1000EDF96846FFF7E2FE684604F0A7F904B055
:102B200010BD0849684604F0E1F96846FFF7D6FE93
:102B3000684604F09BF92368E6E700BFA01CFF1F6E
:102B4000BC920000C89200002DE9F04389B03C49D6
:102B50003C4C04A88DED001B8DED020B04F0C6F972
:102B600004A8FFF7BBFE04A804F080F99DED020B5A
:102B70002FA3D3E9002351EC100B04F03BFD9DED96
:102B8000001B06460F46002251EC110B2E4B04F0A1
:102B900031FD8046894602460B463046394604F0F0
:102BA00077FB25A3D3E9002304F024FD0022274B63
:102BB00004F04AFE0022002304F06AFB04F0B4FF94
:102BC000DFF8A0E00546CEF8005042464B463046BE
:102BD000394604F05BFB18A3D3E9002304F00AFD97
:102BE00000221A4B04F030FE0022002304F050FBB8
:102BF00004F09AFF164A174B174912681B68626067
:102C000006461648A3600660D1E9000104F0B4FF4F
:102C1000134BE060D3E9000104F0AEFF31462061C0
:102C20002846FFF719FE09B0BDE8F083AFF3008036
:102C30000000000000C052400000000000E06F40B3
:102C4000E0920000982AFF1F000049400000594010
:102C50006C14FF1F7C1CFF1F201DFF1F281DFF1F62
:102C60007014FF1F4C1DFF1F10B5044682B0806812
:102C700004F06CFCCDE90001206A04F067FCD4ED9F
:102C8000067A094BF5EE407A9DED000B41EC110BF5
:102C9000F1EE10FA0CBF01200020187002B0BDE860
:102CA0001040FFF751BF00BF0C08FF1F30B50821CF
:102CB00085B08D488D4D03F095FF8D4804F0C2F826
:102CC000002401210220C5F8E444C5F8E844C5F811
:102CD000F044C5F8EC4403F053F80121032003F05D
:102CE0004FF80121042003F04BF801211D2003F0CF
:102CF00047F801211E2003F043F801211C2003F0B6
:102D00003FF80221182003F03BF80221192003F0BC
:102D100037F80121262003F033F80121272003F0A2
:102D20002FF80121252003F02BF80221212003F0A8
:102D300027F80221222003F023F804226D491820ED
:102D400002F0EAFD04226B49192002F0E5FD04229D
:102D50006949212002F0E0FD04226749222002F0A7
:102D6000DBFD6649684604F0C1F86846FFF7B6FD2A
:102D7000684604F07BF805F27C422346114602E0E7
:102D80000133192B0AD051F8040F0028F8D103F5AC
:102D900090705B4945F8201064334B60002302E0DB
:102DA0000133192B0AD052F8041F0029F8D103F57A
:102DB0009071544A45F8212064335360524A0023ED
:102DC000114602E00133192B0BD051F8040F0028F3
:102DD000F8D14E4905EB83007D33C0F81C148B609D
:102DE000CD604949002302E00133192B0BD051F883
:102DF000040F0028F8D1464905EB83007D33C0F865
:102E00001C148B60CD604049002302E00133192B74
:102E10000BD051F8040F0028F8D13E4905EB830090
:102E20007D33C0F81C148B60CD603749002302E06D
:102E30000133192B0BD051F8040F0028F8D1364973
:102E400005EB83007D33C0F81C148B60CD602E49E8
:102E5000002302E00133192B0BD051F8040F002896
:102E6000F8D12E4905EB83007D33C0F81C148B602C
:102E7000CD602549002302E00133192B0BD051F816
:102E8000040F0028F8D1264905EB83007D33C0F8F4
:102E90001C148B60CD601C49002302E00133192B08
:102EA0000BD051F8040F0028F8D11E4905EB830020
:102EB0007D33C0F81C148B60CD60002302E0013329
:102EC000192B0BD052F8041F0029F8D1164A05EB34
:102ED00083017D33C1F81C249360D560134802F050
:102EE0002FFB05B030BD00BF58930000541DFF1FDD
:102EF000240BFF1FD91F0000112200006493000063
:102F0000A41CFF1F7C2AFF1F6C21FF1F5814FF1FEA
:102F1000381DFF1F682AFF1F0C1DFF1F681CFF1FA5
:102F2000E41CFF1FF81CFF1FC02AFF1F581CFF1FB7
:102F30002DE9F04FBB4ABC49BC4CBD4B2DED048B79
:102F4000D2ED008A91ED009AC4ED028AD3E9000126
:102F500091B084ED019A04F00FFEB64BE06008EEEC
:102F6000100AD3E9000104F007FEB34BB34A996895
:102F700007EE900AD8680368C4ED047A1B68934290
:102F800040F00B83632904DD90F8F834002B00F047
:102F9000F88019EE103AC3F3C752FF2AC3F31603A1
:102FA00000F00683002A00F0DB8202F56072140153
:102FB00044EAD3445E01C3F3C707E4B2C2F3071285
:102FC000F6B2C3F3C723B5EEC09AF1EE10FA80F85B
:102FD000283218EE903A48BF62F07F0280F82A2229
:102FE000C3F3C7520025FF2A80F8266280F82772B3
:102FF00080F8294280F8235280F8245280F8255224
:10300000C3F3160300F00E83002A00F08C8202F551
:103010006072DC0C44EA02145E01C3F3C707E4B239
:10302000C2F30712F6B2C3F3C723F5EEC08AF1EE7E
:1030300010FA80F8303218EE103A48BF62F07F0282
:1030400080F83222C3F3C7520025FF2A80F82E628F
:1030500080F82F7280F8314280F82B5280F82C5281
:1030600080F82D52C3F3160300F0D182002A00F03D
:103070003D8202F56072DC0C44EA02145E01C3F387
:10308000C707E4B2C2F30712F6B2C3F3C723B5EE23
:10309000C08AF1EE10FA80F8383217EE903A48BF45
:1030A00062F07F0280F83A22C3F3C7520025FF2A5C
:1030B00080F8366280F8377280F8394280F83352EF
:1030C00080F8345280F83552C3F3160300F094822E
:1030D000002A00F0ED8102F56072DC0C44EA021473
:1030E0005E01C3F3C707E4B2C2F30712F6B2C3F33B
:1030F000C723F5EEC07AF1EE10FA4FF0000548BF95
:1031000062F07F0280F83E6280F83F7280F84032C1
:1031100080F84142DF23CCB280F83B5241F30721D3
:1031200080F83C5280F83D5280F84222FF27FE266C
:103130002025002280F8203280F8221280F81C72AC
:1031400080F81D6280F81E5280F81F2280F821420C
:1031500000F2212300F2422101E013F8014F8B42DB
:103160002244FAD1D243446880F843222368344A87
:103170005B68934200F5077040F05F82282103F0FE
:1031800031FD304F304C3B680593059ED4F8003537
:1031900042F6F822F31A934284BF002384F8F834ED
:1031A000D4F8E434284A33B1D2F804359E4284BFBF
:1031B0000023C2F8E434DFF89480234DA2692AB1D9
:1031C0003B680993099B9B1B9A4223D36068036861
:1031D0005B69434540F0888003F09EFC0028C0F204
:1031E0008780D4F8F434D4F8E424DFF85CE00344B6
:1031F000072AC4F8F43464D052BBFF2800F0C7801B
:103200003B680893089B41F288319B1B8B42D5D9C0
:103210008EF8F824642002F0DDFD11B0BDEC048BC3
:10322000BDE8F08F7C1CFF1F6C14FF1F982AFF1F46
:10323000201DFF1F7014FF1F0C1DFF1FED26000037
:1032400049090000E42AFF1F541DFF1F5109000017
:10325000012A00F0A480022A00F0EA80032A00F08C
:10326000F280042A00F0F980052A00F00681062A7F
:1032700000F00B81082AA1D1C94A1A4000239A42C2
:10328000C4F8E434C0F2DE81FF2A97D1D4F8EC34DC
:10329000DFF810A3002B00F02C830A2B00F0E8824B
:1032A000062B00F0DC810B2B00F0D581BC3355F8E8
:1032B0002300002882D003680AF11C011B6898478C
:1032C0007CE7D5F8F024D5F8E834A918013B0132A1
:1032D0000877C5F8F024C5F8E834002B7FF46EAF0A
:1032E0000823C4F8E43469E798470028BFF679AFAB
:1032F00094F8F834AB48002B8CD0D0F8FC3440F66E
:10330000C412F31A934285D9FF23FE21002280F8CC
:103310001C3280F81D12F72308250A2180F820327C
:1033200080F8232280F8242280F8252280F82622A3
:1033300080F8272280F8282280F8292280F82A2283
:1033400080F81F2280F8222280F81E5280F8211275
:1033500000F2212300F22A2001E013F8011F83422A
:103360000A44FAD1D243606884F82B2203688E4A5B
:103370005B68934240F06B8110218C4803F032FC73
:103380003B680D930D9BC4F8FC64E36042E70122A7
:1033900006F11403C5F8E424C5F804350EE7FE2849
:1033A00067D095F8F8240023C5F8E434002A7FF4A8
:1033B00005AFFF23FE21082085F81C3285F81D1279
:1033C000F7230A2185F8203285F823220EF22123E3
:1033D00085F8242285F8252285F8262285F82722DB
:1033E00085F8282285F8292285F82A2285F81F22C7
:1033F00085F8222285F81E0285F821120EF22A2E67
:1034000001E013F8011F73450A44FAD1D243606802
:1034100084F82B220368644A5B68934244D11021EC
:10342000624803F0DFFB3B680793079BE360C5E658
:1034300000220323C5F8E804C5F8F404C5F8F02415
:10344000C5F8E434BAE6D5F8E83403EB00200423E9
:10345000C5F8E804C5F8E434B0E6514A1A40002A39
:10346000C0F2C580FF2A0CBF05230023C4F8E43452
:10347000A4E60223C5F8E434A0E60623C5F8EC046C
:10348000C5F8F404C5F8E43498E6D5F8EC34D5F87A
:10349000E82403EB00230721C5F8EC34C5F8E41455
:1034A000002A3FF41DAF89E6102240499847BAE749
:1034B000002B00F088805B001F0200F111824FF4A6
:1034C0006072013A5B0094B21E0222B2F9D5240167
:1034D000E4B2C2F30612C3F316035E0144EAD34416
:1034E000C3F3C707F6B2C3F3C72302E6002B79D0B4
:1034F0005B001E0200F1F1814FF46072013A5B0043
:1035000094B21D0222B2F9D52401E4B2C2F306122C
:10351000C3F316035E0144EAD344C3F3C707F6B20C
:10352000C3F3C723B3E5002B57D05B001C0200F1A7
:10353000DA814FF46072013A5B0094B21F0222B24A
:10354000F9D52401E4B2C2F30612C3F316035E01F7
:1035500044EAD344C3F3C707F6B2C3F3C72364E511
:10356000002B35D05B001E0200F1C0814FF4607269
:10357000013A5B0094B21D0222B2F9D52401E4B2F3
:10358000C2F30612C3F316035E0144EAD344C3F345
:10359000C707F6B2C3F3C72315E522469847F0E5FF
:1035A000FF000080541DFF1F49090000701FFF1F0E
:1035B0005E01DC0CC3F3C707F6B244F0F004C3F3BA
:1035C000C7237F22FFE41A461C461F461E4690E58D
:1035D0001A461C461F461E46F5E41A461C461F4660
:1035E0001E4622E51A461C461F461E464FE5013A76
:1035F00062F0FF02013235E75E01DC0CC3F3C7075E
:10360000F6B244F0F004C3F3C7237F2271E55E01F4
:10361000DC0CC3F3C707F6B244F0F004C3F3C723CE
:103620007F2234E55E01DC0CC3F3C707F6B244F039
:10363000F004C3F3C7237F22F7E401462822204683
:1036400098479EE5013A62F0FF0201321CE6102223
:10365000BD49984794E6002385F8F834AEE5D5F8DF
:103660001C90D5F81035994507D94FEA8901D5F84E
:10367000180504F07DFEC5F81805C4F81095B9F1D9
:10368000000F00F03783DFF8DCA24FF004094FF0A1
:10369000000B9AF822109AF821309AF820209AF814
:1036A00023E0D4F81805090441EA0323134343EA4D
:1036B0000E6300EB8B00A549C4F81435042201F019
:1036C00079FFD4F810350BF1010B5B4549460AF13F
:1036D000040A09F10409DCD84B1D01F1080A01F1C3
:1036E0000B00029301F1060E01F1070C01F1090331
:1036F00001F10A020C31D346009001910299A644CF
:103700002144A1449EF81CE0097F99F81C00A444C0
:103710004FEA0E4E4EEA012E9CF81CC0D4F81C1540
:103720004EEA000E4EEA0C6989450BD94FEA890131
:10373000D5F824050393029204F01AFE039B029A23
:10374000C5F82405C4F81C95B9F1000F00F0BE823D
:103750007F4B05EB0B0A4FF000099AF81E109AF800
:103760001D009AF81C209AF81FE00093090441EA12
:1037700000210A43D4F82405754942EA0E6E00EB95
:1037800089000422C3F800E001F014FFD4F81C25DE
:10379000009B09F101094A4559460AF1040A0BF157
:1037A000040BDAD8C81DDA464B1D8A1D009001F1C2
:1037B000080922442344117F009A187FD4F8283541
:1037C000A2442244964609049AF81C209EF81CA0A4
:1037D00041EA00210A4342EA0A6A9A4507D94FEAB8
:1037E0008A01D5F8300504F0C3FDC5F83005C4F8EA
:1037F00028A5BAF1000F37D04FF0000AD34609F1DF
:103800001C01002321449E4611F8012B9A400833E5
:10381000202B4EEA020EF7D109F1040086448645BA
:1038200009D909F11F03234402460132597803F8EC
:10383000011B9645F9D804EB0E02464982F81BB0ED
:10384000431EA1F5A262D4F83005134400EB8A00B0
:10385000C4F82C350422F14601F0ACFED4F828352A
:103860000AF1010A5345CAD8012384F80835A5E4B2
:103870003B680A930A9BEA6839680C913649286AC2
:10388000DFF8E4C0DDF830909B1AA1FB031E4FEA7D
:103890009E1E4FF47A7184443048EA6901FB1E335E
:1038A00000FB03CC2C4BA3FB093B4FEA9B1B013ACB
:1038B00001FB1B91724400FB11C3CBEB02020AF126
:1038C00014010AF110006B612A6101F05FFE3B6890
:1038D0000B930B9BC5F8003570E41446382217E6AD
:1038E00014463822F7E5144638222EE614463822CC
:1038F00048E69B460AF22321194B0D930DA89146E9
:10390000CDF838B0CDF83CB0FCF7B0FDC1B2C0F393
:1039100007228B18FE25DB438AF81E128AF81D52F7
:103920000A21451C8AF81C928AF822B28AF82032B1
:103930008AF81F228AF8211221DB00F22222524447
:103940005B460AF2212A13E0701FFF1F6822FF1F47
:103950007422FF1F8022FF1FD34D621040420F00D0
:103960007C8F0000541DFF1F00CA9A3B1AF8011FEC
:1039700092450B44FAD16FEA03095FFA89F92318DB
:1039800000F10802B2F5007F83F82392D14900F3D9
:1039900011824868036801F507715B6898473B68C6
:1039A0000693CD4F069BE36007F164030093A7F5F0
:1039B000836557F8043F002B00F0B88058689A6878
:1039C00001680192D3F800B08B6898473B68824643
:1039D00058680368DB6898473B68019AD3F8108001
:1039E000B8F1630F814604DD94F8F834002B00F041
:1039F0009D80C2F3072384F8232284F8243258469A
:103A000005F09EF803464FEA136E020A000C594671
:103A100084F8253284F8262284F827021A4684F88E
:103A200028E2AE48019301F0C5FD504605F088F844
:103A3000019B024603F2292020440633002122FA8A
:103A400001FE0831202900F801EBF8D1A448043325
:103A50005146184402EB030A01F0ACFD484605F05C
:103A60006FF80AF223228346224400232BFA03F143
:103A70000833202B02F8011BF8D1994B0AF1040AF4
:103A8000494603EB0A005A4601F094FD0BEB0A008D
:103A900000F1040E21185FFA8EF9CEF3072C0022F4
:103AA000022309EB0C0B81F8243281F8232281F8E0
:103AB000252281F826226FEA0B0B5FFA88F1FF239B
:103AC0004FF0FE0A48F30728BEF1FF3F84F820B20A
:103AD00084F81E9284F81FC284F81C3284F81DA258
:103AE00084F8211284F822820BDB00F226207D4B21
:103AF000284401E013F8011F83420A44FAD1D3435A
:103B0000DBB204EB0E010EF10802B2F5007F81F882
:103B1000233200F353816868734903685B688B4202
:103B200040F0FA801146714803F05CF8009B9F4218
:103B30007FF43FAFDFF8B8B10196ABF59C651E4648
:103B400056F8040F002800F0B48090E80C000093B1
:103B50009268D0F808A09047814630680268D26821
:103B6000904780463068026852689047632807464D
:103B7000009B04DD94F8F824002A00F09A80C3F337
:103B8000072284F8233284F82422504604F0D8FF18
:103B900003464FEA136E020A000C514684F82532A0
:103BA00084F8262284F827021A4684F828E24B4833
:103BB000009301F0FFFC484604F0C2FF009B024660
:103BC00003F2292020440633002122FA01FE0831A5
:103BD000202900F801EBF8D1414804334946184444
:103BE00002EB030901F0E6FC404604F0A9FF09F2EC
:103BF00023228246224400232AFA03F10833202B91
:103C000002F8011BF8D1364B09F10409414603EBD8
:103C10000900524601F0CEFC0AEB090000F1040E47
:103C20005FFA8EF8CEF3072C04EB000908EB0C01C9
:103C30000022C943022389F8243289F8232289F813
:103C4000252289F82622FF234FF0FE0984F820124E
:103C5000BEF1FF3FF9B247F3072784F81E8284F8CC
:103C60001FC284F81C3284F81D9284F8211284F853
:103C700022720BDB00F226201A4B284401E013F8D5
:103C8000011F83420A44FAD1D343DBB204EB0E0195
:103C90000EF10802B2F5007F81F8233242DC686839
:103CA000114903685B688B4239D111460F4802F015
:103CB00099FF5E457FF444AF019EC4F8FC64012384
:103CC000C4F8006584F8F834FFF7A4BADDF804906E
:103CD0006FE500BF541DFF1F6C21FF1F7D1FFF1FDD
:103CE000771FFF1F751FFF1F49090000701FFF1F6F
:103CF0003422FF1F0B220C234FF0080A05218DE808
:103D00000C00D3460A2209234FF0070C4FF0060E91
:103D100002914FF00409F1E44E49984706E74D49F6
:103D20009847C6E74C4FDFF834E10FCFAEE80F00FD
:103D30000FCFAEE80F000FCFAEE80F0097E80300FB
:103D400000230327382285F8237285F8242285F87A
:103D5000253285F8263285F827324FF0FF088EE8A5
:103D600003004FF0FE0C3D274FF0C209072185F8F4
:103D70001F3285F822321A46AEF137000EF10703E2
:103D800085F81C8285F81DC285F81E7285F8209280
:103D900085F8211201E010F8011F83420A44FAD18C
:103DA000D343606884F8603203682A495B6845221F
:103DB00098477EE70846FDF793FBF0E5DFF898C0EB
:103DC000DFF898E0BCE80F00AEE80F00BCE80F0099
:103DD000AEE80F00BCE80F00AEE80F009CE803005F
:103DE00000234FF003084FF0380CFF2285F82382A0
:103DF00085F824C24FF0FE084FF03D0C85F82532BF
:103E000085F8263285F827328EE80300C22085F82F
:103E10001C220722AEF1370185F81F3285F82232C5
:103E20000EF1070E85F81D8285F81EC285F8200266
:103E300085F8212201E011F8012F71451344FAD1D0
:103E4000DB43606884F86032036802495B6845229E
:103E500098476BE6701FFF1F809200007C1FFF1FBA
:103E60002DE9F04F8DB0C84AC84B06920022044697
:103E700000F5836600F27C45ADF81C200B92089398
:103E800009930A9356F8043F002B00F0C28058684B
:103E90001F6801689A6808978B68ADF81C209847DE
:103EA0003368099058680368DB689847236831686D
:103EB0000A904FF400721B68D1F810800B92B44A3C
:103EC0009342824640F08C81B8F1630F04DD94F890
:103ED000F834002B00F09D80BDF81C30DDF82090F8
:103EE00084F823321B0A84F82432484604F028FE62
:103EF00007463B0E3A0C000A494684F8283284F8FB
:103F0000257284F8260284F8272204F229203A46F2
:103F100001F050FBDDF824B0584604F011FE04F225
:103F20002329791D024606374944002322FA03F06B
:103F30000833202B01F8010FF8D10437594609EB5B
:103F40000700174401F036FB504604F0F9FD09EB79
:103F50000703834600222BFA02F10832202A03F8D5
:103F6000011BF8D10437514609EB07005A4601F00E
:103F700021FB0BEB07031F1D09EB03015FFA87FA17
:103F8000C7F3072C00220AEB0C0E4FF0020B09F8C6
:103F900003206FEA0E0E8A70CA7081F801B0FF200C
:103FA0005FFA88F14FF0FE0948F30728B7F1FF3FA9
:103FB00084F820E284F81EA284F81FC284F81C0250
:103FC00084F81D9284F8211284F82282C0F2B48110
:103FD00003F22623E01804F2212301E013F8011F65
:103FE00098420A44FAD1D243D2B2E31907F1080148
:103FF000B1F5007F83F8232200F306816768654AE4
:104000003B685B68934204F5077040F0F38002F070
:10401000E9FDAE427FF436AFDFF8749104F59C6899
:1040200055F8040F002800F0D280816803684268C8
:104030000891ADF81C209B6898472B6809901A6876
:104040001846D36898472B6821680A901A680E684A
:1040500052684FF4007118460B9190474E45074641
:1040600040F0C380632804DD94F8F834002B00F09E
:10407000AE80BDF81C30089E84F823321B0A84F8F9
:104080002432304604F05CFD82464FEA1A634FEA60
:104090001A42000A314684F8283284F825A284F8AE
:1040A000260284F8272204F22920524601F082FADF
:1040B00009990191084604F043FD04F223260AF110
:1040C0000502019983460AF1060A324400232BFABD
:1040D00003F00833202B02F8010FF8D10AF1040A8B
:1040E0005A4606EB0A0001F065FA0A990191084662
:1040F00004F026FDD3440199824606EB0B0300220F
:104100002AFA02F00832202A03F8010BF8D10BF149
:10411000040B06EB0B00524601F04CFA0AEB0B03C2
:104120001A1D0B99F1545FFA82FCC2F3072E1E444C
:104130000CEB0E004FEA112B4FEA114AC043090E57
:1041400086F801B086F802A0F1704FF0FF0BF9B2CB
:104150004FF0FE0A47F3072784F82002501C84F82A
:104160001EC284F81FE284F81CB284F81DA284F8F1
:10417000211284F8227218DB03F22623E6180020AD
:1041800004F221230AE000BF948F0000B8920000DF
:10419000ED2600004909000013F8011FB34208444E
:1041A000FAD16FEA000B5FFA8BFBA31802F108014A
:1041B000B1F5007F83F823B271DC6668654A336825
:1041C0005B68934204F5077019D102F00BFDA84516
:1041D0007FF426AF012384F8F8340DB0BDE8F08FEA
:1041E000414606AA2046984713E7014606AA2046FC
:1041F000B047ECE70A4601463846984709E70A46C1
:10420000014630469847E2E7534A03920321534A56
:10421000236805928DF810101B68514A934240F0B4
:1042200086800027382284F8231284F824224B4900
:1042300084F8257284F8267284F8277204F50A70CF
:1042400001F0B8F9FF213D20C2234FF0FE0E84F8A3
:104250001C12072184F81E0284F8203284F81F7291
:1042600084F822723A4684F81DE284F8211204F29E
:10427000212304F25F2001E013F8011F98420A4451
:10428000FAD1D243606884F860220368314A5B68DF
:10429000934204F5077159D108464521B7E62E4AE5
:1042A0000392032123682D4A05928DF810101B6894
:1042B0004B4546D10026382284F8231284F8242264
:1042C000264984F8256284F8266284F8276204F57A
:1042D0000A7001F06FF9FF213D20C223FE2784F808
:1042E0001C12072184F81E0284F8203284F81F6211
:1042F00084F82262324684F81D7284F8211204F296
:10430000212304F25F2001E013F8011F83420A44D5
:10431000FAD1D243606884F8602203680D4A5B6872
:10432000934204F5077109D1084645214DE703AAD8
:104330000721204698476CE6024656E645229847F4
:1043400045E703AA07212046984740E745229847BA
:104350005FE600BF49090000AC8F000080920000BA
:10436000ED2600002DE9F04FBB4E93B03368069365
:10437000069DD0F8003542F6F822EB1A934284BF2E
:10438000002380F8F834D0F8E434044633B1D0F890
:104390000435AB423CBF0023C0F8E434AF4FDFF834
:1043A000D092A26932B133680793079B5B1B9A4294
:1043B000C0F01B81606803685B69BB4266D102F094
:1043C000ABFB002865DBD4F8F434D4F8E4240344D0
:1043D000072AC4F8F43447D082B9FF2869D033687B
:1043E0000893089B41F288315B1B8B42D9D984F832
:1043F000F8246FF0010013B0BDE8F08F012A60D0FF
:10440000022A00F0B680032A00F0BE80042A00F0E1
:10441000C580052A00F0D280062A00F0D780082A3D
:10442000BFD18F4A1A4000239A42C4F8E434C0F244
:104430004D81FF2AB5D1D4F8EC34002B00F0D082A6
:104440000A2B00F07A82062B00F053810B2B00F030
:104450004281BC3354F823000028A2D0036804F141
:104460001C011B6898479CE7D4F8F034E21801332C
:10447000C4F8F0341077D4F8E834013BC4F8E834D9
:10448000002B8ED10823C4F8E4348AE7984700282B
:1044900099DA94F8F8040028ADD0D4F8FC3440F64A
:1044A000C412EB1A934200F2A580002013B0BDE8BD
:1044B000F08F012205F11403C4F8E424C4F8043594
:1044C0006FE7FE2876D094F8F8240023C4F8E4348B
:1044D000002A7FF466AF634923680F911B68624925
:1044E00010928B42119240F0E780FF210820F723C1
:1044F0004FF0FE0E84F81C120A2184F81E0284F884
:10450000203284F8232284F8242284F8252284F897
:10451000262284F8272284F8282284F8292284F885
:104520002A2284F81F2284F8222284F81DE284F8CB
:10453000211204F2212304F22A2001E013F8011FC2
:1045400098420A44FAD1D243D4F804E084F82B22EA
:10455000DEF80030454A5B68934204F5077040F08E
:10456000B080102102F03EFB33680993099BE360A1
:1045700017E700220323C4F8E804C4F8F404C4F8DD
:10458000F024C4F8E4340CE7D4F8E83403EB00205A
:104590000423C4F8E804C4F8E43402E7304A1A40BB
:1045A000002AC0F28480FF2A0CBF05230023C4F830
:1045B000E434F6E60223C4F8E434F2E60623C4F851
:1045C000EC04C4F8F404C4F8E434EAE6D4F8EC34B7
:1045D000D4F8E82403EB00230721C4F8EC34C4F832
:1045E000E414002A3FF44EAFDBE66FF0010013B095
:1045F000BDE8F08F1B4A23680F921B681A490022FE
:104600008B42109211926AD1FF210820F723FE27D6
:1046100084F81C120A2184F81E0284F8203284F8DF
:10462000232284F8242284F8252284F8262284F880
:10463000272284F8282284F8292284F82A2284F860
:104640001F2284F8222284F81D7284F8211204F2B9
:10465000212304F22A200FE0E42AFF1F5109000061
:10466000FF0000807C8F0000ED260000490900005B
:1046700040420F0013F8011F83420A44FAD1D2438B
:10468000676884F82B223B68D24A5B68934204F542
:10469000077029D1102102F0A5FA33680B930B9B08
:1046A000C4F8FC540020E36013B0BDE8F08F013A79
:1046B00062F0FF02013276E70FAA0A2120469847EE
:1046C00052E701461022704698474DE7013A62F0E2
:1046D000FF020132ADE6002384F8F83461E60FAA48
:1046E0000A2120469847D8E70146102238469847C5
:1046F000D3E7227F637F94F81E80E17F42EA0323A1
:1047000043EA0843D4F8102543EA0168904504F1D0
:104710001C0B07D94FEA8801D4F8180503F028FECE
:10472000C4F81805C4F81085B8F1000F00F07381C3
:1047300004F21453019300230295D84625464FF006
:10474000040A1C4698F8062098F8050098F804100A
:1047500098F807E0120442EA00220A43D5F8180547
:10476000019942EA0E62C5F8142500EB8400042288
:1047700000F020FFD5F810250134A242504608F180
:1047800004080AF1040ADDD800F10901019100F1E1
:104790000B012C4600F10802029D029100F10C0170
:1047A000CDF80CA0134600F1050E00F1060C00F147
:1047B000070800F10A0A04911BF80C0003991BF882
:1047C0000EE01BF801C01BF80880D4F81C1500048B
:1047D00040EA0E2040EA0C0C4CEA086888450BD9E8
:1047E0004FEA8801D4F824050593039203F0C0FD35
:1047F000059B039AC4F82405C4F81C85B8F1000F82
:1048000000F0068104F5A462019204F20C520395B3
:104810000BEB030A25464FF0000802921C469AF85B
:1048200002009AF801209AF800109AF803E0029B1F
:10483000000440EA02220A43D5F82405019942EA1D
:104840000E625A6100EB8800042200F0B3FED5F836
:104850001C2508F10108424521460AF1040A04F129
:104860000404DCD823461A464B1D2C460193039DB5
:10487000CB1D01F1060A029301F10808019B1BF808
:104880000A001BF803101BF80230029A00041BF800
:1048900002A0D4F8282540EA01210B4343EA0A6A22
:1048A000924507D94FEA8A01D4F8300503F060FD3C
:1048B000C4F83005C4F828A5BAF1000F39D004F2C5
:1048C0002C534FF0000A019300239E460BEB080186
:1048D00011F8012B9A400833202B4EEA020EF7D133
:1048E00008F104018E4471450AD208F103035B44C8
:1048F0000A46013213F8010F03F8010C7245F8D390
:104900000BEB0E024B1E4FF0000102F8011CD4F815
:10491000300501995B44C4F82C3500EB8A00042271
:10492000F04600F047FED4F828350AF1010A534555
:10493000CAD8012384F8083533E533680C930C9802
:1049400094F8202094F82110336894F81D8094F88E
:104950001CA00E93E36894F81EE094F81FB042EA9E
:10496000012C94F822101C4AC01A4AEA082394F831
:1049700023A0A2FB00824CEA014143EA0E4EDFF87D
:104980005C800E9B41EA0A6A4EEA0B61D04401F159
:10499000FF3A11494FF47A7CA1FB031E92090CFBEC
:1049A00012004FEA9E1E09FB00800CFB1E332146BD
:1049B000524409FB1303CEEB0202226104F1100002
:1049C00041F8143F00F0E2FD33680D930D9BC4F8ED
:1049D0000035E6E449090000D34D621000CA9A3B55
:1049E000226816490F91109311930A2113682046EB
:1049F0000FAA984733680A930A9BE3602046FFF7A3
:104A00002FFAC4F8FC54C4F800554FF0FF30F2E41C
:104A1000DDF8108032E70C2104910B21029109216D
:104A200008220191042113464FF00A0A4FF00708AB
:104A30004FF0060C4FF0050E0391BDE67C8F000091
:104A4000F8B56B486B4D6C4E00F076FD6B4B2B60F0
:104A500000244FF461434FF40077AB6021463A469F
:104A60006E6005F11C00EC602C616C61AC61642629
:104A700003F02CFC3A46214605F5077003F026FCAE
:104A80002146324605F21C4003F020FC3246214606
:104A900005F5906003F01AFC5948C5F8E444C5F8E0
:104AA000E844C5F8EC44C5F8F044C5F8F44485F88A
:104AB000F844C5F8FC44C5F80045C5F8044585F838
:104AC0000845C5F81045C5F81445C5F81845C5F89A
:104AD0001C45C5F82445C5F82845C5F82C45C5F83A
:104AE0003045C5F80C0505F5A46500234549464A3F
:104AF000DFF88CE1454E464F2B60464DDFF884C110
:104B000045488C800F605160CEF800504349444DB9
:104B1000146111603560434A4349444DCCF800703C
:104B2000ACF80440CEF804C0CEF8104073600560C5
:104B3000466004613E483F4DDFF84CE11060536031
:104B40009360D3604A6013613B4A3C483C4E0C6121
:104B50000A603C49CEF8045029606B60AB60EB60A2
:104B6000394D3A4ACEF81040CEF800507060DFF868
:104B70001CE1016043608360C3603548354D34619A
:104B800030603548354ECEF8042011605360936094
:104B9000D360334ACEF81040CEF800202960314A65
:104BA0006B60DFF8ECC0C76004822F4F7560346122
:104BB000AB600124EB60DFF8DCE02C4D37608560F2
:104BC0002B4FC0F800C0C0F814E02A4E2A4D846173
:104BD0002A485463116153619361D3611162536236
:104BE0009362D3621760D66015639060F8BD00BF12
:104BF000581CFF1F541DFF1F240BFF1F5490000063
:104C0000C48F0000DC1CFF1F5814FF1FB82AFF1FB1
:104C1000DC8F000078930000682AFF1F6C9300006F
:104C2000F48F0000982AFF1F0C1DFF1F84930000C3
:104C3000249000007814FF1F90930000901CFF1F29
:104C4000E41CFF1F0C900000A0930000801CFF1FBD
:104C5000A89300003C14FF1F7C2AFF1FC02AFF1FDF
:104C6000B4930000A41CFF1FBC930000D493000069
:104C7000689000003C900000692C0000CC9300007C
:104C8000381DFF1FD42AFF1F681CFF1FF81CFF1FC1
:104C900080900000F92A000090F8392090F8380040
:104CA000101A704790F8383090F839209A4205D998
:104CB0005A1C034480F83820187E70474FF0FF30AC
:104CC000704700BF2DE9F04FDFF844A14E4DDAF8F0
:104CD00000608DB09946179C099606900791DDF803
:104CE00024B0BDF858600492002C08BF2C46002A5E
:104CF00076D04300202A1046DBB2A8BF2022434FC3
:104D0000DFF81081059203930292019000259DF82F
:104D10000C2084F83B20236807994FF0010284F8A7
:104D20005E2084F85D201B682046984701212046BC
:104D300000F054FA9DF80C3084F83B304FF001033A
:104D400084F85E3084F85D30019B06991F2BD4BF38
:104D5000DAB220220123204600F0CAFA23681B6938
:104D6000BB4226D194F8393094F83800181A20B391
:104D70003EB1DAF800300A930A9BCBEB0303B3424F
:104D80001BD223685B69434509EB050220D194F8E7
:104D9000383094F83910994220D9591C234484F8AA
:104DA0003810187E107023681B690135BB426DB244
:104DB000D8D0204698470028DAD1019A059B04995B
:104DC000D21A0192029A8A4213440ADA02939EE7A7
:104DD000009220469847009AC0B2E3E7FF20E1E73F
:104DE000049D66B1DAF800300B930B9BCBEB030B01
:104DF000B34504D3049B9D42B8BF4FF0FF3528460E
:104E00000DB0BDE8F08F00BF8C08FF1F994C00006B
:104E1000E42AFF1FA54C000070B5049D134C002D23
:104E200008BF254640002C6885F83B00012085F826
:104E30005E0085F85D001646284622681C469047AD
:104E40005EB1013E54FA86F6013C2B6814F8011F4E
:104E50001B6828469847B442F7D12846012100F044
:104E6000BDF9B0FA80F0400970BD00BF8C08FF1F8B
:104E70002DE9F041144C84B024880A9D0094984692
:104E800014460DF10E030122019506460F46FFF769
:104E900019FF01229DF80E3002FA04F4B8F1000F58
:104EA0000FD123EA040404AB0095394603F8014D01
:104EB000304601228DF80E40FFF7AEFF04B0BDE88A
:104EC000F0811C43E4B2EEE71C08FF1F2DE9F0431C
:104ED000194C85B024880D9D009491469846019503
:104EE0000DF10E03012206460F469DF83040FFF7F4
:104EF000E9FEE8B1C8EB09090122914402FA08F879
:104F000004FA09F108F1FF339DF80E40009503FA09
:104F100009F8C9B201EA080124EA080404AB0C4309
:104F200003F8014D394630468DF80E40FFF774FF07
:104F300005B0BDE8F08300BF1C08FF1F00207047CC
:104F400090F8383090F839209A4286BF1B18187EA6
:104F50004FF0FF30704700BF704700BF38B50546BF
:104F6000B0F85E0090B195F85D301446C3F12102AF
:104F700094420CD805F13B001844224600F01AFB7D
:104F800095F85D30234485F85D30204638BD01201A
:104F900014462871EEE700BFB0F85E306BB190F8B0
:104FA0005D30202B07D8C218013380F85D30012016
:104FB00082F83B107047012303710020704700BF47
:104FC00038B50269D478E4B2E106054624D5102349
:104FD000D37063061FD504F0040404F0FF03002C13
:104FE0005AD042496A6E00230B7085F85D30002A62
:104FF00066D0904795F85D30002B61D02B69D022A8
:105000009A702B6995F83B201A712B69012285F85B
:105010005C200222DA7038BD04F0400303F0FF0088
:10502000002BD8D19379DBB203F0600160294ED018
:10503000937803F0100303F0FF01B3B114F00104FF
:1050400037D195F85C3095F85D1099424BD9591CD1
:105050002B4485F85C1093F83B3013712B69D022F8
:105060009A702B690222DA70D5E785F8601093797F
:1050700043F0200393712B6995F839101A791F2991
:10508000D2B2C6D8194800780028C2D068180131B9
:1050900085F839100276BCE72A6985F83930C023D3
:1050A00093702B69114A1979012111700222DA706B
:1050B000B1E7C02393702B691A790222DA70AAE74C
:1050C0000122002385F85D2085F83B3096E703F048
:1050D000DF039371AB6E23B185F8380095F8390082
:1050E00098472A69A4E71471B8E700BFE02AFF1FB8
:1050F0002DE9F047374FDFF8E0903B68026982B056
:1051000006460093DDF8008000214FF49675D378B1
:105110009B065BD53B680193019BC8EB03030F2BF8
:10512000F5D949B1102BF2D000209070336980225C
:105130009A7002B0BDE8F087726996F86130134446
:105140000521187A00F01CFE726996F8613013444C
:10515000012193F812A0504600F012FE092400210C
:10516000504600F007FE2B46013BFDD10121504681
:1051700000F000FE2B46013BFDD1013CEFD17069F0
:1051800096F8611001444FF416720C7A4B7B09EBD0
:10519000C4011B02496803F4E06343F064030B603D
:1051A00096F862300344997CDB7D09EBC1011B0258
:1051B000496803F4E06343F064030B60013AFDD1F6
:1051C0003269D3789B064FF00101A3D4012002B0CD
:1051D000BDE8F087E42AFF1F84940000F0B503695E
:1051E0001222DA700269937803F0200385B0044636
:1051F0000D46002B5ED0B42393703C4922690B68A6
:105200000093009E05E00B680193019B9B1B042B00
:1052100042D8D37803F0200303F0FF00002BF2D034
:1052200094F85D30002B31D04FF0000E4FF0020C9F
:1052300004EB0E0393F83B3013710B680393039F49
:10524000206907E09B060DD50B680293029BDB1BD0
:10525000052B28D8C378DBB203F0020202F0FF0668
:10526000002AEFD080F803C02669F378DBB2DF06AE
:1052700032462DD49F062BD5DB0731D40EF1010E1B
:1052800094F85D305FFA8EFE7345D1D800201DBBC7
:10529000002384F85E3004E09070236980229A70C5
:1052A000042005B0F0BD86702369802204209A7026
:1052B00005B0F0BD03F0FF06FFF71AFF10B9042098
:1052C00005B0F0BD236984F85F60B0229A7094E75E
:1052D0008023B3700420DAE726698023B370D7E710
:1052E000BEF1000F0CBF02200320F6E7E42AFF1FE7
:1052F0002DE9F04106690025122780F8385080F822
:105300003950F770D0F810C09CF802E00EF0200E73
:1053100088B00446884615461E46BEF1000F49D0A7
:10532000B4238CF802307A4B21691A680092DDF8B8
:1053300000E006E01A6801920198CEEB0000042814
:1053400030D8C87800F0200000F0FF070028F1D026
:105350004FEA480242F00102D2B20A711A68029280
:10536000DDF808E0206906E01A6803920399CEEBA5
:10537000010105292AD8C17801F0020101F0FF07D7
:105380000029F1D04FF0020C80F803C02269D178D7
:1053900011F0110722D12DBB002E0CBFA0238023BA
:1053A000937003E08F70236980229A70384608B0AA
:1053B000BDE8F0810EF0FF07FFF79AFE0028F5D058
:1053C000236984F85F70B0229A70ACE78770236914
:1053D000802238469A7008B0BDE8F081802393702F
:1053E0000027E3E7012D78D0A021917021690A7987
:1053F000BE4667464FF0A80C1A680492049805E070
:105400001A680592059A121A052A4DD8CA7802F030
:10541000020202F0FF08002AF2D0CF702169CA7898
:10542000D2B212F0100F08465DD192065BD5013D55
:10543000EDB2012D4CD0BEF11F0F3ED90A79012DDE
:10544000DAD11A680692069D05E01A680792079A53
:10545000521B052A56D8C27802F0020202F0FF0160
:10546000002AF2D00223C3702269D378DBB2D906B6
:105470003BD49B0637D5B023BEF11F0F937043D8A2
:10548000226904EB0E0312791A760EF1010E5FFA0F
:105490008EFE00BF00BF00BF16B1236980229A7044
:1054A00084F839E0774681E781F802802369802219
:1054B0009A70774684F839E078E704EB0E0291F8A9
:1054C000048082F818800EF1010E5FFA8EFEB6E7B6
:1054D00081F802C021690846ADE7A82191702069D2
:1054E000BE460279ADE7774660E710214FF4967328
:1054F000D170013BFDD12269937803F0F703774621
:10550000937053E78170D1E723691B79C1E700BF2E
:10551000E42AFF1F0148FFF753BD00BF8C08FF1F9F
:105520000148FFF74DBD00BFF808FF1F0148FFF716
:1055300047BD00BF2008FF1F68230370704700BFEE
:1055400030B583B000240546234600780094062237
:105550006B21FFF78DFC012328780093019403232E
:1055600002226B21FFF7B2FC2878019400940223F9
:1055700004221B21FFF7AAFC28780194009402233F
:1055800004221C21FFF7A2FC03B030BD70B40D68EB
:10559000064B0468064E6A0AA3FB0232D3091C4478
:1055A00006FB135304600B6070BC7047834B040010
:1055B00000CA9A3B01B441EA000313F003036FD120
:1055C000403A41D351F8043B40F8043B51F8043BC6
:1055D00040F8043B51F8043B40F8043B51F8043BCD
:1055E00040F8043B51F8043B40F8043B51F8043BBD
:1055F00040F8043B51F8043B40F8043B51F8043BAD
:1056000040F8043B51F8043B40F8043B51F8043B9C
:1056100040F8043B51F8043B40F8043B51F8043B8C
:1056200040F8043B51F8043B40F8043B51F8043B7C
:1056300040F8043B51F8043B40F8043B51F8043B6C
:1056400040F8043B403ABDD2303211D351F8043B0C
:1056500040F8043B51F8043B40F8043B51F8043B4C
:1056600040F8043B51F8043B40F8043B103AEDD2BB
:105670000C3205D351F8043B40F8043B043AF9D20C
:1056800004320AD0D2071CBF11F8013B00F8013BDD
:1056900003D30B7803704B78437001BC704700BF95
:1056A0000C2A4AD310F0030311D0C3F10403D21A19
:1056B000DB071CBF11F8013B00F8013B07D311F8D1
:1056C000013B00F8013B11F8013B00F8013B11F0F0
:1056D00003033FF475AF30B4043AC91AC3F1040CA4
:1056E00051F8044B022B19D0032B0BD0240A51F88C
:1056F000043B1D0644EA050440F8044B1C46043AEA
:10570000F4D216E0240E51F8043B1D0244EA0504CD
:1057100040F8044B1C46043AF4D20AE0240C51F839
:10572000043B1D0444EA050440F8044B1C46043ABB
:10573000F4D20432B1EB0C0130BC043AA0D3013AEC
:1057400011F8013B00F8013BF9D20B7803704B785C
:1057500043708B78837001BC704700BF08B5104C54
:1057600008E0236859050DD423681A050FD423686F
:10577000DB0411D423685803F3D500F0EBFC236855
:105780005905F1D500F00EF823681A05EFD500F0A1
:1057900009F82368DB04EDD500F004F8EAE700BF60
:1057A0003480044008B5FFF7D9FF00BF014B102239
:1057B0001A80704700200540704700BF094908B5AE
:1057C0000B6830B16A461844A2F50052904202D2EA
:1057D0000860184608BD02F01FFA0C2303604FF062
:1057E000FF3008BD6409FF1F084A1378802B01D0E1
:1057F000002070470649074B0748086000211970D0
:105800001378802BFCD00120704700BF03E00740D5
:105810004480044001E0074000002822094A137830
:10582000012B01D00020704703F1804303F5FC23D6
:10583000602119701378802BFCD1034B034A1A6046
:105840000120704703E00740448004400000060246
:10585000704700BF10B4114B53F8302092F88042CB
:1058600034B1012379B182F880305DF8044B704780
:1058700003EBC0035B681A6851B922F002021A6098
:105880005DF8044B704782F800315DF8044B7047B7
:1058900042F003021A605DF8044B704784940000E4
:1058A0001C4A02EBC00301295B6811D004291BD0FC
:1058B00052F83000002280F8802229B1022920D03D
:1058C000032922D01A6070474FF480721A60704723
:1058D00052F830004FF4A27280F880121A601A68F1
:1058E00022F020021A60704752F830104FF4A27272
:1058F000012081F880021A601A6842F020021A60C2
:10590000704740F203121A6070474FF481721A60B8
:10591000704700BF849400003F2848D8F8B5042A97
:1059200044D8DFE802F0484B4E0345004FF4102600
:105930002B4B03EBC0030D465C68216811F4E0615A
:1059400048D0284B284A2949C3F82C2104F1404269
:105950002748C3F83411A2F59221264FC3F830012D
:105960007C292548C3F83871C3F83C012CD9A2F52D
:1059700094237C2B2AD9A2F596237C2B28D9A2F537
:1059800098237C2B29D9A2F59A227C2A27D81B4858
:1059900072B6236823F4702343F08072C4F3840149
:1059A0001643236040F82150266062B6F8BD704768
:1059B0004FF43026BCE74FF40026B9E74FF44026F9
:1059C000B6E74FF42026B3E70D48E1E70D48DFE7DF
:1059D0000D48DDE7FFF764FFB3E70C48D8E7F8BDF3
:1059E000849400000002FF1FE107FF1F8907FF1FCB
:1059F000B507FF1F5D07FF1F3107FF1FB00AFF1F1D
:105A00006809FF1FE009FF1F400AFF1F700AFF1F00
:105A100030B4054B054D064C002210211A602A6057
:105A20002060196030BC704714D0034004D003409C
:105A300000D0034038B5A0F14203012B044624D91D
:105A400000297ADD994B1B78012505FA03F28A4279
:105A500002D83F282CD938BDC21E012A30D9A0F166
:105A60001D02012A78D90E285BD9A4F12302032A4A
:105A70005CD9A4F11002012A94BF8D4A8D4A1268A4
:105A800002FB011222FA03F320E0884B1B780B2B58
:105A90000AD90C2B1CBF0C3B1941422C084657D08D
:105AA000BDE8384001F066BBC3F10C039940F4E750
:105AB0002946FFF7CFFE2946BDE83840FFF7F0BE84
:105AC0007D4A126802FB011222FA03F3A21E242A65
:105AD00000F2E380DFE812F0DA00D300CC00C5006A
